{
	"contracts/VotingCore.sol": {
		"Polls": {
			"abi": [
				{
					"inputs": [],
					"name": "AlreadyVoted",
					"type": "error"
				},
				{
					"inputs": [],
					"name": "EmptyOption",
					"type": "error"
				},
				{
					"inputs": [],
					"name": "EmptyTitle",
					"type": "error"
				},
				{
					"inputs": [],
					"name": "InvalidOption",
					"type": "error"
				},
				{
					"inputs": [],
					"name": "InvalidOptionsCount",
					"type": "error"
				},
				{
					"inputs": [],
					"name": "NotPollCreator",
					"type": "error"
				},
				{
					"inputs": [],
					"name": "PollAlreadyFinished",
					"type": "error"
				},
				{
					"inputs": [],
					"name": "PollInactive",
					"type": "error"
				},
				{
					"inputs": [],
					"name": "PollNotFound",
					"type": "error"
				},
				{
					"anonymous": false,
					"inputs": [
						{
							"indexed": true,
							"internalType": "uint256",
							"name": "pollId",
							"type": "uint256"
						},
						{
							"indexed": false,
							"internalType": "string",
							"name": "title",
							"type": "string"
						},
						{
							"indexed": true,
							"internalType": "address",
							"name": "creator",
							"type": "address"
						},
						{
							"indexed": false,
							"internalType": "uint256",
							"name": "timestamp",
							"type": "uint256"
						}
					],
					"name": "PollCreated",
					"type": "event"
				},
				{
					"anonymous": false,
					"inputs": [
						{
							"indexed": true,
							"internalType": "uint256",
							"name": "pollId",
							"type": "uint256"
						},
						{
							"indexed": true,
							"internalType": "address",
							"name": "creator",
							"type": "address"
						},
						{
							"indexed": false,
							"internalType": "uint256",
							"name": "timestamp",
							"type": "uint256"
						}
					],
					"name": "PollFinished",
					"type": "event"
				},
				{
					"anonymous": false,
					"inputs": [
						{
							"indexed": true,
							"internalType": "uint256",
							"name": "pollId",
							"type": "uint256"
						},
						{
							"indexed": true,
							"internalType": "uint256",
							"name": "optionIndex",
							"type": "uint256"
						},
						{
							"indexed": true,
							"internalType": "address",
							"name": "voter",
							"type": "address"
						},
						{
							"indexed": false,
							"internalType": "uint256",
							"name": "timestamp",
							"type": "uint256"
						}
					],
					"name": "VoteRegistered",
					"type": "event"
				},
				{
					"inputs": [
						{
							"internalType": "string",
							"name": "_title",
							"type": "string"
						},
						{
							"internalType": "string[]",
							"name": "_options",
							"type": "string[]"
						}
					],
					"name": "createPoll",
					"outputs": [
						{
							"internalType": "uint256",
							"name": "",
							"type": "uint256"
						}
					],
					"stateMutability": "nonpayable",
					"type": "function"
				},
				{
					"inputs": [
						{
							"internalType": "uint256",
							"name": "_pollId",
							"type": "uint256"
						}
					],
					"name": "finishPoll",
					"outputs": [],
					"stateMutability": "nonpayable",
					"type": "function"
				},
				{
					"inputs": [
						{
							"internalType": "uint256",
							"name": "_pollId",
							"type": "uint256"
						}
					],
					"name": "getAllPollOptions",
					"outputs": [
						{
							"internalType": "string[]",
							"name": "descriptions",
							"type": "string[]"
						},
						{
							"internalType": "uint256[]",
							"name": "voteCounts",
							"type": "uint256[]"
						}
					],
					"stateMutability": "view",
					"type": "function"
				},
				{
					"inputs": [
						{
							"internalType": "uint256",
							"name": "_pollId",
							"type": "uint256"
						}
					],
					"name": "getPollInfo",
					"outputs": [
						{
							"internalType": "string",
							"name": "title",
							"type": "string"
						},
						{
							"internalType": "address",
							"name": "creator",
							"type": "address"
						},
						{
							"internalType": "bool",
							"name": "isActive",
							"type": "bool"
						},
						{
							"internalType": "uint256",
							"name": "optionsCount",
							"type": "uint256"
						},
						{
							"internalType": "uint256",
							"name": "totalVotes",
							"type": "uint256"
						},
						{
							"internalType": "uint256",
							"name": "createdAt",
							"type": "uint256"
						}
					],
					"stateMutability": "view",
					"type": "function"
				},
				{
					"inputs": [
						{
							"internalType": "uint256",
							"name": "_pollId",
							"type": "uint256"
						},
						{
							"internalType": "uint256",
							"name": "_optionIndex",
							"type": "uint256"
						}
					],
					"name": "getPollOption",
					"outputs": [
						{
							"internalType": "string",
							"name": "description",
							"type": "string"
						},
						{
							"internalType": "uint256",
							"name": "voteCount",
							"type": "uint256"
						}
					],
					"stateMutability": "view",
					"type": "function"
				},
				{
					"inputs": [
						{
							"internalType": "uint256",
							"name": "_pollId",
							"type": "uint256"
						}
					],
					"name": "getPollResults",
					"outputs": [
						{
							"internalType": "string[]",
							"name": "descriptions",
							"type": "string[]"
						},
						{
							"internalType": "uint256[]",
							"name": "voteCounts",
							"type": "uint256[]"
						},
						{
							"internalType": "uint256[]",
							"name": "percentages",
							"type": "uint256[]"
						}
					],
					"stateMutability": "view",
					"type": "function"
				},
				{
					"inputs": [],
					"name": "getTotalPolls",
					"outputs": [
						{
							"internalType": "uint256",
							"name": "",
							"type": "uint256"
						}
					],
					"stateMutability": "view",
					"type": "function"
				},
				{
					"inputs": [
						{
							"internalType": "address",
							"name": "_creator",
							"type": "address"
						}
					],
					"name": "getUserPolls",
					"outputs": [
						{
							"internalType": "uint256[]",
							"name": "",
							"type": "uint256[]"
						}
					],
					"stateMutability": "view",
					"type": "function"
				},
				{
					"inputs": [
						{
							"internalType": "uint256",
							"name": "_pollId",
							"type": "uint256"
						},
						{
							"internalType": "address",
							"name": "_voter",
							"type": "address"
						}
					],
					"name": "getVoterChoice",
					"outputs": [
						{
							"internalType": "uint256",
							"name": "",
							"type": "uint256"
						}
					],
					"stateMutability": "view",
					"type": "function"
				},
				{
					"inputs": [
						{
							"internalType": "uint256",
							"name": "_pollId",
							"type": "uint256"
						},
						{
							"internalType": "address",
							"name": "_voter",
							"type": "address"
						}
					],
					"name": "hasUserVoted",
					"outputs": [
						{
							"internalType": "bool",
							"name": "",
							"type": "bool"
						}
					],
					"stateMutability": "view",
					"type": "function"
				},
				{
					"inputs": [
						{
							"internalType": "uint256",
							"name": "_pollId",
							"type": "uint256"
						},
						{
							"internalType": "uint256",
							"name": "_optionIndex",
							"type": "uint256"
						}
					],
					"name": "vote",
					"outputs": [],
					"stateMutability": "nonpayable",
					"type": "function"
				}
			],
			"devdoc": {
				"author": "Your Name",
				"details": "A smart contract for creating and managing decentralized polls",
				"kind": "dev",
				"methods": {
					"createPoll(string,string[])": {
						"details": "Creates a new poll",
						"params": {
							"_options": "Array of voting options (2-6 options allowed)",
							"_title": "The title of the poll"
						}
					},
					"finishPoll(uint256)": {
						"details": "Finish a poll (only creator can call this)",
						"params": {
							"_pollId": "The ID of the poll to finish"
						}
					},
					"getAllPollOptions(uint256)": {
						"details": "Get all options for a poll",
						"params": {
							"_pollId": "The ID of the poll"
						},
						"returns": {
							"descriptions": "Array of option descriptions",
							"voteCounts": "Array of vote counts for each option"
						}
					},
					"getPollInfo(uint256)": {
						"details": "Get basic poll information",
						"params": {
							"_pollId": "The ID of the poll"
						},
						"returns": {
							"createdAt": "Timestamp when poll was created",
							"creator": "The poll creator address",
							"isActive": "Whether the poll is active",
							"optionsCount": "Number of voting options",
							"title": "The poll title",
							"totalVotes": "Total number of votes cast"
						}
					},
					"getPollOption(uint256,uint256)": {
						"details": "Get specific poll option details",
						"params": {
							"_optionIndex": "The index of the option",
							"_pollId": "The ID of the poll"
						},
						"returns": {
							"description": "The option description",
							"voteCount": "Number of votes for this option"
						}
					},
					"getPollResults(uint256)": {
						"details": "Get poll results with percentages",
						"params": {
							"_pollId": "The ID of the poll  "
						},
						"returns": {
							"descriptions": "Array of option descriptions",
							"percentages": "Array of vote percentages (scaled by 100)",
							"voteCounts": "Array of vote counts"
						}
					},
					"getTotalPolls()": {
						"details": "Get the total number of polls created",
						"returns": {
							"_0": "The total poll count"
						}
					},
					"getUserPolls(address)": {
						"details": "Get polls created by a specific user",
						"params": {
							"_creator": "The address of the creator"
						},
						"returns": {
							"_0": "Array of poll IDs created by the user"
						}
					},
					"getVoterChoice(uint256,address)": {
						"details": "Get the choice made by a voter",
						"params": {
							"_pollId": "The ID of the poll",
							"_voter": "The address of the voter"
						},
						"returns": {
							"_0": "The option index chosen by the voter"
						}
					},
					"hasUserVoted(uint256,address)": {
						"details": "Check if an address has voted on a specific poll",
						"params": {
							"_pollId": "The ID of the poll",
							"_voter": "The address to check"
						},
						"returns": {
							"_0": "Whether the address has voted"
						}
					},
					"vote(uint256,uint256)": {
						"details": "Vote on a specific poll option",
						"params": {
							"_optionIndex": "The index of the chosen option",
							"_pollId": "The ID of the poll"
						}
					}
				},
				"title": "Pollify - Decentralized Polling System",
				"version": 1
			},
			"evm": {
				"assembly": "    /* \"contracts/VotingCore.sol\":215:10354  contract Polls {... */\n  mstore(0x40, 0x80)\n  callvalue\n  dup1\n  iszero\n  tag_1\n  jumpi\n  0x00\n  dup1\n  revert\ntag_1:\n  pop\n  dataSize(sub_0)\n  dup1\n  dataOffset(sub_0)\n  0x00\n  codecopy\n  0x00\n  return\nstop\n\nsub_0: assembly {\n        /* \"contracts/VotingCore.sol\":215:10354  contract Polls {... */\n      mstore(0x40, 0x80)\n      callvalue\n      dup1\n      iszero\n      tag_1\n      jumpi\n      0x00\n      dup1\n      revert\n    tag_1:\n      pop\n      jumpi(tag_2, lt(calldatasize, 0x04))\n      shr(0xe0, calldataload(0x00))\n      dup1\n      0x3ef87d54\n      gt\n      tag_14\n      jumpi\n      dup1\n      0x3ef87d54\n      eq\n      tag_8\n      jumpi\n      dup1\n      0x728d4388\n      eq\n      tag_9\n      jumpi\n      dup1\n      0x7e3d71c3\n      eq\n      tag_10\n      jumpi\n      dup1\n      0xb384abef\n      eq\n      tag_11\n      jumpi\n      dup1\n      0xc4bd10d9\n      eq\n      tag_12\n      jumpi\n      dup1\n      0xdc296ae1\n      eq\n      tag_13\n      jumpi\n      jump(tag_2)\n    tag_14:\n      dup1\n      0x07f790e7\n      eq\n      tag_3\n      jumpi\n      dup1\n      0x0eac27f4\n      eq\n      tag_4\n      jumpi\n      dup1\n      0x29b8f44a\n      eq\n      tag_5\n      jumpi\n      dup1\n      0x29c47709\n      eq\n      tag_6\n      jumpi\n      dup1\n      0x33b4097b\n      eq\n      tag_7\n      jumpi\n    tag_2:\n      0x00\n      dup1\n      revert\n        /* \"contracts/VotingCore.sol\":8582:8744  function getUserPolls(address _creator) ... */\n    tag_3:\n      tag_15\n      0x04\n      dup1\n      calldatasize\n      sub\n      dup2\n      add\n      swap1\n      tag_16\n      swap2\n      swap1\n      tag_17\n      jump\t// in\n    tag_16:\n      tag_18\n      jump\t// in\n    tag_15:\n      mload(0x40)\n      tag_19\n      swap2\n      swap1\n      tag_20\n      jump\t// in\n    tag_19:\n      mload(0x40)\n      dup1\n      swap2\n      sub\n      swap1\n      return\n        /* \"contracts/VotingCore.sol\":8012:8401  function getVoterChoice(uint256 _pollId, address _voter) ... */\n    tag_4:\n      tag_21\n      0x04\n      dup1\n      calldatasize\n      sub\n      dup2\n      add\n      swap1\n      tag_22\n      swap2\n      swap1\n      tag_23\n      jump\t// in\n    tag_22:\n      tag_24\n      jump\t// in\n    tag_21:\n      mload(0x40)\n      tag_25\n      swap2\n      swap1\n      tag_26\n      jump\t// in\n    tag_25:\n      mload(0x40)\n      dup1\n      swap2\n      sub\n      swap1\n      return\n        /* \"contracts/VotingCore.sol\":4811:5484  function getPollInfo(uint256 _pollId) ... */\n    tag_5:\n      tag_27\n      0x04\n      dup1\n      calldatasize\n      sub\n      dup2\n      add\n      swap1\n      tag_28\n      swap2\n      swap1\n      tag_29\n      jump\t// in\n    tag_28:\n      tag_30\n      jump\t// in\n    tag_27:\n      mload(0x40)\n      tag_31\n      swap7\n      swap6\n      swap5\n      swap4\n      swap3\n      swap2\n      swap1\n      tag_32\n      jump\t// in\n    tag_31:\n      mload(0x40)\n      dup1\n      swap2\n      sub\n      swap1\n      return\n        /* \"contracts/VotingCore.sol\":3869:4370  function finishPoll(uint256 _pollId) external {... */\n    tag_6:\n      tag_33\n      0x04\n      dup1\n      calldatasize\n      sub\n      dup2\n      add\n      swap1\n      tag_34\n      swap2\n      swap1\n      tag_29\n      jump\t// in\n    tag_34:\n      tag_35\n      jump\t// in\n    tag_33:\n      stop\n        /* \"contracts/VotingCore.sol\":9245:10351  function getPollResults(uint256 _pollId) ... */\n    tag_7:\n      tag_36\n      0x04\n      dup1\n      calldatasize\n      sub\n      dup2\n      add\n      swap1\n      tag_37\n      swap2\n      swap1\n      tag_29\n      jump\t// in\n    tag_37:\n      tag_38\n      jump\t// in\n    tag_36:\n      mload(0x40)\n      tag_39\n      swap4\n      swap3\n      swap2\n      swap1\n      tag_40\n      jump\t// in\n    tag_39:\n      mload(0x40)\n      dup1\n      swap2\n      sub\n      swap1\n      return\n        /* \"contracts/VotingCore.sol\":8858:8952  function getTotalPolls() external view returns (uint256) {... */\n    tag_8:\n      tag_41\n      tag_42\n      jump\t// in\n    tag_41:\n      mload(0x40)\n      tag_43\n      swap2\n      swap1\n      tag_26\n      jump\t// in\n    tag_43:\n      mload(0x40)\n      dup1\n      swap2\n      sub\n      swap1\n      return\n        /* \"contracts/VotingCore.sol\":6558:7303  function getAllPollOptions(uint256 _pollId) ... */\n    tag_9:\n      tag_44\n      0x04\n      dup1\n      calldatasize\n      sub\n      dup2\n      add\n      swap1\n      tag_45\n      swap2\n      swap1\n      tag_29\n      jump\t// in\n    tag_45:\n      tag_46\n      jump\t// in\n    tag_44:\n      mload(0x40)\n      tag_47\n      swap3\n      swap2\n      swap1\n      tag_48\n      jump\t// in\n    tag_47:\n      mload(0x40)\n      dup1\n      swap2\n      sub\n      swap1\n      return\n        /* \"contracts/VotingCore.sol\":1749:2797  function createPoll(string memory _title, string[] memory _options) ... */\n    tag_10:\n      tag_49\n      0x04\n      dup1\n      calldatasize\n      sub\n      dup2\n      add\n      swap1\n      tag_50\n      swap2\n      swap1\n      tag_51\n      jump\t// in\n    tag_50:\n      tag_52\n      jump\t// in\n    tag_49:\n      mload(0x40)\n      tag_53\n      swap2\n      swap1\n      tag_26\n      jump\t// in\n    tag_53:\n      mload(0x40)\n      dup1\n      swap2\n      sub\n      swap1\n      return\n        /* \"contracts/VotingCore.sol\":2968:3735  function vote(uint256 _pollId, uint256 _optionIndex) external {... */\n    tag_11:\n      tag_54\n      0x04\n      dup1\n      calldatasize\n      sub\n      dup2\n      add\n      swap1\n      tag_55\n      swap2\n      swap1\n      tag_56\n      jump\t// in\n    tag_55:\n      tag_57\n      jump\t// in\n    tag_54:\n      stop\n        /* \"contracts/VotingCore.sol\":5759:6328  function getPollOption(uint256 _pollId, uint256 _optionIndex) ... */\n    tag_12:\n      tag_58\n      0x04\n      dup1\n      calldatasize\n      sub\n      dup2\n      add\n      swap1\n      tag_59\n      swap2\n      swap1\n      tag_56\n      jump\t// in\n    tag_59:\n      tag_60\n      jump\t// in\n    tag_58:\n      mload(0x40)\n      tag_61\n      swap3\n      swap2\n      swap1\n      tag_62\n      jump\t// in\n    tag_61:\n      mload(0x40)\n      dup1\n      swap2\n      sub\n      swap1\n      return\n        /* \"contracts/VotingCore.sol\":7522:7800  function hasUserVoted(uint256 _pollId, address _voter) ... */\n    tag_13:\n      tag_63\n      0x04\n      dup1\n      calldatasize\n      sub\n      dup2\n      add\n      swap1\n      tag_64\n      swap2\n      swap1\n      tag_23\n      jump\t// in\n    tag_64:\n      tag_65\n      jump\t// in\n    tag_63:\n      mload(0x40)\n      tag_66\n      swap2\n      swap1\n      tag_67\n      jump\t// in\n    tag_66:\n      mload(0x40)\n      dup1\n      swap2\n      sub\n      swap1\n      return\n        /* \"contracts/VotingCore.sol\":8582:8744  function getUserPolls(address _creator) ... */\n    tag_18:\n        /* \"contracts/VotingCore.sol\":8675:8691  uint256[] memory */\n      0x60\n        /* \"contracts/VotingCore.sol\":8717:8726  userPolls */\n      0x01\n        /* \"contracts/VotingCore.sol\":8717:8736  userPolls[_creator] */\n      0x00\n        /* \"contracts/VotingCore.sol\":8727:8735  _creator */\n      dup4\n        /* \"contracts/VotingCore.sol\":8717:8736  userPolls[_creator] */\n      0xffffffffffffffffffffffffffffffffffffffff\n      and\n      0xffffffffffffffffffffffffffffffffffffffff\n      and\n      dup2\n      mstore\n      0x20\n      add\n      swap1\n      dup2\n      mstore\n      0x20\n      add\n      0x00\n      keccak256\n        /* \"contracts/VotingCore.sol\":8710:8736  return userPolls[_creator] */\n      dup1\n      sload\n      dup1\n      0x20\n      mul\n      0x20\n      add\n      mload(0x40)\n      swap1\n      dup2\n      add\n      0x40\n      mstore\n      dup1\n      swap3\n      swap2\n      swap1\n      dup2\n      dup2\n      mstore\n      0x20\n      add\n      dup3\n      dup1\n      sload\n      dup1\n      iszero\n      tag_69\n      jumpi\n      0x20\n      mul\n      dup3\n      add\n      swap2\n      swap1\n      0x00\n      mstore\n      keccak256(0x00, 0x20)\n      swap1\n    tag_70:\n      dup2\n      sload\n      dup2\n      mstore\n      0x20\n      add\n      swap1\n      0x01\n      add\n      swap1\n      dup1\n      dup4\n      gt\n      tag_70\n      jumpi\n    tag_69:\n      pop\n      pop\n      pop\n      pop\n      pop\n      swap1\n      pop\n        /* \"contracts/VotingCore.sol\":8582:8744  function getUserPolls(address _creator) ... */\n      swap2\n      swap1\n      pop\n      jump\t// out\n        /* \"contracts/VotingCore.sol\":8012:8401  function getVoterChoice(uint256 _pollId, address _voter) ... */\n    tag_24:\n        /* \"contracts/VotingCore.sol\":8122:8129  uint256 */\n      0x00\n        /* \"contracts/VotingCore.sol\":8163:8164  0 */\n      dup1\n        /* \"contracts/VotingCore.sol\":8152:8159  _pollId */\n      dup4\n        /* \"contracts/VotingCore.sol\":8152:8164  _pollId == 0 */\n      eq\n        /* \"contracts/VotingCore.sol\":8152:8189  _pollId == 0 || _pollId > pollCounter */\n      dup1\n      tag_72\n      jumpi\n      pop\n        /* \"contracts/VotingCore.sol\":8178:8189  pollCounter */\n      sload(0x02)\n        /* \"contracts/VotingCore.sol\":8168:8175  _pollId */\n      dup4\n        /* \"contracts/VotingCore.sol\":8168:8189  _pollId > pollCounter */\n      gt\n        /* \"contracts/VotingCore.sol\":8152:8189  _pollId == 0 || _pollId > pollCounter */\n    tag_72:\n        /* \"contracts/VotingCore.sol\":8148:8239  if (_pollId == 0 || _pollId > pollCounter) {... */\n      iszero\n      tag_73\n      jumpi\n        /* \"contracts/VotingCore.sol\":8213:8227  PollNotFound() */\n      mload(0x40)\n      0xf9d6fdec00000000000000000000000000000000000000000000000000000000\n      dup2\n      mstore\n      0x04\n      add\n      mload(0x40)\n      dup1\n      swap2\n      sub\n      swap1\n      revert\n        /* \"contracts/VotingCore.sol\":8148:8239  if (_pollId == 0 || _pollId > pollCounter) {... */\n    tag_73:\n        /* \"contracts/VotingCore.sol\":8254:8259  polls */\n      0x00\n        /* \"contracts/VotingCore.sol\":8254:8268  polls[_pollId] */\n      dup1\n        /* \"contracts/VotingCore.sol\":8260:8267  _pollId */\n      dup5\n        /* \"contracts/VotingCore.sol\":8254:8268  polls[_pollId] */\n      dup2\n      mstore\n      0x20\n      add\n      swap1\n      dup2\n      mstore\n      0x20\n      add\n      0x00\n      keccak256\n        /* \"contracts/VotingCore.sol\":8254:8277  polls[_pollId].hasVoted */\n      0x05\n      add\n        /* \"contracts/VotingCore.sol\":8254:8285  polls[_pollId].hasVoted[_voter] */\n      0x00\n        /* \"contracts/VotingCore.sol\":8278:8284  _voter */\n      dup4\n        /* \"contracts/VotingCore.sol\":8254:8285  polls[_pollId].hasVoted[_voter] */\n      0xffffffffffffffffffffffffffffffffffffffff\n      and\n      0xffffffffffffffffffffffffffffffffffffffff\n      and\n      dup2\n      mstore\n      0x20\n      add\n      swap1\n      dup2\n      mstore\n      0x20\n      add\n      0x00\n      keccak256\n      0x00\n      swap1\n      sload\n      swap1\n      0x0100\n      exp\n      swap1\n      div\n      0xff\n      and\n        /* \"contracts/VotingCore.sol\":8249:8342  if (!polls[_pollId].hasVoted[_voter]) {... */\n      tag_74\n      jumpi\n        /* \"contracts/VotingCore.sol\":8302:8330  revert(\"User has not voted\") */\n      mload(0x40)\n      0x08c379a000000000000000000000000000000000000000000000000000000000\n      dup2\n      mstore\n      0x04\n      add\n      tag_75\n      swap1\n      tag_76\n      jump\t// in\n    tag_75:\n      mload(0x40)\n      dup1\n      swap2\n      sub\n      swap1\n      revert\n        /* \"contracts/VotingCore.sol\":8249:8342  if (!polls[_pollId].hasVoted[_voter]) {... */\n    tag_74:\n        /* \"contracts/VotingCore.sol\":8359:8364  polls */\n      0x00\n        /* \"contracts/VotingCore.sol\":8359:8373  polls[_pollId] */\n      dup1\n        /* \"contracts/VotingCore.sol\":8365:8372  _pollId */\n      dup5\n        /* \"contracts/VotingCore.sol\":8359:8373  polls[_pollId] */\n      dup2\n      mstore\n      0x20\n      add\n      swap1\n      dup2\n      mstore\n      0x20\n      add\n      0x00\n      keccak256\n        /* \"contracts/VotingCore.sol\":8359:8385  polls[_pollId].voterChoice */\n      0x06\n      add\n        /* \"contracts/VotingCore.sol\":8359:8393  polls[_pollId].voterChoice[_voter] */\n      0x00\n        /* \"contracts/VotingCore.sol\":8386:8392  _voter */\n      dup4\n        /* \"contracts/VotingCore.sol\":8359:8393  polls[_pollId].voterChoice[_voter] */\n      0xffffffffffffffffffffffffffffffffffffffff\n      and\n      0xffffffffffffffffffffffffffffffffffffffff\n      and\n      dup2\n      mstore\n      0x20\n      add\n      swap1\n      dup2\n      mstore\n      0x20\n      add\n      0x00\n      keccak256\n      sload\n        /* \"contracts/VotingCore.sol\":8352:8393  return polls[_pollId].voterChoice[_voter] */\n      swap1\n      pop\n        /* \"contracts/VotingCore.sol\":8012:8401  function getVoterChoice(uint256 _pollId, address _voter) ... */\n      swap3\n      swap2\n      pop\n      pop\n      jump\t// out\n        /* \"contracts/VotingCore.sol\":4811:5484  function getPollInfo(uint256 _pollId) ... */\n    tag_30:\n        /* \"contracts/VotingCore.sol\":4916:4935  string memory title */\n      0x60\n        /* \"contracts/VotingCore.sol\":4950:4965  address creator */\n      0x00\n        /* \"contracts/VotingCore.sol\":4980:4993  bool isActive */\n      dup1\n        /* \"contracts/VotingCore.sol\":5008:5028  uint256 optionsCount */\n      0x00\n        /* \"contracts/VotingCore.sol\":5043:5061  uint256 totalVotes */\n      dup1\n        /* \"contracts/VotingCore.sol\":5076:5093  uint256 createdAt */\n      0x00\n        /* \"contracts/VotingCore.sol\":5137:5138  0 */\n      dup1\n        /* \"contracts/VotingCore.sol\":5126:5133  _pollId */\n      dup8\n        /* \"contracts/VotingCore.sol\":5126:5138  _pollId == 0 */\n      eq\n        /* \"contracts/VotingCore.sol\":5126:5163  _pollId == 0 || _pollId > pollCounter */\n      dup1\n      tag_78\n      jumpi\n      pop\n        /* \"contracts/VotingCore.sol\":5152:5163  pollCounter */\n      sload(0x02)\n        /* \"contracts/VotingCore.sol\":5142:5149  _pollId */\n      dup8\n        /* \"contracts/VotingCore.sol\":5142:5163  _pollId > pollCounter */\n      gt\n        /* \"contracts/VotingCore.sol\":5126:5163  _pollId == 0 || _pollId > pollCounter */\n    tag_78:\n        /* \"contracts/VotingCore.sol\":5122:5213  if (_pollId == 0 || _pollId > pollCounter) {... */\n      iszero\n      tag_79\n      jumpi\n        /* \"contracts/VotingCore.sol\":5187:5201  PollNotFound() */\n      mload(0x40)\n      0xf9d6fdec00000000000000000000000000000000000000000000000000000000\n      dup2\n      mstore\n      0x04\n      add\n      mload(0x40)\n      dup1\n      swap2\n      sub\n      swap1\n      revert\n        /* \"contracts/VotingCore.sol\":5122:5213  if (_pollId == 0 || _pollId > pollCounter) {... */\n    tag_79:\n        /* \"contracts/VotingCore.sol\":5233:5254  PollInfo storage poll */\n      0x00\n        /* \"contracts/VotingCore.sol\":5257:5262  polls */\n      dup1\n        /* \"contracts/VotingCore.sol\":5257:5271  polls[_pollId] */\n      0x00\n        /* \"contracts/VotingCore.sol\":5263:5270  _pollId */\n      dup10\n        /* \"contracts/VotingCore.sol\":5257:5271  polls[_pollId] */\n      dup2\n      mstore\n      0x20\n      add\n      swap1\n      dup2\n      mstore\n      0x20\n      add\n      0x00\n      keccak256\n        /* \"contracts/VotingCore.sol\":5233:5271  PollInfo storage poll = polls[_pollId] */\n      swap1\n      pop\n        /* \"contracts/VotingCore.sol\":5304:5308  poll */\n      dup1\n        /* \"contracts/VotingCore.sol\":5304:5314  poll.title */\n      0x00\n      add\n        /* \"contracts/VotingCore.sol\":5330:5334  poll */\n      dup2\n        /* \"contracts/VotingCore.sol\":5330:5342  poll.creator */\n      0x01\n      add\n      0x00\n      swap1\n      sload\n      swap1\n      0x0100\n      exp\n      swap1\n      div\n      0xffffffffffffffffffffffffffffffffffffffff\n      and\n        /* \"contracts/VotingCore.sol\":5358:5362  poll */\n      dup3\n        /* \"contracts/VotingCore.sol\":5358:5371  poll.isActive */\n      0x01\n      add\n      0x14\n      swap1\n      sload\n      swap1\n      0x0100\n      exp\n      swap1\n      div\n      0xff\n      and\n        /* \"contracts/VotingCore.sol\":5387:5391  poll */\n      dup4\n        /* \"contracts/VotingCore.sol\":5387:5399  poll.options */\n      0x04\n      add\n        /* \"contracts/VotingCore.sol\":5387:5406  poll.options.length */\n      dup1\n      sload\n      swap1\n      pop\n        /* \"contracts/VotingCore.sol\":5421:5425  poll */\n      dup5\n        /* \"contracts/VotingCore.sol\":5421:5436  poll.totalVotes */\n      0x03\n      add\n      sload\n        /* \"contracts/VotingCore.sol\":5451:5455  poll */\n      dup6\n        /* \"contracts/VotingCore.sol\":5451:5465  poll.createdAt */\n      0x02\n      add\n      sload\n        /* \"contracts/VotingCore.sol\":5282:5476  return (... */\n      dup6\n      dup1\n      sload\n      tag_80\n      swap1\n      tag_81\n      jump\t// in\n    tag_80:\n      dup1\n      0x1f\n      add\n      0x20\n      dup1\n      swap2\n      div\n      mul\n      0x20\n      add\n      mload(0x40)\n      swap1\n      dup2\n      add\n      0x40\n      mstore\n      dup1\n      swap3\n      swap2\n      swap1\n      dup2\n      dup2\n      mstore\n      0x20\n      add\n      dup3\n      dup1\n      sload\n      tag_82\n      swap1\n      tag_81\n      jump\t// in\n    tag_82:\n      dup1\n      iszero\n      tag_83\n      jumpi\n      dup1\n      0x1f\n      lt\n      tag_84\n      jumpi\n      0x0100\n      dup1\n      dup4\n      sload\n      div\n      mul\n      dup4\n      mstore\n      swap2\n      0x20\n      add\n      swap2\n      jump(tag_83)\n    tag_84:\n      dup3\n      add\n      swap2\n      swap1\n      0x00\n      mstore\n      keccak256(0x00, 0x20)\n      swap1\n    tag_85:\n      dup2\n      sload\n      dup2\n      mstore\n      swap1\n      0x01\n      add\n      swap1\n      0x20\n      add\n      dup1\n      dup4\n      gt\n      tag_85\n      jumpi\n      dup3\n      swap1\n      sub\n      0x1f\n      and\n      dup3\n      add\n      swap2\n    tag_83:\n      pop\n      pop\n      pop\n      pop\n      pop\n      swap6\n      pop\n      swap7\n      pop\n      swap7\n      pop\n      swap7\n      pop\n      swap7\n      pop\n      swap7\n      pop\n      swap7\n      pop\n      pop\n        /* \"contracts/VotingCore.sol\":4811:5484  function getPollInfo(uint256 _pollId) ... */\n      swap2\n      swap4\n      swap6\n      pop\n      swap2\n      swap4\n      swap6\n      jump\t// out\n        /* \"contracts/VotingCore.sol\":3869:4370  function finishPoll(uint256 _pollId) external {... */\n    tag_35:\n        /* \"contracts/VotingCore.sol\":3941:3942  0 */\n      0x00\n        /* \"contracts/VotingCore.sol\":3930:3937  _pollId */\n      dup2\n        /* \"contracts/VotingCore.sol\":3930:3942  _pollId == 0 */\n      eq\n        /* \"contracts/VotingCore.sol\":3930:3967  _pollId == 0 || _pollId > pollCounter */\n      dup1\n      tag_87\n      jumpi\n      pop\n        /* \"contracts/VotingCore.sol\":3956:3967  pollCounter */\n      sload(0x02)\n        /* \"contracts/VotingCore.sol\":3946:3953  _pollId */\n      dup2\n        /* \"contracts/VotingCore.sol\":3946:3967  _pollId > pollCounter */\n      gt\n        /* \"contracts/VotingCore.sol\":3930:3967  _pollId == 0 || _pollId > pollCounter */\n    tag_87:\n        /* \"contracts/VotingCore.sol\":3926:4017  if (_pollId == 0 || _pollId > pollCounter) {... */\n      iszero\n      tag_88\n      jumpi\n        /* \"contracts/VotingCore.sol\":3991:4005  PollNotFound() */\n      mload(0x40)\n      0xf9d6fdec00000000000000000000000000000000000000000000000000000000\n      dup2\n      mstore\n      0x04\n      add\n      mload(0x40)\n      dup1\n      swap2\n      sub\n      swap1\n      revert\n        /* \"contracts/VotingCore.sol\":3926:4017  if (_pollId == 0 || _pollId > pollCounter) {... */\n    tag_88:\n        /* \"contracts/VotingCore.sol\":4037:4058  PollInfo storage poll */\n      0x00\n        /* \"contracts/VotingCore.sol\":4061:4066  polls */\n      dup1\n        /* \"contracts/VotingCore.sol\":4061:4075  polls[_pollId] */\n      0x00\n        /* \"contracts/VotingCore.sol\":4067:4074  _pollId */\n      dup4\n        /* \"contracts/VotingCore.sol\":4061:4075  polls[_pollId] */\n      dup2\n      mstore\n      0x20\n      add\n      swap1\n      dup2\n      mstore\n      0x20\n      add\n      0x00\n      keccak256\n        /* \"contracts/VotingCore.sol\":4037:4075  PollInfo storage poll = polls[_pollId] */\n      swap1\n      pop\n        /* \"contracts/VotingCore.sol\":4116:4126  msg.sender */\n      caller\n        /* \"contracts/VotingCore.sol\":4100:4126  poll.creator != msg.sender */\n      0xffffffffffffffffffffffffffffffffffffffff\n      and\n        /* \"contracts/VotingCore.sol\":4100:4104  poll */\n      dup2\n        /* \"contracts/VotingCore.sol\":4100:4112  poll.creator */\n      0x01\n      add\n      0x00\n      swap1\n      sload\n      swap1\n      0x0100\n      exp\n      swap1\n      div\n      0xffffffffffffffffffffffffffffffffffffffff\n      and\n        /* \"contracts/VotingCore.sol\":4100:4126  poll.creator != msg.sender */\n      0xffffffffffffffffffffffffffffffffffffffff\n      and\n      eq\n        /* \"contracts/VotingCore.sol\":4096:4178  if (poll.creator != msg.sender) {... */\n      tag_89\n      jumpi\n        /* \"contracts/VotingCore.sol\":4150:4166  NotPollCreator() */\n      mload(0x40)\n      0xf7ef226700000000000000000000000000000000000000000000000000000000\n      dup2\n      mstore\n      0x04\n      add\n      mload(0x40)\n      dup1\n      swap2\n      sub\n      swap1\n      revert\n        /* \"contracts/VotingCore.sol\":4096:4178  if (poll.creator != msg.sender) {... */\n    tag_89:\n        /* \"contracts/VotingCore.sol\":4193:4197  poll */\n      dup1\n        /* \"contracts/VotingCore.sol\":4193:4206  poll.isActive */\n      0x01\n      add\n      0x14\n      swap1\n      sload\n      swap1\n      0x0100\n      exp\n      swap1\n      div\n      0xff\n      and\n        /* \"contracts/VotingCore.sol\":4188:4263  if (!poll.isActive) {... */\n      tag_90\n      jumpi\n        /* \"contracts/VotingCore.sol\":4230:4251  PollAlreadyFinished() */\n      mload(0x40)\n      0x82909a1e00000000000000000000000000000000000000000000000000000000\n      dup2\n      mstore\n      0x04\n      add\n      mload(0x40)\n      dup1\n      swap2\n      sub\n      swap1\n      revert\n        /* \"contracts/VotingCore.sol\":4188:4263  if (!poll.isActive) {... */\n    tag_90:\n        /* \"contracts/VotingCore.sol\":4291:4296  false */\n      0x00\n        /* \"contracts/VotingCore.sol\":4275:4279  poll */\n      dup2\n        /* \"contracts/VotingCore.sol\":4275:4288  poll.isActive */\n      0x01\n      add\n      0x14\n        /* \"contracts/VotingCore.sol\":4275:4296  poll.isActive = false */\n      0x0100\n      exp\n      dup2\n      sload\n      dup2\n      0xff\n      mul\n      not\n      and\n      swap1\n      dup4\n      iszero\n      iszero\n      mul\n      or\n      swap1\n      sstore\n      pop\n        /* \"contracts/VotingCore.sol\":4334:4344  msg.sender */\n      caller\n        /* \"contracts/VotingCore.sol\":4312:4362  PollFinished(_pollId, msg.sender, block.timestamp) */\n      0xffffffffffffffffffffffffffffffffffffffff\n      and\n        /* \"contracts/VotingCore.sol\":4325:4332  _pollId */\n      dup3\n        /* \"contracts/VotingCore.sol\":4312:4362  PollFinished(_pollId, msg.sender, block.timestamp) */\n      0x655f9303a2741f5a03d9aafb56166420a2365cf65926291d3e24813610da4a49\n        /* \"contracts/VotingCore.sol\":4346:4361  block.timestamp */\n      timestamp\n        /* \"contracts/VotingCore.sol\":4312:4362  PollFinished(_pollId, msg.sender, block.timestamp) */\n      mload(0x40)\n      tag_91\n      swap2\n      swap1\n      tag_26\n      jump\t// in\n    tag_91:\n      mload(0x40)\n      dup1\n      swap2\n      sub\n      swap1\n      log3\n        /* \"contracts/VotingCore.sol\":3915:4370  {... */\n      pop\n        /* \"contracts/VotingCore.sol\":3869:4370  function finishPoll(uint256 _pollId) external {... */\n      pop\n      jump\t// out\n        /* \"contracts/VotingCore.sol\":9245:10351  function getPollResults(uint256 _pollId) ... */\n    tag_38:\n        /* \"contracts/VotingCore.sol\":9353:9381  string[] memory descriptions */\n      0x60\n        /* \"contracts/VotingCore.sol\":9397:9424  uint256[] memory voteCounts */\n      dup1\n        /* \"contracts/VotingCore.sol\":9439:9467  uint256[] memory percentages */\n      0x60\n        /* \"contracts/VotingCore.sol\":9511:9512  0 */\n      0x00\n        /* \"contracts/VotingCore.sol\":9500:9507  _pollId */\n      dup5\n        /* \"contracts/VotingCore.sol\":9500:9512  _pollId == 0 */\n      eq\n        /* \"contracts/VotingCore.sol\":9500:9537  _pollId == 0 || _pollId > pollCounter */\n      dup1\n      tag_93\n      jumpi\n      pop\n        /* \"contracts/VotingCore.sol\":9526:9537  pollCounter */\n      sload(0x02)\n        /* \"contracts/VotingCore.sol\":9516:9523  _pollId */\n      dup5\n        /* \"contracts/VotingCore.sol\":9516:9537  _pollId > pollCounter */\n      gt\n        /* \"contracts/VotingCore.sol\":9500:9537  _pollId == 0 || _pollId > pollCounter */\n    tag_93:\n        /* \"contracts/VotingCore.sol\":9496:9587  if (_pollId == 0 || _pollId > pollCounter) {... */\n      iszero\n      tag_94\n      jumpi\n        /* \"contracts/VotingCore.sol\":9561:9575  PollNotFound() */\n      mload(0x40)\n      0xf9d6fdec00000000000000000000000000000000000000000000000000000000\n      dup2\n      mstore\n      0x04\n      add\n      mload(0x40)\n      dup1\n      swap2\n      sub\n      swap1\n      revert\n        /* \"contracts/VotingCore.sol\":9496:9587  if (_pollId == 0 || _pollId > pollCounter) {... */\n    tag_94:\n        /* \"contracts/VotingCore.sol\":9607:9628  PollInfo storage poll */\n      0x00\n        /* \"contracts/VotingCore.sol\":9631:9636  polls */\n      dup1\n        /* \"contracts/VotingCore.sol\":9631:9645  polls[_pollId] */\n      0x00\n        /* \"contracts/VotingCore.sol\":9637:9644  _pollId */\n      dup7\n        /* \"contracts/VotingCore.sol\":9631:9645  polls[_pollId] */\n      dup2\n      mstore\n      0x20\n      add\n      swap1\n      dup2\n      mstore\n      0x20\n      add\n      0x00\n      keccak256\n        /* \"contracts/VotingCore.sol\":9607:9645  PollInfo storage poll = polls[_pollId] */\n      swap1\n      pop\n        /* \"contracts/VotingCore.sol\":9656:9677  uint256 optionsLength */\n      0x00\n        /* \"contracts/VotingCore.sol\":9680:9684  poll */\n      dup2\n        /* \"contracts/VotingCore.sol\":9680:9692  poll.options */\n      0x04\n      add\n        /* \"contracts/VotingCore.sol\":9680:9699  poll.options.length */\n      dup1\n      sload\n      swap1\n      pop\n        /* \"contracts/VotingCore.sol\":9656:9699  uint256 optionsLength = poll.options.length */\n      swap1\n      pop\n        /* \"contracts/VotingCore.sol\":9748:9761  optionsLength */\n      dup1\n        /* \"contracts/VotingCore.sol\":9735:9762  new string[](optionsLength) */\n      0xffffffffffffffff\n      dup2\n      gt\n      iszero\n      tag_95\n      jumpi\n      tag_96\n      tag_97\n      jump\t// in\n    tag_96:\n    tag_95:\n      mload(0x40)\n      swap1\n      dup1\n      dup3\n      mstore\n      dup1\n      0x20\n      mul\n      0x20\n      add\n      dup3\n      add\n      0x40\n      mstore\n      dup1\n      iszero\n      tag_98\n      jumpi\n      dup2\n      0x20\n      add\n    tag_99:\n      0x60\n      dup2\n      mstore\n      0x20\n      add\n      swap1\n      0x01\n      swap1\n      sub\n      swap1\n      dup2\n      tag_99\n      jumpi\n      swap1\n      pop\n    tag_98:\n      pop\n        /* \"contracts/VotingCore.sol\":9720:9762  descriptions = new string[](optionsLength) */\n      swap5\n      pop\n        /* \"contracts/VotingCore.sol\":9800:9813  optionsLength */\n      dup1\n        /* \"contracts/VotingCore.sol\":9786:9814  new uint256[](optionsLength) */\n      0xffffffffffffffff\n      dup2\n      gt\n      iszero\n      tag_100\n      jumpi\n      tag_101\n      tag_97\n      jump\t// in\n    tag_101:\n    tag_100:\n      mload(0x40)\n      swap1\n      dup1\n      dup3\n      mstore\n      dup1\n      0x20\n      mul\n      0x20\n      add\n      dup3\n      add\n      0x40\n      mstore\n      dup1\n      iszero\n      tag_102\n      jumpi\n      dup2\n      0x20\n      add\n      0x20\n      dup3\n      mul\n      dup1\n      calldatasize\n      dup4\n      calldatacopy\n      dup1\n      dup3\n      add\n      swap2\n      pop\n      pop\n      swap1\n      pop\n    tag_102:\n      pop\n        /* \"contracts/VotingCore.sol\":9773:9814  voteCounts = new uint256[](optionsLength) */\n      swap4\n      pop\n        /* \"contracts/VotingCore.sol\":9853:9866  optionsLength */\n      dup1\n        /* \"contracts/VotingCore.sol\":9839:9867  new uint256[](optionsLength) */\n      0xffffffffffffffff\n      dup2\n      gt\n      iszero\n      tag_103\n      jumpi\n      tag_104\n      tag_97\n      jump\t// in\n    tag_104:\n    tag_103:\n      mload(0x40)\n      swap1\n      dup1\n      dup3\n      mstore\n      dup1\n      0x20\n      mul\n      0x20\n      add\n      dup3\n      add\n      0x40\n      mstore\n      dup1\n      iszero\n      tag_105\n      jumpi\n      dup2\n      0x20\n      add\n      0x20\n      dup3\n      mul\n      dup1\n      calldatasize\n      dup4\n      calldatacopy\n      dup1\n      dup3\n      add\n      swap2\n      pop\n      pop\n      swap1\n      pop\n    tag_105:\n      pop\n        /* \"contracts/VotingCore.sol\":9825:9867  percentages = new uint256[](optionsLength) */\n      swap3\n      pop\n        /* \"contracts/VotingCore.sol\":9893:9902  uint256 i */\n      0x00\n        /* \"contracts/VotingCore.sol\":9888:10277  for (uint256 i = 0; i < optionsLength; i++) {... */\n    tag_106:\n        /* \"contracts/VotingCore.sol\":9912:9925  optionsLength */\n      dup2\n        /* \"contracts/VotingCore.sol\":9908:9909  i */\n      dup2\n        /* \"contracts/VotingCore.sol\":9908:9925  i < optionsLength */\n      lt\n        /* \"contracts/VotingCore.sol\":9888:10277  for (uint256 i = 0; i < optionsLength; i++) {... */\n      iszero\n      tag_107\n      jumpi\n        /* \"contracts/VotingCore.sol\":9965:9969  poll */\n      dup3\n        /* \"contracts/VotingCore.sol\":9965:9977  poll.options */\n      0x04\n      add\n        /* \"contracts/VotingCore.sol\":9978:9979  i */\n      dup2\n        /* \"contracts/VotingCore.sol\":9965:9980  poll.options[i] */\n      dup2\n      sload\n      dup2\n      lt\n      tag_109\n      jumpi\n      tag_110\n      tag_111\n      jump\t// in\n    tag_110:\n    tag_109:\n      swap1\n      0x00\n      mstore\n      keccak256(0x00, 0x20)\n      swap1\n      0x02\n      mul\n      add\n        /* \"contracts/VotingCore.sol\":9965:9992  poll.options[i].description */\n      0x00\n      add\n        /* \"contracts/VotingCore.sol\":9947:9992  descriptions[i] = poll.options[i].description */\n      dup1\n      sload\n      tag_113\n      swap1\n      tag_81\n      jump\t// in\n    tag_113:\n      dup1\n      0x1f\n      add\n      0x20\n      dup1\n      swap2\n      div\n      mul\n      0x20\n      add\n      mload(0x40)\n      swap1\n      dup2\n      add\n      0x40\n      mstore\n      dup1\n      swap3\n      swap2\n      swap1\n      dup2\n      dup2\n      mstore\n      0x20\n      add\n      dup3\n      dup1\n      sload\n      tag_114\n      swap1\n      tag_81\n      jump\t// in\n    tag_114:\n      dup1\n      iszero\n      tag_115\n      jumpi\n      dup1\n      0x1f\n      lt\n      tag_116\n      jumpi\n      0x0100\n      dup1\n      dup4\n      sload\n      div\n      mul\n      dup4\n      mstore\n      swap2\n      0x20\n      add\n      swap2\n      jump(tag_115)\n    tag_116:\n      dup3\n      add\n      swap2\n      swap1\n      0x00\n      mstore\n      keccak256(0x00, 0x20)\n      swap1\n    tag_117:\n      dup2\n      sload\n      dup2\n      mstore\n      swap1\n      0x01\n      add\n      swap1\n      0x20\n      add\n      dup1\n      dup4\n      gt\n      tag_117\n      jumpi\n      dup3\n      swap1\n      sub\n      0x1f\n      and\n      dup3\n      add\n      swap2\n    tag_115:\n      pop\n      pop\n      pop\n      pop\n      pop\n        /* \"contracts/VotingCore.sol\":9947:9959  descriptions */\n      dup7\n        /* \"contracts/VotingCore.sol\":9960:9961  i */\n      dup3\n        /* \"contracts/VotingCore.sol\":9947:9962  descriptions[i] */\n      dup2\n      mload\n      dup2\n      lt\n      tag_118\n      jumpi\n      tag_119\n      tag_111\n      jump\t// in\n    tag_119:\n    tag_118:\n      0x20\n      mul\n      0x20\n      add\n      add\n        /* \"contracts/VotingCore.sol\":9947:9992  descriptions[i] = poll.options[i].description */\n      dup2\n      swap1\n      mstore\n      pop\n        /* \"contracts/VotingCore.sol\":10023:10027  poll */\n      dup3\n        /* \"contracts/VotingCore.sol\":10023:10035  poll.options */\n      0x04\n      add\n        /* \"contracts/VotingCore.sol\":10036:10037  i */\n      dup2\n        /* \"contracts/VotingCore.sol\":10023:10038  poll.options[i] */\n      dup2\n      sload\n      dup2\n      lt\n      tag_120\n      jumpi\n      tag_121\n      tag_111\n      jump\t// in\n    tag_121:\n    tag_120:\n      swap1\n      0x00\n      mstore\n      keccak256(0x00, 0x20)\n      swap1\n      0x02\n      mul\n      add\n        /* \"contracts/VotingCore.sol\":10023:10048  poll.options[i].voteCount */\n      0x01\n      add\n      sload\n        /* \"contracts/VotingCore.sol\":10007:10017  voteCounts */\n      dup6\n        /* \"contracts/VotingCore.sol\":10018:10019  i */\n      dup3\n        /* \"contracts/VotingCore.sol\":10007:10020  voteCounts[i] */\n      dup2\n      mload\n      dup2\n      lt\n      tag_123\n      jumpi\n      tag_124\n      tag_111\n      jump\t// in\n    tag_124:\n    tag_123:\n      0x20\n      mul\n      0x20\n      add\n      add\n        /* \"contracts/VotingCore.sol\":10007:10048  voteCounts[i] = poll.options[i].voteCount */\n      dup2\n      dup2\n      mstore\n      pop\n      pop\n        /* \"contracts/VotingCore.sol\":10099:10100  0 */\n      0x00\n        /* \"contracts/VotingCore.sol\":10081:10085  poll */\n      dup4\n        /* \"contracts/VotingCore.sol\":10081:10096  poll.totalVotes */\n      0x03\n      add\n      sload\n        /* \"contracts/VotingCore.sol\":10081:10100  poll.totalVotes > 0 */\n      gt\n        /* \"contracts/VotingCore.sol\":10077:10266  if (poll.totalVotes > 0) {... */\n      iszero\n      tag_125\n      jumpi\n        /* \"contracts/VotingCore.sol\":10176:10180  poll */\n      dup3\n        /* \"contracts/VotingCore.sol\":10176:10191  poll.totalVotes */\n      0x03\n      add\n      sload\n        /* \"contracts/VotingCore.sol\":10167:10172  10000 */\n      0x2710\n        /* \"contracts/VotingCore.sol\":10139:10143  poll */\n      dup5\n        /* \"contracts/VotingCore.sol\":10139:10151  poll.options */\n      0x04\n      add\n        /* \"contracts/VotingCore.sol\":10152:10153  i */\n      dup4\n        /* \"contracts/VotingCore.sol\":10139:10154  poll.options[i] */\n      dup2\n      sload\n      dup2\n      lt\n      tag_126\n      jumpi\n      tag_127\n      tag_111\n      jump\t// in\n    tag_127:\n    tag_126:\n      swap1\n      0x00\n      mstore\n      keccak256(0x00, 0x20)\n      swap1\n      0x02\n      mul\n      add\n        /* \"contracts/VotingCore.sol\":10139:10164  poll.options[i].voteCount */\n      0x01\n      add\n      sload\n        /* \"contracts/VotingCore.sol\":10139:10172  poll.options[i].voteCount * 10000 */\n      tag_129\n      swap2\n      swap1\n      tag_130\n      jump\t// in\n    tag_129:\n        /* \"contracts/VotingCore.sol\":10138:10191  (poll.options[i].voteCount * 10000) / poll.totalVotes */\n      tag_131\n      swap2\n      swap1\n      tag_132\n      jump\t// in\n    tag_131:\n        /* \"contracts/VotingCore.sol\":10121:10132  percentages */\n      dup5\n        /* \"contracts/VotingCore.sol\":10133:10134  i */\n      dup3\n        /* \"contracts/VotingCore.sol\":10121:10135  percentages[i] */\n      dup2\n      mload\n      dup2\n      lt\n      tag_133\n      jumpi\n      tag_134\n      tag_111\n      jump\t// in\n    tag_134:\n    tag_133:\n      0x20\n      mul\n      0x20\n      add\n      add\n        /* \"contracts/VotingCore.sol\":10121:10191  percentages[i] = (poll.options[i].voteCount * 10000) / poll.totalVotes */\n      dup2\n      dup2\n      mstore\n      pop\n      pop\n        /* \"contracts/VotingCore.sol\":10077:10266  if (poll.totalVotes > 0) {... */\n      jump(tag_135)\n    tag_125:\n        /* \"contracts/VotingCore.sol\":10249:10250  0 */\n      0x00\n        /* \"contracts/VotingCore.sol\":10232:10243  percentages */\n      dup5\n        /* \"contracts/VotingCore.sol\":10244:10245  i */\n      dup3\n        /* \"contracts/VotingCore.sol\":10232:10246  percentages[i] */\n      dup2\n      mload\n      dup2\n      lt\n      tag_136\n      jumpi\n      tag_137\n      tag_111\n      jump\t// in\n    tag_137:\n    tag_136:\n      0x20\n      mul\n      0x20\n      add\n      add\n        /* \"contracts/VotingCore.sol\":10232:10250  percentages[i] = 0 */\n      dup2\n      dup2\n      mstore\n      pop\n      pop\n        /* \"contracts/VotingCore.sol\":10077:10266  if (poll.totalVotes > 0) {... */\n    tag_135:\n        /* \"contracts/VotingCore.sol\":9927:9930  i++ */\n      dup1\n      dup1\n      tag_138\n      swap1\n      tag_139\n      jump\t// in\n    tag_138:\n      swap2\n      pop\n      pop\n        /* \"contracts/VotingCore.sol\":9888:10277  for (uint256 i = 0; i < optionsLength; i++) {... */\n      jump(tag_106)\n    tag_107:\n      pop\n        /* \"contracts/VotingCore.sol\":10297:10343  return (descriptions, voteCounts, percentages) */\n      pop\n      pop\n        /* \"contracts/VotingCore.sol\":9245:10351  function getPollResults(uint256 _pollId) ... */\n      swap2\n      swap4\n      swap1\n      swap3\n      pop\n      jump\t// out\n        /* \"contracts/VotingCore.sol\":8858:8952  function getTotalPolls() external view returns (uint256) {... */\n    tag_42:\n        /* \"contracts/VotingCore.sol\":8906:8913  uint256 */\n      0x00\n        /* \"contracts/VotingCore.sol\":8933:8944  pollCounter */\n      sload(0x02)\n        /* \"contracts/VotingCore.sol\":8926:8944  return pollCounter */\n      swap1\n      pop\n        /* \"contracts/VotingCore.sol\":8858:8952  function getTotalPolls() external view returns (uint256) {... */\n      swap1\n      jump\t// out\n        /* \"contracts/VotingCore.sol\":6558:7303  function getAllPollOptions(uint256 _pollId) ... */\n    tag_46:\n        /* \"contracts/VotingCore.sol\":6655:6683  string[] memory descriptions */\n      0x60\n        /* \"contracts/VotingCore.sol\":6685:6712  uint256[] memory voteCounts */\n      dup1\n        /* \"contracts/VotingCore.sol\":6746:6747  0 */\n      0x00\n        /* \"contracts/VotingCore.sol\":6735:6742  _pollId */\n      dup4\n        /* \"contracts/VotingCore.sol\":6735:6747  _pollId == 0 */\n      eq\n        /* \"contracts/VotingCore.sol\":6735:6772  _pollId == 0 || _pollId > pollCounter */\n      dup1\n      tag_142\n      jumpi\n      pop\n        /* \"contracts/VotingCore.sol\":6761:6772  pollCounter */\n      sload(0x02)\n        /* \"contracts/VotingCore.sol\":6751:6758  _pollId */\n      dup4\n        /* \"contracts/VotingCore.sol\":6751:6772  _pollId > pollCounter */\n      gt\n        /* \"contracts/VotingCore.sol\":6735:6772  _pollId == 0 || _pollId > pollCounter */\n    tag_142:\n        /* \"contracts/VotingCore.sol\":6731:6822  if (_pollId == 0 || _pollId > pollCounter) {... */\n      iszero\n      tag_143\n      jumpi\n        /* \"contracts/VotingCore.sol\":6796:6810  PollNotFound() */\n      mload(0x40)\n      0xf9d6fdec00000000000000000000000000000000000000000000000000000000\n      dup2\n      mstore\n      0x04\n      add\n      mload(0x40)\n      dup1\n      swap2\n      sub\n      swap1\n      revert\n        /* \"contracts/VotingCore.sol\":6731:6822  if (_pollId == 0 || _pollId > pollCounter) {... */\n    tag_143:\n        /* \"contracts/VotingCore.sol\":6842:6863  PollInfo storage poll */\n      0x00\n        /* \"contracts/VotingCore.sol\":6866:6871  polls */\n      dup1\n        /* \"contracts/VotingCore.sol\":6866:6880  polls[_pollId] */\n      0x00\n        /* \"contracts/VotingCore.sol\":6872:6879  _pollId */\n      dup6\n        /* \"contracts/VotingCore.sol\":6866:6880  polls[_pollId] */\n      dup2\n      mstore\n      0x20\n      add\n      swap1\n      dup2\n      mstore\n      0x20\n      add\n      0x00\n      keccak256\n        /* \"contracts/VotingCore.sol\":6842:6880  PollInfo storage poll = polls[_pollId] */\n      swap1\n      pop\n        /* \"contracts/VotingCore.sol\":6891:6912  uint256 optionsLength */\n      0x00\n        /* \"contracts/VotingCore.sol\":6915:6919  poll */\n      dup2\n        /* \"contracts/VotingCore.sol\":6915:6927  poll.options */\n      0x04\n      add\n        /* \"contracts/VotingCore.sol\":6915:6934  poll.options.length */\n      dup1\n      sload\n      swap1\n      pop\n        /* \"contracts/VotingCore.sol\":6891:6934  uint256 optionsLength = poll.options.length */\n      swap1\n      pop\n        /* \"contracts/VotingCore.sol\":6983:6996  optionsLength */\n      dup1\n        /* \"contracts/VotingCore.sol\":6970:6997  new string[](optionsLength) */\n      0xffffffffffffffff\n      dup2\n      gt\n      iszero\n      tag_144\n      jumpi\n      tag_145\n      tag_97\n      jump\t// in\n    tag_145:\n    tag_144:\n      mload(0x40)\n      swap1\n      dup1\n      dup3\n      mstore\n      dup1\n      0x20\n      mul\n      0x20\n      add\n      dup3\n      add\n      0x40\n      mstore\n      dup1\n      iszero\n      tag_146\n      jumpi\n      dup2\n      0x20\n      add\n    tag_147:\n      0x60\n      dup2\n      mstore\n      0x20\n      add\n      swap1\n      0x01\n      swap1\n      sub\n      swap1\n      dup2\n      tag_147\n      jumpi\n      swap1\n      pop\n    tag_146:\n      pop\n        /* \"contracts/VotingCore.sol\":6955:6997  descriptions = new string[](optionsLength) */\n      swap4\n      pop\n        /* \"contracts/VotingCore.sol\":7035:7048  optionsLength */\n      dup1\n        /* \"contracts/VotingCore.sol\":7021:7049  new uint256[](optionsLength) */\n      0xffffffffffffffff\n      dup2\n      gt\n      iszero\n      tag_148\n      jumpi\n      tag_149\n      tag_97\n      jump\t// in\n    tag_149:\n    tag_148:\n      mload(0x40)\n      swap1\n      dup1\n      dup3\n      mstore\n      dup1\n      0x20\n      mul\n      0x20\n      add\n      dup3\n      add\n      0x40\n      mstore\n      dup1\n      iszero\n      tag_150\n      jumpi\n      dup2\n      0x20\n      add\n      0x20\n      dup3\n      mul\n      dup1\n      calldatasize\n      dup4\n      calldatacopy\n      dup1\n      dup3\n      add\n      swap2\n      pop\n      pop\n      swap1\n      pop\n    tag_150:\n      pop\n        /* \"contracts/VotingCore.sol\":7008:7049  voteCounts = new uint256[](optionsLength) */\n      swap3\n      pop\n        /* \"contracts/VotingCore.sol\":7075:7084  uint256 i */\n      0x00\n        /* \"contracts/VotingCore.sol\":7070:7242  for (uint256 i = 0; i < optionsLength; i++) {... */\n    tag_151:\n        /* \"contracts/VotingCore.sol\":7094:7107  optionsLength */\n      dup2\n        /* \"contracts/VotingCore.sol\":7090:7091  i */\n      dup2\n        /* \"contracts/VotingCore.sol\":7090:7107  i < optionsLength */\n      lt\n        /* \"contracts/VotingCore.sol\":7070:7242  for (uint256 i = 0; i < optionsLength; i++) {... */\n      iszero\n      tag_152\n      jumpi\n        /* \"contracts/VotingCore.sol\":7147:7151  poll */\n      dup3\n        /* \"contracts/VotingCore.sol\":7147:7159  poll.options */\n      0x04\n      add\n        /* \"contracts/VotingCore.sol\":7160:7161  i */\n      dup2\n        /* \"contracts/VotingCore.sol\":7147:7162  poll.options[i] */\n      dup2\n      sload\n      dup2\n      lt\n      tag_154\n      jumpi\n      tag_155\n      tag_111\n      jump\t// in\n    tag_155:\n    tag_154:\n      swap1\n      0x00\n      mstore\n      keccak256(0x00, 0x20)\n      swap1\n      0x02\n      mul\n      add\n        /* \"contracts/VotingCore.sol\":7147:7174  poll.options[i].description */\n      0x00\n      add\n        /* \"contracts/VotingCore.sol\":7129:7174  descriptions[i] = poll.options[i].description */\n      dup1\n      sload\n      tag_157\n      swap1\n      tag_81\n      jump\t// in\n    tag_157:\n      dup1\n      0x1f\n      add\n      0x20\n      dup1\n      swap2\n      div\n      mul\n      0x20\n      add\n      mload(0x40)\n      swap1\n      dup2\n      add\n      0x40\n      mstore\n      dup1\n      swap3\n      swap2\n      swap1\n      dup2\n      dup2\n      mstore\n      0x20\n      add\n      dup3\n      dup1\n      sload\n      tag_158\n      swap1\n      tag_81\n      jump\t// in\n    tag_158:\n      dup1\n      iszero\n      tag_159\n      jumpi\n      dup1\n      0x1f\n      lt\n      tag_160\n      jumpi\n      0x0100\n      dup1\n      dup4\n      sload\n      div\n      mul\n      dup4\n      mstore\n      swap2\n      0x20\n      add\n      swap2\n      jump(tag_159)\n    tag_160:\n      dup3\n      add\n      swap2\n      swap1\n      0x00\n      mstore\n      keccak256(0x00, 0x20)\n      swap1\n    tag_161:\n      dup2\n      sload\n      dup2\n      mstore\n      swap1\n      0x01\n      add\n      swap1\n      0x20\n      add\n      dup1\n      dup4\n      gt\n      tag_161\n      jumpi\n      dup3\n      swap1\n      sub\n      0x1f\n      and\n      dup3\n      add\n      swap2\n    tag_159:\n      pop\n      pop\n      pop\n      pop\n      pop\n        /* \"contracts/VotingCore.sol\":7129:7141  descriptions */\n      dup6\n        /* \"contracts/VotingCore.sol\":7142:7143  i */\n      dup3\n        /* \"contracts/VotingCore.sol\":7129:7144  descriptions[i] */\n      dup2\n      mload\n      dup2\n      lt\n      tag_162\n      jumpi\n      tag_163\n      tag_111\n      jump\t// in\n    tag_163:\n    tag_162:\n      0x20\n      mul\n      0x20\n      add\n      add\n        /* \"contracts/VotingCore.sol\":7129:7174  descriptions[i] = poll.options[i].description */\n      dup2\n      swap1\n      mstore\n      pop\n        /* \"contracts/VotingCore.sol\":7205:7209  poll */\n      dup3\n        /* \"contracts/VotingCore.sol\":7205:7217  poll.options */\n      0x04\n      add\n        /* \"contracts/VotingCore.sol\":7218:7219  i */\n      dup2\n        /* \"contracts/VotingCore.sol\":7205:7220  poll.options[i] */\n      dup2\n      sload\n      dup2\n      lt\n      tag_164\n      jumpi\n      tag_165\n      tag_111\n      jump\t// in\n    tag_165:\n    tag_164:\n      swap1\n      0x00\n      mstore\n      keccak256(0x00, 0x20)\n      swap1\n      0x02\n      mul\n      add\n        /* \"contracts/VotingCore.sol\":7205:7230  poll.options[i].voteCount */\n      0x01\n      add\n      sload\n        /* \"contracts/VotingCore.sol\":7189:7199  voteCounts */\n      dup5\n        /* \"contracts/VotingCore.sol\":7200:7201  i */\n      dup3\n        /* \"contracts/VotingCore.sol\":7189:7202  voteCounts[i] */\n      dup2\n      mload\n      dup2\n      lt\n      tag_167\n      jumpi\n      tag_168\n      tag_111\n      jump\t// in\n    tag_168:\n    tag_167:\n      0x20\n      mul\n      0x20\n      add\n      add\n        /* \"contracts/VotingCore.sol\":7189:7230  voteCounts[i] = poll.options[i].voteCount */\n      dup2\n      dup2\n      mstore\n      pop\n      pop\n        /* \"contracts/VotingCore.sol\":7109:7112  i++ */\n      dup1\n      dup1\n      tag_169\n      swap1\n      tag_139\n      jump\t// in\n    tag_169:\n      swap2\n      pop\n      pop\n        /* \"contracts/VotingCore.sol\":7070:7242  for (uint256 i = 0; i < optionsLength; i++) {... */\n      jump(tag_151)\n    tag_152:\n      pop\n        /* \"contracts/VotingCore.sol\":7262:7295  return (descriptions, voteCounts) */\n      pop\n      pop\n        /* \"contracts/VotingCore.sol\":6558:7303  function getAllPollOptions(uint256 _pollId) ... */\n      swap2\n      pop\n      swap2\n      jump\t// out\n        /* \"contracts/VotingCore.sol\":1749:2797  function createPoll(string memory _title, string[] memory _options) ... */\n    tag_52:\n        /* \"contracts/VotingCore.sol\":1855:1862  uint256 */\n      0x00\n        /* \"contracts/VotingCore.sol\":1903:1904  2 */\n      0x02\n        /* \"contracts/VotingCore.sol\":1885:1893  _options */\n      dup3\n        /* \"contracts/VotingCore.sol\":1885:1900  _options.length */\n      mload\n        /* \"contracts/VotingCore.sol\":1885:1904  _options.length < 2 */\n      lt\n        /* \"contracts/VotingCore.sol\":1885:1927  _options.length < 2 || _options.length > 6 */\n      dup1\n      tag_171\n      jumpi\n      pop\n        /* \"contracts/VotingCore.sol\":1926:1927  6 */\n      0x06\n        /* \"contracts/VotingCore.sol\":1908:1916  _options */\n      dup3\n        /* \"contracts/VotingCore.sol\":1908:1923  _options.length */\n      mload\n        /* \"contracts/VotingCore.sol\":1908:1927  _options.length > 6 */\n      gt\n        /* \"contracts/VotingCore.sol\":1885:1927  _options.length < 2 || _options.length > 6 */\n    tag_171:\n        /* \"contracts/VotingCore.sol\":1881:1984  if (_options.length < 2 || _options.length > 6) {... */\n      iszero\n      tag_172\n      jumpi\n        /* \"contracts/VotingCore.sol\":1951:1972  InvalidOptionsCount() */\n      mload(0x40)\n      0x447074b500000000000000000000000000000000000000000000000000000000\n      dup2\n      mstore\n      0x04\n      add\n      mload(0x40)\n      dup1\n      swap2\n      sub\n      swap1\n      revert\n        /* \"contracts/VotingCore.sol\":1881:1984  if (_options.length < 2 || _options.length > 6) {... */\n    tag_172:\n        /* \"contracts/VotingCore.sol\":2022:2023  0 */\n      0x00\n        /* \"contracts/VotingCore.sol\":2004:2010  _title */\n      dup4\n        /* \"contracts/VotingCore.sol\":1998:2018  bytes(_title).length */\n      mload\n        /* \"contracts/VotingCore.sol\":1998:2023  bytes(_title).length == 0 */\n      sub\n        /* \"contracts/VotingCore.sol\":1994:2071  if (bytes(_title).length == 0) {... */\n      tag_173\n      jumpi\n        /* \"contracts/VotingCore.sol\":2047:2059  EmptyTitle() */\n      mload(0x40)\n      0xa5bb9bde00000000000000000000000000000000000000000000000000000000\n      dup2\n      mstore\n      0x04\n      add\n      mload(0x40)\n      dup1\n      swap2\n      sub\n      swap1\n      revert\n        /* \"contracts/VotingCore.sol\":1994:2071  if (bytes(_title).length == 0) {... */\n    tag_173:\n        /* \"contracts/VotingCore.sol\":2083:2094  pollCounter */\n      0x02\n      0x00\n        /* \"contracts/VotingCore.sol\":2083:2096  pollCounter++ */\n      dup2\n      sload\n      dup1\n      swap3\n      swap2\n      swap1\n      tag_174\n      swap1\n      tag_139\n      jump\t// in\n    tag_174:\n      swap2\n      swap1\n      pop\n      sstore\n      pop\n        /* \"contracts/VotingCore.sol\":2107:2131  PollInfo storage newPoll */\n      0x00\n        /* \"contracts/VotingCore.sol\":2134:2139  polls */\n      dup1\n        /* \"contracts/VotingCore.sol\":2134:2152  polls[pollCounter] */\n      0x00\n        /* \"contracts/VotingCore.sol\":2140:2151  pollCounter */\n      sload(0x02)\n        /* \"contracts/VotingCore.sol\":2134:2152  polls[pollCounter] */\n      dup2\n      mstore\n      0x20\n      add\n      swap1\n      dup2\n      mstore\n      0x20\n      add\n      0x00\n      keccak256\n        /* \"contracts/VotingCore.sol\":2107:2152  PollInfo storage newPoll = polls[pollCounter] */\n      swap1\n      pop\n        /* \"contracts/VotingCore.sol\":2179:2185  _title */\n      dup4\n        /* \"contracts/VotingCore.sol\":2163:2170  newPoll */\n      dup2\n        /* \"contracts/VotingCore.sol\":2163:2176  newPoll.title */\n      0x00\n      add\n        /* \"contracts/VotingCore.sol\":2163:2185  newPoll.title = _title */\n      swap1\n      dup2\n      tag_175\n      swap2\n      swap1\n      tag_176\n      jump\t// in\n    tag_175:\n      pop\n        /* \"contracts/VotingCore.sol\":2214:2224  msg.sender */\n      caller\n        /* \"contracts/VotingCore.sol\":2196:2203  newPoll */\n      dup2\n        /* \"contracts/VotingCore.sol\":2196:2211  newPoll.creator */\n      0x01\n      add\n      0x00\n        /* \"contracts/VotingCore.sol\":2196:2224  newPoll.creator = msg.sender */\n      0x0100\n      exp\n      dup2\n      sload\n      dup2\n      0xffffffffffffffffffffffffffffffffffffffff\n      mul\n      not\n      and\n      swap1\n      dup4\n      0xffffffffffffffffffffffffffffffffffffffff\n      and\n      mul\n      or\n      swap1\n      sstore\n      pop\n        /* \"contracts/VotingCore.sol\":2254:2258  true */\n      0x01\n        /* \"contracts/VotingCore.sol\":2235:2242  newPoll */\n      dup2\n        /* \"contracts/VotingCore.sol\":2235:2251  newPoll.isActive */\n      0x01\n      add\n      0x14\n        /* \"contracts/VotingCore.sol\":2235:2258  newPoll.isActive = true */\n      0x0100\n      exp\n      dup2\n      sload\n      dup2\n      0xff\n      mul\n      not\n      and\n      swap1\n      dup4\n      iszero\n      iszero\n      mul\n      or\n      swap1\n      sstore\n      pop\n        /* \"contracts/VotingCore.sol\":2289:2304  block.timestamp */\n      timestamp\n        /* \"contracts/VotingCore.sol\":2269:2276  newPoll */\n      dup2\n        /* \"contracts/VotingCore.sol\":2269:2286  newPoll.createdAt */\n      0x02\n      add\n        /* \"contracts/VotingCore.sol\":2269:2304  newPoll.createdAt = block.timestamp */\n      dup2\n      swap1\n      sstore\n      pop\n        /* \"contracts/VotingCore.sol\":2322:2331  uint256 i */\n      0x00\n        /* \"contracts/VotingCore.sol\":2317:2622  for (uint256 i = 0; i < _options.length; i++) {... */\n    tag_177:\n        /* \"contracts/VotingCore.sol\":2341:2349  _options */\n      dup4\n        /* \"contracts/VotingCore.sol\":2341:2356  _options.length */\n      mload\n        /* \"contracts/VotingCore.sol\":2337:2338  i */\n      dup2\n        /* \"contracts/VotingCore.sol\":2337:2356  i < _options.length */\n      lt\n        /* \"contracts/VotingCore.sol\":2317:2622  for (uint256 i = 0; i < _options.length; i++) {... */\n      iszero\n      tag_178\n      jumpi\n        /* \"contracts/VotingCore.sol\":2411:2412  0 */\n      0x00\n        /* \"contracts/VotingCore.sol\":2388:2396  _options */\n      dup5\n        /* \"contracts/VotingCore.sol\":2397:2398  i */\n      dup3\n        /* \"contracts/VotingCore.sol\":2388:2399  _options[i] */\n      dup2\n      mload\n      dup2\n      lt\n      tag_180\n      jumpi\n      tag_181\n      tag_111\n      jump\t// in\n    tag_181:\n    tag_180:\n      0x20\n      mul\n      0x20\n      add\n      add\n      mload\n        /* \"contracts/VotingCore.sol\":2382:2407  bytes(_options[i]).length */\n      mload\n        /* \"contracts/VotingCore.sol\":2382:2412  bytes(_options[i]).length == 0 */\n      sub\n        /* \"contracts/VotingCore.sol\":2378:2469  if (bytes(_options[i]).length == 0) {... */\n      tag_182\n      jumpi\n        /* \"contracts/VotingCore.sol\":2440:2453  EmptyOption() */\n      mload(0x40)\n      0x0f5e795700000000000000000000000000000000000000000000000000000000\n      dup2\n      mstore\n      0x04\n      add\n      mload(0x40)\n      dup1\n      swap2\n      sub\n      swap1\n      revert\n        /* \"contracts/VotingCore.sol\":2378:2469  if (bytes(_options[i]).length == 0) {... */\n    tag_182:\n        /* \"contracts/VotingCore.sol\":2483:2490  newPoll */\n      dup2\n        /* \"contracts/VotingCore.sol\":2483:2498  newPoll.options */\n      0x04\n      add\n        /* \"contracts/VotingCore.sol\":2504:2609  VotingOptions({... */\n      mload(0x40)\n      dup1\n      0x40\n      add\n      0x40\n      mstore\n      dup1\n        /* \"contracts/VotingCore.sol\":2550:2558  _options */\n      dup7\n        /* \"contracts/VotingCore.sol\":2559:2560  i */\n      dup5\n        /* \"contracts/VotingCore.sol\":2550:2561  _options[i] */\n      dup2\n      mload\n      dup2\n      lt\n      tag_183\n      jumpi\n      tag_184\n      tag_111\n      jump\t// in\n    tag_184:\n    tag_183:\n      0x20\n      mul\n      0x20\n      add\n      add\n      mload\n        /* \"contracts/VotingCore.sol\":2504:2609  VotingOptions({... */\n      dup2\n      mstore\n      0x20\n      add\n        /* \"contracts/VotingCore.sol\":2592:2593  0 */\n      0x00\n        /* \"contracts/VotingCore.sol\":2504:2609  VotingOptions({... */\n      dup2\n      mstore\n      pop\n        /* \"contracts/VotingCore.sol\":2483:2610  newPoll.options.push(VotingOptions({... */\n      swap1\n      dup1\n      0x01\n      dup2\n      sload\n      add\n      dup1\n      dup3\n      sstore\n      dup1\n      swap2\n      pop\n      pop\n      0x01\n      swap1\n      sub\n      swap1\n      0x00\n      mstore\n      keccak256(0x00, 0x20)\n      swap1\n      0x02\n      mul\n      add\n      0x00\n      swap1\n      swap2\n      swap1\n      swap2\n      swap1\n      swap2\n      pop\n      0x00\n      dup3\n      add\n      mload\n      dup2\n      0x00\n      add\n      swap1\n      dup2\n      tag_186\n      swap2\n      swap1\n      tag_176\n      jump\t// in\n    tag_186:\n      pop\n      0x20\n      dup3\n      add\n      mload\n      dup2\n      0x01\n      add\n      sstore\n      pop\n      pop\n        /* \"contracts/VotingCore.sol\":2358:2361  i++ */\n      dup1\n      dup1\n      tag_187\n      swap1\n      tag_139\n      jump\t// in\n    tag_187:\n      swap2\n      pop\n      pop\n        /* \"contracts/VotingCore.sol\":2317:2622  for (uint256 i = 0; i < _options.length; i++) {... */\n      jump(tag_177)\n    tag_178:\n      pop\n        /* \"contracts/VotingCore.sol\":2634:2643  userPolls */\n      0x01\n        /* \"contracts/VotingCore.sol\":2634:2655  userPolls[msg.sender] */\n      0x00\n        /* \"contracts/VotingCore.sol\":2644:2654  msg.sender */\n      caller\n        /* \"contracts/VotingCore.sol\":2634:2655  userPolls[msg.sender] */\n      0xffffffffffffffffffffffffffffffffffffffff\n      and\n      0xffffffffffffffffffffffffffffffffffffffff\n      and\n      dup2\n      mstore\n      0x20\n      add\n      swap1\n      dup2\n      mstore\n      0x20\n      add\n      0x00\n      keccak256\n        /* \"contracts/VotingCore.sol\":2661:2672  pollCounter */\n      sload(0x02)\n        /* \"contracts/VotingCore.sol\":2634:2673  userPolls[msg.sender].push(pollCounter) */\n      swap1\n      dup1\n      0x01\n      dup2\n      sload\n      add\n      dup1\n      dup3\n      sstore\n      dup1\n      swap2\n      pop\n      pop\n      0x01\n      swap1\n      sub\n      swap1\n      0x00\n      mstore\n      keccak256(0x00, 0x20)\n      add\n      0x00\n      swap1\n      swap2\n      swap1\n      swap2\n      swap1\n      swap2\n      pop\n      sstore\n        /* \"contracts/VotingCore.sol\":2732:2742  msg.sender */\n      caller\n        /* \"contracts/VotingCore.sol\":2699:2760  PollCreated(pollCounter, _title, msg.sender, block.timestamp) */\n      0xffffffffffffffffffffffffffffffffffffffff\n      and\n        /* \"contracts/VotingCore.sol\":2711:2722  pollCounter */\n      sload(0x02)\n        /* \"contracts/VotingCore.sol\":2699:2760  PollCreated(pollCounter, _title, msg.sender, block.timestamp) */\n      0x29f758df3e81eeecf732e452ff26f333ec14ae9aa2d08ae1ce7b5af71808026b\n        /* \"contracts/VotingCore.sol\":2724:2730  _title */\n      dup7\n        /* \"contracts/VotingCore.sol\":2744:2759  block.timestamp */\n      timestamp\n        /* \"contracts/VotingCore.sol\":2699:2760  PollCreated(pollCounter, _title, msg.sender, block.timestamp) */\n      mload(0x40)\n      tag_189\n      swap3\n      swap2\n      swap1\n      tag_62\n      jump\t// in\n    tag_189:\n      mload(0x40)\n      dup1\n      swap2\n      sub\n      swap1\n      log3\n        /* \"contracts/VotingCore.sol\":2778:2789  pollCounter */\n      sload(0x02)\n        /* \"contracts/VotingCore.sol\":2771:2789  return pollCounter */\n      swap2\n      pop\n      pop\n        /* \"contracts/VotingCore.sol\":1749:2797  function createPoll(string memory _title, string[] memory _options) ... */\n      swap3\n      swap2\n      pop\n      pop\n      jump\t// out\n        /* \"contracts/VotingCore.sol\":2968:3735  function vote(uint256 _pollId, uint256 _optionIndex) external {... */\n    tag_57:\n        /* \"contracts/VotingCore.sol\":3056:3057  0 */\n      0x00\n        /* \"contracts/VotingCore.sol\":3045:3052  _pollId */\n      dup3\n        /* \"contracts/VotingCore.sol\":3045:3057  _pollId == 0 */\n      eq\n        /* \"contracts/VotingCore.sol\":3045:3082  _pollId == 0 || _pollId > pollCounter */\n      dup1\n      tag_191\n      jumpi\n      pop\n        /* \"contracts/VotingCore.sol\":3071:3082  pollCounter */\n      sload(0x02)\n        /* \"contracts/VotingCore.sol\":3061:3068  _pollId */\n      dup3\n        /* \"contracts/VotingCore.sol\":3061:3082  _pollId > pollCounter */\n      gt\n        /* \"contracts/VotingCore.sol\":3045:3082  _pollId == 0 || _pollId > pollCounter */\n    tag_191:\n        /* \"contracts/VotingCore.sol\":3041:3132  if (_pollId == 0 || _pollId > pollCounter) {... */\n      iszero\n      tag_192\n      jumpi\n        /* \"contracts/VotingCore.sol\":3106:3120  PollNotFound() */\n      mload(0x40)\n      0xf9d6fdec00000000000000000000000000000000000000000000000000000000\n      dup2\n      mstore\n      0x04\n      add\n      mload(0x40)\n      dup1\n      swap2\n      sub\n      swap1\n      revert\n        /* \"contracts/VotingCore.sol\":3041:3132  if (_pollId == 0 || _pollId > pollCounter) {... */\n    tag_192:\n        /* \"contracts/VotingCore.sol\":3152:3173  PollInfo storage poll */\n      0x00\n        /* \"contracts/VotingCore.sol\":3176:3181  polls */\n      dup1\n        /* \"contracts/VotingCore.sol\":3176:3190  polls[_pollId] */\n      0x00\n        /* \"contracts/VotingCore.sol\":3182:3189  _pollId */\n      dup5\n        /* \"contracts/VotingCore.sol\":3176:3190  polls[_pollId] */\n      dup2\n      mstore\n      0x20\n      add\n      swap1\n      dup2\n      mstore\n      0x20\n      add\n      0x00\n      keccak256\n        /* \"contracts/VotingCore.sol\":3152:3190  PollInfo storage poll = polls[_pollId] */\n      swap1\n      pop\n        /* \"contracts/VotingCore.sol\":3216:3220  poll */\n      dup1\n        /* \"contracts/VotingCore.sol\":3216:3229  poll.isActive */\n      0x01\n      add\n      0x14\n      swap1\n      sload\n      swap1\n      0x0100\n      exp\n      swap1\n      div\n      0xff\n      and\n        /* \"contracts/VotingCore.sol\":3211:3279  if (!poll.isActive) {... */\n      tag_193\n      jumpi\n        /* \"contracts/VotingCore.sol\":3253:3267  PollInactive() */\n      mload(0x40)\n      0xc2f102cb00000000000000000000000000000000000000000000000000000000\n      dup2\n      mstore\n      0x04\n      add\n      mload(0x40)\n      dup1\n      swap2\n      sub\n      swap1\n      revert\n        /* \"contracts/VotingCore.sol\":3211:3279  if (!poll.isActive) {... */\n    tag_193:\n        /* \"contracts/VotingCore.sol\":3293:3297  poll */\n      dup1\n        /* \"contracts/VotingCore.sol\":3293:3306  poll.hasVoted */\n      0x05\n      add\n        /* \"contracts/VotingCore.sol\":3293:3318  poll.hasVoted[msg.sender] */\n      0x00\n        /* \"contracts/VotingCore.sol\":3307:3317  msg.sender */\n      caller\n        /* \"contracts/VotingCore.sol\":3293:3318  poll.hasVoted[msg.sender] */\n      0xffffffffffffffffffffffffffffffffffffffff\n      and\n      0xffffffffffffffffffffffffffffffffffffffff\n      and\n      dup2\n      mstore\n      0x20\n      add\n      swap1\n      dup2\n      mstore\n      0x20\n      add\n      0x00\n      keccak256\n      0x00\n      swap1\n      sload\n      swap1\n      0x0100\n      exp\n      swap1\n      div\n      0xff\n      and\n        /* \"contracts/VotingCore.sol\":3289:3368  if (poll.hasVoted[msg.sender]) {... */\n      iszero\n      tag_194\n      jumpi\n        /* \"contracts/VotingCore.sol\":3342:3356  AlreadyVoted() */\n      mload(0x40)\n      0x7c9a1cf900000000000000000000000000000000000000000000000000000000\n      dup2\n      mstore\n      0x04\n      add\n      mload(0x40)\n      dup1\n      swap2\n      sub\n      swap1\n      revert\n        /* \"contracts/VotingCore.sol\":3289:3368  if (poll.hasVoted[msg.sender]) {... */\n    tag_194:\n        /* \"contracts/VotingCore.sol\":3398:3402  poll */\n      dup1\n        /* \"contracts/VotingCore.sol\":3398:3410  poll.options */\n      0x04\n      add\n        /* \"contracts/VotingCore.sol\":3398:3417  poll.options.length */\n      dup1\n      sload\n      swap1\n      pop\n        /* \"contracts/VotingCore.sol\":3382:3394  _optionIndex */\n      dup3\n        /* \"contracts/VotingCore.sol\":3382:3417  _optionIndex >= poll.options.length */\n      lt\n        /* \"contracts/VotingCore.sol\":3378:3468  if (_optionIndex >= poll.options.length) {... */\n      tag_195\n      jumpi\n        /* \"contracts/VotingCore.sol\":3441:3456  InvalidOption() */\n      mload(0x40)\n      0x2a71953100000000000000000000000000000000000000000000000000000000\n      dup2\n      mstore\n      0x04\n      add\n      mload(0x40)\n      dup1\n      swap2\n      sub\n      swap1\n      revert\n        /* \"contracts/VotingCore.sol\":3378:3468  if (_optionIndex >= poll.options.length) {... */\n    tag_195:\n        /* \"contracts/VotingCore.sol\":3480:3484  poll */\n      dup1\n        /* \"contracts/VotingCore.sol\":3480:3492  poll.options */\n      0x04\n      add\n        /* \"contracts/VotingCore.sol\":3493:3505  _optionIndex */\n      dup3\n        /* \"contracts/VotingCore.sol\":3480:3506  poll.options[_optionIndex] */\n      dup2\n      sload\n      dup2\n      lt\n      tag_196\n      jumpi\n      tag_197\n      tag_111\n      jump\t// in\n    tag_197:\n    tag_196:\n      swap1\n      0x00\n      mstore\n      keccak256(0x00, 0x20)\n      swap1\n      0x02\n      mul\n      add\n        /* \"contracts/VotingCore.sol\":3480:3516  poll.options[_optionIndex].voteCount */\n      0x01\n      add\n      0x00\n        /* \"contracts/VotingCore.sol\":3480:3518  poll.options[_optionIndex].voteCount++ */\n      dup2\n      sload\n      dup1\n      swap3\n      swap2\n      swap1\n      tag_199\n      swap1\n      tag_139\n      jump\t// in\n    tag_199:\n      swap2\n      swap1\n      pop\n      sstore\n      pop\n        /* \"contracts/VotingCore.sol\":3529:3533  poll */\n      dup1\n        /* \"contracts/VotingCore.sol\":3529:3544  poll.totalVotes */\n      0x03\n      add\n      0x00\n        /* \"contracts/VotingCore.sol\":3529:3546  poll.totalVotes++ */\n      dup2\n      sload\n      dup1\n      swap3\n      swap2\n      swap1\n      tag_200\n      swap1\n      tag_139\n      jump\t// in\n    tag_200:\n      swap2\n      swap1\n      pop\n      sstore\n      pop\n        /* \"contracts/VotingCore.sol\":3585:3589  true */\n      0x01\n        /* \"contracts/VotingCore.sol\":3557:3561  poll */\n      dup2\n        /* \"contracts/VotingCore.sol\":3557:3570  poll.hasVoted */\n      0x05\n      add\n        /* \"contracts/VotingCore.sol\":3557:3582  poll.hasVoted[msg.sender] */\n      0x00\n        /* \"contracts/VotingCore.sol\":3571:3581  msg.sender */\n      caller\n        /* \"contracts/VotingCore.sol\":3557:3582  poll.hasVoted[msg.sender] */\n      0xffffffffffffffffffffffffffffffffffffffff\n      and\n      0xffffffffffffffffffffffffffffffffffffffff\n      and\n      dup2\n      mstore\n      0x20\n      add\n      swap1\n      dup2\n      mstore\n      0x20\n      add\n      0x00\n      keccak256\n      0x00\n        /* \"contracts/VotingCore.sol\":3557:3589  poll.hasVoted[msg.sender] = true */\n      0x0100\n      exp\n      dup2\n      sload\n      dup2\n      0xff\n      mul\n      not\n      and\n      swap1\n      dup4\n      iszero\n      iszero\n      mul\n      or\n      swap1\n      sstore\n      pop\n        /* \"contracts/VotingCore.sol\":3631:3643  _optionIndex */\n      dup2\n        /* \"contracts/VotingCore.sol\":3600:3604  poll */\n      dup2\n        /* \"contracts/VotingCore.sol\":3600:3616  poll.voterChoice */\n      0x06\n      add\n        /* \"contracts/VotingCore.sol\":3600:3628  poll.voterChoice[msg.sender] */\n      0x00\n        /* \"contracts/VotingCore.sol\":3617:3627  msg.sender */\n      caller\n        /* \"contracts/VotingCore.sol\":3600:3628  poll.voterChoice[msg.sender] */\n      0xffffffffffffffffffffffffffffffffffffffff\n      and\n      0xffffffffffffffffffffffffffffffffffffffff\n      and\n      dup2\n      mstore\n      0x20\n      add\n      swap1\n      dup2\n      mstore\n      0x20\n      add\n      0x00\n      keccak256\n        /* \"contracts/VotingCore.sol\":3600:3643  poll.voterChoice[msg.sender] = _optionIndex */\n      dup2\n      swap1\n      sstore\n      pop\n        /* \"contracts/VotingCore.sol\":3699:3709  msg.sender */\n      caller\n        /* \"contracts/VotingCore.sol\":3661:3727  VoteRegistered(_pollId, _optionIndex, msg.sender, block.timestamp) */\n      0xffffffffffffffffffffffffffffffffffffffff\n      and\n        /* \"contracts/VotingCore.sol\":3685:3697  _optionIndex */\n      dup3\n        /* \"contracts/VotingCore.sol\":3676:3683  _pollId */\n      dup5\n        /* \"contracts/VotingCore.sol\":3661:3727  VoteRegistered(_pollId, _optionIndex, msg.sender, block.timestamp) */\n      0x05ba3a7d514d15226e18b7b8542e232f0d94b49bd54784785d294b57e17ad6c1\n        /* \"contracts/VotingCore.sol\":3711:3726  block.timestamp */\n      timestamp\n        /* \"contracts/VotingCore.sol\":3661:3727  VoteRegistered(_pollId, _optionIndex, msg.sender, block.timestamp) */\n      mload(0x40)\n      tag_201\n      swap2\n      swap1\n      tag_26\n      jump\t// in\n    tag_201:\n      mload(0x40)\n      dup1\n      swap2\n      sub\n      swap1\n      log4\n        /* \"contracts/VotingCore.sol\":3030:3735  {... */\n      pop\n        /* \"contracts/VotingCore.sol\":2968:3735  function vote(uint256 _pollId, uint256 _optionIndex) external {... */\n      pop\n      pop\n      jump\t// out\n        /* \"contracts/VotingCore.sol\":5759:6328  function getPollOption(uint256 _pollId, uint256 _optionIndex) ... */\n    tag_60:\n        /* \"contracts/VotingCore.sol\":5874:5899  string memory description */\n      0x60\n        /* \"contracts/VotingCore.sol\":5901:5918  uint256 voteCount */\n      0x00\n        /* \"contracts/VotingCore.sol\":5952:5953  0 */\n      dup1\n        /* \"contracts/VotingCore.sol\":5941:5948  _pollId */\n      dup5\n        /* \"contracts/VotingCore.sol\":5941:5953  _pollId == 0 */\n      eq\n        /* \"contracts/VotingCore.sol\":5941:5978  _pollId == 0 || _pollId > pollCounter */\n      dup1\n      tag_203\n      jumpi\n      pop\n        /* \"contracts/VotingCore.sol\":5967:5978  pollCounter */\n      sload(0x02)\n        /* \"contracts/VotingCore.sol\":5957:5964  _pollId */\n      dup5\n        /* \"contracts/VotingCore.sol\":5957:5978  _pollId > pollCounter */\n      gt\n        /* \"contracts/VotingCore.sol\":5941:5978  _pollId == 0 || _pollId > pollCounter */\n    tag_203:\n        /* \"contracts/VotingCore.sol\":5937:6028  if (_pollId == 0 || _pollId > pollCounter) {... */\n      iszero\n      tag_204\n      jumpi\n        /* \"contracts/VotingCore.sol\":6002:6016  PollNotFound() */\n      mload(0x40)\n      0xf9d6fdec00000000000000000000000000000000000000000000000000000000\n      dup2\n      mstore\n      0x04\n      add\n      mload(0x40)\n      dup1\n      swap2\n      sub\n      swap1\n      revert\n        /* \"contracts/VotingCore.sol\":5937:6028  if (_pollId == 0 || _pollId > pollCounter) {... */\n    tag_204:\n        /* \"contracts/VotingCore.sol\":6048:6069  PollInfo storage poll */\n      0x00\n        /* \"contracts/VotingCore.sol\":6072:6077  polls */\n      dup1\n        /* \"contracts/VotingCore.sol\":6072:6086  polls[_pollId] */\n      0x00\n        /* \"contracts/VotingCore.sol\":6078:6085  _pollId */\n      dup7\n        /* \"contracts/VotingCore.sol\":6072:6086  polls[_pollId] */\n      dup2\n      mstore\n      0x20\n      add\n      swap1\n      dup2\n      mstore\n      0x20\n      add\n      0x00\n      keccak256\n        /* \"contracts/VotingCore.sol\":6048:6086  PollInfo storage poll = polls[_pollId] */\n      swap1\n      pop\n        /* \"contracts/VotingCore.sol\":6117:6121  poll */\n      dup1\n        /* \"contracts/VotingCore.sol\":6117:6129  poll.options */\n      0x04\n      add\n        /* \"contracts/VotingCore.sol\":6117:6136  poll.options.length */\n      dup1\n      sload\n      swap1\n      pop\n        /* \"contracts/VotingCore.sol\":6101:6113  _optionIndex */\n      dup5\n        /* \"contracts/VotingCore.sol\":6101:6136  _optionIndex >= poll.options.length */\n      lt\n        /* \"contracts/VotingCore.sol\":6097:6187  if (_optionIndex >= poll.options.length) {... */\n      tag_205\n      jumpi\n        /* \"contracts/VotingCore.sol\":6160:6175  InvalidOption() */\n      mload(0x40)\n      0x2a71953100000000000000000000000000000000000000000000000000000000\n      dup2\n      mstore\n      0x04\n      add\n      mload(0x40)\n      dup1\n      swap2\n      sub\n      swap1\n      revert\n        /* \"contracts/VotingCore.sol\":6097:6187  if (_optionIndex >= poll.options.length) {... */\n    tag_205:\n        /* \"contracts/VotingCore.sol\":6207:6235  VotingOptions storage option */\n      0x00\n        /* \"contracts/VotingCore.sol\":6238:6242  poll */\n      dup2\n        /* \"contracts/VotingCore.sol\":6238:6250  poll.options */\n      0x04\n      add\n        /* \"contracts/VotingCore.sol\":6251:6263  _optionIndex */\n      dup6\n        /* \"contracts/VotingCore.sol\":6238:6264  poll.options[_optionIndex] */\n      dup2\n      sload\n      dup2\n      lt\n      tag_206\n      jumpi\n      tag_207\n      tag_111\n      jump\t// in\n    tag_207:\n    tag_206:\n      swap1\n      0x00\n      mstore\n      keccak256(0x00, 0x20)\n      swap1\n      0x02\n      mul\n      add\n        /* \"contracts/VotingCore.sol\":6207:6264  VotingOptions storage option = poll.options[_optionIndex] */\n      swap1\n      pop\n        /* \"contracts/VotingCore.sol\":6283:6289  option */\n      dup1\n        /* \"contracts/VotingCore.sol\":6283:6301  option.description */\n      0x00\n      add\n        /* \"contracts/VotingCore.sol\":6303:6309  option */\n      dup2\n        /* \"contracts/VotingCore.sol\":6303:6319  option.voteCount */\n      0x01\n      add\n      sload\n        /* \"contracts/VotingCore.sol\":6275:6320  return (option.description, option.voteCount) */\n      dup2\n      dup1\n      sload\n      tag_209\n      swap1\n      tag_81\n      jump\t// in\n    tag_209:\n      dup1\n      0x1f\n      add\n      0x20\n      dup1\n      swap2\n      div\n      mul\n      0x20\n      add\n      mload(0x40)\n      swap1\n      dup2\n      add\n      0x40\n      mstore\n      dup1\n      swap3\n      swap2\n      swap1\n      dup2\n      dup2\n      mstore\n      0x20\n      add\n      dup3\n      dup1\n      sload\n      tag_210\n      swap1\n      tag_81\n      jump\t// in\n    tag_210:\n      dup1\n      iszero\n      tag_211\n      jumpi\n      dup1\n      0x1f\n      lt\n      tag_212\n      jumpi\n      0x0100\n      dup1\n      dup4\n      sload\n      div\n      mul\n      dup4\n      mstore\n      swap2\n      0x20\n      add\n      swap2\n      jump(tag_211)\n    tag_212:\n      dup3\n      add\n      swap2\n      swap1\n      0x00\n      mstore\n      keccak256(0x00, 0x20)\n      swap1\n    tag_213:\n      dup2\n      sload\n      dup2\n      mstore\n      swap1\n      0x01\n      add\n      swap1\n      0x20\n      add\n      dup1\n      dup4\n      gt\n      tag_213\n      jumpi\n      dup3\n      swap1\n      sub\n      0x1f\n      and\n      dup3\n      add\n      swap2\n    tag_211:\n      pop\n      pop\n      pop\n      pop\n      pop\n      swap2\n      pop\n      swap4\n      pop\n      swap4\n      pop\n      pop\n      pop\n        /* \"contracts/VotingCore.sol\":5759:6328  function getPollOption(uint256 _pollId, uint256 _optionIndex) ... */\n      swap3\n      pop\n      swap3\n      swap1\n      pop\n      jump\t// out\n        /* \"contracts/VotingCore.sol\":7522:7800  function hasUserVoted(uint256 _pollId, address _voter) ... */\n    tag_65:\n        /* \"contracts/VotingCore.sol\":7630:7634  bool */\n      0x00\n        /* \"contracts/VotingCore.sol\":7668:7669  0 */\n      dup1\n        /* \"contracts/VotingCore.sol\":7657:7664  _pollId */\n      dup4\n        /* \"contracts/VotingCore.sol\":7657:7669  _pollId == 0 */\n      eq\n        /* \"contracts/VotingCore.sol\":7657:7694  _pollId == 0 || _pollId > pollCounter */\n      dup1\n      tag_215\n      jumpi\n      pop\n        /* \"contracts/VotingCore.sol\":7683:7694  pollCounter */\n      sload(0x02)\n        /* \"contracts/VotingCore.sol\":7673:7680  _pollId */\n      dup4\n        /* \"contracts/VotingCore.sol\":7673:7694  _pollId > pollCounter */\n      gt\n        /* \"contracts/VotingCore.sol\":7657:7694  _pollId == 0 || _pollId > pollCounter */\n    tag_215:\n        /* \"contracts/VotingCore.sol\":7653:7744  if (_pollId == 0 || _pollId > pollCounter) {... */\n      iszero\n      tag_216\n      jumpi\n        /* \"contracts/VotingCore.sol\":7718:7732  PollNotFound() */\n      mload(0x40)\n      0xf9d6fdec00000000000000000000000000000000000000000000000000000000\n      dup2\n      mstore\n      0x04\n      add\n      mload(0x40)\n      dup1\n      swap2\n      sub\n      swap1\n      revert\n        /* \"contracts/VotingCore.sol\":7653:7744  if (_pollId == 0 || _pollId > pollCounter) {... */\n    tag_216:\n        /* \"contracts/VotingCore.sol\":7761:7766  polls */\n      0x00\n        /* \"contracts/VotingCore.sol\":7761:7775  polls[_pollId] */\n      dup1\n        /* \"contracts/VotingCore.sol\":7767:7774  _pollId */\n      dup5\n        /* \"contracts/VotingCore.sol\":7761:7775  polls[_pollId] */\n      dup2\n      mstore\n      0x20\n      add\n      swap1\n      dup2\n      mstore\n      0x20\n      add\n      0x00\n      keccak256\n        /* \"contracts/VotingCore.sol\":7761:7784  polls[_pollId].hasVoted */\n      0x05\n      add\n        /* \"contracts/VotingCore.sol\":7761:7792  polls[_pollId].hasVoted[_voter] */\n      0x00\n        /* \"contracts/VotingCore.sol\":7785:7791  _voter */\n      dup4\n        /* \"contracts/VotingCore.sol\":7761:7792  polls[_pollId].hasVoted[_voter] */\n      0xffffffffffffffffffffffffffffffffffffffff\n      and\n      0xffffffffffffffffffffffffffffffffffffffff\n      and\n      dup2\n      mstore\n      0x20\n      add\n      swap1\n      dup2\n      mstore\n      0x20\n      add\n      0x00\n      keccak256\n      0x00\n      swap1\n      sload\n      swap1\n      0x0100\n      exp\n      swap1\n      div\n      0xff\n      and\n        /* \"contracts/VotingCore.sol\":7754:7792  return polls[_pollId].hasVoted[_voter] */\n      swap1\n      pop\n        /* \"contracts/VotingCore.sol\":7522:7800  function hasUserVoted(uint256 _pollId, address _voter) ... */\n      swap3\n      swap2\n      pop\n      pop\n      jump\t// out\n        /* \"#utility.yul\":7:82   */\n    tag_217:\n        /* \"#utility.yul\":40:46   */\n      0x00\n        /* \"#utility.yul\":73:75   */\n      0x40\n        /* \"#utility.yul\":67:76   */\n      mload\n        /* \"#utility.yul\":57:76   */\n      swap1\n      pop\n        /* \"#utility.yul\":7:82   */\n      swap1\n      jump\t// out\n        /* \"#utility.yul\":88:205   */\n    tag_218:\n        /* \"#utility.yul\":197:198   */\n      0x00\n        /* \"#utility.yul\":194:195   */\n      dup1\n        /* \"#utility.yul\":187:199   */\n      revert\n        /* \"#utility.yul\":211:328   */\n    tag_219:\n        /* \"#utility.yul\":320:321   */\n      0x00\n        /* \"#utility.yul\":317:318   */\n      dup1\n        /* \"#utility.yul\":310:322   */\n      revert\n        /* \"#utility.yul\":334:460   */\n    tag_220:\n        /* \"#utility.yul\":371:378   */\n      0x00\n        /* \"#utility.yul\":411:453   */\n      0xffffffffffffffffffffffffffffffffffffffff\n        /* \"#utility.yul\":404:409   */\n      dup3\n        /* \"#utility.yul\":400:454   */\n      and\n        /* \"#utility.yul\":389:454   */\n      swap1\n      pop\n        /* \"#utility.yul\":334:460   */\n      swap2\n      swap1\n      pop\n      jump\t// out\n        /* \"#utility.yul\":466:562   */\n    tag_221:\n        /* \"#utility.yul\":503:510   */\n      0x00\n        /* \"#utility.yul\":532:556   */\n      tag_289\n        /* \"#utility.yul\":550:555   */\n      dup3\n        /* \"#utility.yul\":532:556   */\n      tag_220\n      jump\t// in\n    tag_289:\n        /* \"#utility.yul\":521:556   */\n      swap1\n      pop\n        /* \"#utility.yul\":466:562   */\n      swap2\n      swap1\n      pop\n      jump\t// out\n        /* \"#utility.yul\":568:690   */\n    tag_222:\n        /* \"#utility.yul\":641:665   */\n      tag_291\n        /* \"#utility.yul\":659:664   */\n      dup2\n        /* \"#utility.yul\":641:665   */\n      tag_221\n      jump\t// in\n    tag_291:\n        /* \"#utility.yul\":634:639   */\n      dup2\n        /* \"#utility.yul\":631:666   */\n      eq\n        /* \"#utility.yul\":621:684   */\n      tag_292\n      jumpi\n        /* \"#utility.yul\":680:681   */\n      0x00\n        /* \"#utility.yul\":677:678   */\n      dup1\n        /* \"#utility.yul\":670:682   */\n      revert\n        /* \"#utility.yul\":621:684   */\n    tag_292:\n        /* \"#utility.yul\":568:690   */\n      pop\n      jump\t// out\n        /* \"#utility.yul\":696:835   */\n    tag_223:\n        /* \"#utility.yul\":742:747   */\n      0x00\n        /* \"#utility.yul\":780:786   */\n      dup2\n        /* \"#utility.yul\":767:787   */\n      calldataload\n        /* \"#utility.yul\":758:787   */\n      swap1\n      pop\n        /* \"#utility.yul\":796:829   */\n      tag_294\n        /* \"#utility.yul\":823:828   */\n      dup2\n        /* \"#utility.yul\":796:829   */\n      tag_222\n      jump\t// in\n    tag_294:\n        /* \"#utility.yul\":696:835   */\n      swap3\n      swap2\n      pop\n      pop\n      jump\t// out\n        /* \"#utility.yul\":841:1170   */\n    tag_17:\n        /* \"#utility.yul\":900:906   */\n      0x00\n        /* \"#utility.yul\":949:951   */\n      0x20\n        /* \"#utility.yul\":937:946   */\n      dup3\n        /* \"#utility.yul\":928:935   */\n      dup5\n        /* \"#utility.yul\":924:947   */\n      sub\n        /* \"#utility.yul\":920:952   */\n      slt\n        /* \"#utility.yul\":917:1036   */\n      iszero\n      tag_296\n      jumpi\n        /* \"#utility.yul\":955:1034   */\n      tag_297\n      tag_218\n      jump\t// in\n    tag_297:\n        /* \"#utility.yul\":917:1036   */\n    tag_296:\n        /* \"#utility.yul\":1075:1076   */\n      0x00\n        /* \"#utility.yul\":1100:1153   */\n      tag_298\n        /* \"#utility.yul\":1145:1152   */\n      dup5\n        /* \"#utility.yul\":1136:1142   */\n      dup3\n        /* \"#utility.yul\":1125:1134   */\n      dup6\n        /* \"#utility.yul\":1121:1143   */\n      add\n        /* \"#utility.yul\":1100:1153   */\n      tag_223\n      jump\t// in\n    tag_298:\n        /* \"#utility.yul\":1090:1153   */\n      swap2\n      pop\n        /* \"#utility.yul\":1046:1163   */\n      pop\n        /* \"#utility.yul\":841:1170   */\n      swap3\n      swap2\n      pop\n      pop\n      jump\t// out\n        /* \"#utility.yul\":1176:1290   */\n    tag_224:\n        /* \"#utility.yul\":1243:1249   */\n      0x00\n        /* \"#utility.yul\":1277:1282   */\n      dup2\n        /* \"#utility.yul\":1271:1283   */\n      mload\n        /* \"#utility.yul\":1261:1283   */\n      swap1\n      pop\n        /* \"#utility.yul\":1176:1290   */\n      swap2\n      swap1\n      pop\n      jump\t// out\n        /* \"#utility.yul\":1296:1480   */\n    tag_225:\n        /* \"#utility.yul\":1395:1406   */\n      0x00\n        /* \"#utility.yul\":1429:1435   */\n      dup3\n        /* \"#utility.yul\":1424:1427   */\n      dup3\n        /* \"#utility.yul\":1417:1436   */\n      mstore\n        /* \"#utility.yul\":1469:1473   */\n      0x20\n        /* \"#utility.yul\":1464:1467   */\n      dup3\n        /* \"#utility.yul\":1460:1474   */\n      add\n        /* \"#utility.yul\":1445:1474   */\n      swap1\n      pop\n        /* \"#utility.yul\":1296:1480   */\n      swap3\n      swap2\n      pop\n      pop\n      jump\t// out\n        /* \"#utility.yul\":1486:1618   */\n    tag_226:\n        /* \"#utility.yul\":1553:1557   */\n      0x00\n        /* \"#utility.yul\":1576:1579   */\n      dup2\n        /* \"#utility.yul\":1568:1579   */\n      swap1\n      pop\n        /* \"#utility.yul\":1606:1610   */\n      0x20\n        /* \"#utility.yul\":1601:1604   */\n      dup3\n        /* \"#utility.yul\":1597:1611   */\n      add\n        /* \"#utility.yul\":1589:1611   */\n      swap1\n      pop\n        /* \"#utility.yul\":1486:1618   */\n      swap2\n      swap1\n      pop\n      jump\t// out\n        /* \"#utility.yul\":1624:1701   */\n    tag_227:\n        /* \"#utility.yul\":1661:1668   */\n      0x00\n        /* \"#utility.yul\":1690:1695   */\n      dup2\n        /* \"#utility.yul\":1679:1695   */\n      swap1\n      pop\n        /* \"#utility.yul\":1624:1701   */\n      swap2\n      swap1\n      pop\n      jump\t// out\n        /* \"#utility.yul\":1707:1815   */\n    tag_228:\n        /* \"#utility.yul\":1784:1808   */\n      tag_304\n        /* \"#utility.yul\":1802:1807   */\n      dup2\n        /* \"#utility.yul\":1784:1808   */\n      tag_227\n      jump\t// in\n    tag_304:\n        /* \"#utility.yul\":1779:1782   */\n      dup3\n        /* \"#utility.yul\":1772:1809   */\n      mstore\n        /* \"#utility.yul\":1707:1815   */\n      pop\n      pop\n      jump\t// out\n        /* \"#utility.yul\":1821:2000   */\n    tag_229:\n        /* \"#utility.yul\":1890:1900   */\n      0x00\n        /* \"#utility.yul\":1911:1957   */\n      tag_306\n        /* \"#utility.yul\":1953:1956   */\n      dup4\n        /* \"#utility.yul\":1945:1951   */\n      dup4\n        /* \"#utility.yul\":1911:1957   */\n      tag_228\n      jump\t// in\n    tag_306:\n        /* \"#utility.yul\":1989:1993   */\n      0x20\n        /* \"#utility.yul\":1984:1987   */\n      dup4\n        /* \"#utility.yul\":1980:1994   */\n      add\n        /* \"#utility.yul\":1966:1994   */\n      swap1\n      pop\n        /* \"#utility.yul\":1821:2000   */\n      swap3\n      swap2\n      pop\n      pop\n      jump\t// out\n        /* \"#utility.yul\":2006:2119   */\n    tag_230:\n        /* \"#utility.yul\":2076:2080   */\n      0x00\n        /* \"#utility.yul\":2108:2112   */\n      0x20\n        /* \"#utility.yul\":2103:2106   */\n      dup3\n        /* \"#utility.yul\":2099:2113   */\n      add\n        /* \"#utility.yul\":2091:2113   */\n      swap1\n      pop\n        /* \"#utility.yul\":2006:2119   */\n      swap2\n      swap1\n      pop\n      jump\t// out\n        /* \"#utility.yul\":2155:2887   */\n    tag_231:\n        /* \"#utility.yul\":2274:2277   */\n      0x00\n        /* \"#utility.yul\":2303:2357   */\n      tag_309\n        /* \"#utility.yul\":2351:2356   */\n      dup3\n        /* \"#utility.yul\":2303:2357   */\n      tag_224\n      jump\t// in\n    tag_309:\n        /* \"#utility.yul\":2373:2459   */\n      tag_310\n        /* \"#utility.yul\":2452:2458   */\n      dup2\n        /* \"#utility.yul\":2447:2450   */\n      dup6\n        /* \"#utility.yul\":2373:2459   */\n      tag_225\n      jump\t// in\n    tag_310:\n        /* \"#utility.yul\":2366:2459   */\n      swap4\n      pop\n        /* \"#utility.yul\":2483:2539   */\n      tag_311\n        /* \"#utility.yul\":2533:2538   */\n      dup4\n        /* \"#utility.yul\":2483:2539   */\n      tag_226\n      jump\t// in\n    tag_311:\n        /* \"#utility.yul\":2562:2569   */\n      dup1\n        /* \"#utility.yul\":2593:2594   */\n      0x00\n        /* \"#utility.yul\":2578:2862   */\n    tag_312:\n        /* \"#utility.yul\":2603:2609   */\n      dup4\n        /* \"#utility.yul\":2600:2601   */\n      dup2\n        /* \"#utility.yul\":2597:2610   */\n      lt\n        /* \"#utility.yul\":2578:2862   */\n      iszero\n      tag_314\n      jumpi\n        /* \"#utility.yul\":2679:2685   */\n      dup2\n        /* \"#utility.yul\":2673:2686   */\n      mload\n        /* \"#utility.yul\":2706:2769   */\n      tag_315\n        /* \"#utility.yul\":2765:2768   */\n      dup9\n        /* \"#utility.yul\":2750:2763   */\n      dup3\n        /* \"#utility.yul\":2706:2769   */\n      tag_229\n      jump\t// in\n    tag_315:\n        /* \"#utility.yul\":2699:2769   */\n      swap8\n      pop\n        /* \"#utility.yul\":2792:2852   */\n      tag_316\n        /* \"#utility.yul\":2845:2851   */\n      dup4\n        /* \"#utility.yul\":2792:2852   */\n      tag_230\n      jump\t// in\n    tag_316:\n        /* \"#utility.yul\":2782:2852   */\n      swap3\n      pop\n        /* \"#utility.yul\":2638:2862   */\n      pop\n        /* \"#utility.yul\":2625:2626   */\n      0x01\n        /* \"#utility.yul\":2622:2623   */\n      dup2\n        /* \"#utility.yul\":2618:2627   */\n      add\n        /* \"#utility.yul\":2613:2627   */\n      swap1\n      pop\n        /* \"#utility.yul\":2578:2862   */\n      jump(tag_312)\n    tag_314:\n        /* \"#utility.yul\":2582:2596   */\n      pop\n        /* \"#utility.yul\":2878:2881   */\n      dup6\n        /* \"#utility.yul\":2871:2881   */\n      swap4\n      pop\n        /* \"#utility.yul\":2279:2887   */\n      pop\n      pop\n      pop\n        /* \"#utility.yul\":2155:2887   */\n      swap3\n      swap2\n      pop\n      pop\n      jump\t// out\n        /* \"#utility.yul\":2893:3266   */\n    tag_20:\n        /* \"#utility.yul\":3036:3040   */\n      0x00\n        /* \"#utility.yul\":3074:3076   */\n      0x20\n        /* \"#utility.yul\":3063:3072   */\n      dup3\n        /* \"#utility.yul\":3059:3077   */\n      add\n        /* \"#utility.yul\":3051:3077   */\n      swap1\n      pop\n        /* \"#utility.yul\":3123:3132   */\n      dup2\n        /* \"#utility.yul\":3117:3121   */\n      dup2\n        /* \"#utility.yul\":3113:3133   */\n      sub\n        /* \"#utility.yul\":3109:3110   */\n      0x00\n        /* \"#utility.yul\":3098:3107   */\n      dup4\n        /* \"#utility.yul\":3094:3111   */\n      add\n        /* \"#utility.yul\":3087:3134   */\n      mstore\n        /* \"#utility.yul\":3151:3259   */\n      tag_318\n        /* \"#utility.yul\":3254:3258   */\n      dup2\n        /* \"#utility.yul\":3245:3251   */\n      dup5\n        /* \"#utility.yul\":3151:3259   */\n      tag_231\n      jump\t// in\n    tag_318:\n        /* \"#utility.yul\":3143:3259   */\n      swap1\n      pop\n        /* \"#utility.yul\":2893:3266   */\n      swap3\n      swap2\n      pop\n      pop\n      jump\t// out\n        /* \"#utility.yul\":3272:3394   */\n    tag_232:\n        /* \"#utility.yul\":3345:3369   */\n      tag_320\n        /* \"#utility.yul\":3363:3368   */\n      dup2\n        /* \"#utility.yul\":3345:3369   */\n      tag_227\n      jump\t// in\n    tag_320:\n        /* \"#utility.yul\":3338:3343   */\n      dup2\n        /* \"#utility.yul\":3335:3370   */\n      eq\n        /* \"#utility.yul\":3325:3388   */\n      tag_321\n      jumpi\n        /* \"#utility.yul\":3384:3385   */\n      0x00\n        /* \"#utility.yul\":3381:3382   */\n      dup1\n        /* \"#utility.yul\":3374:3386   */\n      revert\n        /* \"#utility.yul\":3325:3388   */\n    tag_321:\n        /* \"#utility.yul\":3272:3394   */\n      pop\n      jump\t// out\n        /* \"#utility.yul\":3400:3539   */\n    tag_233:\n        /* \"#utility.yul\":3446:3451   */\n      0x00\n        /* \"#utility.yul\":3484:3490   */\n      dup2\n        /* \"#utility.yul\":3471:3491   */\n      calldataload\n        /* \"#utility.yul\":3462:3491   */\n      swap1\n      pop\n        /* \"#utility.yul\":3500:3533   */\n      tag_323\n        /* \"#utility.yul\":3527:3532   */\n      dup2\n        /* \"#utility.yul\":3500:3533   */\n      tag_232\n      jump\t// in\n    tag_323:\n        /* \"#utility.yul\":3400:3539   */\n      swap3\n      swap2\n      pop\n      pop\n      jump\t// out\n        /* \"#utility.yul\":3545:4019   */\n    tag_23:\n        /* \"#utility.yul\":3613:3619   */\n      0x00\n        /* \"#utility.yul\":3621:3627   */\n      dup1\n        /* \"#utility.yul\":3670:3672   */\n      0x40\n        /* \"#utility.yul\":3658:3667   */\n      dup4\n        /* \"#utility.yul\":3649:3656   */\n      dup6\n        /* \"#utility.yul\":3645:3668   */\n      sub\n        /* \"#utility.yul\":3641:3673   */\n      slt\n        /* \"#utility.yul\":3638:3757   */\n      iszero\n      tag_325\n      jumpi\n        /* \"#utility.yul\":3676:3755   */\n      tag_326\n      tag_218\n      jump\t// in\n    tag_326:\n        /* \"#utility.yul\":3638:3757   */\n    tag_325:\n        /* \"#utility.yul\":3796:3797   */\n      0x00\n        /* \"#utility.yul\":3821:3874   */\n      tag_327\n        /* \"#utility.yul\":3866:3873   */\n      dup6\n        /* \"#utility.yul\":3857:3863   */\n      dup3\n        /* \"#utility.yul\":3846:3855   */\n      dup7\n        /* \"#utility.yul\":3842:3864   */\n      add\n        /* \"#utility.yul\":3821:3874   */\n      tag_233\n      jump\t// in\n    tag_327:\n        /* \"#utility.yul\":3811:3874   */\n      swap3\n      pop\n        /* \"#utility.yul\":3767:3884   */\n      pop\n        /* \"#utility.yul\":3923:3925   */\n      0x20\n        /* \"#utility.yul\":3949:4002   */\n      tag_328\n        /* \"#utility.yul\":3994:4001   */\n      dup6\n        /* \"#utility.yul\":3985:3991   */\n      dup3\n        /* \"#utility.yul\":3974:3983   */\n      dup7\n        /* \"#utility.yul\":3970:3992   */\n      add\n        /* \"#utility.yul\":3949:4002   */\n      tag_223\n      jump\t// in\n    tag_328:\n        /* \"#utility.yul\":3939:4002   */\n      swap2\n      pop\n        /* \"#utility.yul\":3894:4012   */\n      pop\n        /* \"#utility.yul\":3545:4019   */\n      swap3\n      pop\n      swap3\n      swap1\n      pop\n      jump\t// out\n        /* \"#utility.yul\":4025:4143   */\n    tag_234:\n        /* \"#utility.yul\":4112:4136   */\n      tag_330\n        /* \"#utility.yul\":4130:4135   */\n      dup2\n        /* \"#utility.yul\":4112:4136   */\n      tag_227\n      jump\t// in\n    tag_330:\n        /* \"#utility.yul\":4107:4110   */\n      dup3\n        /* \"#utility.yul\":4100:4137   */\n      mstore\n        /* \"#utility.yul\":4025:4143   */\n      pop\n      pop\n      jump\t// out\n        /* \"#utility.yul\":4149:4371   */\n    tag_26:\n        /* \"#utility.yul\":4242:4246   */\n      0x00\n        /* \"#utility.yul\":4280:4282   */\n      0x20\n        /* \"#utility.yul\":4269:4278   */\n      dup3\n        /* \"#utility.yul\":4265:4283   */\n      add\n        /* \"#utility.yul\":4257:4283   */\n      swap1\n      pop\n        /* \"#utility.yul\":4293:4364   */\n      tag_332\n        /* \"#utility.yul\":4361:4362   */\n      0x00\n        /* \"#utility.yul\":4350:4359   */\n      dup4\n        /* \"#utility.yul\":4346:4363   */\n      add\n        /* \"#utility.yul\":4337:4343   */\n      dup5\n        /* \"#utility.yul\":4293:4364   */\n      tag_234\n      jump\t// in\n    tag_332:\n        /* \"#utility.yul\":4149:4371   */\n      swap3\n      swap2\n      pop\n      pop\n      jump\t// out\n        /* \"#utility.yul\":4377:4706   */\n    tag_29:\n        /* \"#utility.yul\":4436:4442   */\n      0x00\n        /* \"#utility.yul\":4485:4487   */\n      0x20\n        /* \"#utility.yul\":4473:4482   */\n      dup3\n        /* \"#utility.yul\":4464:4471   */\n      dup5\n        /* \"#utility.yul\":4460:4483   */\n      sub\n        /* \"#utility.yul\":4456:4488   */\n      slt\n        /* \"#utility.yul\":4453:4572   */\n      iszero\n      tag_334\n      jumpi\n        /* \"#utility.yul\":4491:4570   */\n      tag_335\n      tag_218\n      jump\t// in\n    tag_335:\n        /* \"#utility.yul\":4453:4572   */\n    tag_334:\n        /* \"#utility.yul\":4611:4612   */\n      0x00\n        /* \"#utility.yul\":4636:4689   */\n      tag_336\n        /* \"#utility.yul\":4681:4688   */\n      dup5\n        /* \"#utility.yul\":4672:4678   */\n      dup3\n        /* \"#utility.yul\":4661:4670   */\n      dup6\n        /* \"#utility.yul\":4657:4679   */\n      add\n        /* \"#utility.yul\":4636:4689   */\n      tag_233\n      jump\t// in\n    tag_336:\n        /* \"#utility.yul\":4626:4689   */\n      swap2\n      pop\n        /* \"#utility.yul\":4582:4699   */\n      pop\n        /* \"#utility.yul\":4377:4706   */\n      swap3\n      swap2\n      pop\n      pop\n      jump\t// out\n        /* \"#utility.yul\":4712:4811   */\n    tag_235:\n        /* \"#utility.yul\":4764:4770   */\n      0x00\n        /* \"#utility.yul\":4798:4803   */\n      dup2\n        /* \"#utility.yul\":4792:4804   */\n      mload\n        /* \"#utility.yul\":4782:4804   */\n      swap1\n      pop\n        /* \"#utility.yul\":4712:4811   */\n      swap2\n      swap1\n      pop\n      jump\t// out\n        /* \"#utility.yul\":4817:4986   */\n    tag_236:\n        /* \"#utility.yul\":4901:4912   */\n      0x00\n        /* \"#utility.yul\":4935:4941   */\n      dup3\n        /* \"#utility.yul\":4930:4933   */\n      dup3\n        /* \"#utility.yul\":4923:4942   */\n      mstore\n        /* \"#utility.yul\":4975:4979   */\n      0x20\n        /* \"#utility.yul\":4970:4973   */\n      dup3\n        /* \"#utility.yul\":4966:4980   */\n      add\n        /* \"#utility.yul\":4951:4980   */\n      swap1\n      pop\n        /* \"#utility.yul\":4817:4986   */\n      swap3\n      swap2\n      pop\n      pop\n      jump\t// out\n        /* \"#utility.yul\":4992:5238   */\n    tag_237:\n        /* \"#utility.yul\":5073:5074   */\n      0x00\n        /* \"#utility.yul\":5083:5196   */\n    tag_340:\n        /* \"#utility.yul\":5097:5103   */\n      dup4\n        /* \"#utility.yul\":5094:5095   */\n      dup2\n        /* \"#utility.yul\":5091:5104   */\n      lt\n        /* \"#utility.yul\":5083:5196   */\n      iszero\n      tag_342\n      jumpi\n        /* \"#utility.yul\":5182:5183   */\n      dup1\n        /* \"#utility.yul\":5177:5180   */\n      dup3\n        /* \"#utility.yul\":5173:5184   */\n      add\n        /* \"#utility.yul\":5167:5185   */\n      mload\n        /* \"#utility.yul\":5163:5164   */\n      dup2\n        /* \"#utility.yul\":5158:5161   */\n      dup5\n        /* \"#utility.yul\":5154:5165   */\n      add\n        /* \"#utility.yul\":5147:5186   */\n      mstore\n        /* \"#utility.yul\":5119:5121   */\n      0x20\n        /* \"#utility.yul\":5116:5117   */\n      dup2\n        /* \"#utility.yul\":5112:5122   */\n      add\n        /* \"#utility.yul\":5107:5122   */\n      swap1\n      pop\n        /* \"#utility.yul\":5083:5196   */\n      jump(tag_340)\n    tag_342:\n        /* \"#utility.yul\":5230:5231   */\n      0x00\n        /* \"#utility.yul\":5221:5227   */\n      dup5\n        /* \"#utility.yul\":5216:5219   */\n      dup5\n        /* \"#utility.yul\":5212:5228   */\n      add\n        /* \"#utility.yul\":5205:5232   */\n      mstore\n        /* \"#utility.yul\":5054:5238   */\n      pop\n        /* \"#utility.yul\":4992:5238   */\n      pop\n      pop\n      pop\n      jump\t// out\n        /* \"#utility.yul\":5244:5346   */\n    tag_238:\n        /* \"#utility.yul\":5285:5291   */\n      0x00\n        /* \"#utility.yul\":5336:5338   */\n      0x1f\n        /* \"#utility.yul\":5332:5339   */\n      not\n        /* \"#utility.yul\":5327:5329   */\n      0x1f\n        /* \"#utility.yul\":5320:5325   */\n      dup4\n        /* \"#utility.yul\":5316:5330   */\n      add\n        /* \"#utility.yul\":5312:5340   */\n      and\n        /* \"#utility.yul\":5302:5340   */\n      swap1\n      pop\n        /* \"#utility.yul\":5244:5346   */\n      swap2\n      swap1\n      pop\n      jump\t// out\n        /* \"#utility.yul\":5352:5729   */\n    tag_239:\n        /* \"#utility.yul\":5440:5443   */\n      0x00\n        /* \"#utility.yul\":5468:5507   */\n      tag_345\n        /* \"#utility.yul\":5501:5506   */\n      dup3\n        /* \"#utility.yul\":5468:5507   */\n      tag_235\n      jump\t// in\n    tag_345:\n        /* \"#utility.yul\":5523:5594   */\n      tag_346\n        /* \"#utility.yul\":5587:5593   */\n      dup2\n        /* \"#utility.yul\":5582:5585   */\n      dup6\n        /* \"#utility.yul\":5523:5594   */\n      tag_236\n      jump\t// in\n    tag_346:\n        /* \"#utility.yul\":5516:5594   */\n      swap4\n      pop\n        /* \"#utility.yul\":5603:5668   */\n      tag_347\n        /* \"#utility.yul\":5661:5667   */\n      dup2\n        /* \"#utility.yul\":5656:5659   */\n      dup6\n        /* \"#utility.yul\":5649:5653   */\n      0x20\n        /* \"#utility.yul\":5642:5647   */\n      dup7\n        /* \"#utility.yul\":5638:5654   */\n      add\n        /* \"#utility.yul\":5603:5668   */\n      tag_237\n      jump\t// in\n    tag_347:\n        /* \"#utility.yul\":5693:5722   */\n      tag_348\n        /* \"#utility.yul\":5715:5721   */\n      dup2\n        /* \"#utility.yul\":5693:5722   */\n      tag_238\n      jump\t// in\n    tag_348:\n        /* \"#utility.yul\":5688:5691   */\n      dup5\n        /* \"#utility.yul\":5684:5723   */\n      add\n        /* \"#utility.yul\":5677:5723   */\n      swap2\n      pop\n        /* \"#utility.yul\":5444:5729   */\n      pop\n        /* \"#utility.yul\":5352:5729   */\n      swap3\n      swap2\n      pop\n      pop\n      jump\t// out\n        /* \"#utility.yul\":5735:5853   */\n    tag_240:\n        /* \"#utility.yul\":5822:5846   */\n      tag_350\n        /* \"#utility.yul\":5840:5845   */\n      dup2\n        /* \"#utility.yul\":5822:5846   */\n      tag_221\n      jump\t// in\n    tag_350:\n        /* \"#utility.yul\":5817:5820   */\n      dup3\n        /* \"#utility.yul\":5810:5847   */\n      mstore\n        /* \"#utility.yul\":5735:5853   */\n      pop\n      pop\n      jump\t// out\n        /* \"#utility.yul\":5859:5949   */\n    tag_241:\n        /* \"#utility.yul\":5893:5900   */\n      0x00\n        /* \"#utility.yul\":5936:5941   */\n      dup2\n        /* \"#utility.yul\":5929:5942   */\n      iszero\n        /* \"#utility.yul\":5922:5943   */\n      iszero\n        /* \"#utility.yul\":5911:5943   */\n      swap1\n      pop\n        /* \"#utility.yul\":5859:5949   */\n      swap2\n      swap1\n      pop\n      jump\t// out\n        /* \"#utility.yul\":5955:6064   */\n    tag_242:\n        /* \"#utility.yul\":6036:6057   */\n      tag_353\n        /* \"#utility.yul\":6051:6056   */\n      dup2\n        /* \"#utility.yul\":6036:6057   */\n      tag_241\n      jump\t// in\n    tag_353:\n        /* \"#utility.yul\":6031:6034   */\n      dup3\n        /* \"#utility.yul\":6024:6058   */\n      mstore\n        /* \"#utility.yul\":5955:6064   */\n      pop\n      pop\n      jump\t// out\n        /* \"#utility.yul\":6070:6924   */\n    tag_32:\n        /* \"#utility.yul\":6317:6321   */\n      0x00\n        /* \"#utility.yul\":6355:6358   */\n      0xc0\n        /* \"#utility.yul\":6344:6353   */\n      dup3\n        /* \"#utility.yul\":6340:6359   */\n      add\n        /* \"#utility.yul\":6332:6359   */\n      swap1\n      pop\n        /* \"#utility.yul\":6405:6414   */\n      dup2\n        /* \"#utility.yul\":6399:6403   */\n      dup2\n        /* \"#utility.yul\":6395:6415   */\n      sub\n        /* \"#utility.yul\":6391:6392   */\n      0x00\n        /* \"#utility.yul\":6380:6389   */\n      dup4\n        /* \"#utility.yul\":6376:6393   */\n      add\n        /* \"#utility.yul\":6369:6416   */\n      mstore\n        /* \"#utility.yul\":6433:6511   */\n      tag_355\n        /* \"#utility.yul\":6506:6510   */\n      dup2\n        /* \"#utility.yul\":6497:6503   */\n      dup10\n        /* \"#utility.yul\":6433:6511   */\n      tag_239\n      jump\t// in\n    tag_355:\n        /* \"#utility.yul\":6425:6511   */\n      swap1\n      pop\n        /* \"#utility.yul\":6521:6593   */\n      tag_356\n        /* \"#utility.yul\":6589:6591   */\n      0x20\n        /* \"#utility.yul\":6578:6587   */\n      dup4\n        /* \"#utility.yul\":6574:6592   */\n      add\n        /* \"#utility.yul\":6565:6571   */\n      dup9\n        /* \"#utility.yul\":6521:6593   */\n      tag_240\n      jump\t// in\n    tag_356:\n        /* \"#utility.yul\":6603:6669   */\n      tag_357\n        /* \"#utility.yul\":6665:6667   */\n      0x40\n        /* \"#utility.yul\":6654:6663   */\n      dup4\n        /* \"#utility.yul\":6650:6668   */\n      add\n        /* \"#utility.yul\":6641:6647   */\n      dup8\n        /* \"#utility.yul\":6603:6669   */\n      tag_242\n      jump\t// in\n    tag_357:\n        /* \"#utility.yul\":6679:6751   */\n      tag_358\n        /* \"#utility.yul\":6747:6749   */\n      0x60\n        /* \"#utility.yul\":6736:6745   */\n      dup4\n        /* \"#utility.yul\":6732:6750   */\n      add\n        /* \"#utility.yul\":6723:6729   */\n      dup7\n        /* \"#utility.yul\":6679:6751   */\n      tag_234\n      jump\t// in\n    tag_358:\n        /* \"#utility.yul\":6761:6834   */\n      tag_359\n        /* \"#utility.yul\":6829:6832   */\n      0x80\n        /* \"#utility.yul\":6818:6827   */\n      dup4\n        /* \"#utility.yul\":6814:6833   */\n      add\n        /* \"#utility.yul\":6805:6811   */\n      dup6\n        /* \"#utility.yul\":6761:6834   */\n      tag_234\n      jump\t// in\n    tag_359:\n        /* \"#utility.yul\":6844:6917   */\n      tag_360\n        /* \"#utility.yul\":6912:6915   */\n      0xa0\n        /* \"#utility.yul\":6901:6910   */\n      dup4\n        /* \"#utility.yul\":6897:6916   */\n      add\n        /* \"#utility.yul\":6888:6894   */\n      dup5\n        /* \"#utility.yul\":6844:6917   */\n      tag_234\n      jump\t// in\n    tag_360:\n        /* \"#utility.yul\":6070:6924   */\n      swap8\n      swap7\n      pop\n      pop\n      pop\n      pop\n      pop\n      pop\n      pop\n      jump\t// out\n        /* \"#utility.yul\":6930:7054   */\n    tag_243:\n        /* \"#utility.yul\":7007:7013   */\n      0x00\n        /* \"#utility.yul\":7041:7046   */\n      dup2\n        /* \"#utility.yul\":7035:7047   */\n      mload\n        /* \"#utility.yul\":7025:7047   */\n      swap1\n      pop\n        /* \"#utility.yul\":6930:7054   */\n      swap2\n      swap1\n      pop\n      jump\t// out\n        /* \"#utility.yul\":7060:7254   */\n    tag_244:\n        /* \"#utility.yul\":7169:7180   */\n      0x00\n        /* \"#utility.yul\":7203:7209   */\n      dup3\n        /* \"#utility.yul\":7198:7201   */\n      dup3\n        /* \"#utility.yul\":7191:7210   */\n      mstore\n        /* \"#utility.yul\":7243:7247   */\n      0x20\n        /* \"#utility.yul\":7238:7241   */\n      dup3\n        /* \"#utility.yul\":7234:7248   */\n      add\n        /* \"#utility.yul\":7219:7248   */\n      swap1\n      pop\n        /* \"#utility.yul\":7060:7254   */\n      swap3\n      swap2\n      pop\n      pop\n      jump\t// out\n        /* \"#utility.yul\":7260:7402   */\n    tag_245:\n        /* \"#utility.yul\":7337:7341   */\n      0x00\n        /* \"#utility.yul\":7360:7363   */\n      dup2\n        /* \"#utility.yul\":7352:7363   */\n      swap1\n      pop\n        /* \"#utility.yul\":7390:7394   */\n      0x20\n        /* \"#utility.yul\":7385:7388   */\n      dup3\n        /* \"#utility.yul\":7381:7395   */\n      add\n        /* \"#utility.yul\":7373:7395   */\n      swap1\n      pop\n        /* \"#utility.yul\":7260:7402   */\n      swap2\n      swap1\n      pop\n      jump\t// out\n        /* \"#utility.yul\":7408:7567   */\n    tag_246:\n        /* \"#utility.yul\":7482:7493   */\n      0x00\n        /* \"#utility.yul\":7516:7522   */\n      dup3\n        /* \"#utility.yul\":7511:7514   */\n      dup3\n        /* \"#utility.yul\":7504:7523   */\n      mstore\n        /* \"#utility.yul\":7556:7560   */\n      0x20\n        /* \"#utility.yul\":7551:7554   */\n      dup3\n        /* \"#utility.yul\":7547:7561   */\n      add\n        /* \"#utility.yul\":7532:7561   */\n      swap1\n      pop\n        /* \"#utility.yul\":7408:7567   */\n      swap3\n      swap2\n      pop\n      pop\n      jump\t// out\n        /* \"#utility.yul\":7573:7930   */\n    tag_247:\n        /* \"#utility.yul\":7651:7654   */\n      0x00\n        /* \"#utility.yul\":7679:7718   */\n      tag_366\n        /* \"#utility.yul\":7712:7717   */\n      dup3\n        /* \"#utility.yul\":7679:7718   */\n      tag_235\n      jump\t// in\n    tag_366:\n        /* \"#utility.yul\":7734:7795   */\n      tag_367\n        /* \"#utility.yul\":7788:7794   */\n      dup2\n        /* \"#utility.yul\":7783:7786   */\n      dup6\n        /* \"#utility.yul\":7734:7795   */\n      tag_246\n      jump\t// in\n    tag_367:\n        /* \"#utility.yul\":7727:7795   */\n      swap4\n      pop\n        /* \"#utility.yul\":7804:7869   */\n      tag_368\n        /* \"#utility.yul\":7862:7868   */\n      dup2\n        /* \"#utility.yul\":7857:7860   */\n      dup6\n        /* \"#utility.yul\":7850:7854   */\n      0x20\n        /* \"#utility.yul\":7843:7848   */\n      dup7\n        /* \"#utility.yul\":7839:7855   */\n      add\n        /* \"#utility.yul\":7804:7869   */\n      tag_237\n      jump\t// in\n    tag_368:\n        /* \"#utility.yul\":7894:7923   */\n      tag_369\n        /* \"#utility.yul\":7916:7922   */\n      dup2\n        /* \"#utility.yul\":7894:7923   */\n      tag_238\n      jump\t// in\n    tag_369:\n        /* \"#utility.yul\":7889:7892   */\n      dup5\n        /* \"#utility.yul\":7885:7924   */\n      add\n        /* \"#utility.yul\":7878:7924   */\n      swap2\n      pop\n        /* \"#utility.yul\":7655:7930   */\n      pop\n        /* \"#utility.yul\":7573:7930   */\n      swap3\n      swap2\n      pop\n      pop\n      jump\t// out\n        /* \"#utility.yul\":7936:8132   */\n    tag_248:\n        /* \"#utility.yul\":8025:8035   */\n      0x00\n        /* \"#utility.yul\":8060:8126   */\n      tag_371\n        /* \"#utility.yul\":8122:8125   */\n      dup4\n        /* \"#utility.yul\":8114:8120   */\n      dup4\n        /* \"#utility.yul\":8060:8126   */\n      tag_247\n      jump\t// in\n    tag_371:\n        /* \"#utility.yul\":8046:8126   */\n      swap1\n      pop\n        /* \"#utility.yul\":7936:8132   */\n      swap3\n      swap2\n      pop\n      pop\n      jump\t// out\n        /* \"#utility.yul\":8138:8261   */\n    tag_249:\n        /* \"#utility.yul\":8218:8222   */\n      0x00\n        /* \"#utility.yul\":8250:8254   */\n      0x20\n        /* \"#utility.yul\":8245:8248   */\n      dup3\n        /* \"#utility.yul\":8241:8255   */\n      add\n        /* \"#utility.yul\":8233:8255   */\n      swap1\n      pop\n        /* \"#utility.yul\":8138:8261   */\n      swap2\n      swap1\n      pop\n      jump\t// out\n        /* \"#utility.yul\":8295:9286   */\n    tag_250:\n        /* \"#utility.yul\":8434:8437   */\n      0x00\n        /* \"#utility.yul\":8463:8527   */\n      tag_374\n        /* \"#utility.yul\":8521:8526   */\n      dup3\n        /* \"#utility.yul\":8463:8527   */\n      tag_243\n      jump\t// in\n    tag_374:\n        /* \"#utility.yul\":8543:8639   */\n      tag_375\n        /* \"#utility.yul\":8632:8638   */\n      dup2\n        /* \"#utility.yul\":8627:8630   */\n      dup6\n        /* \"#utility.yul\":8543:8639   */\n      tag_244\n      jump\t// in\n    tag_375:\n        /* \"#utility.yul\":8536:8639   */\n      swap4\n      pop\n        /* \"#utility.yul\":8665:8668   */\n      dup4\n        /* \"#utility.yul\":8710:8714   */\n      0x20\n        /* \"#utility.yul\":8702:8708   */\n      dup3\n        /* \"#utility.yul\":8698:8715   */\n      mul\n        /* \"#utility.yul\":8693:8696   */\n      dup6\n        /* \"#utility.yul\":8689:8716   */\n      add\n        /* \"#utility.yul\":8740:8806   */\n      tag_376\n        /* \"#utility.yul\":8800:8805   */\n      dup6\n        /* \"#utility.yul\":8740:8806   */\n      tag_245\n      jump\t// in\n    tag_376:\n        /* \"#utility.yul\":8829:8836   */\n      dup1\n        /* \"#utility.yul\":8860:8861   */\n      0x00\n        /* \"#utility.yul\":8845:9241   */\n    tag_377:\n        /* \"#utility.yul\":8870:8876   */\n      dup6\n        /* \"#utility.yul\":8867:8868   */\n      dup2\n        /* \"#utility.yul\":8864:8877   */\n      lt\n        /* \"#utility.yul\":8845:9241   */\n      iszero\n      tag_379\n      jumpi\n        /* \"#utility.yul\":8941:8950   */\n      dup5\n        /* \"#utility.yul\":8935:8939   */\n      dup5\n        /* \"#utility.yul\":8931:8951   */\n      sub\n        /* \"#utility.yul\":8926:8929   */\n      dup10\n        /* \"#utility.yul\":8919:8952   */\n      mstore\n        /* \"#utility.yul\":8992:8998   */\n      dup2\n        /* \"#utility.yul\":8986:8999   */\n      mload\n        /* \"#utility.yul\":9020:9104   */\n      tag_380\n        /* \"#utility.yul\":9099:9103   */\n      dup6\n        /* \"#utility.yul\":9084:9097   */\n      dup3\n        /* \"#utility.yul\":9020:9104   */\n      tag_248\n      jump\t// in\n    tag_380:\n        /* \"#utility.yul\":9012:9104   */\n      swap5\n      pop\n        /* \"#utility.yul\":9127:9197   */\n      tag_381\n        /* \"#utility.yul\":9190:9196   */\n      dup4\n        /* \"#utility.yul\":9127:9197   */\n      tag_249\n      jump\t// in\n    tag_381:\n        /* \"#utility.yul\":9117:9197   */\n      swap3\n      pop\n        /* \"#utility.yul\":9226:9230   */\n      0x20\n        /* \"#utility.yul\":9221:9224   */\n      dup11\n        /* \"#utility.yul\":9217:9231   */\n      add\n        /* \"#utility.yul\":9210:9231   */\n      swap10\n      pop\n        /* \"#utility.yul\":8905:9241   */\n      pop\n        /* \"#utility.yul\":8892:8893   */\n      0x01\n        /* \"#utility.yul\":8889:8890   */\n      dup2\n        /* \"#utility.yul\":8885:8894   */\n      add\n        /* \"#utility.yul\":8880:8894   */\n      swap1\n      pop\n        /* \"#utility.yul\":8845:9241   */\n      jump(tag_377)\n    tag_379:\n        /* \"#utility.yul\":8849:8863   */\n      pop\n        /* \"#utility.yul\":9257:9261   */\n      dup3\n        /* \"#utility.yul\":9250:9261   */\n      swap8\n      pop\n        /* \"#utility.yul\":9277:9280   */\n      dup8\n        /* \"#utility.yul\":9270:9280   */\n      swap6\n      pop\n        /* \"#utility.yul\":8439:9286   */\n      pop\n      pop\n      pop\n      pop\n      pop\n        /* \"#utility.yul\":8295:9286   */\n      swap3\n      swap2\n      pop\n      pop\n      jump\t// out\n        /* \"#utility.yul\":9292:10227   */\n    tag_40:\n        /* \"#utility.yul\":9611:9615   */\n      0x00\n        /* \"#utility.yul\":9649:9651   */\n      0x60\n        /* \"#utility.yul\":9638:9647   */\n      dup3\n        /* \"#utility.yul\":9634:9652   */\n      add\n        /* \"#utility.yul\":9626:9652   */\n      swap1\n      pop\n        /* \"#utility.yul\":9698:9707   */\n      dup2\n        /* \"#utility.yul\":9692:9696   */\n      dup2\n        /* \"#utility.yul\":9688:9708   */\n      sub\n        /* \"#utility.yul\":9684:9685   */\n      0x00\n        /* \"#utility.yul\":9673:9682   */\n      dup4\n        /* \"#utility.yul\":9669:9686   */\n      add\n        /* \"#utility.yul\":9662:9709   */\n      mstore\n        /* \"#utility.yul\":9726:9854   */\n      tag_383\n        /* \"#utility.yul\":9849:9853   */\n      dup2\n        /* \"#utility.yul\":9840:9846   */\n      dup7\n        /* \"#utility.yul\":9726:9854   */\n      tag_250\n      jump\t// in\n    tag_383:\n        /* \"#utility.yul\":9718:9854   */\n      swap1\n      pop\n        /* \"#utility.yul\":9901:9910   */\n      dup2\n        /* \"#utility.yul\":9895:9899   */\n      dup2\n        /* \"#utility.yul\":9891:9911   */\n      sub\n        /* \"#utility.yul\":9886:9888   */\n      0x20\n        /* \"#utility.yul\":9875:9884   */\n      dup4\n        /* \"#utility.yul\":9871:9889   */\n      add\n        /* \"#utility.yul\":9864:9912   */\n      mstore\n        /* \"#utility.yul\":9929:10037   */\n      tag_384\n        /* \"#utility.yul\":10032:10036   */\n      dup2\n        /* \"#utility.yul\":10023:10029   */\n      dup6\n        /* \"#utility.yul\":9929:10037   */\n      tag_231\n      jump\t// in\n    tag_384:\n        /* \"#utility.yul\":9921:10037   */\n      swap1\n      pop\n        /* \"#utility.yul\":10084:10093   */\n      dup2\n        /* \"#utility.yul\":10078:10082   */\n      dup2\n        /* \"#utility.yul\":10074:10094   */\n      sub\n        /* \"#utility.yul\":10069:10071   */\n      0x40\n        /* \"#utility.yul\":10058:10067   */\n      dup4\n        /* \"#utility.yul\":10054:10072   */\n      add\n        /* \"#utility.yul\":10047:10095   */\n      mstore\n        /* \"#utility.yul\":10112:10220   */\n      tag_385\n        /* \"#utility.yul\":10215:10219   */\n      dup2\n        /* \"#utility.yul\":10206:10212   */\n      dup5\n        /* \"#utility.yul\":10112:10220   */\n      tag_231\n      jump\t// in\n    tag_385:\n        /* \"#utility.yul\":10104:10220   */\n      swap1\n      pop\n        /* \"#utility.yul\":9292:10227   */\n      swap5\n      swap4\n      pop\n      pop\n      pop\n      pop\n      jump\t// out\n        /* \"#utility.yul\":10233:10907   */\n    tag_48:\n        /* \"#utility.yul\":10474:10478   */\n      0x00\n        /* \"#utility.yul\":10512:10514   */\n      0x40\n        /* \"#utility.yul\":10501:10510   */\n      dup3\n        /* \"#utility.yul\":10497:10515   */\n      add\n        /* \"#utility.yul\":10489:10515   */\n      swap1\n      pop\n        /* \"#utility.yul\":10561:10570   */\n      dup2\n        /* \"#utility.yul\":10555:10559   */\n      dup2\n        /* \"#utility.yul\":10551:10571   */\n      sub\n        /* \"#utility.yul\":10547:10548   */\n      0x00\n        /* \"#utility.yul\":10536:10545   */\n      dup4\n        /* \"#utility.yul\":10532:10549   */\n      add\n        /* \"#utility.yul\":10525:10572   */\n      mstore\n        /* \"#utility.yul\":10589:10717   */\n      tag_387\n        /* \"#utility.yul\":10712:10716   */\n      dup2\n        /* \"#utility.yul\":10703:10709   */\n      dup6\n        /* \"#utility.yul\":10589:10717   */\n      tag_250\n      jump\t// in\n    tag_387:\n        /* \"#utility.yul\":10581:10717   */\n      swap1\n      pop\n        /* \"#utility.yul\":10764:10773   */\n      dup2\n        /* \"#utility.yul\":10758:10762   */\n      dup2\n        /* \"#utility.yul\":10754:10774   */\n      sub\n        /* \"#utility.yul\":10749:10751   */\n      0x20\n        /* \"#utility.yul\":10738:10747   */\n      dup4\n        /* \"#utility.yul\":10734:10752   */\n      add\n        /* \"#utility.yul\":10727:10775   */\n      mstore\n        /* \"#utility.yul\":10792:10900   */\n      tag_388\n        /* \"#utility.yul\":10895:10899   */\n      dup2\n        /* \"#utility.yul\":10886:10892   */\n      dup5\n        /* \"#utility.yul\":10792:10900   */\n      tag_231\n      jump\t// in\n    tag_388:\n        /* \"#utility.yul\":10784:10900   */\n      swap1\n      pop\n        /* \"#utility.yul\":10233:10907   */\n      swap4\n      swap3\n      pop\n      pop\n      pop\n      jump\t// out\n        /* \"#utility.yul\":10913:11030   */\n    tag_251:\n        /* \"#utility.yul\":11022:11023   */\n      0x00\n        /* \"#utility.yul\":11019:11020   */\n      dup1\n        /* \"#utility.yul\":11012:11024   */\n      revert\n        /* \"#utility.yul\":11036:11153   */\n    tag_252:\n        /* \"#utility.yul\":11145:11146   */\n      0x00\n        /* \"#utility.yul\":11142:11143   */\n      dup1\n        /* \"#utility.yul\":11135:11147   */\n      revert\n        /* \"#utility.yul\":11159:11339   */\n    tag_97:\n        /* \"#utility.yul\":11207:11284   */\n      0x4e487b7100000000000000000000000000000000000000000000000000000000\n        /* \"#utility.yul\":11204:11205   */\n      0x00\n        /* \"#utility.yul\":11197:11285   */\n      mstore\n        /* \"#utility.yul\":11304:11308   */\n      0x41\n        /* \"#utility.yul\":11301:11302   */\n      0x04\n        /* \"#utility.yul\":11294:11309   */\n      mstore\n        /* \"#utility.yul\":11328:11332   */\n      0x24\n        /* \"#utility.yul\":11325:11326   */\n      0x00\n        /* \"#utility.yul\":11318:11333   */\n      revert\n        /* \"#utility.yul\":11345:11626   */\n    tag_253:\n        /* \"#utility.yul\":11428:11455   */\n      tag_393\n        /* \"#utility.yul\":11450:11454   */\n      dup3\n        /* \"#utility.yul\":11428:11455   */\n      tag_238\n      jump\t// in\n    tag_393:\n        /* \"#utility.yul\":11420:11426   */\n      dup2\n        /* \"#utility.yul\":11416:11456   */\n      add\n        /* \"#utility.yul\":11558:11564   */\n      dup2\n        /* \"#utility.yul\":11546:11556   */\n      dup2\n        /* \"#utility.yul\":11543:11565   */\n      lt\n        /* \"#utility.yul\":11522:11540   */\n      0xffffffffffffffff\n        /* \"#utility.yul\":11510:11520   */\n      dup3\n        /* \"#utility.yul\":11507:11541   */\n      gt\n        /* \"#utility.yul\":11504:11566   */\n      or\n        /* \"#utility.yul\":11501:11589   */\n      iszero\n      tag_394\n      jumpi\n        /* \"#utility.yul\":11569:11587   */\n      tag_395\n      tag_97\n      jump\t// in\n    tag_395:\n        /* \"#utility.yul\":11501:11589   */\n    tag_394:\n        /* \"#utility.yul\":11609:11619   */\n      dup1\n        /* \"#utility.yul\":11605:11607   */\n      0x40\n        /* \"#utility.yul\":11598:11620   */\n      mstore\n        /* \"#utility.yul\":11388:11626   */\n      pop\n        /* \"#utility.yul\":11345:11626   */\n      pop\n      pop\n      jump\t// out\n        /* \"#utility.yul\":11632:11761   */\n    tag_254:\n        /* \"#utility.yul\":11666:11672   */\n      0x00\n        /* \"#utility.yul\":11693:11713   */\n      tag_397\n      tag_217\n      jump\t// in\n    tag_397:\n        /* \"#utility.yul\":11683:11713   */\n      swap1\n      pop\n        /* \"#utility.yul\":11722:11755   */\n      tag_398\n        /* \"#utility.yul\":11750:11754   */\n      dup3\n        /* \"#utility.yul\":11742:11748   */\n      dup3\n        /* \"#utility.yul\":11722:11755   */\n      tag_253\n      jump\t// in\n    tag_398:\n        /* \"#utility.yul\":11632:11761   */\n      swap2\n      swap1\n      pop\n      jump\t// out\n        /* \"#utility.yul\":11767:12075   */\n    tag_255:\n        /* \"#utility.yul\":11829:11833   */\n      0x00\n        /* \"#utility.yul\":11919:11937   */\n      0xffffffffffffffff\n        /* \"#utility.yul\":11911:11917   */\n      dup3\n        /* \"#utility.yul\":11908:11938   */\n      gt\n        /* \"#utility.yul\":11905:11961   */\n      iszero\n      tag_400\n      jumpi\n        /* \"#utility.yul\":11941:11959   */\n      tag_401\n      tag_97\n      jump\t// in\n    tag_401:\n        /* \"#utility.yul\":11905:11961   */\n    tag_400:\n        /* \"#utility.yul\":11979:12008   */\n      tag_402\n        /* \"#utility.yul\":12001:12007   */\n      dup3\n        /* \"#utility.yul\":11979:12008   */\n      tag_238\n      jump\t// in\n    tag_402:\n        /* \"#utility.yul\":11971:12008   */\n      swap1\n      pop\n        /* \"#utility.yul\":12063:12067   */\n      0x20\n        /* \"#utility.yul\":12057:12061   */\n      dup2\n        /* \"#utility.yul\":12053:12068   */\n      add\n        /* \"#utility.yul\":12045:12068   */\n      swap1\n      pop\n        /* \"#utility.yul\":11767:12075   */\n      swap2\n      swap1\n      pop\n      jump\t// out\n        /* \"#utility.yul\":12081:12227   */\n    tag_256:\n        /* \"#utility.yul\":12178:12184   */\n      dup3\n        /* \"#utility.yul\":12173:12176   */\n      dup2\n        /* \"#utility.yul\":12168:12171   */\n      dup4\n        /* \"#utility.yul\":12155:12185   */\n      calldatacopy\n        /* \"#utility.yul\":12219:12220   */\n      0x00\n        /* \"#utility.yul\":12210:12216   */\n      dup4\n        /* \"#utility.yul\":12205:12208   */\n      dup4\n        /* \"#utility.yul\":12201:12217   */\n      add\n        /* \"#utility.yul\":12194:12221   */\n      mstore\n        /* \"#utility.yul\":12081:12227   */\n      pop\n      pop\n      pop\n      jump\t// out\n        /* \"#utility.yul\":12233:12658   */\n    tag_257:\n        /* \"#utility.yul\":12311:12316   */\n      0x00\n        /* \"#utility.yul\":12336:12402   */\n      tag_405\n        /* \"#utility.yul\":12352:12401   */\n      tag_406\n        /* \"#utility.yul\":12394:12400   */\n      dup5\n        /* \"#utility.yul\":12352:12401   */\n      tag_255\n      jump\t// in\n    tag_406:\n        /* \"#utility.yul\":12336:12402   */\n      tag_254\n      jump\t// in\n    tag_405:\n        /* \"#utility.yul\":12327:12402   */\n      swap1\n      pop\n        /* \"#utility.yul\":12425:12431   */\n      dup3\n        /* \"#utility.yul\":12418:12423   */\n      dup2\n        /* \"#utility.yul\":12411:12432   */\n      mstore\n        /* \"#utility.yul\":12463:12467   */\n      0x20\n        /* \"#utility.yul\":12456:12461   */\n      dup2\n        /* \"#utility.yul\":12452:12468   */\n      add\n        /* \"#utility.yul\":12501:12504   */\n      dup5\n        /* \"#utility.yul\":12492:12498   */\n      dup5\n        /* \"#utility.yul\":12487:12490   */\n      dup5\n        /* \"#utility.yul\":12483:12499   */\n      add\n        /* \"#utility.yul\":12480:12505   */\n      gt\n        /* \"#utility.yul\":12477:12589   */\n      iszero\n      tag_407\n      jumpi\n        /* \"#utility.yul\":12508:12587   */\n      tag_408\n      tag_252\n      jump\t// in\n    tag_408:\n        /* \"#utility.yul\":12477:12589   */\n    tag_407:\n        /* \"#utility.yul\":12598:12652   */\n      tag_409\n        /* \"#utility.yul\":12645:12651   */\n      dup5\n        /* \"#utility.yul\":12640:12643   */\n      dup3\n        /* \"#utility.yul\":12635:12638   */\n      dup6\n        /* \"#utility.yul\":12598:12652   */\n      tag_256\n      jump\t// in\n    tag_409:\n        /* \"#utility.yul\":12317:12658   */\n      pop\n        /* \"#utility.yul\":12233:12658   */\n      swap4\n      swap3\n      pop\n      pop\n      pop\n      jump\t// out\n        /* \"#utility.yul\":12678:13018   */\n    tag_258:\n        /* \"#utility.yul\":12734:12739   */\n      0x00\n        /* \"#utility.yul\":12783:12786   */\n      dup3\n        /* \"#utility.yul\":12776:12780   */\n      0x1f\n        /* \"#utility.yul\":12768:12774   */\n      dup4\n        /* \"#utility.yul\":12764:12781   */\n      add\n        /* \"#utility.yul\":12760:12787   */\n      slt\n        /* \"#utility.yul\":12750:12872   */\n      tag_411\n      jumpi\n        /* \"#utility.yul\":12791:12870   */\n      tag_412\n      tag_251\n      jump\t// in\n    tag_412:\n        /* \"#utility.yul\":12750:12872   */\n    tag_411:\n        /* \"#utility.yul\":12908:12914   */\n      dup2\n        /* \"#utility.yul\":12895:12915   */\n      calldataload\n        /* \"#utility.yul\":12933:13012   */\n      tag_413\n        /* \"#utility.yul\":13008:13011   */\n      dup5\n        /* \"#utility.yul\":13000:13006   */\n      dup3\n        /* \"#utility.yul\":12993:12997   */\n      0x20\n        /* \"#utility.yul\":12985:12991   */\n      dup7\n        /* \"#utility.yul\":12981:12998   */\n      add\n        /* \"#utility.yul\":12933:13012   */\n      tag_257\n      jump\t// in\n    tag_413:\n        /* \"#utility.yul\":12924:13012   */\n      swap2\n      pop\n        /* \"#utility.yul\":12740:13018   */\n      pop\n        /* \"#utility.yul\":12678:13018   */\n      swap3\n      swap2\n      pop\n      pop\n      jump\t// out\n        /* \"#utility.yul\":13024:13345   */\n    tag_259:\n        /* \"#utility.yul\":13111:13115   */\n      0x00\n        /* \"#utility.yul\":13201:13219   */\n      0xffffffffffffffff\n        /* \"#utility.yul\":13193:13199   */\n      dup3\n        /* \"#utility.yul\":13190:13220   */\n      gt\n        /* \"#utility.yul\":13187:13243   */\n      iszero\n      tag_415\n      jumpi\n        /* \"#utility.yul\":13223:13241   */\n      tag_416\n      tag_97\n      jump\t// in\n    tag_416:\n        /* \"#utility.yul\":13187:13243   */\n    tag_415:\n        /* \"#utility.yul\":13273:13277   */\n      0x20\n        /* \"#utility.yul\":13265:13271   */\n      dup3\n        /* \"#utility.yul\":13261:13278   */\n      mul\n        /* \"#utility.yul\":13253:13278   */\n      swap1\n      pop\n        /* \"#utility.yul\":13333:13337   */\n      0x20\n        /* \"#utility.yul\":13327:13331   */\n      dup2\n        /* \"#utility.yul\":13323:13338   */\n      add\n        /* \"#utility.yul\":13315:13338   */\n      swap1\n      pop\n        /* \"#utility.yul\":13024:13345   */\n      swap2\n      swap1\n      pop\n      jump\t// out\n        /* \"#utility.yul\":13351:13468   */\n    tag_260:\n        /* \"#utility.yul\":13460:13461   */\n      0x00\n        /* \"#utility.yul\":13457:13458   */\n      dup1\n        /* \"#utility.yul\":13450:13462   */\n      revert\n        /* \"#utility.yul\":13490:14435   */\n    tag_261:\n        /* \"#utility.yul\":13596:13601   */\n      0x00\n        /* \"#utility.yul\":13621:13712   */\n      tag_419\n        /* \"#utility.yul\":13637:13711   */\n      tag_420\n        /* \"#utility.yul\":13704:13710   */\n      dup5\n        /* \"#utility.yul\":13637:13711   */\n      tag_259\n      jump\t// in\n    tag_420:\n        /* \"#utility.yul\":13621:13712   */\n      tag_254\n      jump\t// in\n    tag_419:\n        /* \"#utility.yul\":13612:13712   */\n      swap1\n      pop\n        /* \"#utility.yul\":13732:13737   */\n      dup1\n        /* \"#utility.yul\":13761:13767   */\n      dup4\n        /* \"#utility.yul\":13754:13759   */\n      dup3\n        /* \"#utility.yul\":13747:13768   */\n      mstore\n        /* \"#utility.yul\":13795:13799   */\n      0x20\n        /* \"#utility.yul\":13788:13793   */\n      dup3\n        /* \"#utility.yul\":13784:13800   */\n      add\n        /* \"#utility.yul\":13777:13800   */\n      swap1\n      pop\n        /* \"#utility.yul\":13848:13852   */\n      0x20\n        /* \"#utility.yul\":13840:13846   */\n      dup5\n        /* \"#utility.yul\":13836:13853   */\n      mul\n        /* \"#utility.yul\":13828:13834   */\n      dup4\n        /* \"#utility.yul\":13824:13854   */\n      add\n        /* \"#utility.yul\":13877:13880   */\n      dup6\n        /* \"#utility.yul\":13869:13875   */\n      dup2\n        /* \"#utility.yul\":13866:13881   */\n      gt\n        /* \"#utility.yul\":13863:13985   */\n      iszero\n      tag_421\n      jumpi\n        /* \"#utility.yul\":13896:13975   */\n      tag_422\n      tag_260\n      jump\t// in\n    tag_422:\n        /* \"#utility.yul\":13863:13985   */\n    tag_421:\n        /* \"#utility.yul\":14011:14017   */\n      dup4\n        /* \"#utility.yul\":13994:14429   */\n    tag_423:\n        /* \"#utility.yul\":14028:14034   */\n      dup2\n        /* \"#utility.yul\":14023:14026   */\n      dup2\n        /* \"#utility.yul\":14020:14035   */\n      lt\n        /* \"#utility.yul\":13994:14429   */\n      iszero\n      tag_425\n      jumpi\n        /* \"#utility.yul\":14117:14120   */\n      dup1\n        /* \"#utility.yul\":14104:14121   */\n      calldataload\n        /* \"#utility.yul\":14153:14171   */\n      0xffffffffffffffff\n        /* \"#utility.yul\":14140:14151   */\n      dup2\n        /* \"#utility.yul\":14137:14172   */\n      gt\n        /* \"#utility.yul\":14134:14256   */\n      iszero\n      tag_426\n      jumpi\n        /* \"#utility.yul\":14175:14254   */\n      tag_427\n      tag_251\n      jump\t// in\n    tag_427:\n        /* \"#utility.yul\":14134:14256   */\n    tag_426:\n        /* \"#utility.yul\":14299:14310   */\n      dup1\n        /* \"#utility.yul\":14291:14297   */\n      dup7\n        /* \"#utility.yul\":14287:14311   */\n      add\n        /* \"#utility.yul\":14337:14384   */\n      tag_428\n        /* \"#utility.yul\":14380:14383   */\n      dup10\n        /* \"#utility.yul\":14368:14378   */\n      dup3\n        /* \"#utility.yul\":14337:14384   */\n      tag_258\n      jump\t// in\n    tag_428:\n        /* \"#utility.yul\":14332:14335   */\n      dup6\n        /* \"#utility.yul\":14325:14385   */\n      mstore\n        /* \"#utility.yul\":14414:14418   */\n      0x20\n        /* \"#utility.yul\":14409:14412   */\n      dup6\n        /* \"#utility.yul\":14405:14419   */\n      add\n        /* \"#utility.yul\":14398:14419   */\n      swap5\n      pop\n        /* \"#utility.yul\":14070:14429   */\n      pop\n      pop\n        /* \"#utility.yul\":14054:14058   */\n      0x20\n        /* \"#utility.yul\":14049:14052   */\n      dup2\n        /* \"#utility.yul\":14045:14059   */\n      add\n        /* \"#utility.yul\":14038:14059   */\n      swap1\n      pop\n        /* \"#utility.yul\":13994:14429   */\n      jump(tag_423)\n    tag_425:\n        /* \"#utility.yul\":13998:14019   */\n      pop\n        /* \"#utility.yul\":13602:14435   */\n      pop\n      pop\n        /* \"#utility.yul\":13490:14435   */\n      swap4\n      swap3\n      pop\n      pop\n      pop\n      jump\t// out\n        /* \"#utility.yul\":14457:14847   */\n    tag_262:\n        /* \"#utility.yul\":14538:14543   */\n      0x00\n        /* \"#utility.yul\":14587:14590   */\n      dup3\n        /* \"#utility.yul\":14580:14584   */\n      0x1f\n        /* \"#utility.yul\":14572:14578   */\n      dup4\n        /* \"#utility.yul\":14568:14585   */\n      add\n        /* \"#utility.yul\":14564:14591   */\n      slt\n        /* \"#utility.yul\":14554:14676   */\n      tag_430\n      jumpi\n        /* \"#utility.yul\":14595:14674   */\n      tag_431\n      tag_251\n      jump\t// in\n    tag_431:\n        /* \"#utility.yul\":14554:14676   */\n    tag_430:\n        /* \"#utility.yul\":14712:14718   */\n      dup2\n        /* \"#utility.yul\":14699:14719   */\n      calldataload\n        /* \"#utility.yul\":14737:14841   */\n      tag_432\n        /* \"#utility.yul\":14837:14840   */\n      dup5\n        /* \"#utility.yul\":14829:14835   */\n      dup3\n        /* \"#utility.yul\":14822:14826   */\n      0x20\n        /* \"#utility.yul\":14814:14820   */\n      dup7\n        /* \"#utility.yul\":14810:14827   */\n      add\n        /* \"#utility.yul\":14737:14841   */\n      tag_261\n      jump\t// in\n    tag_432:\n        /* \"#utility.yul\":14728:14841   */\n      swap2\n      pop\n        /* \"#utility.yul\":14544:14847   */\n      pop\n        /* \"#utility.yul\":14457:14847   */\n      swap3\n      swap2\n      pop\n      pop\n      jump\t// out\n        /* \"#utility.yul\":14853:15737   */\n    tag_51:\n        /* \"#utility.yul\":14966:14972   */\n      0x00\n        /* \"#utility.yul\":14974:14980   */\n      dup1\n        /* \"#utility.yul\":15023:15025   */\n      0x40\n        /* \"#utility.yul\":15011:15020   */\n      dup4\n        /* \"#utility.yul\":15002:15009   */\n      dup6\n        /* \"#utility.yul\":14998:15021   */\n      sub\n        /* \"#utility.yul\":14994:15026   */\n      slt\n        /* \"#utility.yul\":14991:15110   */\n      iszero\n      tag_434\n      jumpi\n        /* \"#utility.yul\":15029:15108   */\n      tag_435\n      tag_218\n      jump\t// in\n    tag_435:\n        /* \"#utility.yul\":14991:15110   */\n    tag_434:\n        /* \"#utility.yul\":15177:15178   */\n      0x00\n        /* \"#utility.yul\":15166:15175   */\n      dup4\n        /* \"#utility.yul\":15162:15179   */\n      add\n        /* \"#utility.yul\":15149:15180   */\n      calldataload\n        /* \"#utility.yul\":15207:15225   */\n      0xffffffffffffffff\n        /* \"#utility.yul\":15199:15205   */\n      dup2\n        /* \"#utility.yul\":15196:15226   */\n      gt\n        /* \"#utility.yul\":15193:15310   */\n      iszero\n      tag_436\n      jumpi\n        /* \"#utility.yul\":15229:15308   */\n      tag_437\n      tag_219\n      jump\t// in\n    tag_437:\n        /* \"#utility.yul\":15193:15310   */\n    tag_436:\n        /* \"#utility.yul\":15334:15397   */\n      tag_438\n        /* \"#utility.yul\":15389:15396   */\n      dup6\n        /* \"#utility.yul\":15380:15386   */\n      dup3\n        /* \"#utility.yul\":15369:15378   */\n      dup7\n        /* \"#utility.yul\":15365:15387   */\n      add\n        /* \"#utility.yul\":15334:15397   */\n      tag_258\n      jump\t// in\n    tag_438:\n        /* \"#utility.yul\":15324:15397   */\n      swap3\n      pop\n        /* \"#utility.yul\":15120:15407   */\n      pop\n        /* \"#utility.yul\":15474:15476   */\n      0x20\n        /* \"#utility.yul\":15463:15472   */\n      dup4\n        /* \"#utility.yul\":15459:15477   */\n      add\n        /* \"#utility.yul\":15446:15478   */\n      calldataload\n        /* \"#utility.yul\":15505:15523   */\n      0xffffffffffffffff\n        /* \"#utility.yul\":15497:15503   */\n      dup2\n        /* \"#utility.yul\":15494:15524   */\n      gt\n        /* \"#utility.yul\":15491:15608   */\n      iszero\n      tag_439\n      jumpi\n        /* \"#utility.yul\":15527:15606   */\n      tag_440\n      tag_219\n      jump\t// in\n    tag_440:\n        /* \"#utility.yul\":15491:15608   */\n    tag_439:\n        /* \"#utility.yul\":15632:15720   */\n      tag_441\n        /* \"#utility.yul\":15712:15719   */\n      dup6\n        /* \"#utility.yul\":15703:15709   */\n      dup3\n        /* \"#utility.yul\":15692:15701   */\n      dup7\n        /* \"#utility.yul\":15688:15710   */\n      add\n        /* \"#utility.yul\":15632:15720   */\n      tag_262\n      jump\t// in\n    tag_441:\n        /* \"#utility.yul\":15622:15720   */\n      swap2\n      pop\n        /* \"#utility.yul\":15417:15730   */\n      pop\n        /* \"#utility.yul\":14853:15737   */\n      swap3\n      pop\n      swap3\n      swap1\n      pop\n      jump\t// out\n        /* \"#utility.yul\":15743:16217   */\n    tag_56:\n        /* \"#utility.yul\":15811:15817   */\n      0x00\n        /* \"#utility.yul\":15819:15825   */\n      dup1\n        /* \"#utility.yul\":15868:15870   */\n      0x40\n        /* \"#utility.yul\":15856:15865   */\n      dup4\n        /* \"#utility.yul\":15847:15854   */\n      dup6\n        /* \"#utility.yul\":15843:15866   */\n      sub\n        /* \"#utility.yul\":15839:15871   */\n      slt\n        /* \"#utility.yul\":15836:15955   */\n      iszero\n      tag_443\n      jumpi\n        /* \"#utility.yul\":15874:15953   */\n      tag_444\n      tag_218\n      jump\t// in\n    tag_444:\n        /* \"#utility.yul\":15836:15955   */\n    tag_443:\n        /* \"#utility.yul\":15994:15995   */\n      0x00\n        /* \"#utility.yul\":16019:16072   */\n      tag_445\n        /* \"#utility.yul\":16064:16071   */\n      dup6\n        /* \"#utility.yul\":16055:16061   */\n      dup3\n        /* \"#utility.yul\":16044:16053   */\n      dup7\n        /* \"#utility.yul\":16040:16062   */\n      add\n        /* \"#utility.yul\":16019:16072   */\n      tag_233\n      jump\t// in\n    tag_445:\n        /* \"#utility.yul\":16009:16072   */\n      swap3\n      pop\n        /* \"#utility.yul\":15965:16082   */\n      pop\n        /* \"#utility.yul\":16121:16123   */\n      0x20\n        /* \"#utility.yul\":16147:16200   */\n      tag_446\n        /* \"#utility.yul\":16192:16199   */\n      dup6\n        /* \"#utility.yul\":16183:16189   */\n      dup3\n        /* \"#utility.yul\":16172:16181   */\n      dup7\n        /* \"#utility.yul\":16168:16190   */\n      add\n        /* \"#utility.yul\":16147:16200   */\n      tag_233\n      jump\t// in\n    tag_446:\n        /* \"#utility.yul\":16137:16200   */\n      swap2\n      pop\n        /* \"#utility.yul\":16092:16210   */\n      pop\n        /* \"#utility.yul\":15743:16217   */\n      swap3\n      pop\n      swap3\n      swap1\n      pop\n      jump\t// out\n        /* \"#utility.yul\":16223:16646   */\n    tag_62:\n        /* \"#utility.yul\":16364:16368   */\n      0x00\n        /* \"#utility.yul\":16402:16404   */\n      0x40\n        /* \"#utility.yul\":16391:16400   */\n      dup3\n        /* \"#utility.yul\":16387:16405   */\n      add\n        /* \"#utility.yul\":16379:16405   */\n      swap1\n      pop\n        /* \"#utility.yul\":16451:16460   */\n      dup2\n        /* \"#utility.yul\":16445:16449   */\n      dup2\n        /* \"#utility.yul\":16441:16461   */\n      sub\n        /* \"#utility.yul\":16437:16438   */\n      0x00\n        /* \"#utility.yul\":16426:16435   */\n      dup4\n        /* \"#utility.yul\":16422:16439   */\n      add\n        /* \"#utility.yul\":16415:16462   */\n      mstore\n        /* \"#utility.yul\":16479:16557   */\n      tag_448\n        /* \"#utility.yul\":16552:16556   */\n      dup2\n        /* \"#utility.yul\":16543:16549   */\n      dup6\n        /* \"#utility.yul\":16479:16557   */\n      tag_239\n      jump\t// in\n    tag_448:\n        /* \"#utility.yul\":16471:16557   */\n      swap1\n      pop\n        /* \"#utility.yul\":16567:16639   */\n      tag_449\n        /* \"#utility.yul\":16635:16637   */\n      0x20\n        /* \"#utility.yul\":16624:16633   */\n      dup4\n        /* \"#utility.yul\":16620:16638   */\n      add\n        /* \"#utility.yul\":16611:16617   */\n      dup5\n        /* \"#utility.yul\":16567:16639   */\n      tag_234\n      jump\t// in\n    tag_449:\n        /* \"#utility.yul\":16223:16646   */\n      swap4\n      swap3\n      pop\n      pop\n      pop\n      jump\t// out\n        /* \"#utility.yul\":16652:16862   */\n    tag_67:\n        /* \"#utility.yul\":16739:16743   */\n      0x00\n        /* \"#utility.yul\":16777:16779   */\n      0x20\n        /* \"#utility.yul\":16766:16775   */\n      dup3\n        /* \"#utility.yul\":16762:16780   */\n      add\n        /* \"#utility.yul\":16754:16780   */\n      swap1\n      pop\n        /* \"#utility.yul\":16790:16855   */\n      tag_451\n        /* \"#utility.yul\":16852:16853   */\n      0x00\n        /* \"#utility.yul\":16841:16850   */\n      dup4\n        /* \"#utility.yul\":16837:16854   */\n      add\n        /* \"#utility.yul\":16828:16834   */\n      dup5\n        /* \"#utility.yul\":16790:16855   */\n      tag_242\n      jump\t// in\n    tag_451:\n        /* \"#utility.yul\":16652:16862   */\n      swap3\n      swap2\n      pop\n      pop\n      jump\t// out\n        /* \"#utility.yul\":16868:17036   */\n    tag_263:\n        /* \"#utility.yul\":17008:17028   */\n      0x5573657220686173206e6f7420766f7465640000000000000000000000000000\n        /* \"#utility.yul\":17004:17005   */\n      0x00\n        /* \"#utility.yul\":16996:17002   */\n      dup3\n        /* \"#utility.yul\":16992:17006   */\n      add\n        /* \"#utility.yul\":16985:17029   */\n      mstore\n        /* \"#utility.yul\":16868:17036   */\n      pop\n      jump\t// out\n        /* \"#utility.yul\":17042:17408   */\n    tag_264:\n        /* \"#utility.yul\":17184:17187   */\n      0x00\n        /* \"#utility.yul\":17205:17272   */\n      tag_454\n        /* \"#utility.yul\":17269:17271   */\n      0x12\n        /* \"#utility.yul\":17264:17267   */\n      dup4\n        /* \"#utility.yul\":17205:17272   */\n      tag_236\n      jump\t// in\n    tag_454:\n        /* \"#utility.yul\":17198:17272   */\n      swap2\n      pop\n        /* \"#utility.yul\":17281:17374   */\n      tag_455\n        /* \"#utility.yul\":17370:17373   */\n      dup3\n        /* \"#utility.yul\":17281:17374   */\n      tag_263\n      jump\t// in\n    tag_455:\n        /* \"#utility.yul\":17399:17401   */\n      0x20\n        /* \"#utility.yul\":17394:17397   */\n      dup3\n        /* \"#utility.yul\":17390:17402   */\n      add\n        /* \"#utility.yul\":17383:17402   */\n      swap1\n      pop\n        /* \"#utility.yul\":17042:17408   */\n      swap2\n      swap1\n      pop\n      jump\t// out\n        /* \"#utility.yul\":17414:17833   */\n    tag_76:\n        /* \"#utility.yul\":17580:17584   */\n      0x00\n        /* \"#utility.yul\":17618:17620   */\n      0x20\n        /* \"#utility.yul\":17607:17616   */\n      dup3\n        /* \"#utility.yul\":17603:17621   */\n      add\n        /* \"#utility.yul\":17595:17621   */\n      swap1\n      pop\n        /* \"#utility.yul\":17667:17676   */\n      dup2\n        /* \"#utility.yul\":17661:17665   */\n      dup2\n        /* \"#utility.yul\":17657:17677   */\n      sub\n        /* \"#utility.yul\":17653:17654   */\n      0x00\n        /* \"#utility.yul\":17642:17651   */\n      dup4\n        /* \"#utility.yul\":17638:17655   */\n      add\n        /* \"#utility.yul\":17631:17678   */\n      mstore\n        /* \"#utility.yul\":17695:17826   */\n      tag_457\n        /* \"#utility.yul\":17821:17825   */\n      dup2\n        /* \"#utility.yul\":17695:17826   */\n      tag_264\n      jump\t// in\n    tag_457:\n        /* \"#utility.yul\":17687:17826   */\n      swap1\n      pop\n        /* \"#utility.yul\":17414:17833   */\n      swap2\n      swap1\n      pop\n      jump\t// out\n        /* \"#utility.yul\":17839:18019   */\n    tag_265:\n        /* \"#utility.yul\":17887:17964   */\n      0x4e487b7100000000000000000000000000000000000000000000000000000000\n        /* \"#utility.yul\":17884:17885   */\n      0x00\n        /* \"#utility.yul\":17877:17965   */\n      mstore\n        /* \"#utility.yul\":17984:17988   */\n      0x22\n        /* \"#utility.yul\":17981:17982   */\n      0x04\n        /* \"#utility.yul\":17974:17989   */\n      mstore\n        /* \"#utility.yul\":18008:18012   */\n      0x24\n        /* \"#utility.yul\":18005:18006   */\n      0x00\n        /* \"#utility.yul\":17998:18013   */\n      revert\n        /* \"#utility.yul\":18025:18345   */\n    tag_81:\n        /* \"#utility.yul\":18069:18075   */\n      0x00\n        /* \"#utility.yul\":18106:18107   */\n      0x02\n        /* \"#utility.yul\":18100:18104   */\n      dup3\n        /* \"#utility.yul\":18096:18108   */\n      div\n        /* \"#utility.yul\":18086:18108   */\n      swap1\n      pop\n        /* \"#utility.yul\":18153:18154   */\n      0x01\n        /* \"#utility.yul\":18147:18151   */\n      dup3\n        /* \"#utility.yul\":18143:18155   */\n      and\n        /* \"#utility.yul\":18174:18192   */\n      dup1\n        /* \"#utility.yul\":18164:18245   */\n      tag_460\n      jumpi\n        /* \"#utility.yul\":18230:18234   */\n      0x7f\n        /* \"#utility.yul\":18222:18228   */\n      dup3\n        /* \"#utility.yul\":18218:18235   */\n      and\n        /* \"#utility.yul\":18208:18235   */\n      swap2\n      pop\n        /* \"#utility.yul\":18164:18245   */\n    tag_460:\n        /* \"#utility.yul\":18292:18294   */\n      0x20\n        /* \"#utility.yul\":18284:18290   */\n      dup3\n        /* \"#utility.yul\":18281:18295   */\n      lt\n        /* \"#utility.yul\":18261:18279   */\n      dup2\n        /* \"#utility.yul\":18258:18296   */\n      sub\n        /* \"#utility.yul\":18255:18339   */\n      tag_461\n      jumpi\n        /* \"#utility.yul\":18311:18329   */\n      tag_462\n      tag_265\n      jump\t// in\n    tag_462:\n        /* \"#utility.yul\":18255:18339   */\n    tag_461:\n        /* \"#utility.yul\":18076:18345   */\n      pop\n        /* \"#utility.yul\":18025:18345   */\n      swap2\n      swap1\n      pop\n      jump\t// out\n        /* \"#utility.yul\":18351:18531   */\n    tag_111:\n        /* \"#utility.yul\":18399:18476   */\n      0x4e487b7100000000000000000000000000000000000000000000000000000000\n        /* \"#utility.yul\":18396:18397   */\n      0x00\n        /* \"#utility.yul\":18389:18477   */\n      mstore\n        /* \"#utility.yul\":18496:18500   */\n      0x32\n        /* \"#utility.yul\":18493:18494   */\n      0x04\n        /* \"#utility.yul\":18486:18501   */\n      mstore\n        /* \"#utility.yul\":18520:18524   */\n      0x24\n        /* \"#utility.yul\":18517:18518   */\n      0x00\n        /* \"#utility.yul\":18510:18525   */\n      revert\n        /* \"#utility.yul\":18537:18717   */\n    tag_266:\n        /* \"#utility.yul\":18585:18662   */\n      0x4e487b7100000000000000000000000000000000000000000000000000000000\n        /* \"#utility.yul\":18582:18583   */\n      0x00\n        /* \"#utility.yul\":18575:18663   */\n      mstore\n        /* \"#utility.yul\":18682:18686   */\n      0x11\n        /* \"#utility.yul\":18679:18680   */\n      0x04\n        /* \"#utility.yul\":18672:18687   */\n      mstore\n        /* \"#utility.yul\":18706:18710   */\n      0x24\n        /* \"#utility.yul\":18703:18704   */\n      0x00\n        /* \"#utility.yul\":18696:18711   */\n      revert\n        /* \"#utility.yul\":18723:19133   */\n    tag_130:\n        /* \"#utility.yul\":18763:18770   */\n      0x00\n        /* \"#utility.yul\":18786:18806   */\n      tag_466\n        /* \"#utility.yul\":18804:18805   */\n      dup3\n        /* \"#utility.yul\":18786:18806   */\n      tag_227\n      jump\t// in\n    tag_466:\n        /* \"#utility.yul\":18781:18806   */\n      swap2\n      pop\n        /* \"#utility.yul\":18820:18840   */\n      tag_467\n        /* \"#utility.yul\":18838:18839   */\n      dup4\n        /* \"#utility.yul\":18820:18840   */\n      tag_227\n      jump\t// in\n    tag_467:\n        /* \"#utility.yul\":18815:18840   */\n      swap3\n      pop\n        /* \"#utility.yul\":18875:18876   */\n      dup3\n        /* \"#utility.yul\":18872:18873   */\n      dup3\n        /* \"#utility.yul\":18868:18877   */\n      mul\n        /* \"#utility.yul\":18897:18927   */\n      tag_468\n        /* \"#utility.yul\":18915:18926   */\n      dup2\n        /* \"#utility.yul\":18897:18927   */\n      tag_227\n      jump\t// in\n    tag_468:\n        /* \"#utility.yul\":18886:18927   */\n      swap2\n      pop\n        /* \"#utility.yul\":19076:19077   */\n      dup3\n        /* \"#utility.yul\":19067:19074   */\n      dup3\n        /* \"#utility.yul\":19063:19078   */\n      div\n        /* \"#utility.yul\":19060:19061   */\n      dup5\n        /* \"#utility.yul\":19057:19079   */\n      eq\n        /* \"#utility.yul\":19037:19038   */\n      dup4\n        /* \"#utility.yul\":19030:19039   */\n      iszero\n        /* \"#utility.yul\":19010:19093   */\n      or\n        /* \"#utility.yul\":18987:19126   */\n      tag_469\n      jumpi\n        /* \"#utility.yul\":19106:19124   */\n      tag_470\n      tag_266\n      jump\t// in\n    tag_470:\n        /* \"#utility.yul\":18987:19126   */\n    tag_469:\n        /* \"#utility.yul\":18771:19133   */\n      pop\n        /* \"#utility.yul\":18723:19133   */\n      swap3\n      swap2\n      pop\n      pop\n      jump\t// out\n        /* \"#utility.yul\":19139:19319   */\n    tag_267:\n        /* \"#utility.yul\":19187:19264   */\n      0x4e487b7100000000000000000000000000000000000000000000000000000000\n        /* \"#utility.yul\":19184:19185   */\n      0x00\n        /* \"#utility.yul\":19177:19265   */\n      mstore\n        /* \"#utility.yul\":19284:19288   */\n      0x12\n        /* \"#utility.yul\":19281:19282   */\n      0x04\n        /* \"#utility.yul\":19274:19289   */\n      mstore\n        /* \"#utility.yul\":19308:19312   */\n      0x24\n        /* \"#utility.yul\":19305:19306   */\n      0x00\n        /* \"#utility.yul\":19298:19313   */\n      revert\n        /* \"#utility.yul\":19325:19510   */\n    tag_132:\n        /* \"#utility.yul\":19365:19366   */\n      0x00\n        /* \"#utility.yul\":19382:19402   */\n      tag_473\n        /* \"#utility.yul\":19400:19401   */\n      dup3\n        /* \"#utility.yul\":19382:19402   */\n      tag_227\n      jump\t// in\n    tag_473:\n        /* \"#utility.yul\":19377:19402   */\n      swap2\n      pop\n        /* \"#utility.yul\":19416:19436   */\n      tag_474\n        /* \"#utility.yul\":19434:19435   */\n      dup4\n        /* \"#utility.yul\":19416:19436   */\n      tag_227\n      jump\t// in\n    tag_474:\n        /* \"#utility.yul\":19411:19436   */\n      swap3\n      pop\n        /* \"#utility.yul\":19455:19456   */\n      dup3\n        /* \"#utility.yul\":19445:19480   */\n      tag_475\n      jumpi\n        /* \"#utility.yul\":19460:19478   */\n      tag_476\n      tag_267\n      jump\t// in\n    tag_476:\n        /* \"#utility.yul\":19445:19480   */\n    tag_475:\n        /* \"#utility.yul\":19502:19503   */\n      dup3\n        /* \"#utility.yul\":19499:19500   */\n      dup3\n        /* \"#utility.yul\":19495:19504   */\n      div\n        /* \"#utility.yul\":19490:19504   */\n      swap1\n      pop\n        /* \"#utility.yul\":19325:19510   */\n      swap3\n      swap2\n      pop\n      pop\n      jump\t// out\n        /* \"#utility.yul\":19516:19749   */\n    tag_139:\n        /* \"#utility.yul\":19555:19558   */\n      0x00\n        /* \"#utility.yul\":19578:19602   */\n      tag_478\n        /* \"#utility.yul\":19596:19601   */\n      dup3\n        /* \"#utility.yul\":19578:19602   */\n      tag_227\n      jump\t// in\n    tag_478:\n        /* \"#utility.yul\":19569:19602   */\n      swap2\n      pop\n        /* \"#utility.yul\":19624:19690   */\n      0xffffffffffffffffffffffffffffffffffffffffffffffffffffffffffffffff\n        /* \"#utility.yul\":19617:19622   */\n      dup3\n        /* \"#utility.yul\":19614:19691   */\n      sub\n        /* \"#utility.yul\":19611:19714   */\n      tag_479\n      jumpi\n        /* \"#utility.yul\":19694:19712   */\n      tag_480\n      tag_266\n      jump\t// in\n    tag_480:\n        /* \"#utility.yul\":19611:19714   */\n    tag_479:\n        /* \"#utility.yul\":19741:19742   */\n      0x01\n        /* \"#utility.yul\":19734:19739   */\n      dup3\n        /* \"#utility.yul\":19730:19743   */\n      add\n        /* \"#utility.yul\":19723:19743   */\n      swap1\n      pop\n        /* \"#utility.yul\":19516:19749   */\n      swap2\n      swap1\n      pop\n      jump\t// out\n        /* \"#utility.yul\":19755:19896   */\n    tag_268:\n        /* \"#utility.yul\":19804:19808   */\n      0x00\n        /* \"#utility.yul\":19827:19830   */\n      dup2\n        /* \"#utility.yul\":19819:19830   */\n      swap1\n      pop\n        /* \"#utility.yul\":19850:19853   */\n      dup2\n        /* \"#utility.yul\":19847:19848   */\n      0x00\n        /* \"#utility.yul\":19840:19854   */\n      mstore\n        /* \"#utility.yul\":19884:19888   */\n      0x20\n        /* \"#utility.yul\":19881:19882   */\n      0x00\n        /* \"#utility.yul\":19871:19889   */\n      keccak256\n        /* \"#utility.yul\":19863:19889   */\n      swap1\n      pop\n        /* \"#utility.yul\":19755:19896   */\n      swap2\n      swap1\n      pop\n      jump\t// out\n        /* \"#utility.yul\":19902:19995   */\n    tag_269:\n        /* \"#utility.yul\":19939:19945   */\n      0x00\n        /* \"#utility.yul\":19986:19988   */\n      0x20\n        /* \"#utility.yul\":19981:19983   */\n      0x1f\n        /* \"#utility.yul\":19974:19979   */\n      dup4\n        /* \"#utility.yul\":19970:19984   */\n      add\n        /* \"#utility.yul\":19966:19989   */\n      div\n        /* \"#utility.yul\":19956:19989   */\n      swap1\n      pop\n        /* \"#utility.yul\":19902:19995   */\n      swap2\n      swap1\n      pop\n      jump\t// out\n        /* \"#utility.yul\":20001:20108   */\n    tag_270:\n        /* \"#utility.yul\":20045:20053   */\n      0x00\n        /* \"#utility.yul\":20095:20100   */\n      dup3\n        /* \"#utility.yul\":20089:20093   */\n      dup3\n        /* \"#utility.yul\":20085:20101   */\n      shl\n        /* \"#utility.yul\":20064:20101   */\n      swap1\n      pop\n        /* \"#utility.yul\":20001:20108   */\n      swap3\n      swap2\n      pop\n      pop\n      jump\t// out\n        /* \"#utility.yul\":20114:20507   */\n    tag_271:\n        /* \"#utility.yul\":20183:20189   */\n      0x00\n        /* \"#utility.yul\":20233:20234   */\n      0x08\n        /* \"#utility.yul\":20221:20231   */\n      dup4\n        /* \"#utility.yul\":20217:20235   */\n      mul\n        /* \"#utility.yul\":20256:20353   */\n      tag_485\n        /* \"#utility.yul\":20286:20352   */\n      0xffffffffffffffffffffffffffffffffffffffffffffffffffffffffffffffff\n        /* \"#utility.yul\":20275:20284   */\n      dup3\n        /* \"#utility.yul\":20256:20353   */\n      tag_270\n      jump\t// in\n    tag_485:\n        /* \"#utility.yul\":20374:20413   */\n      tag_486\n        /* \"#utility.yul\":20404:20412   */\n      dup7\n        /* \"#utility.yul\":20393:20402   */\n      dup4\n        /* \"#utility.yul\":20374:20413   */\n      tag_270\n      jump\t// in\n    tag_486:\n        /* \"#utility.yul\":20362:20413   */\n      swap6\n      pop\n        /* \"#utility.yul\":20446:20450   */\n      dup1\n        /* \"#utility.yul\":20442:20451   */\n      not\n        /* \"#utility.yul\":20435:20440   */\n      dup5\n        /* \"#utility.yul\":20431:20452   */\n      and\n        /* \"#utility.yul\":20422:20452   */\n      swap4\n      pop\n        /* \"#utility.yul\":20495:20499   */\n      dup1\n        /* \"#utility.yul\":20485:20493   */\n      dup7\n        /* \"#utility.yul\":20481:20500   */\n      and\n        /* \"#utility.yul\":20474:20479   */\n      dup5\n        /* \"#utility.yul\":20471:20501   */\n      or\n        /* \"#utility.yul\":20461:20501   */\n      swap3\n      pop\n        /* \"#utility.yul\":20190:20507   */\n      pop\n      pop\n        /* \"#utility.yul\":20114:20507   */\n      swap4\n      swap3\n      pop\n      pop\n      pop\n      jump\t// out\n        /* \"#utility.yul\":20513:20573   */\n    tag_272:\n        /* \"#utility.yul\":20541:20544   */\n      0x00\n        /* \"#utility.yul\":20562:20567   */\n      dup2\n        /* \"#utility.yul\":20555:20567   */\n      swap1\n      pop\n        /* \"#utility.yul\":20513:20573   */\n      swap2\n      swap1\n      pop\n      jump\t// out\n        /* \"#utility.yul\":20579:20721   */\n    tag_273:\n        /* \"#utility.yul\":20629:20638   */\n      0x00\n        /* \"#utility.yul\":20662:20715   */\n      tag_489\n        /* \"#utility.yul\":20680:20714   */\n      tag_490\n        /* \"#utility.yul\":20689:20713   */\n      tag_491\n        /* \"#utility.yul\":20707:20712   */\n      dup5\n        /* \"#utility.yul\":20689:20713   */\n      tag_227\n      jump\t// in\n    tag_491:\n        /* \"#utility.yul\":20680:20714   */\n      tag_272\n      jump\t// in\n    tag_490:\n        /* \"#utility.yul\":20662:20715   */\n      tag_227\n      jump\t// in\n    tag_489:\n        /* \"#utility.yul\":20649:20715   */\n      swap1\n      pop\n        /* \"#utility.yul\":20579:20721   */\n      swap2\n      swap1\n      pop\n      jump\t// out\n        /* \"#utility.yul\":20727:20802   */\n    tag_274:\n        /* \"#utility.yul\":20770:20773   */\n      0x00\n        /* \"#utility.yul\":20791:20796   */\n      dup2\n        /* \"#utility.yul\":20784:20796   */\n      swap1\n      pop\n        /* \"#utility.yul\":20727:20802   */\n      swap2\n      swap1\n      pop\n      jump\t// out\n        /* \"#utility.yul\":20808:21077   */\n    tag_275:\n        /* \"#utility.yul\":20918:20957   */\n      tag_494\n        /* \"#utility.yul\":20949:20956   */\n      dup4\n        /* \"#utility.yul\":20918:20957   */\n      tag_273\n      jump\t// in\n    tag_494:\n        /* \"#utility.yul\":20979:21070   */\n      tag_495\n        /* \"#utility.yul\":21028:21069   */\n      tag_496\n        /* \"#utility.yul\":21052:21068   */\n      dup3\n        /* \"#utility.yul\":21028:21069   */\n      tag_274\n      jump\t// in\n    tag_496:\n        /* \"#utility.yul\":21020:21026   */\n      dup5\n        /* \"#utility.yul\":21013:21017   */\n      dup5\n        /* \"#utility.yul\":21007:21018   */\n      sload\n        /* \"#utility.yul\":20979:21070   */\n      tag_271\n      jump\t// in\n    tag_495:\n        /* \"#utility.yul\":20973:20977   */\n      dup3\n        /* \"#utility.yul\":20966:21071   */\n      sstore\n        /* \"#utility.yul\":20884:21077   */\n      pop\n        /* \"#utility.yul\":20808:21077   */\n      pop\n      pop\n      pop\n      jump\t// out\n        /* \"#utility.yul\":21083:21156   */\n    tag_276:\n        /* \"#utility.yul\":21128:21131   */\n      0x00\n        /* \"#utility.yul\":21083:21156   */\n      swap1\n      jump\t// out\n        /* \"#utility.yul\":21162:21351   */\n    tag_277:\n        /* \"#utility.yul\":21239:21271   */\n      tag_499\n      tag_276\n      jump\t// in\n    tag_499:\n        /* \"#utility.yul\":21280:21345   */\n      tag_500\n        /* \"#utility.yul\":21338:21344   */\n      dup2\n        /* \"#utility.yul\":21330:21336   */\n      dup5\n        /* \"#utility.yul\":21324:21328   */\n      dup5\n        /* \"#utility.yul\":21280:21345   */\n      tag_275\n      jump\t// in\n    tag_500:\n        /* \"#utility.yul\":21215:21351   */\n      pop\n        /* \"#utility.yul\":21162:21351   */\n      pop\n      pop\n      jump\t// out\n        /* \"#utility.yul\":21357:21543   */\n    tag_278:\n        /* \"#utility.yul\":21417:21537   */\n    tag_502:\n        /* \"#utility.yul\":21434:21437   */\n      dup2\n        /* \"#utility.yul\":21427:21432   */\n      dup2\n        /* \"#utility.yul\":21424:21438   */\n      lt\n        /* \"#utility.yul\":21417:21537   */\n      iszero\n      tag_504\n      jumpi\n        /* \"#utility.yul\":21488:21527   */\n      tag_505\n        /* \"#utility.yul\":21525:21526   */\n      0x00\n        /* \"#utility.yul\":21518:21523   */\n      dup3\n        /* \"#utility.yul\":21488:21527   */\n      tag_277\n      jump\t// in\n    tag_505:\n        /* \"#utility.yul\":21461:21462   */\n      0x01\n        /* \"#utility.yul\":21454:21459   */\n      dup2\n        /* \"#utility.yul\":21450:21463   */\n      add\n        /* \"#utility.yul\":21441:21463   */\n      swap1\n      pop\n        /* \"#utility.yul\":21417:21537   */\n      jump(tag_502)\n    tag_504:\n        /* \"#utility.yul\":21357:21543   */\n      pop\n      pop\n      jump\t// out\n        /* \"#utility.yul\":21549:22092   */\n    tag_279:\n        /* \"#utility.yul\":21650:21652   */\n      0x1f\n        /* \"#utility.yul\":21645:21648   */\n      dup3\n        /* \"#utility.yul\":21642:21653   */\n      gt\n        /* \"#utility.yul\":21639:22085   */\n      iszero\n      tag_507\n      jumpi\n        /* \"#utility.yul\":21684:21722   */\n      tag_508\n        /* \"#utility.yul\":21716:21721   */\n      dup2\n        /* \"#utility.yul\":21684:21722   */\n      tag_268\n      jump\t// in\n    tag_508:\n        /* \"#utility.yul\":21768:21797   */\n      tag_509\n        /* \"#utility.yul\":21786:21796   */\n      dup5\n        /* \"#utility.yul\":21768:21797   */\n      tag_269\n      jump\t// in\n    tag_509:\n        /* \"#utility.yul\":21758:21766   */\n      dup2\n        /* \"#utility.yul\":21754:21798   */\n      add\n        /* \"#utility.yul\":21951:21953   */\n      0x20\n        /* \"#utility.yul\":21939:21949   */\n      dup6\n        /* \"#utility.yul\":21936:21954   */\n      lt\n        /* \"#utility.yul\":21933:21982   */\n      iszero\n      tag_510\n      jumpi\n        /* \"#utility.yul\":21972:21980   */\n      dup2\n        /* \"#utility.yul\":21957:21980   */\n      swap1\n      pop\n        /* \"#utility.yul\":21933:21982   */\n    tag_510:\n        /* \"#utility.yul\":21995:22075   */\n      tag_511\n        /* \"#utility.yul\":22051:22073   */\n      tag_512\n        /* \"#utility.yul\":22069:22072   */\n      dup6\n        /* \"#utility.yul\":22051:22073   */\n      tag_269\n      jump\t// in\n    tag_512:\n        /* \"#utility.yul\":22041:22049   */\n      dup4\n        /* \"#utility.yul\":22037:22074   */\n      add\n        /* \"#utility.yul\":22024:22035   */\n      dup3\n        /* \"#utility.yul\":21995:22075   */\n      tag_278\n      jump\t// in\n    tag_511:\n        /* \"#utility.yul\":21654:22085   */\n      pop\n      pop\n        /* \"#utility.yul\":21639:22085   */\n    tag_507:\n        /* \"#utility.yul\":21549:22092   */\n      pop\n      pop\n      pop\n      jump\t// out\n        /* \"#utility.yul\":22098:22215   */\n    tag_280:\n        /* \"#utility.yul\":22152:22160   */\n      0x00\n        /* \"#utility.yul\":22202:22207   */\n      dup3\n        /* \"#utility.yul\":22196:22200   */\n      dup3\n        /* \"#utility.yul\":22192:22208   */\n      shr\n        /* \"#utility.yul\":22171:22208   */\n      swap1\n      pop\n        /* \"#utility.yul\":22098:22215   */\n      swap3\n      swap2\n      pop\n      pop\n      jump\t// out\n        /* \"#utility.yul\":22221:22390   */\n    tag_281:\n        /* \"#utility.yul\":22265:22271   */\n      0x00\n        /* \"#utility.yul\":22298:22349   */\n      tag_515\n        /* \"#utility.yul\":22346:22347   */\n      0x00\n        /* \"#utility.yul\":22342:22348   */\n      not\n        /* \"#utility.yul\":22334:22339   */\n      dup5\n        /* \"#utility.yul\":22331:22332   */\n      0x08\n        /* \"#utility.yul\":22327:22340   */\n      mul\n        /* \"#utility.yul\":22298:22349   */\n      tag_280\n      jump\t// in\n    tag_515:\n        /* \"#utility.yul\":22294:22350   */\n      not\n        /* \"#utility.yul\":22379:22383   */\n      dup1\n        /* \"#utility.yul\":22373:22377   */\n      dup4\n        /* \"#utility.yul\":22369:22384   */\n      and\n        /* \"#utility.yul\":22359:22384   */\n      swap2\n      pop\n        /* \"#utility.yul\":22272:22390   */\n      pop\n        /* \"#utility.yul\":22221:22390   */\n      swap3\n      swap2\n      pop\n      pop\n      jump\t// out\n        /* \"#utility.yul\":22395:22690   */\n    tag_282:\n        /* \"#utility.yul\":22471:22475   */\n      0x00\n        /* \"#utility.yul\":22617:22646   */\n      tag_517\n        /* \"#utility.yul\":22642:22645   */\n      dup4\n        /* \"#utility.yul\":22636:22640   */\n      dup4\n        /* \"#utility.yul\":22617:22646   */\n      tag_281\n      jump\t// in\n    tag_517:\n        /* \"#utility.yul\":22609:22646   */\n      swap2\n      pop\n        /* \"#utility.yul\":22679:22682   */\n      dup3\n        /* \"#utility.yul\":22676:22677   */\n      0x02\n        /* \"#utility.yul\":22672:22683   */\n      mul\n        /* \"#utility.yul\":22666:22670   */\n      dup3\n        /* \"#utility.yul\":22663:22684   */\n      or\n        /* \"#utility.yul\":22655:22684   */\n      swap1\n      pop\n        /* \"#utility.yul\":22395:22690   */\n      swap3\n      swap2\n      pop\n      pop\n      jump\t// out\n        /* \"#utility.yul\":22695:24090   */\n    tag_176:\n        /* \"#utility.yul\":22812:22849   */\n      tag_519\n        /* \"#utility.yul\":22845:22848   */\n      dup3\n        /* \"#utility.yul\":22812:22849   */\n      tag_235\n      jump\t// in\n    tag_519:\n        /* \"#utility.yul\":22914:22932   */\n      0xffffffffffffffff\n        /* \"#utility.yul\":22906:22912   */\n      dup2\n        /* \"#utility.yul\":22903:22933   */\n      gt\n        /* \"#utility.yul\":22900:22956   */\n      iszero\n      tag_520\n      jumpi\n        /* \"#utility.yul\":22936:22954   */\n      tag_521\n      tag_97\n      jump\t// in\n    tag_521:\n        /* \"#utility.yul\":22900:22956   */\n    tag_520:\n        /* \"#utility.yul\":22980:23018   */\n      tag_522\n        /* \"#utility.yul\":23012:23016   */\n      dup3\n        /* \"#utility.yul\":23006:23017   */\n      sload\n        /* \"#utility.yul\":22980:23018   */\n      tag_81\n      jump\t// in\n    tag_522:\n        /* \"#utility.yul\":23065:23132   */\n      tag_523\n        /* \"#utility.yul\":23125:23131   */\n      dup3\n        /* \"#utility.yul\":23117:23123   */\n      dup3\n        /* \"#utility.yul\":23111:23115   */\n      dup6\n        /* \"#utility.yul\":23065:23132   */\n      tag_279\n      jump\t// in\n    tag_523:\n        /* \"#utility.yul\":23159:23160   */\n      0x00\n        /* \"#utility.yul\":23183:23187   */\n      0x20\n        /* \"#utility.yul\":23170:23187   */\n      swap1\n      pop\n        /* \"#utility.yul\":23215:23217   */\n      0x1f\n        /* \"#utility.yul\":23207:23213   */\n      dup4\n        /* \"#utility.yul\":23204:23218   */\n      gt\n        /* \"#utility.yul\":23232:23233   */\n      0x01\n        /* \"#utility.yul\":23227:23845   */\n      dup2\n      eq\n      tag_525\n      jumpi\n        /* \"#utility.yul\":23889:23890   */\n      0x00\n        /* \"#utility.yul\":23906:23912   */\n      dup5\n        /* \"#utility.yul\":23903:23980   */\n      iszero\n      tag_526\n      jumpi\n        /* \"#utility.yul\":23955:23964   */\n      dup3\n        /* \"#utility.yul\":23950:23953   */\n      dup8\n        /* \"#utility.yul\":23946:23965   */\n      add\n        /* \"#utility.yul\":23940:23966   */\n      mload\n        /* \"#utility.yul\":23931:23966   */\n      swap1\n      pop\n        /* \"#utility.yul\":23903:23980   */\n    tag_526:\n        /* \"#utility.yul\":24006:24073   */\n      tag_527\n        /* \"#utility.yul\":24066:24072   */\n      dup6\n        /* \"#utility.yul\":24059:24064   */\n      dup3\n        /* \"#utility.yul\":24006:24073   */\n      tag_282\n      jump\t// in\n    tag_527:\n        /* \"#utility.yul\":24000:24004   */\n      dup7\n        /* \"#utility.yul\":23993:24074   */\n      sstore\n        /* \"#utility.yul\":23862:24084   */\n      pop\n        /* \"#utility.yul\":23197:24084   */\n      jump(tag_524)\n        /* \"#utility.yul\":23227:23845   */\n    tag_525:\n        /* \"#utility.yul\":23279:23283   */\n      0x1f\n        /* \"#utility.yul\":23275:23284   */\n      not\n        /* \"#utility.yul\":23267:23273   */\n      dup5\n        /* \"#utility.yul\":23263:23285   */\n      and\n        /* \"#utility.yul\":23313:23350   */\n      tag_528\n        /* \"#utility.yul\":23345:23349   */\n      dup7\n        /* \"#utility.yul\":23313:23350   */\n      tag_268\n      jump\t// in\n    tag_528:\n        /* \"#utility.yul\":23372:23373   */\n      0x00\n        /* \"#utility.yul\":23386:23594   */\n    tag_529:\n        /* \"#utility.yul\":23400:23407   */\n      dup3\n        /* \"#utility.yul\":23397:23398   */\n      dup2\n        /* \"#utility.yul\":23394:23408   */\n      lt\n        /* \"#utility.yul\":23386:23594   */\n      iszero\n      tag_531\n      jumpi\n        /* \"#utility.yul\":23479:23488   */\n      dup5\n        /* \"#utility.yul\":23474:23477   */\n      dup10\n        /* \"#utility.yul\":23470:23489   */\n      add\n        /* \"#utility.yul\":23464:23490   */\n      mload\n        /* \"#utility.yul\":23456:23462   */\n      dup3\n        /* \"#utility.yul\":23449:23491   */\n      sstore\n        /* \"#utility.yul\":23530:23531   */\n      0x01\n        /* \"#utility.yul\":23522:23528   */\n      dup3\n        /* \"#utility.yul\":23518:23532   */\n      add\n        /* \"#utility.yul\":23508:23532   */\n      swap2\n      pop\n        /* \"#utility.yul\":23577:23579   */\n      0x20\n        /* \"#utility.yul\":23566:23575   */\n      dup6\n        /* \"#utility.yul\":23562:23580   */\n      add\n        /* \"#utility.yul\":23549:23580   */\n      swap5\n      pop\n        /* \"#utility.yul\":23423:23427   */\n      0x20\n        /* \"#utility.yul\":23420:23421   */\n      dup2\n        /* \"#utility.yul\":23416:23428   */\n      add\n        /* \"#utility.yul\":23411:23428   */\n      swap1\n      pop\n        /* \"#utility.yul\":23386:23594   */\n      jump(tag_529)\n    tag_531:\n        /* \"#utility.yul\":23622:23628   */\n      dup7\n        /* \"#utility.yul\":23613:23620   */\n      dup4\n        /* \"#utility.yul\":23610:23629   */\n      lt\n        /* \"#utility.yul\":23607:23786   */\n      iszero\n      tag_532\n      jumpi\n        /* \"#utility.yul\":23680:23689   */\n      dup5\n        /* \"#utility.yul\":23675:23678   */\n      dup10\n        /* \"#utility.yul\":23671:23690   */\n      add\n        /* \"#utility.yul\":23665:23691   */\n      mload\n        /* \"#utility.yul\":23723:23771   */\n      tag_533\n        /* \"#utility.yul\":23765:23769   */\n      0x1f\n        /* \"#utility.yul\":23757:23763   */\n      dup10\n        /* \"#utility.yul\":23753:23770   */\n      and\n        /* \"#utility.yul\":23742:23751   */\n      dup3\n        /* \"#utility.yul\":23723:23771   */\n      tag_281\n      jump\t// in\n    tag_533:\n        /* \"#utility.yul\":23715:23721   */\n      dup4\n        /* \"#utility.yul\":23708:23772   */\n      sstore\n        /* \"#utility.yul\":23630:23786   */\n      pop\n        /* \"#utility.yul\":23607:23786   */\n    tag_532:\n        /* \"#utility.yul\":23832:23833   */\n      0x01\n        /* \"#utility.yul\":23828:23829   */\n      0x02\n        /* \"#utility.yul\":23820:23826   */\n      dup9\n        /* \"#utility.yul\":23816:23830   */\n      mul\n        /* \"#utility.yul\":23812:23834   */\n      add\n        /* \"#utility.yul\":23806:23810   */\n      dup9\n        /* \"#utility.yul\":23799:23835   */\n      sstore\n        /* \"#utility.yul\":23234:23845   */\n      pop\n      pop\n      pop\n        /* \"#utility.yul\":23197:24084   */\n    tag_524:\n      pop\n        /* \"#utility.yul\":22787:24090   */\n      pop\n      pop\n      pop\n        /* \"#utility.yul\":22695:24090   */\n      pop\n      pop\n      jump\t// out\n\n    auxdata: 0xa2646970667358221220149dc5619d664e8bbbfc69d4cc48ebad25726569ffb7a7accefd809df420627d64736f6c63430008130033\n}\n",
				"bytecode": {
					"linkReferences": {},
					"object": "608060405234801561001057600080fd5b5061216c806100206000396000f3fe608060405234801561001057600080fd5b50600436106100a95760003560e01c80633ef87d54116100715780633ef87d5414610191578063728d4388146101af5780637e3d71c3146101e0578063b384abef14610210578063c4bd10d91461022c578063dc296ae11461025d576100a9565b806307f790e7146100ae5780630eac27f4146100de57806329b8f44a1461010e57806329c477091461014357806333b4097b1461015f575b600080fd5b6100c860048036038101906100c391906114fb565b61028d565b6040516100d591906115f0565b60405180910390f35b6100f860048036038101906100f3919061163e565b610324565b604051610105919061168d565b60405180910390f35b610128600480360381019061012391906116a8565b610466565b60405161013a9695949392919061178f565b60405180910390f35b61015d600480360381019061015891906116a8565b6105bb565b005b610179600480360381019061017491906116a8565b610759565b60405161018893929190611903565b60405180910390f35b610199610a81565b6040516101a6919061168d565b60405180910390f35b6101c960048036038101906101c491906116a8565b610a8b565b6040516101d792919061194f565b60405180910390f35b6101fa60048036038101906101f59190611ba1565b610ccd565b604051610207919061168d565b60405180910390f35b61022a60048036038101906102259190611c19565b610fb8565b005b61024660048036038101906102419190611c19565b61126f565b604051610254929190611c59565b60405180910390f35b6102776004803603810190610272919061163e565b6113d9565b6040516102849190611c89565b60405180910390f35b6060600160008373ffffffffffffffffffffffffffffffffffffffff1673ffffffffffffffffffffffffffffffffffffffff16815260200190815260200160002080548060200260200160405190810160405280929190818152602001828054801561031857602002820191906000526020600020905b815481526020019060010190808311610304575b50505050509050919050565b600080831480610335575060025483115b1561036c576040517ff9d6fdec00000000000000000000000000000000000000000000000000000000815260040160405180910390fd5b60008084815260200190815260200160002060050160008373ffffffffffffffffffffffffffffffffffffffff1673ffffffffffffffffffffffffffffffffffffffff16815260200190815260200160002060009054906101000a900460ff1661040b576040517f08c379a000000000000000000000000000000000000000000000000000000000815260040161040290611cf0565b60405180910390fd5b60008084815260200190815260200160002060060160008373ffffffffffffffffffffffffffffffffffffffff1673ffffffffffffffffffffffffffffffffffffffff16815260200190815260200160002054905092915050565b606060008060008060008087148061047f575060025487115b156104b6576040517ff9d6fdec00000000000000000000000000000000000000000000000000000000815260040160405180910390fd5b60008060008981526020019081526020016000209050806000018160010160009054906101000a900473ffffffffffffffffffffffffffffffffffffffff168260010160149054906101000a900460ff1683600401805490508460030154856002015485805461052590611d3f565b80601f016020809104026020016040519081016040528092919081815260200182805461055190611d3f565b801561059e5780601f106105735761010080835404028352916020019161059e565b820191906000526020600020905b81548152906001019060200180831161058157829003601f168201915b505050505095509650965096509650965096505091939550919395565b60008114806105cb575060025481115b15610602576040517ff9d6fdec00000000000000000000000000000000000000000000000000000000815260040160405180910390fd5b600080600083815260200190815260200160002090503373ffffffffffffffffffffffffffffffffffffffff168160010160009054906101000a900473ffffffffffffffffffffffffffffffffffffffff1673ffffffffffffffffffffffffffffffffffffffff16146106a1576040517ff7ef226700000000000000000000000000000000000000000000000000000000815260040160405180910390fd5b8060010160149054906101000a900460ff166106e9576040517f82909a1e00000000000000000000000000000000000000000000000000000000815260040160405180910390fd5b60008160010160146101000a81548160ff0219169083151502179055503373ffffffffffffffffffffffffffffffffffffffff16827f655f9303a2741f5a03d9aafb56166420a2365cf65926291d3e24813610da4a494260405161074d919061168d565b60405180910390a35050565b6060806060600084148061076e575060025484115b156107a5576040517ff9d6fdec00000000000000000000000000000000000000000000000000000000815260040160405180910390fd5b600080600086815260200190815260200160002090506000816004018054905090508067ffffffffffffffff8111156107e1576107e0611990565b5b60405190808252806020026020018201604052801561081457816020015b60608152602001906001900390816107ff5790505b5094508067ffffffffffffffff81111561083157610830611990565b5b60405190808252806020026020018201604052801561085f5781602001602082028036833780820191505090505b5093508067ffffffffffffffff81111561087c5761087b611990565b5b6040519080825280602002602001820160405280156108aa5781602001602082028036833780820191505090505b50925060005b81811015610a77578260040181815481106108ce576108cd611d70565b5b906000526020600020906002020160000180546108ea90611d3f565b80601f016020809104026020016040519081016040528092919081815260200182805461091690611d3f565b80156109635780601f1061093857610100808354040283529160200191610963565b820191906000526020600020905b81548152906001019060200180831161094657829003601f168201915b505050505086828151811061097b5761097a611d70565b5b602002602001018190525082600401818154811061099c5761099b611d70565b5b9060005260206000209060020201600101548582815181106109c1576109c0611d70565b5b602002602001018181525050600083600301541115610a425782600301546127108460040183815481106109f8576109f7611d70565b5b906000526020600020906002020160010154610a149190611dce565b610a1e9190611e3f565b848281518110610a3157610a30611d70565b5b602002602001018181525050610a64565b6000848281518110610a5757610a56611d70565b5b6020026020010181815250505b8080610a6f90611e70565b9150506108b0565b5050509193909250565b6000600254905090565b6060806000831480610a9e575060025483115b15610ad5576040517ff9d6fdec00000000000000000000000000000000000000000000000000000000815260040160405180910390fd5b600080600085815260200190815260200160002090506000816004018054905090508067ffffffffffffffff811115610b1157610b10611990565b5b604051908082528060200260200182016040528015610b4457816020015b6060815260200190600190039081610b2f5790505b5093508067ffffffffffffffff811115610b6157610b60611990565b5b604051908082528060200260200182016040528015610b8f5781602001602082028036833780820191505090505b50925060005b81811015610cc557826004018181548110610bb357610bb2611d70565b5b90600052602060002090600202016000018054610bcf90611d3f565b80601f0160208091040260200160405190810160405280929190818152602001828054610bfb90611d3f565b8015610c485780601f10610c1d57610100808354040283529160200191610c48565b820191906000526020600020905b815481529060010190602001808311610c2b57829003601f168201915b5050505050858281518110610c6057610c5f611d70565b5b6020026020010181905250826004018181548110610c8157610c80611d70565b5b906000526020600020906002020160010154848281518110610ca657610ca5611d70565b5b6020026020010181815250508080610cbd90611e70565b915050610b95565b505050915091565b6000600282511080610ce0575060068251115b15610d17576040517f447074b500000000000000000000000000000000000000000000000000000000815260040160405180910390fd5b6000835103610d52576040517fa5bb9bde00000000000000000000000000000000000000000000000000000000815260040160405180910390fd5b60026000815480929190610d6590611e70565b919050555060008060006002548152602001908152602001600020905083816000019081610d939190612064565b50338160010160006101000a81548173ffffffffffffffffffffffffffffffffffffffff021916908373ffffffffffffffffffffffffffffffffffffffff16021790555060018160010160146101000a81548160ff02191690831515021790555042816002018190555060005b8351811015610ef0576000848281518110610e1e57610e1d611d70565b5b60200260200101515103610e5e576040517f0f5e795700000000000000000000000000000000000000000000000000000000815260040160405180910390fd5b816004016040518060400160405280868481518110610e8057610e7f611d70565b5b60200260200101518152602001600081525090806001815401808255809150506001900390600052602060002090600202016000909190919091506000820151816000019081610ed09190612064565b506020820151816001015550508080610ee890611e70565b915050610e00565b50600160003373ffffffffffffffffffffffffffffffffffffffff1673ffffffffffffffffffffffffffffffffffffffff16815260200190815260200160002060025490806001815401808255809150506001900390600052602060002001600090919091909150553373ffffffffffffffffffffffffffffffffffffffff166002547f29f758df3e81eeecf732e452ff26f333ec14ae9aa2d08ae1ce7b5af71808026b8642604051610fa4929190611c59565b60405180910390a360025491505092915050565b6000821480610fc8575060025482115b15610fff576040517ff9d6fdec00000000000000000000000000000000000000000000000000000000815260040160405180910390fd5b600080600084815260200190815260200160002090508060010160149054906101000a900460ff1661105d576040517fc2f102cb00000000000000000000000000000000000000000000000000000000815260040160405180910390fd5b8060050160003373ffffffffffffffffffffffffffffffffffffffff1673ffffffffffffffffffffffffffffffffffffffff16815260200190815260200160002060009054906101000a900460ff16156110e3576040517f7c9a1cf900000000000000000000000000000000000000000000000000000000815260040160405180910390fd5b80600401805490508210611123576040517f2a71953100000000000000000000000000000000000000000000000000000000815260040160405180910390fd5b80600401828154811061113957611138611d70565b5b9060005260206000209060020201600101600081548092919061115b90611e70565b919050555080600301600081548092919061117590611e70565b919050555060018160050160003373ffffffffffffffffffffffffffffffffffffffff1673ffffffffffffffffffffffffffffffffffffffff16815260200190815260200160002060006101000a81548160ff021916908315150217905550818160060160003373ffffffffffffffffffffffffffffffffffffffff1673ffffffffffffffffffffffffffffffffffffffff168152602001908152602001600020819055503373ffffffffffffffffffffffffffffffffffffffff1682847f05ba3a7d514d15226e18b7b8542e232f0d94b49bd54784785d294b57e17ad6c142604051611262919061168d565b60405180910390a4505050565b6060600080841480611282575060025484115b156112b9576040517ff9d6fdec00000000000000000000000000000000000000000000000000000000815260040160405180910390fd5b600080600086815260200190815260200160002090508060040180549050841061130f576040517f2a71953100000000000000000000000000000000000000000000000000000000815260040160405180910390fd5b600081600401858154811061132757611326611d70565b5b9060005260206000209060020201905080600001816001015481805461134c90611d3f565b80601f016020809104026020016040519081016040528092919081815260200182805461137890611d3f565b80156113c55780601f1061139a576101008083540402835291602001916113c5565b820191906000526020600020905b8154815290600101906020018083116113a857829003601f168201915b505050505091509350935050509250929050565b6000808314806113ea575060025483115b15611421576040517ff9d6fdec00000000000000000000000000000000000000000000000000000000815260040160405180910390fd5b60008084815260200190815260200160002060050160008373ffffffffffffffffffffffffffffffffffffffff1673ffffffffffffffffffffffffffffffffffffffff16815260200190815260200160002060009054906101000a900460ff16905092915050565b6000604051905090565b600080fd5b600080fd5b600073ffffffffffffffffffffffffffffffffffffffff82169050919050565b60006114c88261149d565b9050919050565b6114d8816114bd565b81146114e357600080fd5b50565b6000813590506114f5816114cf565b92915050565b60006020828403121561151157611510611493565b5b600061151f848285016114e6565b91505092915050565b600081519050919050565b600082825260208201905092915050565b6000819050602082019050919050565b6000819050919050565b61156781611554565b82525050565b6000611579838361155e565b60208301905092915050565b6000602082019050919050565b600061159d82611528565b6115a78185611533565b93506115b283611544565b8060005b838110156115e35781516115ca888261156d565b97506115d583611585565b9250506001810190506115b6565b5085935050505092915050565b6000602082019050818103600083015261160a8184611592565b905092915050565b61161b81611554565b811461162657600080fd5b50565b60008135905061163881611612565b92915050565b6000806040838503121561165557611654611493565b5b600061166385828601611629565b9250506020611674858286016114e6565b9150509250929050565b61168781611554565b82525050565b60006020820190506116a2600083018461167e565b92915050565b6000602082840312156116be576116bd611493565b5b60006116cc84828501611629565b91505092915050565b600081519050919050565b600082825260208201905092915050565b60005b8381101561170f5780820151818401526020810190506116f4565b60008484015250505050565b6000601f19601f8301169050919050565b6000611737826116d5565b61174181856116e0565b93506117518185602086016116f1565b61175a8161171b565b840191505092915050565b61176e816114bd565b82525050565b60008115159050919050565b61178981611774565b82525050565b600060c08201905081810360008301526117a9818961172c565b90506117b86020830188611765565b6117c56040830187611780565b6117d2606083018661167e565b6117df608083018561167e565b6117ec60a083018461167e565b979650505050505050565b600081519050919050565b600082825260208201905092915050565b6000819050602082019050919050565b600082825260208201905092915050565b600061183f826116d5565b6118498185611823565b93506118598185602086016116f1565b6118628161171b565b840191505092915050565b60006118798383611834565b905092915050565b6000602082019050919050565b6000611899826117f7565b6118a38185611802565b9350836020820285016118b585611813565b8060005b858110156118f157848403895281516118d2858261186d565b94506118dd83611881565b925060208a019950506001810190506118b9565b50829750879550505050505092915050565b6000606082019050818103600083015261191d818661188e565b905081810360208301526119318185611592565b905081810360408301526119458184611592565b9050949350505050565b60006040820190508181036000830152611969818561188e565b9050818103602083015261197d8184611592565b90509392505050565b600080fd5b600080fd5b7f4e487b7100000000000000000000000000000000000000000000000000000000600052604160045260246000fd5b6119c88261171b565b810181811067ffffffffffffffff821117156119e7576119e6611990565b5b80604052505050565b60006119fa611489565b9050611a0682826119bf565b919050565b600067ffffffffffffffff821115611a2657611a25611990565b5b611a2f8261171b565b9050602081019050919050565b82818337600083830152505050565b6000611a5e611a5984611a0b565b6119f0565b905082815260208101848484011115611a7a57611a7961198b565b5b611a85848285611a3c565b509392505050565b600082601f830112611aa257611aa1611986565b5b8135611ab2848260208601611a4b565b91505092915050565b600067ffffffffffffffff821115611ad657611ad5611990565b5b602082029050602081019050919050565b600080fd5b6000611aff611afa84611abb565b6119f0565b90508083825260208201905060208402830185811115611b2257611b21611ae7565b5b835b81811015611b6957803567ffffffffffffffff811115611b4757611b46611986565b5b808601611b548982611a8d565b85526020850194505050602081019050611b24565b5050509392505050565b600082601f830112611b8857611b87611986565b5b8135611b98848260208601611aec565b91505092915050565b60008060408385031215611bb857611bb7611493565b5b600083013567ffffffffffffffff811115611bd657611bd5611498565b5b611be285828601611a8d565b925050602083013567ffffffffffffffff811115611c0357611c02611498565b5b611c0f85828601611b73565b9150509250929050565b60008060408385031215611c3057611c2f611493565b5b6000611c3e85828601611629565b9250506020611c4f85828601611629565b9150509250929050565b60006040820190508181036000830152611c73818561172c565b9050611c82602083018461167e565b9392505050565b6000602082019050611c9e6000830184611780565b92915050565b7f5573657220686173206e6f7420766f7465640000000000000000000000000000600082015250565b6000611cda6012836116e0565b9150611ce582611ca4565b602082019050919050565b60006020820190508181036000830152611d0981611ccd565b9050919050565b7f4e487b7100000000000000000000000000000000000000000000000000000000600052602260045260246000fd5b60006002820490506001821680611d5757607f821691505b602082108103611d6a57611d69611d10565b5b50919050565b7f4e487b7100000000000000000000000000000000000000000000000000000000600052603260045260246000fd5b7f4e487b7100000000000000000000000000000000000000000000000000000000600052601160045260246000fd5b6000611dd982611554565b9150611de483611554565b9250828202611df281611554565b91508282048414831517611e0957611e08611d9f565b5b5092915050565b7f4e487b7100000000000000000000000000000000000000000000000000000000600052601260045260246000fd5b6000611e4a82611554565b9150611e5583611554565b925082611e6557611e64611e10565b5b828204905092915050565b6000611e7b82611554565b91507fffffffffffffffffffffffffffffffffffffffffffffffffffffffffffffffff8203611ead57611eac611d9f565b5b600182019050919050565b60008190508160005260206000209050919050565b60006020601f8301049050919050565b600082821b905092915050565b600060088302611f1a7fffffffffffffffffffffffffffffffffffffffffffffffffffffffffffffffff82611edd565b611f248683611edd565b95508019841693508086168417925050509392505050565b6000819050919050565b6000611f61611f5c611f5784611554565b611f3c565b611554565b9050919050565b6000819050919050565b611f7b83611f46565b611f8f611f8782611f68565b848454611eea565b825550505050565b600090565b611fa4611f97565b611faf818484611f72565b505050565b5b81811015611fd357611fc8600082611f9c565b600181019050611fb5565b5050565b601f82111561201857611fe981611eb8565b611ff284611ecd565b81016020851015612001578190505b61201561200d85611ecd565b830182611fb4565b50505b505050565b600082821c905092915050565b600061203b6000198460080261201d565b1980831691505092915050565b6000612054838361202a565b9150826002028217905092915050565b61206d826116d5565b67ffffffffffffffff81111561208657612085611990565b5b6120908254611d3f565b61209b828285611fd7565b600060209050601f8311600181146120ce57600084156120bc578287015190505b6120c68582612048565b86555061212e565b601f1984166120dc86611eb8565b60005b82811015612104578489015182556001820191506020850194506020810190506120df565b86831015612121578489015161211d601f89168261202a565b8355505b6001600288020188555050505b50505050505056fea2646970667358221220149dc5619d664e8bbbfc69d4cc48ebad25726569ffb7a7accefd809df420627d64736f6c63430008130033",
					"opcodes": "PUSH1 0x80 PUSH1 0x40 MSTORE CALLVALUE DUP1 ISZERO PUSH2 0x10 JUMPI PUSH1 0x0 DUP1 REVERT JUMPDEST POP PUSH2 0x216C DUP1 PUSH2 0x20 PUSH1 0x0 CODECOPY PUSH1 0x0 RETURN INVALID PUSH1 0x80 PUSH1 0x40 MSTORE CALLVALUE DUP1 ISZERO PUSH2 0x10 JUMPI PUSH1 0x0 DUP1 REVERT JUMPDEST POP PUSH1 0x4 CALLDATASIZE LT PUSH2 0xA9 JUMPI PUSH1 0x0 CALLDATALOAD PUSH1 0xE0 SHR DUP1 PUSH4 0x3EF87D54 GT PUSH2 0x71 JUMPI DUP1 PUSH4 0x3EF87D54 EQ PUSH2 0x191 JUMPI DUP1 PUSH4 0x728D4388 EQ PUSH2 0x1AF JUMPI DUP1 PUSH4 0x7E3D71C3 EQ PUSH2 0x1E0 JUMPI DUP1 PUSH4 0xB384ABEF EQ PUSH2 0x210 JUMPI DUP1 PUSH4 0xC4BD10D9 EQ PUSH2 0x22C JUMPI DUP1 PUSH4 0xDC296AE1 EQ PUSH2 0x25D JUMPI PUSH2 0xA9 JUMP JUMPDEST DUP1 PUSH4 0x7F790E7 EQ PUSH2 0xAE JUMPI DUP1 PUSH4 0xEAC27F4 EQ PUSH2 0xDE JUMPI DUP1 PUSH4 0x29B8F44A EQ PUSH2 0x10E JUMPI DUP1 PUSH4 0x29C47709 EQ PUSH2 0x143 JUMPI DUP1 PUSH4 0x33B4097B EQ PUSH2 0x15F JUMPI JUMPDEST PUSH1 0x0 DUP1 REVERT JUMPDEST PUSH2 0xC8 PUSH1 0x4 DUP1 CALLDATASIZE SUB DUP2 ADD SWAP1 PUSH2 0xC3 SWAP2 SWAP1 PUSH2 0x14FB JUMP JUMPDEST PUSH2 0x28D JUMP JUMPDEST PUSH1 0x40 MLOAD PUSH2 0xD5 SWAP2 SWAP1 PUSH2 0x15F0 JUMP JUMPDEST PUSH1 0x40 MLOAD DUP1 SWAP2 SUB SWAP1 RETURN JUMPDEST PUSH2 0xF8 PUSH1 0x4 DUP1 CALLDATASIZE SUB DUP2 ADD SWAP1 PUSH2 0xF3 SWAP2 SWAP1 PUSH2 0x163E JUMP JUMPDEST PUSH2 0x324 JUMP JUMPDEST PUSH1 0x40 MLOAD PUSH2 0x105 SWAP2 SWAP1 PUSH2 0x168D JUMP JUMPDEST PUSH1 0x40 MLOAD DUP1 SWAP2 SUB SWAP1 RETURN JUMPDEST PUSH2 0x128 PUSH1 0x4 DUP1 CALLDATASIZE SUB DUP2 ADD SWAP1 PUSH2 0x123 SWAP2 SWAP1 PUSH2 0x16A8 JUMP JUMPDEST PUSH2 0x466 JUMP JUMPDEST PUSH1 0x40 MLOAD PUSH2 0x13A SWAP7 SWAP6 SWAP5 SWAP4 SWAP3 SWAP2 SWAP1 PUSH2 0x178F JUMP JUMPDEST PUSH1 0x40 MLOAD DUP1 SWAP2 SUB SWAP1 RETURN JUMPDEST PUSH2 0x15D PUSH1 0x4 DUP1 CALLDATASIZE SUB DUP2 ADD SWAP1 PUSH2 0x158 SWAP2 SWAP1 PUSH2 0x16A8 JUMP JUMPDEST PUSH2 0x5BB JUMP JUMPDEST STOP JUMPDEST PUSH2 0x179 PUSH1 0x4 DUP1 CALLDATASIZE SUB DUP2 ADD SWAP1 PUSH2 0x174 SWAP2 SWAP1 PUSH2 0x16A8 JUMP JUMPDEST PUSH2 0x759 JUMP JUMPDEST PUSH1 0x40 MLOAD PUSH2 0x188 SWAP4 SWAP3 SWAP2 SWAP1 PUSH2 0x1903 JUMP JUMPDEST PUSH1 0x40 MLOAD DUP1 SWAP2 SUB SWAP1 RETURN JUMPDEST PUSH2 0x199 PUSH2 0xA81 JUMP JUMPDEST PUSH1 0x40 MLOAD PUSH2 0x1A6 SWAP2 SWAP1 PUSH2 0x168D JUMP JUMPDEST PUSH1 0x40 MLOAD DUP1 SWAP2 SUB SWAP1 RETURN JUMPDEST PUSH2 0x1C9 PUSH1 0x4 DUP1 CALLDATASIZE SUB DUP2 ADD SWAP1 PUSH2 0x1C4 SWAP2 SWAP1 PUSH2 0x16A8 JUMP JUMPDEST PUSH2 0xA8B JUMP JUMPDEST PUSH1 0x40 MLOAD PUSH2 0x1D7 SWAP3 SWAP2 SWAP1 PUSH2 0x194F JUMP JUMPDEST PUSH1 0x40 MLOAD DUP1 SWAP2 SUB SWAP1 RETURN JUMPDEST PUSH2 0x1FA PUSH1 0x4 DUP1 CALLDATASIZE SUB DUP2 ADD SWAP1 PUSH2 0x1F5 SWAP2 SWAP1 PUSH2 0x1BA1 JUMP JUMPDEST PUSH2 0xCCD JUMP JUMPDEST PUSH1 0x40 MLOAD PUSH2 0x207 SWAP2 SWAP1 PUSH2 0x168D JUMP JUMPDEST PUSH1 0x40 MLOAD DUP1 SWAP2 SUB SWAP1 RETURN JUMPDEST PUSH2 0x22A PUSH1 0x4 DUP1 CALLDATASIZE SUB DUP2 ADD SWAP1 PUSH2 0x225 SWAP2 SWAP1 PUSH2 0x1C19 JUMP JUMPDEST PUSH2 0xFB8 JUMP JUMPDEST STOP JUMPDEST PUSH2 0x246 PUSH1 0x4 DUP1 CALLDATASIZE SUB DUP2 ADD SWAP1 PUSH2 0x241 SWAP2 SWAP1 PUSH2 0x1C19 JUMP JUMPDEST PUSH2 0x126F JUMP JUMPDEST PUSH1 0x40 MLOAD PUSH2 0x254 SWAP3 SWAP2 SWAP1 PUSH2 0x1C59 JUMP JUMPDEST PUSH1 0x40 MLOAD DUP1 SWAP2 SUB SWAP1 RETURN JUMPDEST PUSH2 0x277 PUSH1 0x4 DUP1 CALLDATASIZE SUB DUP2 ADD SWAP1 PUSH2 0x272 SWAP2 SWAP1 PUSH2 0x163E JUMP JUMPDEST PUSH2 0x13D9 JUMP JUMPDEST PUSH1 0x40 MLOAD PUSH2 0x284 SWAP2 SWAP1 PUSH2 0x1C89 JUMP JUMPDEST PUSH1 0x40 MLOAD DUP1 SWAP2 SUB SWAP1 RETURN JUMPDEST PUSH1 0x60 PUSH1 0x1 PUSH1 0x0 DUP4 PUSH20 0xFFFFFFFFFFFFFFFFFFFFFFFFFFFFFFFFFFFFFFFF AND PUSH20 0xFFFFFFFFFFFFFFFFFFFFFFFFFFFFFFFFFFFFFFFF AND DUP2 MSTORE PUSH1 0x20 ADD SWAP1 DUP2 MSTORE PUSH1 0x20 ADD PUSH1 0x0 KECCAK256 DUP1 SLOAD DUP1 PUSH1 0x20 MUL PUSH1 0x20 ADD PUSH1 0x40 MLOAD SWAP1 DUP2 ADD PUSH1 0x40 MSTORE DUP1 SWAP3 SWAP2 SWAP1 DUP2 DUP2 MSTORE PUSH1 0x20 ADD DUP3 DUP1 SLOAD DUP1 ISZERO PUSH2 0x318 JUMPI PUSH1 0x20 MUL DUP3 ADD SWAP2 SWAP1 PUSH1 0x0 MSTORE PUSH1 0x20 PUSH1 0x0 KECCAK256 SWAP1 JUMPDEST DUP2 SLOAD DUP2 MSTORE PUSH1 0x20 ADD SWAP1 PUSH1 0x1 ADD SWAP1 DUP1 DUP4 GT PUSH2 0x304 JUMPI JUMPDEST POP POP POP POP POP SWAP1 POP SWAP2 SWAP1 POP JUMP JUMPDEST PUSH1 0x0 DUP1 DUP4 EQ DUP1 PUSH2 0x335 JUMPI POP PUSH1 0x2 SLOAD DUP4 GT JUMPDEST ISZERO PUSH2 0x36C JUMPI PUSH1 0x40 MLOAD PUSH32 0xF9D6FDEC00000000000000000000000000000000000000000000000000000000 DUP2 MSTORE PUSH1 0x4 ADD PUSH1 0x40 MLOAD DUP1 SWAP2 SUB SWAP1 REVERT JUMPDEST PUSH1 0x0 DUP1 DUP5 DUP2 MSTORE PUSH1 0x20 ADD SWAP1 DUP2 MSTORE PUSH1 0x20 ADD PUSH1 0x0 KECCAK256 PUSH1 0x5 ADD PUSH1 0x0 DUP4 PUSH20 0xFFFFFFFFFFFFFFFFFFFFFFFFFFFFFFFFFFFFFFFF AND PUSH20 0xFFFFFFFFFFFFFFFFFFFFFFFFFFFFFFFFFFFFFFFF AND DUP2 MSTORE PUSH1 0x20 ADD SWAP1 DUP2 MSTORE PUSH1 0x20 ADD PUSH1 0x0 KECCAK256 PUSH1 0x0 SWAP1 SLOAD SWAP1 PUSH2 0x100 EXP SWAP1 DIV PUSH1 0xFF AND PUSH2 0x40B JUMPI PUSH1 0x40 MLOAD PUSH32 0x8C379A000000000000000000000000000000000000000000000000000000000 DUP2 MSTORE PUSH1 0x4 ADD PUSH2 0x402 SWAP1 PUSH2 0x1CF0 JUMP JUMPDEST PUSH1 0x40 MLOAD DUP1 SWAP2 SUB SWAP1 REVERT JUMPDEST PUSH1 0x0 DUP1 DUP5 DUP2 MSTORE PUSH1 0x20 ADD SWAP1 DUP2 MSTORE PUSH1 0x20 ADD PUSH1 0x0 KECCAK256 PUSH1 0x6 ADD PUSH1 0x0 DUP4 PUSH20 0xFFFFFFFFFFFFFFFFFFFFFFFFFFFFFFFFFFFFFFFF AND PUSH20 0xFFFFFFFFFFFFFFFFFFFFFFFFFFFFFFFFFFFFFFFF AND DUP2 MSTORE PUSH1 0x20 ADD SWAP1 DUP2 MSTORE PUSH1 0x20 ADD PUSH1 0x0 KECCAK256 SLOAD SWAP1 POP SWAP3 SWAP2 POP POP JUMP JUMPDEST PUSH1 0x60 PUSH1 0x0 DUP1 PUSH1 0x0 DUP1 PUSH1 0x0 DUP1 DUP8 EQ DUP1 PUSH2 0x47F JUMPI POP PUSH1 0x2 SLOAD DUP8 GT JUMPDEST ISZERO PUSH2 0x4B6 JUMPI PUSH1 0x40 MLOAD PUSH32 0xF9D6FDEC00000000000000000000000000000000000000000000000000000000 DUP2 MSTORE PUSH1 0x4 ADD PUSH1 0x40 MLOAD DUP1 SWAP2 SUB SWAP1 REVERT JUMPDEST PUSH1 0x0 DUP1 PUSH1 0x0 DUP10 DUP2 MSTORE PUSH1 0x20 ADD SWAP1 DUP2 MSTORE PUSH1 0x20 ADD PUSH1 0x0 KECCAK256 SWAP1 POP DUP1 PUSH1 0x0 ADD DUP2 PUSH1 0x1 ADD PUSH1 0x0 SWAP1 SLOAD SWAP1 PUSH2 0x100 EXP SWAP1 DIV PUSH20 0xFFFFFFFFFFFFFFFFFFFFFFFFFFFFFFFFFFFFFFFF AND DUP3 PUSH1 0x1 ADD PUSH1 0x14 SWAP1 SLOAD SWAP1 PUSH2 0x100 EXP SWAP1 DIV PUSH1 0xFF AND DUP4 PUSH1 0x4 ADD DUP1 SLOAD SWAP1 POP DUP5 PUSH1 0x3 ADD SLOAD DUP6 PUSH1 0x2 ADD SLOAD DUP6 DUP1 SLOAD PUSH2 0x525 SWAP1 PUSH2 0x1D3F JUMP JUMPDEST DUP1 PUSH1 0x1F ADD PUSH1 0x20 DUP1 SWAP2 DIV MUL PUSH1 0x20 ADD PUSH1 0x40 MLOAD SWAP1 DUP2 ADD PUSH1 0x40 MSTORE DUP1 SWAP3 SWAP2 SWAP1 DUP2 DUP2 MSTORE PUSH1 0x20 ADD DUP3 DUP1 SLOAD PUSH2 0x551 SWAP1 PUSH2 0x1D3F JUMP JUMPDEST DUP1 ISZERO PUSH2 0x59E JUMPI DUP1 PUSH1 0x1F LT PUSH2 0x573 JUMPI PUSH2 0x100 DUP1 DUP4 SLOAD DIV MUL DUP4 MSTORE SWAP2 PUSH1 0x20 ADD SWAP2 PUSH2 0x59E JUMP JUMPDEST DUP3 ADD SWAP2 SWAP1 PUSH1 0x0 MSTORE PUSH1 0x20 PUSH1 0x0 KECCAK256 SWAP1 JUMPDEST DUP2 SLOAD DUP2 MSTORE SWAP1 PUSH1 0x1 ADD SWAP1 PUSH1 0x20 ADD DUP1 DUP4 GT PUSH2 0x581 JUMPI DUP3 SWAP1 SUB PUSH1 0x1F AND DUP3 ADD SWAP2 JUMPDEST POP POP POP POP POP SWAP6 POP SWAP7 POP SWAP7 POP SWAP7 POP SWAP7 POP SWAP7 POP SWAP7 POP POP SWAP2 SWAP4 SWAP6 POP SWAP2 SWAP4 SWAP6 JUMP JUMPDEST PUSH1 0x0 DUP2 EQ DUP1 PUSH2 0x5CB JUMPI POP PUSH1 0x2 SLOAD DUP2 GT JUMPDEST ISZERO PUSH2 0x602 JUMPI PUSH1 0x40 MLOAD PUSH32 0xF9D6FDEC00000000000000000000000000000000000000000000000000000000 DUP2 MSTORE PUSH1 0x4 ADD PUSH1 0x40 MLOAD DUP1 SWAP2 SUB SWAP1 REVERT JUMPDEST PUSH1 0x0 DUP1 PUSH1 0x0 DUP4 DUP2 MSTORE PUSH1 0x20 ADD SWAP1 DUP2 MSTORE PUSH1 0x20 ADD PUSH1 0x0 KECCAK256 SWAP1 POP CALLER PUSH20 0xFFFFFFFFFFFFFFFFFFFFFFFFFFFFFFFFFFFFFFFF AND DUP2 PUSH1 0x1 ADD PUSH1 0x0 SWAP1 SLOAD SWAP1 PUSH2 0x100 EXP SWAP1 DIV PUSH20 0xFFFFFFFFFFFFFFFFFFFFFFFFFFFFFFFFFFFFFFFF AND PUSH20 0xFFFFFFFFFFFFFFFFFFFFFFFFFFFFFFFFFFFFFFFF AND EQ PUSH2 0x6A1 JUMPI PUSH1 0x40 MLOAD PUSH32 0xF7EF226700000000000000000000000000000000000000000000000000000000 DUP2 MSTORE PUSH1 0x4 ADD PUSH1 0x40 MLOAD DUP1 SWAP2 SUB SWAP1 REVERT JUMPDEST DUP1 PUSH1 0x1 ADD PUSH1 0x14 SWAP1 SLOAD SWAP1 PUSH2 0x100 EXP SWAP1 DIV PUSH1 0xFF AND PUSH2 0x6E9 JUMPI PUSH1 0x40 MLOAD PUSH32 0x82909A1E00000000000000000000000000000000000000000000000000000000 DUP2 MSTORE PUSH1 0x4 ADD PUSH1 0x40 MLOAD DUP1 SWAP2 SUB SWAP1 REVERT JUMPDEST PUSH1 0x0 DUP2 PUSH1 0x1 ADD PUSH1 0x14 PUSH2 0x100 EXP DUP2 SLOAD DUP2 PUSH1 0xFF MUL NOT AND SWAP1 DUP4 ISZERO ISZERO MUL OR SWAP1 SSTORE POP CALLER PUSH20 0xFFFFFFFFFFFFFFFFFFFFFFFFFFFFFFFFFFFFFFFF AND DUP3 PUSH32 0x655F9303A2741F5A03D9AAFB56166420A2365CF65926291D3E24813610DA4A49 TIMESTAMP PUSH1 0x40 MLOAD PUSH2 0x74D SWAP2 SWAP1 PUSH2 0x168D JUMP JUMPDEST PUSH1 0x40 MLOAD DUP1 SWAP2 SUB SWAP1 LOG3 POP POP JUMP JUMPDEST PUSH1 0x60 DUP1 PUSH1 0x60 PUSH1 0x0 DUP5 EQ DUP1 PUSH2 0x76E JUMPI POP PUSH1 0x2 SLOAD DUP5 GT JUMPDEST ISZERO PUSH2 0x7A5 JUMPI PUSH1 0x40 MLOAD PUSH32 0xF9D6FDEC00000000000000000000000000000000000000000000000000000000 DUP2 MSTORE PUSH1 0x4 ADD PUSH1 0x40 MLOAD DUP1 SWAP2 SUB SWAP1 REVERT JUMPDEST PUSH1 0x0 DUP1 PUSH1 0x0 DUP7 DUP2 MSTORE PUSH1 0x20 ADD SWAP1 DUP2 MSTORE PUSH1 0x20 ADD PUSH1 0x0 KECCAK256 SWAP1 POP PUSH1 0x0 DUP2 PUSH1 0x4 ADD DUP1 SLOAD SWAP1 POP SWAP1 POP DUP1 PUSH8 0xFFFFFFFFFFFFFFFF DUP2 GT ISZERO PUSH2 0x7E1 JUMPI PUSH2 0x7E0 PUSH2 0x1990 JUMP JUMPDEST JUMPDEST PUSH1 0x40 MLOAD SWAP1 DUP1 DUP3 MSTORE DUP1 PUSH1 0x20 MUL PUSH1 0x20 ADD DUP3 ADD PUSH1 0x40 MSTORE DUP1 ISZERO PUSH2 0x814 JUMPI DUP2 PUSH1 0x20 ADD JUMPDEST PUSH1 0x60 DUP2 MSTORE PUSH1 0x20 ADD SWAP1 PUSH1 0x1 SWAP1 SUB SWAP1 DUP2 PUSH2 0x7FF JUMPI SWAP1 POP JUMPDEST POP SWAP5 POP DUP1 PUSH8 0xFFFFFFFFFFFFFFFF DUP2 GT ISZERO PUSH2 0x831 JUMPI PUSH2 0x830 PUSH2 0x1990 JUMP JUMPDEST JUMPDEST PUSH1 0x40 MLOAD SWAP1 DUP1 DUP3 MSTORE DUP1 PUSH1 0x20 MUL PUSH1 0x20 ADD DUP3 ADD PUSH1 0x40 MSTORE DUP1 ISZERO PUSH2 0x85F JUMPI DUP2 PUSH1 0x20 ADD PUSH1 0x20 DUP3 MUL DUP1 CALLDATASIZE DUP4 CALLDATACOPY DUP1 DUP3 ADD SWAP2 POP POP SWAP1 POP JUMPDEST POP SWAP4 POP DUP1 PUSH8 0xFFFFFFFFFFFFFFFF DUP2 GT ISZERO PUSH2 0x87C JUMPI PUSH2 0x87B PUSH2 0x1990 JUMP JUMPDEST JUMPDEST PUSH1 0x40 MLOAD SWAP1 DUP1 DUP3 MSTORE DUP1 PUSH1 0x20 MUL PUSH1 0x20 ADD DUP3 ADD PUSH1 0x40 MSTORE DUP1 ISZERO PUSH2 0x8AA JUMPI DUP2 PUSH1 0x20 ADD PUSH1 0x20 DUP3 MUL DUP1 CALLDATASIZE DUP4 CALLDATACOPY DUP1 DUP3 ADD SWAP2 POP POP SWAP1 POP JUMPDEST POP SWAP3 POP PUSH1 0x0 JUMPDEST DUP2 DUP2 LT ISZERO PUSH2 0xA77 JUMPI DUP3 PUSH1 0x4 ADD DUP2 DUP2 SLOAD DUP2 LT PUSH2 0x8CE JUMPI PUSH2 0x8CD PUSH2 0x1D70 JUMP JUMPDEST JUMPDEST SWAP1 PUSH1 0x0 MSTORE PUSH1 0x20 PUSH1 0x0 KECCAK256 SWAP1 PUSH1 0x2 MUL ADD PUSH1 0x0 ADD DUP1 SLOAD PUSH2 0x8EA SWAP1 PUSH2 0x1D3F JUMP JUMPDEST DUP1 PUSH1 0x1F ADD PUSH1 0x20 DUP1 SWAP2 DIV MUL PUSH1 0x20 ADD PUSH1 0x40 MLOAD SWAP1 DUP2 ADD PUSH1 0x40 MSTORE DUP1 SWAP3 SWAP2 SWAP1 DUP2 DUP2 MSTORE PUSH1 0x20 ADD DUP3 DUP1 SLOAD PUSH2 0x916 SWAP1 PUSH2 0x1D3F JUMP JUMPDEST DUP1 ISZERO PUSH2 0x963 JUMPI DUP1 PUSH1 0x1F LT PUSH2 0x938 JUMPI PUSH2 0x100 DUP1 DUP4 SLOAD DIV MUL DUP4 MSTORE SWAP2 PUSH1 0x20 ADD SWAP2 PUSH2 0x963 JUMP JUMPDEST DUP3 ADD SWAP2 SWAP1 PUSH1 0x0 MSTORE PUSH1 0x20 PUSH1 0x0 KECCAK256 SWAP1 JUMPDEST DUP2 SLOAD DUP2 MSTORE SWAP1 PUSH1 0x1 ADD SWAP1 PUSH1 0x20 ADD DUP1 DUP4 GT PUSH2 0x946 JUMPI DUP3 SWAP1 SUB PUSH1 0x1F AND DUP3 ADD SWAP2 JUMPDEST POP POP POP POP POP DUP7 DUP3 DUP2 MLOAD DUP2 LT PUSH2 0x97B JUMPI PUSH2 0x97A PUSH2 0x1D70 JUMP JUMPDEST JUMPDEST PUSH1 0x20 MUL PUSH1 0x20 ADD ADD DUP2 SWAP1 MSTORE POP DUP3 PUSH1 0x4 ADD DUP2 DUP2 SLOAD DUP2 LT PUSH2 0x99C JUMPI PUSH2 0x99B PUSH2 0x1D70 JUMP JUMPDEST JUMPDEST SWAP1 PUSH1 0x0 MSTORE PUSH1 0x20 PUSH1 0x0 KECCAK256 SWAP1 PUSH1 0x2 MUL ADD PUSH1 0x1 ADD SLOAD DUP6 DUP3 DUP2 MLOAD DUP2 LT PUSH2 0x9C1 JUMPI PUSH2 0x9C0 PUSH2 0x1D70 JUMP JUMPDEST JUMPDEST PUSH1 0x20 MUL PUSH1 0x20 ADD ADD DUP2 DUP2 MSTORE POP POP PUSH1 0x0 DUP4 PUSH1 0x3 ADD SLOAD GT ISZERO PUSH2 0xA42 JUMPI DUP3 PUSH1 0x3 ADD SLOAD PUSH2 0x2710 DUP5 PUSH1 0x4 ADD DUP4 DUP2 SLOAD DUP2 LT PUSH2 0x9F8 JUMPI PUSH2 0x9F7 PUSH2 0x1D70 JUMP JUMPDEST JUMPDEST SWAP1 PUSH1 0x0 MSTORE PUSH1 0x20 PUSH1 0x0 KECCAK256 SWAP1 PUSH1 0x2 MUL ADD PUSH1 0x1 ADD SLOAD PUSH2 0xA14 SWAP2 SWAP1 PUSH2 0x1DCE JUMP JUMPDEST PUSH2 0xA1E SWAP2 SWAP1 PUSH2 0x1E3F JUMP JUMPDEST DUP5 DUP3 DUP2 MLOAD DUP2 LT PUSH2 0xA31 JUMPI PUSH2 0xA30 PUSH2 0x1D70 JUMP JUMPDEST JUMPDEST PUSH1 0x20 MUL PUSH1 0x20 ADD ADD DUP2 DUP2 MSTORE POP POP PUSH2 0xA64 JUMP JUMPDEST PUSH1 0x0 DUP5 DUP3 DUP2 MLOAD DUP2 LT PUSH2 0xA57 JUMPI PUSH2 0xA56 PUSH2 0x1D70 JUMP JUMPDEST JUMPDEST PUSH1 0x20 MUL PUSH1 0x20 ADD ADD DUP2 DUP2 MSTORE POP POP JUMPDEST DUP1 DUP1 PUSH2 0xA6F SWAP1 PUSH2 0x1E70 JUMP JUMPDEST SWAP2 POP POP PUSH2 0x8B0 JUMP JUMPDEST POP POP POP SWAP2 SWAP4 SWAP1 SWAP3 POP JUMP JUMPDEST PUSH1 0x0 PUSH1 0x2 SLOAD SWAP1 POP SWAP1 JUMP JUMPDEST PUSH1 0x60 DUP1 PUSH1 0x0 DUP4 EQ DUP1 PUSH2 0xA9E JUMPI POP PUSH1 0x2 SLOAD DUP4 GT JUMPDEST ISZERO PUSH2 0xAD5 JUMPI PUSH1 0x40 MLOAD PUSH32 0xF9D6FDEC00000000000000000000000000000000000000000000000000000000 DUP2 MSTORE PUSH1 0x4 ADD PUSH1 0x40 MLOAD DUP1 SWAP2 SUB SWAP1 REVERT JUMPDEST PUSH1 0x0 DUP1 PUSH1 0x0 DUP6 DUP2 MSTORE PUSH1 0x20 ADD SWAP1 DUP2 MSTORE PUSH1 0x20 ADD PUSH1 0x0 KECCAK256 SWAP1 POP PUSH1 0x0 DUP2 PUSH1 0x4 ADD DUP1 SLOAD SWAP1 POP SWAP1 POP DUP1 PUSH8 0xFFFFFFFFFFFFFFFF DUP2 GT ISZERO PUSH2 0xB11 JUMPI PUSH2 0xB10 PUSH2 0x1990 JUMP JUMPDEST JUMPDEST PUSH1 0x40 MLOAD SWAP1 DUP1 DUP3 MSTORE DUP1 PUSH1 0x20 MUL PUSH1 0x20 ADD DUP3 ADD PUSH1 0x40 MSTORE DUP1 ISZERO PUSH2 0xB44 JUMPI DUP2 PUSH1 0x20 ADD JUMPDEST PUSH1 0x60 DUP2 MSTORE PUSH1 0x20 ADD SWAP1 PUSH1 0x1 SWAP1 SUB SWAP1 DUP2 PUSH2 0xB2F JUMPI SWAP1 POP JUMPDEST POP SWAP4 POP DUP1 PUSH8 0xFFFFFFFFFFFFFFFF DUP2 GT ISZERO PUSH2 0xB61 JUMPI PUSH2 0xB60 PUSH2 0x1990 JUMP JUMPDEST JUMPDEST PUSH1 0x40 MLOAD SWAP1 DUP1 DUP3 MSTORE DUP1 PUSH1 0x20 MUL PUSH1 0x20 ADD DUP3 ADD PUSH1 0x40 MSTORE DUP1 ISZERO PUSH2 0xB8F JUMPI DUP2 PUSH1 0x20 ADD PUSH1 0x20 DUP3 MUL DUP1 CALLDATASIZE DUP4 CALLDATACOPY DUP1 DUP3 ADD SWAP2 POP POP SWAP1 POP JUMPDEST POP SWAP3 POP PUSH1 0x0 JUMPDEST DUP2 DUP2 LT ISZERO PUSH2 0xCC5 JUMPI DUP3 PUSH1 0x4 ADD DUP2 DUP2 SLOAD DUP2 LT PUSH2 0xBB3 JUMPI PUSH2 0xBB2 PUSH2 0x1D70 JUMP JUMPDEST JUMPDEST SWAP1 PUSH1 0x0 MSTORE PUSH1 0x20 PUSH1 0x0 KECCAK256 SWAP1 PUSH1 0x2 MUL ADD PUSH1 0x0 ADD DUP1 SLOAD PUSH2 0xBCF SWAP1 PUSH2 0x1D3F JUMP JUMPDEST DUP1 PUSH1 0x1F ADD PUSH1 0x20 DUP1 SWAP2 DIV MUL PUSH1 0x20 ADD PUSH1 0x40 MLOAD SWAP1 DUP2 ADD PUSH1 0x40 MSTORE DUP1 SWAP3 SWAP2 SWAP1 DUP2 DUP2 MSTORE PUSH1 0x20 ADD DUP3 DUP1 SLOAD PUSH2 0xBFB SWAP1 PUSH2 0x1D3F JUMP JUMPDEST DUP1 ISZERO PUSH2 0xC48 JUMPI DUP1 PUSH1 0x1F LT PUSH2 0xC1D JUMPI PUSH2 0x100 DUP1 DUP4 SLOAD DIV MUL DUP4 MSTORE SWAP2 PUSH1 0x20 ADD SWAP2 PUSH2 0xC48 JUMP JUMPDEST DUP3 ADD SWAP2 SWAP1 PUSH1 0x0 MSTORE PUSH1 0x20 PUSH1 0x0 KECCAK256 SWAP1 JUMPDEST DUP2 SLOAD DUP2 MSTORE SWAP1 PUSH1 0x1 ADD SWAP1 PUSH1 0x20 ADD DUP1 DUP4 GT PUSH2 0xC2B JUMPI DUP3 SWAP1 SUB PUSH1 0x1F AND DUP3 ADD SWAP2 JUMPDEST POP POP POP POP POP DUP6 DUP3 DUP2 MLOAD DUP2 LT PUSH2 0xC60 JUMPI PUSH2 0xC5F PUSH2 0x1D70 JUMP JUMPDEST JUMPDEST PUSH1 0x20 MUL PUSH1 0x20 ADD ADD DUP2 SWAP1 MSTORE POP DUP3 PUSH1 0x4 ADD DUP2 DUP2 SLOAD DUP2 LT PUSH2 0xC81 JUMPI PUSH2 0xC80 PUSH2 0x1D70 JUMP JUMPDEST JUMPDEST SWAP1 PUSH1 0x0 MSTORE PUSH1 0x20 PUSH1 0x0 KECCAK256 SWAP1 PUSH1 0x2 MUL ADD PUSH1 0x1 ADD SLOAD DUP5 DUP3 DUP2 MLOAD DUP2 LT PUSH2 0xCA6 JUMPI PUSH2 0xCA5 PUSH2 0x1D70 JUMP JUMPDEST JUMPDEST PUSH1 0x20 MUL PUSH1 0x20 ADD ADD DUP2 DUP2 MSTORE POP POP DUP1 DUP1 PUSH2 0xCBD SWAP1 PUSH2 0x1E70 JUMP JUMPDEST SWAP2 POP POP PUSH2 0xB95 JUMP JUMPDEST POP POP POP SWAP2 POP SWAP2 JUMP JUMPDEST PUSH1 0x0 PUSH1 0x2 DUP3 MLOAD LT DUP1 PUSH2 0xCE0 JUMPI POP PUSH1 0x6 DUP3 MLOAD GT JUMPDEST ISZERO PUSH2 0xD17 JUMPI PUSH1 0x40 MLOAD PUSH32 0x447074B500000000000000000000000000000000000000000000000000000000 DUP2 MSTORE PUSH1 0x4 ADD PUSH1 0x40 MLOAD DUP1 SWAP2 SUB SWAP1 REVERT JUMPDEST PUSH1 0x0 DUP4 MLOAD SUB PUSH2 0xD52 JUMPI PUSH1 0x40 MLOAD PUSH32 0xA5BB9BDE00000000000000000000000000000000000000000000000000000000 DUP2 MSTORE PUSH1 0x4 ADD PUSH1 0x40 MLOAD DUP1 SWAP2 SUB SWAP1 REVERT JUMPDEST PUSH1 0x2 PUSH1 0x0 DUP2 SLOAD DUP1 SWAP3 SWAP2 SWAP1 PUSH2 0xD65 SWAP1 PUSH2 0x1E70 JUMP JUMPDEST SWAP2 SWAP1 POP SSTORE POP PUSH1 0x0 DUP1 PUSH1 0x0 PUSH1 0x2 SLOAD DUP2 MSTORE PUSH1 0x20 ADD SWAP1 DUP2 MSTORE PUSH1 0x20 ADD PUSH1 0x0 KECCAK256 SWAP1 POP DUP4 DUP2 PUSH1 0x0 ADD SWAP1 DUP2 PUSH2 0xD93 SWAP2 SWAP1 PUSH2 0x2064 JUMP JUMPDEST POP CALLER DUP2 PUSH1 0x1 ADD PUSH1 0x0 PUSH2 0x100 EXP DUP2 SLOAD DUP2 PUSH20 0xFFFFFFFFFFFFFFFFFFFFFFFFFFFFFFFFFFFFFFFF MUL NOT AND SWAP1 DUP4 PUSH20 0xFFFFFFFFFFFFFFFFFFFFFFFFFFFFFFFFFFFFFFFF AND MUL OR SWAP1 SSTORE POP PUSH1 0x1 DUP2 PUSH1 0x1 ADD PUSH1 0x14 PUSH2 0x100 EXP DUP2 SLOAD DUP2 PUSH1 0xFF MUL NOT AND SWAP1 DUP4 ISZERO ISZERO MUL OR SWAP1 SSTORE POP TIMESTAMP DUP2 PUSH1 0x2 ADD DUP2 SWAP1 SSTORE POP PUSH1 0x0 JUMPDEST DUP4 MLOAD DUP2 LT ISZERO PUSH2 0xEF0 JUMPI PUSH1 0x0 DUP5 DUP3 DUP2 MLOAD DUP2 LT PUSH2 0xE1E JUMPI PUSH2 0xE1D PUSH2 0x1D70 JUMP JUMPDEST JUMPDEST PUSH1 0x20 MUL PUSH1 0x20 ADD ADD MLOAD MLOAD SUB PUSH2 0xE5E JUMPI PUSH1 0x40 MLOAD PUSH32 0xF5E795700000000000000000000000000000000000000000000000000000000 DUP2 MSTORE PUSH1 0x4 ADD PUSH1 0x40 MLOAD DUP1 SWAP2 SUB SWAP1 REVERT JUMPDEST DUP2 PUSH1 0x4 ADD PUSH1 0x40 MLOAD DUP1 PUSH1 0x40 ADD PUSH1 0x40 MSTORE DUP1 DUP7 DUP5 DUP2 MLOAD DUP2 LT PUSH2 0xE80 JUMPI PUSH2 0xE7F PUSH2 0x1D70 JUMP JUMPDEST JUMPDEST PUSH1 0x20 MUL PUSH1 0x20 ADD ADD MLOAD DUP2 MSTORE PUSH1 0x20 ADD PUSH1 0x0 DUP2 MSTORE POP SWAP1 DUP1 PUSH1 0x1 DUP2 SLOAD ADD DUP1 DUP3 SSTORE DUP1 SWAP2 POP POP PUSH1 0x1 SWAP1 SUB SWAP1 PUSH1 0x0 MSTORE PUSH1 0x20 PUSH1 0x0 KECCAK256 SWAP1 PUSH1 0x2 MUL ADD PUSH1 0x0 SWAP1 SWAP2 SWAP1 SWAP2 SWAP1 SWAP2 POP PUSH1 0x0 DUP3 ADD MLOAD DUP2 PUSH1 0x0 ADD SWAP1 DUP2 PUSH2 0xED0 SWAP2 SWAP1 PUSH2 0x2064 JUMP JUMPDEST POP PUSH1 0x20 DUP3 ADD MLOAD DUP2 PUSH1 0x1 ADD SSTORE POP POP DUP1 DUP1 PUSH2 0xEE8 SWAP1 PUSH2 0x1E70 JUMP JUMPDEST SWAP2 POP POP PUSH2 0xE00 JUMP JUMPDEST POP PUSH1 0x1 PUSH1 0x0 CALLER PUSH20 0xFFFFFFFFFFFFFFFFFFFFFFFFFFFFFFFFFFFFFFFF AND PUSH20 0xFFFFFFFFFFFFFFFFFFFFFFFFFFFFFFFFFFFFFFFF AND DUP2 MSTORE PUSH1 0x20 ADD SWAP1 DUP2 MSTORE PUSH1 0x20 ADD PUSH1 0x0 KECCAK256 PUSH1 0x2 SLOAD SWAP1 DUP1 PUSH1 0x1 DUP2 SLOAD ADD DUP1 DUP3 SSTORE DUP1 SWAP2 POP POP PUSH1 0x1 SWAP1 SUB SWAP1 PUSH1 0x0 MSTORE PUSH1 0x20 PUSH1 0x0 KECCAK256 ADD PUSH1 0x0 SWAP1 SWAP2 SWAP1 SWAP2 SWAP1 SWAP2 POP SSTORE CALLER PUSH20 0xFFFFFFFFFFFFFFFFFFFFFFFFFFFFFFFFFFFFFFFF AND PUSH1 0x2 SLOAD PUSH32 0x29F758DF3E81EEECF732E452FF26F333EC14AE9AA2D08AE1CE7B5AF71808026B DUP7 TIMESTAMP PUSH1 0x40 MLOAD PUSH2 0xFA4 SWAP3 SWAP2 SWAP1 PUSH2 0x1C59 JUMP JUMPDEST PUSH1 0x40 MLOAD DUP1 SWAP2 SUB SWAP1 LOG3 PUSH1 0x2 SLOAD SWAP2 POP POP SWAP3 SWAP2 POP POP JUMP JUMPDEST PUSH1 0x0 DUP3 EQ DUP1 PUSH2 0xFC8 JUMPI POP PUSH1 0x2 SLOAD DUP3 GT JUMPDEST ISZERO PUSH2 0xFFF JUMPI PUSH1 0x40 MLOAD PUSH32 0xF9D6FDEC00000000000000000000000000000000000000000000000000000000 DUP2 MSTORE PUSH1 0x4 ADD PUSH1 0x40 MLOAD DUP1 SWAP2 SUB SWAP1 REVERT JUMPDEST PUSH1 0x0 DUP1 PUSH1 0x0 DUP5 DUP2 MSTORE PUSH1 0x20 ADD SWAP1 DUP2 MSTORE PUSH1 0x20 ADD PUSH1 0x0 KECCAK256 SWAP1 POP DUP1 PUSH1 0x1 ADD PUSH1 0x14 SWAP1 SLOAD SWAP1 PUSH2 0x100 EXP SWAP1 DIV PUSH1 0xFF AND PUSH2 0x105D JUMPI PUSH1 0x40 MLOAD PUSH32 0xC2F102CB00000000000000000000000000000000000000000000000000000000 DUP2 MSTORE PUSH1 0x4 ADD PUSH1 0x40 MLOAD DUP1 SWAP2 SUB SWAP1 REVERT JUMPDEST DUP1 PUSH1 0x5 ADD PUSH1 0x0 CALLER PUSH20 0xFFFFFFFFFFFFFFFFFFFFFFFFFFFFFFFFFFFFFFFF AND PUSH20 0xFFFFFFFFFFFFFFFFFFFFFFFFFFFFFFFFFFFFFFFF AND DUP2 MSTORE PUSH1 0x20 ADD SWAP1 DUP2 MSTORE PUSH1 0x20 ADD PUSH1 0x0 KECCAK256 PUSH1 0x0 SWAP1 SLOAD SWAP1 PUSH2 0x100 EXP SWAP1 DIV PUSH1 0xFF AND ISZERO PUSH2 0x10E3 JUMPI PUSH1 0x40 MLOAD PUSH32 0x7C9A1CF900000000000000000000000000000000000000000000000000000000 DUP2 MSTORE PUSH1 0x4 ADD PUSH1 0x40 MLOAD DUP1 SWAP2 SUB SWAP1 REVERT JUMPDEST DUP1 PUSH1 0x4 ADD DUP1 SLOAD SWAP1 POP DUP3 LT PUSH2 0x1123 JUMPI PUSH1 0x40 MLOAD PUSH32 0x2A71953100000000000000000000000000000000000000000000000000000000 DUP2 MSTORE PUSH1 0x4 ADD PUSH1 0x40 MLOAD DUP1 SWAP2 SUB SWAP1 REVERT JUMPDEST DUP1 PUSH1 0x4 ADD DUP3 DUP2 SLOAD DUP2 LT PUSH2 0x1139 JUMPI PUSH2 0x1138 PUSH2 0x1D70 JUMP JUMPDEST JUMPDEST SWAP1 PUSH1 0x0 MSTORE PUSH1 0x20 PUSH1 0x0 KECCAK256 SWAP1 PUSH1 0x2 MUL ADD PUSH1 0x1 ADD PUSH1 0x0 DUP2 SLOAD DUP1 SWAP3 SWAP2 SWAP1 PUSH2 0x115B SWAP1 PUSH2 0x1E70 JUMP JUMPDEST SWAP2 SWAP1 POP SSTORE POP DUP1 PUSH1 0x3 ADD PUSH1 0x0 DUP2 SLOAD DUP1 SWAP3 SWAP2 SWAP1 PUSH2 0x1175 SWAP1 PUSH2 0x1E70 JUMP JUMPDEST SWAP2 SWAP1 POP SSTORE POP PUSH1 0x1 DUP2 PUSH1 0x5 ADD PUSH1 0x0 CALLER PUSH20 0xFFFFFFFFFFFFFFFFFFFFFFFFFFFFFFFFFFFFFFFF AND PUSH20 0xFFFFFFFFFFFFFFFFFFFFFFFFFFFFFFFFFFFFFFFF AND DUP2 MSTORE PUSH1 0x20 ADD SWAP1 DUP2 MSTORE PUSH1 0x20 ADD PUSH1 0x0 KECCAK256 PUSH1 0x0 PUSH2 0x100 EXP DUP2 SLOAD DUP2 PUSH1 0xFF MUL NOT AND SWAP1 DUP4 ISZERO ISZERO MUL OR SWAP1 SSTORE POP DUP2 DUP2 PUSH1 0x6 ADD PUSH1 0x0 CALLER PUSH20 0xFFFFFFFFFFFFFFFFFFFFFFFFFFFFFFFFFFFFFFFF AND PUSH20 0xFFFFFFFFFFFFFFFFFFFFFFFFFFFFFFFFFFFFFFFF AND DUP2 MSTORE PUSH1 0x20 ADD SWAP1 DUP2 MSTORE PUSH1 0x20 ADD PUSH1 0x0 KECCAK256 DUP2 SWAP1 SSTORE POP CALLER PUSH20 0xFFFFFFFFFFFFFFFFFFFFFFFFFFFFFFFFFFFFFFFF AND DUP3 DUP5 PUSH32 0x5BA3A7D514D15226E18B7B8542E232F0D94B49BD54784785D294B57E17AD6C1 TIMESTAMP PUSH1 0x40 MLOAD PUSH2 0x1262 SWAP2 SWAP1 PUSH2 0x168D JUMP JUMPDEST PUSH1 0x40 MLOAD DUP1 SWAP2 SUB SWAP1 LOG4 POP POP POP JUMP JUMPDEST PUSH1 0x60 PUSH1 0x0 DUP1 DUP5 EQ DUP1 PUSH2 0x1282 JUMPI POP PUSH1 0x2 SLOAD DUP5 GT JUMPDEST ISZERO PUSH2 0x12B9 JUMPI PUSH1 0x40 MLOAD PUSH32 0xF9D6FDEC00000000000000000000000000000000000000000000000000000000 DUP2 MSTORE PUSH1 0x4 ADD PUSH1 0x40 MLOAD DUP1 SWAP2 SUB SWAP1 REVERT JUMPDEST PUSH1 0x0 DUP1 PUSH1 0x0 DUP7 DUP2 MSTORE PUSH1 0x20 ADD SWAP1 DUP2 MSTORE PUSH1 0x20 ADD PUSH1 0x0 KECCAK256 SWAP1 POP DUP1 PUSH1 0x4 ADD DUP1 SLOAD SWAP1 POP DUP5 LT PUSH2 0x130F JUMPI PUSH1 0x40 MLOAD PUSH32 0x2A71953100000000000000000000000000000000000000000000000000000000 DUP2 MSTORE PUSH1 0x4 ADD PUSH1 0x40 MLOAD DUP1 SWAP2 SUB SWAP1 REVERT JUMPDEST PUSH1 0x0 DUP2 PUSH1 0x4 ADD DUP6 DUP2 SLOAD DUP2 LT PUSH2 0x1327 JUMPI PUSH2 0x1326 PUSH2 0x1D70 JUMP JUMPDEST JUMPDEST SWAP1 PUSH1 0x0 MSTORE PUSH1 0x20 PUSH1 0x0 KECCAK256 SWAP1 PUSH1 0x2 MUL ADD SWAP1 POP DUP1 PUSH1 0x0 ADD DUP2 PUSH1 0x1 ADD SLOAD DUP2 DUP1 SLOAD PUSH2 0x134C SWAP1 PUSH2 0x1D3F JUMP JUMPDEST DUP1 PUSH1 0x1F ADD PUSH1 0x20 DUP1 SWAP2 DIV MUL PUSH1 0x20 ADD PUSH1 0x40 MLOAD SWAP1 DUP2 ADD PUSH1 0x40 MSTORE DUP1 SWAP3 SWAP2 SWAP1 DUP2 DUP2 MSTORE PUSH1 0x20 ADD DUP3 DUP1 SLOAD PUSH2 0x1378 SWAP1 PUSH2 0x1D3F JUMP JUMPDEST DUP1 ISZERO PUSH2 0x13C5 JUMPI DUP1 PUSH1 0x1F LT PUSH2 0x139A JUMPI PUSH2 0x100 DUP1 DUP4 SLOAD DIV MUL DUP4 MSTORE SWAP2 PUSH1 0x20 ADD SWAP2 PUSH2 0x13C5 JUMP JUMPDEST DUP3 ADD SWAP2 SWAP1 PUSH1 0x0 MSTORE PUSH1 0x20 PUSH1 0x0 KECCAK256 SWAP1 JUMPDEST DUP2 SLOAD DUP2 MSTORE SWAP1 PUSH1 0x1 ADD SWAP1 PUSH1 0x20 ADD DUP1 DUP4 GT PUSH2 0x13A8 JUMPI DUP3 SWAP1 SUB PUSH1 0x1F AND DUP3 ADD SWAP2 JUMPDEST POP POP POP POP POP SWAP2 POP SWAP4 POP SWAP4 POP POP POP SWAP3 POP SWAP3 SWAP1 POP JUMP JUMPDEST PUSH1 0x0 DUP1 DUP4 EQ DUP1 PUSH2 0x13EA JUMPI POP PUSH1 0x2 SLOAD DUP4 GT JUMPDEST ISZERO PUSH2 0x1421 JUMPI PUSH1 0x40 MLOAD PUSH32 0xF9D6FDEC00000000000000000000000000000000000000000000000000000000 DUP2 MSTORE PUSH1 0x4 ADD PUSH1 0x40 MLOAD DUP1 SWAP2 SUB SWAP1 REVERT JUMPDEST PUSH1 0x0 DUP1 DUP5 DUP2 MSTORE PUSH1 0x20 ADD SWAP1 DUP2 MSTORE PUSH1 0x20 ADD PUSH1 0x0 KECCAK256 PUSH1 0x5 ADD PUSH1 0x0 DUP4 PUSH20 0xFFFFFFFFFFFFFFFFFFFFFFFFFFFFFFFFFFFFFFFF AND PUSH20 0xFFFFFFFFFFFFFFFFFFFFFFFFFFFFFFFFFFFFFFFF AND DUP2 MSTORE PUSH1 0x20 ADD SWAP1 DUP2 MSTORE PUSH1 0x20 ADD PUSH1 0x0 KECCAK256 PUSH1 0x0 SWAP1 SLOAD SWAP1 PUSH2 0x100 EXP SWAP1 DIV PUSH1 0xFF AND SWAP1 POP SWAP3 SWAP2 POP POP JUMP JUMPDEST PUSH1 0x0 PUSH1 0x40 MLOAD SWAP1 POP SWAP1 JUMP JUMPDEST PUSH1 0x0 DUP1 REVERT JUMPDEST PUSH1 0x0 DUP1 REVERT JUMPDEST PUSH1 0x0 PUSH20 0xFFFFFFFFFFFFFFFFFFFFFFFFFFFFFFFFFFFFFFFF DUP3 AND SWAP1 POP SWAP2 SWAP1 POP JUMP JUMPDEST PUSH1 0x0 PUSH2 0x14C8 DUP3 PUSH2 0x149D JUMP JUMPDEST SWAP1 POP SWAP2 SWAP1 POP JUMP JUMPDEST PUSH2 0x14D8 DUP2 PUSH2 0x14BD JUMP JUMPDEST DUP2 EQ PUSH2 0x14E3 JUMPI PUSH1 0x0 DUP1 REVERT JUMPDEST POP JUMP JUMPDEST PUSH1 0x0 DUP2 CALLDATALOAD SWAP1 POP PUSH2 0x14F5 DUP2 PUSH2 0x14CF JUMP JUMPDEST SWAP3 SWAP2 POP POP JUMP JUMPDEST PUSH1 0x0 PUSH1 0x20 DUP3 DUP5 SUB SLT ISZERO PUSH2 0x1511 JUMPI PUSH2 0x1510 PUSH2 0x1493 JUMP JUMPDEST JUMPDEST PUSH1 0x0 PUSH2 0x151F DUP5 DUP3 DUP6 ADD PUSH2 0x14E6 JUMP JUMPDEST SWAP2 POP POP SWAP3 SWAP2 POP POP JUMP JUMPDEST PUSH1 0x0 DUP2 MLOAD SWAP1 POP SWAP2 SWAP1 POP JUMP JUMPDEST PUSH1 0x0 DUP3 DUP3 MSTORE PUSH1 0x20 DUP3 ADD SWAP1 POP SWAP3 SWAP2 POP POP JUMP JUMPDEST PUSH1 0x0 DUP2 SWAP1 POP PUSH1 0x20 DUP3 ADD SWAP1 POP SWAP2 SWAP1 POP JUMP JUMPDEST PUSH1 0x0 DUP2 SWAP1 POP SWAP2 SWAP1 POP JUMP JUMPDEST PUSH2 0x1567 DUP2 PUSH2 0x1554 JUMP JUMPDEST DUP3 MSTORE POP POP JUMP JUMPDEST PUSH1 0x0 PUSH2 0x1579 DUP4 DUP4 PUSH2 0x155E JUMP JUMPDEST PUSH1 0x20 DUP4 ADD SWAP1 POP SWAP3 SWAP2 POP POP JUMP JUMPDEST PUSH1 0x0 PUSH1 0x20 DUP3 ADD SWAP1 POP SWAP2 SWAP1 POP JUMP JUMPDEST PUSH1 0x0 PUSH2 0x159D DUP3 PUSH2 0x1528 JUMP JUMPDEST PUSH2 0x15A7 DUP2 DUP6 PUSH2 0x1533 JUMP JUMPDEST SWAP4 POP PUSH2 0x15B2 DUP4 PUSH2 0x1544 JUMP JUMPDEST DUP1 PUSH1 0x0 JUMPDEST DUP4 DUP2 LT ISZERO PUSH2 0x15E3 JUMPI DUP2 MLOAD PUSH2 0x15CA DUP9 DUP3 PUSH2 0x156D JUMP JUMPDEST SWAP8 POP PUSH2 0x15D5 DUP4 PUSH2 0x1585 JUMP JUMPDEST SWAP3 POP POP PUSH1 0x1 DUP2 ADD SWAP1 POP PUSH2 0x15B6 JUMP JUMPDEST POP DUP6 SWAP4 POP POP POP POP SWAP3 SWAP2 POP POP JUMP JUMPDEST PUSH1 0x0 PUSH1 0x20 DUP3 ADD SWAP1 POP DUP2 DUP2 SUB PUSH1 0x0 DUP4 ADD MSTORE PUSH2 0x160A DUP2 DUP5 PUSH2 0x1592 JUMP JUMPDEST SWAP1 POP SWAP3 SWAP2 POP POP JUMP JUMPDEST PUSH2 0x161B DUP2 PUSH2 0x1554 JUMP JUMPDEST DUP2 EQ PUSH2 0x1626 JUMPI PUSH1 0x0 DUP1 REVERT JUMPDEST POP JUMP JUMPDEST PUSH1 0x0 DUP2 CALLDATALOAD SWAP1 POP PUSH2 0x1638 DUP2 PUSH2 0x1612 JUMP JUMPDEST SWAP3 SWAP2 POP POP JUMP JUMPDEST PUSH1 0x0 DUP1 PUSH1 0x40 DUP4 DUP6 SUB SLT ISZERO PUSH2 0x1655 JUMPI PUSH2 0x1654 PUSH2 0x1493 JUMP JUMPDEST JUMPDEST PUSH1 0x0 PUSH2 0x1663 DUP6 DUP3 DUP7 ADD PUSH2 0x1629 JUMP JUMPDEST SWAP3 POP POP PUSH1 0x20 PUSH2 0x1674 DUP6 DUP3 DUP7 ADD PUSH2 0x14E6 JUMP JUMPDEST SWAP2 POP POP SWAP3 POP SWAP3 SWAP1 POP JUMP JUMPDEST PUSH2 0x1687 DUP2 PUSH2 0x1554 JUMP JUMPDEST DUP3 MSTORE POP POP JUMP JUMPDEST PUSH1 0x0 PUSH1 0x20 DUP3 ADD SWAP1 POP PUSH2 0x16A2 PUSH1 0x0 DUP4 ADD DUP5 PUSH2 0x167E JUMP JUMPDEST SWAP3 SWAP2 POP POP JUMP JUMPDEST PUSH1 0x0 PUSH1 0x20 DUP3 DUP5 SUB SLT ISZERO PUSH2 0x16BE JUMPI PUSH2 0x16BD PUSH2 0x1493 JUMP JUMPDEST JUMPDEST PUSH1 0x0 PUSH2 0x16CC DUP5 DUP3 DUP6 ADD PUSH2 0x1629 JUMP JUMPDEST SWAP2 POP POP SWAP3 SWAP2 POP POP JUMP JUMPDEST PUSH1 0x0 DUP2 MLOAD SWAP1 POP SWAP2 SWAP1 POP JUMP JUMPDEST PUSH1 0x0 DUP3 DUP3 MSTORE PUSH1 0x20 DUP3 ADD SWAP1 POP SWAP3 SWAP2 POP POP JUMP JUMPDEST PUSH1 0x0 JUMPDEST DUP4 DUP2 LT ISZERO PUSH2 0x170F JUMPI DUP1 DUP3 ADD MLOAD DUP2 DUP5 ADD MSTORE PUSH1 0x20 DUP2 ADD SWAP1 POP PUSH2 0x16F4 JUMP JUMPDEST PUSH1 0x0 DUP5 DUP5 ADD MSTORE POP POP POP POP JUMP JUMPDEST PUSH1 0x0 PUSH1 0x1F NOT PUSH1 0x1F DUP4 ADD AND SWAP1 POP SWAP2 SWAP1 POP JUMP JUMPDEST PUSH1 0x0 PUSH2 0x1737 DUP3 PUSH2 0x16D5 JUMP JUMPDEST PUSH2 0x1741 DUP2 DUP6 PUSH2 0x16E0 JUMP JUMPDEST SWAP4 POP PUSH2 0x1751 DUP2 DUP6 PUSH1 0x20 DUP7 ADD PUSH2 0x16F1 JUMP JUMPDEST PUSH2 0x175A DUP2 PUSH2 0x171B JUMP JUMPDEST DUP5 ADD SWAP2 POP POP SWAP3 SWAP2 POP POP JUMP JUMPDEST PUSH2 0x176E DUP2 PUSH2 0x14BD JUMP JUMPDEST DUP3 MSTORE POP POP JUMP JUMPDEST PUSH1 0x0 DUP2 ISZERO ISZERO SWAP1 POP SWAP2 SWAP1 POP JUMP JUMPDEST PUSH2 0x1789 DUP2 PUSH2 0x1774 JUMP JUMPDEST DUP3 MSTORE POP POP JUMP JUMPDEST PUSH1 0x0 PUSH1 0xC0 DUP3 ADD SWAP1 POP DUP2 DUP2 SUB PUSH1 0x0 DUP4 ADD MSTORE PUSH2 0x17A9 DUP2 DUP10 PUSH2 0x172C JUMP JUMPDEST SWAP1 POP PUSH2 0x17B8 PUSH1 0x20 DUP4 ADD DUP9 PUSH2 0x1765 JUMP JUMPDEST PUSH2 0x17C5 PUSH1 0x40 DUP4 ADD DUP8 PUSH2 0x1780 JUMP JUMPDEST PUSH2 0x17D2 PUSH1 0x60 DUP4 ADD DUP7 PUSH2 0x167E JUMP JUMPDEST PUSH2 0x17DF PUSH1 0x80 DUP4 ADD DUP6 PUSH2 0x167E JUMP JUMPDEST PUSH2 0x17EC PUSH1 0xA0 DUP4 ADD DUP5 PUSH2 0x167E JUMP JUMPDEST SWAP8 SWAP7 POP POP POP POP POP POP POP JUMP JUMPDEST PUSH1 0x0 DUP2 MLOAD SWAP1 POP SWAP2 SWAP1 POP JUMP JUMPDEST PUSH1 0x0 DUP3 DUP3 MSTORE PUSH1 0x20 DUP3 ADD SWAP1 POP SWAP3 SWAP2 POP POP JUMP JUMPDEST PUSH1 0x0 DUP2 SWAP1 POP PUSH1 0x20 DUP3 ADD SWAP1 POP SWAP2 SWAP1 POP JUMP JUMPDEST PUSH1 0x0 DUP3 DUP3 MSTORE PUSH1 0x20 DUP3 ADD SWAP1 POP SWAP3 SWAP2 POP POP JUMP JUMPDEST PUSH1 0x0 PUSH2 0x183F DUP3 PUSH2 0x16D5 JUMP JUMPDEST PUSH2 0x1849 DUP2 DUP6 PUSH2 0x1823 JUMP JUMPDEST SWAP4 POP PUSH2 0x1859 DUP2 DUP6 PUSH1 0x20 DUP7 ADD PUSH2 0x16F1 JUMP JUMPDEST PUSH2 0x1862 DUP2 PUSH2 0x171B JUMP JUMPDEST DUP5 ADD SWAP2 POP POP SWAP3 SWAP2 POP POP JUMP JUMPDEST PUSH1 0x0 PUSH2 0x1879 DUP4 DUP4 PUSH2 0x1834 JUMP JUMPDEST SWAP1 POP SWAP3 SWAP2 POP POP JUMP JUMPDEST PUSH1 0x0 PUSH1 0x20 DUP3 ADD SWAP1 POP SWAP2 SWAP1 POP JUMP JUMPDEST PUSH1 0x0 PUSH2 0x1899 DUP3 PUSH2 0x17F7 JUMP JUMPDEST PUSH2 0x18A3 DUP2 DUP6 PUSH2 0x1802 JUMP JUMPDEST SWAP4 POP DUP4 PUSH1 0x20 DUP3 MUL DUP6 ADD PUSH2 0x18B5 DUP6 PUSH2 0x1813 JUMP JUMPDEST DUP1 PUSH1 0x0 JUMPDEST DUP6 DUP2 LT ISZERO PUSH2 0x18F1 JUMPI DUP5 DUP5 SUB DUP10 MSTORE DUP2 MLOAD PUSH2 0x18D2 DUP6 DUP3 PUSH2 0x186D JUMP JUMPDEST SWAP5 POP PUSH2 0x18DD DUP4 PUSH2 0x1881 JUMP JUMPDEST SWAP3 POP PUSH1 0x20 DUP11 ADD SWAP10 POP POP PUSH1 0x1 DUP2 ADD SWAP1 POP PUSH2 0x18B9 JUMP JUMPDEST POP DUP3 SWAP8 POP DUP8 SWAP6 POP POP POP POP POP POP SWAP3 SWAP2 POP POP JUMP JUMPDEST PUSH1 0x0 PUSH1 0x60 DUP3 ADD SWAP1 POP DUP2 DUP2 SUB PUSH1 0x0 DUP4 ADD MSTORE PUSH2 0x191D DUP2 DUP7 PUSH2 0x188E JUMP JUMPDEST SWAP1 POP DUP2 DUP2 SUB PUSH1 0x20 DUP4 ADD MSTORE PUSH2 0x1931 DUP2 DUP6 PUSH2 0x1592 JUMP JUMPDEST SWAP1 POP DUP2 DUP2 SUB PUSH1 0x40 DUP4 ADD MSTORE PUSH2 0x1945 DUP2 DUP5 PUSH2 0x1592 JUMP JUMPDEST SWAP1 POP SWAP5 SWAP4 POP POP POP POP JUMP JUMPDEST PUSH1 0x0 PUSH1 0x40 DUP3 ADD SWAP1 POP DUP2 DUP2 SUB PUSH1 0x0 DUP4 ADD MSTORE PUSH2 0x1969 DUP2 DUP6 PUSH2 0x188E JUMP JUMPDEST SWAP1 POP DUP2 DUP2 SUB PUSH1 0x20 DUP4 ADD MSTORE PUSH2 0x197D DUP2 DUP5 PUSH2 0x1592 JUMP JUMPDEST SWAP1 POP SWAP4 SWAP3 POP POP POP JUMP JUMPDEST PUSH1 0x0 DUP1 REVERT JUMPDEST PUSH1 0x0 DUP1 REVERT JUMPDEST PUSH32 0x4E487B7100000000000000000000000000000000000000000000000000000000 PUSH1 0x0 MSTORE PUSH1 0x41 PUSH1 0x4 MSTORE PUSH1 0x24 PUSH1 0x0 REVERT JUMPDEST PUSH2 0x19C8 DUP3 PUSH2 0x171B JUMP JUMPDEST DUP2 ADD DUP2 DUP2 LT PUSH8 0xFFFFFFFFFFFFFFFF DUP3 GT OR ISZERO PUSH2 0x19E7 JUMPI PUSH2 0x19E6 PUSH2 0x1990 JUMP JUMPDEST JUMPDEST DUP1 PUSH1 0x40 MSTORE POP POP POP JUMP JUMPDEST PUSH1 0x0 PUSH2 0x19FA PUSH2 0x1489 JUMP JUMPDEST SWAP1 POP PUSH2 0x1A06 DUP3 DUP3 PUSH2 0x19BF JUMP JUMPDEST SWAP2 SWAP1 POP JUMP JUMPDEST PUSH1 0x0 PUSH8 0xFFFFFFFFFFFFFFFF DUP3 GT ISZERO PUSH2 0x1A26 JUMPI PUSH2 0x1A25 PUSH2 0x1990 JUMP JUMPDEST JUMPDEST PUSH2 0x1A2F DUP3 PUSH2 0x171B JUMP JUMPDEST SWAP1 POP PUSH1 0x20 DUP2 ADD SWAP1 POP SWAP2 SWAP1 POP JUMP JUMPDEST DUP3 DUP2 DUP4 CALLDATACOPY PUSH1 0x0 DUP4 DUP4 ADD MSTORE POP POP POP JUMP JUMPDEST PUSH1 0x0 PUSH2 0x1A5E PUSH2 0x1A59 DUP5 PUSH2 0x1A0B JUMP JUMPDEST PUSH2 0x19F0 JUMP JUMPDEST SWAP1 POP DUP3 DUP2 MSTORE PUSH1 0x20 DUP2 ADD DUP5 DUP5 DUP5 ADD GT ISZERO PUSH2 0x1A7A JUMPI PUSH2 0x1A79 PUSH2 0x198B JUMP JUMPDEST JUMPDEST PUSH2 0x1A85 DUP5 DUP3 DUP6 PUSH2 0x1A3C JUMP JUMPDEST POP SWAP4 SWAP3 POP POP POP JUMP JUMPDEST PUSH1 0x0 DUP3 PUSH1 0x1F DUP4 ADD SLT PUSH2 0x1AA2 JUMPI PUSH2 0x1AA1 PUSH2 0x1986 JUMP JUMPDEST JUMPDEST DUP2 CALLDATALOAD PUSH2 0x1AB2 DUP5 DUP3 PUSH1 0x20 DUP7 ADD PUSH2 0x1A4B JUMP JUMPDEST SWAP2 POP POP SWAP3 SWAP2 POP POP JUMP JUMPDEST PUSH1 0x0 PUSH8 0xFFFFFFFFFFFFFFFF DUP3 GT ISZERO PUSH2 0x1AD6 JUMPI PUSH2 0x1AD5 PUSH2 0x1990 JUMP JUMPDEST JUMPDEST PUSH1 0x20 DUP3 MUL SWAP1 POP PUSH1 0x20 DUP2 ADD SWAP1 POP SWAP2 SWAP1 POP JUMP JUMPDEST PUSH1 0x0 DUP1 REVERT JUMPDEST PUSH1 0x0 PUSH2 0x1AFF PUSH2 0x1AFA DUP5 PUSH2 0x1ABB JUMP JUMPDEST PUSH2 0x19F0 JUMP JUMPDEST SWAP1 POP DUP1 DUP4 DUP3 MSTORE PUSH1 0x20 DUP3 ADD SWAP1 POP PUSH1 0x20 DUP5 MUL DUP4 ADD DUP6 DUP2 GT ISZERO PUSH2 0x1B22 JUMPI PUSH2 0x1B21 PUSH2 0x1AE7 JUMP JUMPDEST JUMPDEST DUP4 JUMPDEST DUP2 DUP2 LT ISZERO PUSH2 0x1B69 JUMPI DUP1 CALLDATALOAD PUSH8 0xFFFFFFFFFFFFFFFF DUP2 GT ISZERO PUSH2 0x1B47 JUMPI PUSH2 0x1B46 PUSH2 0x1986 JUMP JUMPDEST JUMPDEST DUP1 DUP7 ADD PUSH2 0x1B54 DUP10 DUP3 PUSH2 0x1A8D JUMP JUMPDEST DUP6 MSTORE PUSH1 0x20 DUP6 ADD SWAP5 POP POP POP PUSH1 0x20 DUP2 ADD SWAP1 POP PUSH2 0x1B24 JUMP JUMPDEST POP POP POP SWAP4 SWAP3 POP POP POP JUMP JUMPDEST PUSH1 0x0 DUP3 PUSH1 0x1F DUP4 ADD SLT PUSH2 0x1B88 JUMPI PUSH2 0x1B87 PUSH2 0x1986 JUMP JUMPDEST JUMPDEST DUP2 CALLDATALOAD PUSH2 0x1B98 DUP5 DUP3 PUSH1 0x20 DUP7 ADD PUSH2 0x1AEC JUMP JUMPDEST SWAP2 POP POP SWAP3 SWAP2 POP POP JUMP JUMPDEST PUSH1 0x0 DUP1 PUSH1 0x40 DUP4 DUP6 SUB SLT ISZERO PUSH2 0x1BB8 JUMPI PUSH2 0x1BB7 PUSH2 0x1493 JUMP JUMPDEST JUMPDEST PUSH1 0x0 DUP4 ADD CALLDATALOAD PUSH8 0xFFFFFFFFFFFFFFFF DUP2 GT ISZERO PUSH2 0x1BD6 JUMPI PUSH2 0x1BD5 PUSH2 0x1498 JUMP JUMPDEST JUMPDEST PUSH2 0x1BE2 DUP6 DUP3 DUP7 ADD PUSH2 0x1A8D JUMP JUMPDEST SWAP3 POP POP PUSH1 0x20 DUP4 ADD CALLDATALOAD PUSH8 0xFFFFFFFFFFFFFFFF DUP2 GT ISZERO PUSH2 0x1C03 JUMPI PUSH2 0x1C02 PUSH2 0x1498 JUMP JUMPDEST JUMPDEST PUSH2 0x1C0F DUP6 DUP3 DUP7 ADD PUSH2 0x1B73 JUMP JUMPDEST SWAP2 POP POP SWAP3 POP SWAP3 SWAP1 POP JUMP JUMPDEST PUSH1 0x0 DUP1 PUSH1 0x40 DUP4 DUP6 SUB SLT ISZERO PUSH2 0x1C30 JUMPI PUSH2 0x1C2F PUSH2 0x1493 JUMP JUMPDEST JUMPDEST PUSH1 0x0 PUSH2 0x1C3E DUP6 DUP3 DUP7 ADD PUSH2 0x1629 JUMP JUMPDEST SWAP3 POP POP PUSH1 0x20 PUSH2 0x1C4F DUP6 DUP3 DUP7 ADD PUSH2 0x1629 JUMP JUMPDEST SWAP2 POP POP SWAP3 POP SWAP3 SWAP1 POP JUMP JUMPDEST PUSH1 0x0 PUSH1 0x40 DUP3 ADD SWAP1 POP DUP2 DUP2 SUB PUSH1 0x0 DUP4 ADD MSTORE PUSH2 0x1C73 DUP2 DUP6 PUSH2 0x172C JUMP JUMPDEST SWAP1 POP PUSH2 0x1C82 PUSH1 0x20 DUP4 ADD DUP5 PUSH2 0x167E JUMP JUMPDEST SWAP4 SWAP3 POP POP POP JUMP JUMPDEST PUSH1 0x0 PUSH1 0x20 DUP3 ADD SWAP1 POP PUSH2 0x1C9E PUSH1 0x0 DUP4 ADD DUP5 PUSH2 0x1780 JUMP JUMPDEST SWAP3 SWAP2 POP POP JUMP JUMPDEST PUSH32 0x5573657220686173206E6F7420766F7465640000000000000000000000000000 PUSH1 0x0 DUP3 ADD MSTORE POP JUMP JUMPDEST PUSH1 0x0 PUSH2 0x1CDA PUSH1 0x12 DUP4 PUSH2 0x16E0 JUMP JUMPDEST SWAP2 POP PUSH2 0x1CE5 DUP3 PUSH2 0x1CA4 JUMP JUMPDEST PUSH1 0x20 DUP3 ADD SWAP1 POP SWAP2 SWAP1 POP JUMP JUMPDEST PUSH1 0x0 PUSH1 0x20 DUP3 ADD SWAP1 POP DUP2 DUP2 SUB PUSH1 0x0 DUP4 ADD MSTORE PUSH2 0x1D09 DUP2 PUSH2 0x1CCD JUMP JUMPDEST SWAP1 POP SWAP2 SWAP1 POP JUMP JUMPDEST PUSH32 0x4E487B7100000000000000000000000000000000000000000000000000000000 PUSH1 0x0 MSTORE PUSH1 0x22 PUSH1 0x4 MSTORE PUSH1 0x24 PUSH1 0x0 REVERT JUMPDEST PUSH1 0x0 PUSH1 0x2 DUP3 DIV SWAP1 POP PUSH1 0x1 DUP3 AND DUP1 PUSH2 0x1D57 JUMPI PUSH1 0x7F DUP3 AND SWAP2 POP JUMPDEST PUSH1 0x20 DUP3 LT DUP2 SUB PUSH2 0x1D6A JUMPI PUSH2 0x1D69 PUSH2 0x1D10 JUMP JUMPDEST JUMPDEST POP SWAP2 SWAP1 POP JUMP JUMPDEST PUSH32 0x4E487B7100000000000000000000000000000000000000000000000000000000 PUSH1 0x0 MSTORE PUSH1 0x32 PUSH1 0x4 MSTORE PUSH1 0x24 PUSH1 0x0 REVERT JUMPDEST PUSH32 0x4E487B7100000000000000000000000000000000000000000000000000000000 PUSH1 0x0 MSTORE PUSH1 0x11 PUSH1 0x4 MSTORE PUSH1 0x24 PUSH1 0x0 REVERT JUMPDEST PUSH1 0x0 PUSH2 0x1DD9 DUP3 PUSH2 0x1554 JUMP JUMPDEST SWAP2 POP PUSH2 0x1DE4 DUP4 PUSH2 0x1554 JUMP JUMPDEST SWAP3 POP DUP3 DUP3 MUL PUSH2 0x1DF2 DUP2 PUSH2 0x1554 JUMP JUMPDEST SWAP2 POP DUP3 DUP3 DIV DUP5 EQ DUP4 ISZERO OR PUSH2 0x1E09 JUMPI PUSH2 0x1E08 PUSH2 0x1D9F JUMP JUMPDEST JUMPDEST POP SWAP3 SWAP2 POP POP JUMP JUMPDEST PUSH32 0x4E487B7100000000000000000000000000000000000000000000000000000000 PUSH1 0x0 MSTORE PUSH1 0x12 PUSH1 0x4 MSTORE PUSH1 0x24 PUSH1 0x0 REVERT JUMPDEST PUSH1 0x0 PUSH2 0x1E4A DUP3 PUSH2 0x1554 JUMP JUMPDEST SWAP2 POP PUSH2 0x1E55 DUP4 PUSH2 0x1554 JUMP JUMPDEST SWAP3 POP DUP3 PUSH2 0x1E65 JUMPI PUSH2 0x1E64 PUSH2 0x1E10 JUMP JUMPDEST JUMPDEST DUP3 DUP3 DIV SWAP1 POP SWAP3 SWAP2 POP POP JUMP JUMPDEST PUSH1 0x0 PUSH2 0x1E7B DUP3 PUSH2 0x1554 JUMP JUMPDEST SWAP2 POP PUSH32 0xFFFFFFFFFFFFFFFFFFFFFFFFFFFFFFFFFFFFFFFFFFFFFFFFFFFFFFFFFFFFFFFF DUP3 SUB PUSH2 0x1EAD JUMPI PUSH2 0x1EAC PUSH2 0x1D9F JUMP JUMPDEST JUMPDEST PUSH1 0x1 DUP3 ADD SWAP1 POP SWAP2 SWAP1 POP JUMP JUMPDEST PUSH1 0x0 DUP2 SWAP1 POP DUP2 PUSH1 0x0 MSTORE PUSH1 0x20 PUSH1 0x0 KECCAK256 SWAP1 POP SWAP2 SWAP1 POP JUMP JUMPDEST PUSH1 0x0 PUSH1 0x20 PUSH1 0x1F DUP4 ADD DIV SWAP1 POP SWAP2 SWAP1 POP JUMP JUMPDEST PUSH1 0x0 DUP3 DUP3 SHL SWAP1 POP SWAP3 SWAP2 POP POP JUMP JUMPDEST PUSH1 0x0 PUSH1 0x8 DUP4 MUL PUSH2 0x1F1A PUSH32 0xFFFFFFFFFFFFFFFFFFFFFFFFFFFFFFFFFFFFFFFFFFFFFFFFFFFFFFFFFFFFFFFF DUP3 PUSH2 0x1EDD JUMP JUMPDEST PUSH2 0x1F24 DUP7 DUP4 PUSH2 0x1EDD JUMP JUMPDEST SWAP6 POP DUP1 NOT DUP5 AND SWAP4 POP DUP1 DUP7 AND DUP5 OR SWAP3 POP POP POP SWAP4 SWAP3 POP POP POP JUMP JUMPDEST PUSH1 0x0 DUP2 SWAP1 POP SWAP2 SWAP1 POP JUMP JUMPDEST PUSH1 0x0 PUSH2 0x1F61 PUSH2 0x1F5C PUSH2 0x1F57 DUP5 PUSH2 0x1554 JUMP JUMPDEST PUSH2 0x1F3C JUMP JUMPDEST PUSH2 0x1554 JUMP JUMPDEST SWAP1 POP SWAP2 SWAP1 POP JUMP JUMPDEST PUSH1 0x0 DUP2 SWAP1 POP SWAP2 SWAP1 POP JUMP JUMPDEST PUSH2 0x1F7B DUP4 PUSH2 0x1F46 JUMP JUMPDEST PUSH2 0x1F8F PUSH2 0x1F87 DUP3 PUSH2 0x1F68 JUMP JUMPDEST DUP5 DUP5 SLOAD PUSH2 0x1EEA JUMP JUMPDEST DUP3 SSTORE POP POP POP POP JUMP JUMPDEST PUSH1 0x0 SWAP1 JUMP JUMPDEST PUSH2 0x1FA4 PUSH2 0x1F97 JUMP JUMPDEST PUSH2 0x1FAF DUP2 DUP5 DUP5 PUSH2 0x1F72 JUMP JUMPDEST POP POP POP JUMP JUMPDEST JUMPDEST DUP2 DUP2 LT ISZERO PUSH2 0x1FD3 JUMPI PUSH2 0x1FC8 PUSH1 0x0 DUP3 PUSH2 0x1F9C JUMP JUMPDEST PUSH1 0x1 DUP2 ADD SWAP1 POP PUSH2 0x1FB5 JUMP JUMPDEST POP POP JUMP JUMPDEST PUSH1 0x1F DUP3 GT ISZERO PUSH2 0x2018 JUMPI PUSH2 0x1FE9 DUP2 PUSH2 0x1EB8 JUMP JUMPDEST PUSH2 0x1FF2 DUP5 PUSH2 0x1ECD JUMP JUMPDEST DUP2 ADD PUSH1 0x20 DUP6 LT ISZERO PUSH2 0x2001 JUMPI DUP2 SWAP1 POP JUMPDEST PUSH2 0x2015 PUSH2 0x200D DUP6 PUSH2 0x1ECD JUMP JUMPDEST DUP4 ADD DUP3 PUSH2 0x1FB4 JUMP JUMPDEST POP POP JUMPDEST POP POP POP JUMP JUMPDEST PUSH1 0x0 DUP3 DUP3 SHR SWAP1 POP SWAP3 SWAP2 POP POP JUMP JUMPDEST PUSH1 0x0 PUSH2 0x203B PUSH1 0x0 NOT DUP5 PUSH1 0x8 MUL PUSH2 0x201D JUMP JUMPDEST NOT DUP1 DUP4 AND SWAP2 POP POP SWAP3 SWAP2 POP POP JUMP JUMPDEST PUSH1 0x0 PUSH2 0x2054 DUP4 DUP4 PUSH2 0x202A JUMP JUMPDEST SWAP2 POP DUP3 PUSH1 0x2 MUL DUP3 OR SWAP1 POP SWAP3 SWAP2 POP POP JUMP JUMPDEST PUSH2 0x206D DUP3 PUSH2 0x16D5 JUMP JUMPDEST PUSH8 0xFFFFFFFFFFFFFFFF DUP2 GT ISZERO PUSH2 0x2086 JUMPI PUSH2 0x2085 PUSH2 0x1990 JUMP JUMPDEST JUMPDEST PUSH2 0x2090 DUP3 SLOAD PUSH2 0x1D3F JUMP JUMPDEST PUSH2 0x209B DUP3 DUP3 DUP6 PUSH2 0x1FD7 JUMP JUMPDEST PUSH1 0x0 PUSH1 0x20 SWAP1 POP PUSH1 0x1F DUP4 GT PUSH1 0x1 DUP2 EQ PUSH2 0x20CE JUMPI PUSH1 0x0 DUP5 ISZERO PUSH2 0x20BC JUMPI DUP3 DUP8 ADD MLOAD SWAP1 POP JUMPDEST PUSH2 0x20C6 DUP6 DUP3 PUSH2 0x2048 JUMP JUMPDEST DUP7 SSTORE POP PUSH2 0x212E JUMP JUMPDEST PUSH1 0x1F NOT DUP5 AND PUSH2 0x20DC DUP7 PUSH2 0x1EB8 JUMP JUMPDEST PUSH1 0x0 JUMPDEST DUP3 DUP2 LT ISZERO PUSH2 0x2104 JUMPI DUP5 DUP10 ADD MLOAD DUP3 SSTORE PUSH1 0x1 DUP3 ADD SWAP2 POP PUSH1 0x20 DUP6 ADD SWAP5 POP PUSH1 0x20 DUP2 ADD SWAP1 POP PUSH2 0x20DF JUMP JUMPDEST DUP7 DUP4 LT ISZERO PUSH2 0x2121 JUMPI DUP5 DUP10 ADD MLOAD PUSH2 0x211D PUSH1 0x1F DUP10 AND DUP3 PUSH2 0x202A JUMP JUMPDEST DUP4 SSTORE POP JUMPDEST PUSH1 0x1 PUSH1 0x2 DUP9 MUL ADD DUP9 SSTORE POP POP POP JUMPDEST POP POP POP POP POP POP JUMP INVALID LOG2 PUSH5 0x6970667358 0x22 SLT KECCAK256 EQ SWAP14 0xC5 PUSH2 0x9D66 0x4E DUP12 0xBB 0xFC PUSH10 0xD4CC48EBAD25726569FF 0xB7 0xA7 0xAC 0xCE REVERT DUP1 SWAP14 DELEGATECALL KECCAK256 PUSH3 0x7D6473 PUSH16 0x6C634300081300330000000000000000 "
				},
				"gasEstimates": {
					"creation": {
						"codeDepositCost": "1711200",
						"executionCost": "1799",
						"totalCost": "1712999"
					},
					"external": {
						"createPoll(string,string[])": "infinite",
						"finishPoll(uint256)": "infinite",
						"getAllPollOptions(uint256)": "infinite",
						"getPollInfo(uint256)": "infinite",
						"getPollOption(uint256,uint256)": "infinite",
						"getPollResults(uint256)": "infinite",
						"getTotalPolls()": "2437",
						"getUserPolls(address)": "infinite",
						"getVoterChoice(uint256,address)": "infinite",
						"hasUserVoted(uint256,address)": "5404",
						"vote(uint256,uint256)": "infinite"
					}
				},
				"methodIdentifiers": {
					"createPoll(string,string[])": "7e3d71c3",
					"finishPoll(uint256)": "29c47709",
					"getAllPollOptions(uint256)": "728d4388",
					"getPollInfo(uint256)": "29b8f44a",
					"getPollOption(uint256,uint256)": "c4bd10d9",
					"getPollResults(uint256)": "33b4097b",
					"getTotalPolls()": "3ef87d54",
					"getUserPolls(address)": "07f790e7",
					"getVoterChoice(uint256,address)": "0eac27f4",
					"hasUserVoted(uint256,address)": "dc296ae1",
					"vote(uint256,uint256)": "b384abef"
				}
			},
			"storageLayout": {
				"storage": [
					{
						"astId": 35,
						"contract": "contracts/VotingCore.sol:Polls",
						"label": "polls",
						"offset": 0,
						"slot": "0",
						"type": "t_mapping(t_uint256,t_struct(PollInfo)30_storage)"
					},
					{
						"astId": 40,
						"contract": "contracts/VotingCore.sol:Polls",
						"label": "userPolls",
						"offset": 0,
						"slot": "1",
						"type": "t_mapping(t_address,t_array(t_uint256)dyn_storage)"
					},
					{
						"astId": 42,
						"contract": "contracts/VotingCore.sol:Polls",
						"label": "pollCounter",
						"offset": 0,
						"slot": "2",
						"type": "t_uint256"
					}
				],
				"types": {
					"t_address": {
						"encoding": "inplace",
						"label": "address",
						"numberOfBytes": "20"
					},
					"t_array(t_struct(VotingOptions)7_storage)dyn_storage": {
						"base": "t_struct(VotingOptions)7_storage",
						"encoding": "dynamic_array",
						"label": "struct Polls.VotingOptions[]",
						"numberOfBytes": "32"
					},
					"t_array(t_uint256)dyn_storage": {
						"base": "t_uint256",
						"encoding": "dynamic_array",
						"label": "uint256[]",
						"numberOfBytes": "32"
					},
					"t_bool": {
						"encoding": "inplace",
						"label": "bool",
						"numberOfBytes": "1"
					},
					"t_mapping(t_address,t_array(t_uint256)dyn_storage)": {
						"encoding": "mapping",
						"key": "t_address",
						"label": "mapping(address => uint256[])",
						"numberOfBytes": "32",
						"value": "t_array(t_uint256)dyn_storage"
					},
					"t_mapping(t_address,t_bool)": {
						"encoding": "mapping",
						"key": "t_address",
						"label": "mapping(address => bool)",
						"numberOfBytes": "32",
						"value": "t_bool"
					},
					"t_mapping(t_address,t_uint256)": {
						"encoding": "mapping",
						"key": "t_address",
						"label": "mapping(address => uint256)",
						"numberOfBytes": "32",
						"value": "t_uint256"
					},
					"t_mapping(t_uint256,t_struct(PollInfo)30_storage)": {
						"encoding": "mapping",
						"key": "t_uint256",
						"label": "mapping(uint256 => struct Polls.PollInfo)",
						"numberOfBytes": "32",
						"value": "t_struct(PollInfo)30_storage"
					},
					"t_string_storage": {
						"encoding": "bytes",
						"label": "string",
						"numberOfBytes": "32"
					},
					"t_struct(PollInfo)30_storage": {
						"encoding": "inplace",
						"label": "struct Polls.PollInfo",
						"members": [
							{
								"astId": 9,
								"contract": "contracts/VotingCore.sol:Polls",
								"label": "title",
								"offset": 0,
								"slot": "0",
								"type": "t_string_storage"
							},
							{
								"astId": 11,
								"contract": "contracts/VotingCore.sol:Polls",
								"label": "creator",
								"offset": 0,
								"slot": "1",
								"type": "t_address"
							},
							{
								"astId": 13,
								"contract": "contracts/VotingCore.sol:Polls",
								"label": "isActive",
								"offset": 20,
								"slot": "1",
								"type": "t_bool"
							},
							{
								"astId": 15,
								"contract": "contracts/VotingCore.sol:Polls",
								"label": "createdAt",
								"offset": 0,
								"slot": "2",
								"type": "t_uint256"
							},
							{
								"astId": 17,
								"contract": "contracts/VotingCore.sol:Polls",
								"label": "totalVotes",
								"offset": 0,
								"slot": "3",
								"type": "t_uint256"
							},
							{
								"astId": 21,
								"contract": "contracts/VotingCore.sol:Polls",
								"label": "options",
								"offset": 0,
								"slot": "4",
								"type": "t_array(t_struct(VotingOptions)7_storage)dyn_storage"
							},
							{
								"astId": 25,
								"contract": "contracts/VotingCore.sol:Polls",
								"label": "hasVoted",
								"offset": 0,
								"slot": "5",
								"type": "t_mapping(t_address,t_bool)"
							},
							{
								"astId": 29,
								"contract": "contracts/VotingCore.sol:Polls",
								"label": "voterChoice",
								"offset": 0,
								"slot": "6",
								"type": "t_mapping(t_address,t_uint256)"
							}
						],
						"numberOfBytes": "224"
					},
					"t_struct(VotingOptions)7_storage": {
						"encoding": "inplace",
						"label": "struct Polls.VotingOptions",
						"members": [
							{
								"astId": 4,
								"contract": "contracts/VotingCore.sol:Polls",
								"label": "description",
								"offset": 0,
								"slot": "0",
								"type": "t_string_storage"
							},
							{
								"astId": 6,
								"contract": "contracts/VotingCore.sol:Polls",
								"label": "voteCount",
								"offset": 0,
								"slot": "1",
								"type": "t_uint256"
							}
						],
						"numberOfBytes": "64"
					},
					"t_uint256": {
						"encoding": "inplace",
						"label": "uint256",
						"numberOfBytes": "32"
					}
				}
			},
			"userdoc": {
				"kind": "user",
				"methods": {},
				"version": 1
			}
		}
	}
}