{
	"data": {
		"bytecode": {
			"linkReferences": {},
			"object": "608060405234801561001057600080fd5b5061216c806100206000396000f3fe608060405234801561001057600080fd5b50600436106100a95760003560e01c80633ef87d54116100715780633ef87d5414610191578063728d4388146101af5780637e3d71c3146101e0578063b384abef14610210578063c4bd10d91461022c578063dc296ae11461025d576100a9565b806307f790e7146100ae5780630eac27f4146100de57806329b8f44a1461010e57806329c477091461014357806333b4097b1461015f575b600080fd5b6100c860048036038101906100c391906114fb565b61028d565b6040516100d591906115f0565b60405180910390f35b6100f860048036038101906100f3919061163e565b610324565b604051610105919061168d565b60405180910390f35b610128600480360381019061012391906116a8565b610466565b60405161013a9695949392919061178f565b60405180910390f35b61015d600480360381019061015891906116a8565b6105bb565b005b610179600480360381019061017491906116a8565b610759565b60405161018893929190611903565b60405180910390f35b610199610a81565b6040516101a6919061168d565b60405180910390f35b6101c960048036038101906101c491906116a8565b610a8b565b6040516101d792919061194f565b60405180910390f35b6101fa60048036038101906101f59190611ba1565b610ccd565b604051610207919061168d565b60405180910390f35b61022a60048036038101906102259190611c19565b610fb8565b005b61024660048036038101906102419190611c19565b61126f565b604051610254929190611c59565b60405180910390f35b6102776004803603810190610272919061163e565b6113d9565b6040516102849190611c89565b60405180910390f35b6060600160008373ffffffffffffffffffffffffffffffffffffffff1673ffffffffffffffffffffffffffffffffffffffff16815260200190815260200160002080548060200260200160405190810160405280929190818152602001828054801561031857602002820191906000526020600020905b815481526020019060010190808311610304575b50505050509050919050565b600080831480610335575060025483115b1561036c576040517ff9d6fdec00000000000000000000000000000000000000000000000000000000815260040160405180910390fd5b60008084815260200190815260200160002060050160008373ffffffffffffffffffffffffffffffffffffffff1673ffffffffffffffffffffffffffffffffffffffff16815260200190815260200160002060009054906101000a900460ff1661040b576040517f08c379a000000000000000000000000000000000000000000000000000000000815260040161040290611cf0565b60405180910390fd5b60008084815260200190815260200160002060060160008373ffffffffffffffffffffffffffffffffffffffff1673ffffffffffffffffffffffffffffffffffffffff16815260200190815260200160002054905092915050565b606060008060008060008087148061047f575060025487115b156104b6576040517ff9d6fdec00000000000000000000000000000000000000000000000000000000815260040160405180910390fd5b60008060008981526020019081526020016000209050806000018160010160009054906101000a900473ffffffffffffffffffffffffffffffffffffffff168260010160149054906101000a900460ff1683600401805490508460030154856002015485805461052590611d3f565b80601f016020809104026020016040519081016040528092919081815260200182805461055190611d3f565b801561059e5780601f106105735761010080835404028352916020019161059e565b820191906000526020600020905b81548152906001019060200180831161058157829003601f168201915b505050505095509650965096509650965096505091939550919395565b60008114806105cb575060025481115b15610602576040517ff9d6fdec00000000000000000000000000000000000000000000000000000000815260040160405180910390fd5b600080600083815260200190815260200160002090503373ffffffffffffffffffffffffffffffffffffffff168160010160009054906101000a900473ffffffffffffffffffffffffffffffffffffffff1673ffffffffffffffffffffffffffffffffffffffff16146106a1576040517ff7ef226700000000000000000000000000000000000000000000000000000000815260040160405180910390fd5b8060010160149054906101000a900460ff166106e9576040517f82909a1e00000000000000000000000000000000000000000000000000000000815260040160405180910390fd5b60008160010160146101000a81548160ff0219169083151502179055503373ffffffffffffffffffffffffffffffffffffffff16827f655f9303a2741f5a03d9aafb56166420a2365cf65926291d3e24813610da4a494260405161074d919061168d565b60405180910390a35050565b6060806060600084148061076e575060025484115b156107a5576040517ff9d6fdec00000000000000000000000000000000000000000000000000000000815260040160405180910390fd5b600080600086815260200190815260200160002090506000816004018054905090508067ffffffffffffffff8111156107e1576107e0611990565b5b60405190808252806020026020018201604052801561081457816020015b60608152602001906001900390816107ff5790505b5094508067ffffffffffffffff81111561083157610830611990565b5b60405190808252806020026020018201604052801561085f5781602001602082028036833780820191505090505b5093508067ffffffffffffffff81111561087c5761087b611990565b5b6040519080825280602002602001820160405280156108aa5781602001602082028036833780820191505090505b50925060005b81811015610a77578260040181815481106108ce576108cd611d70565b5b906000526020600020906002020160000180546108ea90611d3f565b80601f016020809104026020016040519081016040528092919081815260200182805461091690611d3f565b80156109635780601f1061093857610100808354040283529160200191610963565b820191906000526020600020905b81548152906001019060200180831161094657829003601f168201915b505050505086828151811061097b5761097a611d70565b5b602002602001018190525082600401818154811061099c5761099b611d70565b5b9060005260206000209060020201600101548582815181106109c1576109c0611d70565b5b602002602001018181525050600083600301541115610a425782600301546127108460040183815481106109f8576109f7611d70565b5b906000526020600020906002020160010154610a149190611dce565b610a1e9190611e3f565b848281518110610a3157610a30611d70565b5b602002602001018181525050610a64565b6000848281518110610a5757610a56611d70565b5b6020026020010181815250505b8080610a6f90611e70565b9150506108b0565b5050509193909250565b6000600254905090565b6060806000831480610a9e575060025483115b15610ad5576040517ff9d6fdec00000000000000000000000000000000000000000000000000000000815260040160405180910390fd5b600080600085815260200190815260200160002090506000816004018054905090508067ffffffffffffffff811115610b1157610b10611990565b5b604051908082528060200260200182016040528015610b4457816020015b6060815260200190600190039081610b2f5790505b5093508067ffffffffffffffff811115610b6157610b60611990565b5b604051908082528060200260200182016040528015610b8f5781602001602082028036833780820191505090505b50925060005b81811015610cc557826004018181548110610bb357610bb2611d70565b5b90600052602060002090600202016000018054610bcf90611d3f565b80601f0160208091040260200160405190810160405280929190818152602001828054610bfb90611d3f565b8015610c485780601f10610c1d57610100808354040283529160200191610c48565b820191906000526020600020905b815481529060010190602001808311610c2b57829003601f168201915b5050505050858281518110610c6057610c5f611d70565b5b6020026020010181905250826004018181548110610c8157610c80611d70565b5b906000526020600020906002020160010154848281518110610ca657610ca5611d70565b5b6020026020010181815250508080610cbd90611e70565b915050610b95565b505050915091565b6000600282511080610ce0575060068251115b15610d17576040517f447074b500000000000000000000000000000000000000000000000000000000815260040160405180910390fd5b6000835103610d52576040517fa5bb9bde00000000000000000000000000000000000000000000000000000000815260040160405180910390fd5b60026000815480929190610d6590611e70565b919050555060008060006002548152602001908152602001600020905083816000019081610d939190612064565b50338160010160006101000a81548173ffffffffffffffffffffffffffffffffffffffff021916908373ffffffffffffffffffffffffffffffffffffffff16021790555060018160010160146101000a81548160ff02191690831515021790555042816002018190555060005b8351811015610ef0576000848281518110610e1e57610e1d611d70565b5b60200260200101515103610e5e576040517f0f5e795700000000000000000000000000000000000000000000000000000000815260040160405180910390fd5b816004016040518060400160405280868481518110610e8057610e7f611d70565b5b60200260200101518152602001600081525090806001815401808255809150506001900390600052602060002090600202016000909190919091506000820151816000019081610ed09190612064565b506020820151816001015550508080610ee890611e70565b915050610e00565b50600160003373ffffffffffffffffffffffffffffffffffffffff1673ffffffffffffffffffffffffffffffffffffffff16815260200190815260200160002060025490806001815401808255809150506001900390600052602060002001600090919091909150553373ffffffffffffffffffffffffffffffffffffffff166002547f29f758df3e81eeecf732e452ff26f333ec14ae9aa2d08ae1ce7b5af71808026b8642604051610fa4929190611c59565b60405180910390a360025491505092915050565b6000821480610fc8575060025482115b15610fff576040517ff9d6fdec00000000000000000000000000000000000000000000000000000000815260040160405180910390fd5b600080600084815260200190815260200160002090508060010160149054906101000a900460ff1661105d576040517fc2f102cb00000000000000000000000000000000000000000000000000000000815260040160405180910390fd5b8060050160003373ffffffffffffffffffffffffffffffffffffffff1673ffffffffffffffffffffffffffffffffffffffff16815260200190815260200160002060009054906101000a900460ff16156110e3576040517f7c9a1cf900000000000000000000000000000000000000000000000000000000815260040160405180910390fd5b80600401805490508210611123576040517f2a71953100000000000000000000000000000000000000000000000000000000815260040160405180910390fd5b80600401828154811061113957611138611d70565b5b9060005260206000209060020201600101600081548092919061115b90611e70565b919050555080600301600081548092919061117590611e70565b919050555060018160050160003373ffffffffffffffffffffffffffffffffffffffff1673ffffffffffffffffffffffffffffffffffffffff16815260200190815260200160002060006101000a81548160ff021916908315150217905550818160060160003373ffffffffffffffffffffffffffffffffffffffff1673ffffffffffffffffffffffffffffffffffffffff168152602001908152602001600020819055503373ffffffffffffffffffffffffffffffffffffffff1682847f05ba3a7d514d15226e18b7b8542e232f0d94b49bd54784785d294b57e17ad6c142604051611262919061168d565b60405180910390a4505050565b6060600080841480611282575060025484115b156112b9576040517ff9d6fdec00000000000000000000000000000000000000000000000000000000815260040160405180910390fd5b600080600086815260200190815260200160002090508060040180549050841061130f576040517f2a71953100000000000000000000000000000000000000000000000000000000815260040160405180910390fd5b600081600401858154811061132757611326611d70565b5b9060005260206000209060020201905080600001816001015481805461134c90611d3f565b80601f016020809104026020016040519081016040528092919081815260200182805461137890611d3f565b80156113c55780601f1061139a576101008083540402835291602001916113c5565b820191906000526020600020905b8154815290600101906020018083116113a857829003601f168201915b505050505091509350935050509250929050565b6000808314806113ea575060025483115b15611421576040517ff9d6fdec00000000000000000000000000000000000000000000000000000000815260040160405180910390fd5b60008084815260200190815260200160002060050160008373ffffffffffffffffffffffffffffffffffffffff1673ffffffffffffffffffffffffffffffffffffffff16815260200190815260200160002060009054906101000a900460ff16905092915050565b6000604051905090565b600080fd5b600080fd5b600073ffffffffffffffffffffffffffffffffffffffff82169050919050565b60006114c88261149d565b9050919050565b6114d8816114bd565b81146114e357600080fd5b50565b6000813590506114f5816114cf565b92915050565b60006020828403121561151157611510611493565b5b600061151f848285016114e6565b91505092915050565b600081519050919050565b600082825260208201905092915050565b6000819050602082019050919050565b6000819050919050565b61156781611554565b82525050565b6000611579838361155e565b60208301905092915050565b6000602082019050919050565b600061159d82611528565b6115a78185611533565b93506115b283611544565b8060005b838110156115e35781516115ca888261156d565b97506115d583611585565b9250506001810190506115b6565b5085935050505092915050565b6000602082019050818103600083015261160a8184611592565b905092915050565b61161b81611554565b811461162657600080fd5b50565b60008135905061163881611612565b92915050565b6000806040838503121561165557611654611493565b5b600061166385828601611629565b9250506020611674858286016114e6565b9150509250929050565b61168781611554565b82525050565b60006020820190506116a2600083018461167e565b92915050565b6000602082840312156116be576116bd611493565b5b60006116cc84828501611629565b91505092915050565b600081519050919050565b600082825260208201905092915050565b60005b8381101561170f5780820151818401526020810190506116f4565b60008484015250505050565b6000601f19601f8301169050919050565b6000611737826116d5565b61174181856116e0565b93506117518185602086016116f1565b61175a8161171b565b840191505092915050565b61176e816114bd565b82525050565b60008115159050919050565b61178981611774565b82525050565b600060c08201905081810360008301526117a9818961172c565b90506117b86020830188611765565b6117c56040830187611780565b6117d2606083018661167e565b6117df608083018561167e565b6117ec60a083018461167e565b979650505050505050565b600081519050919050565b600082825260208201905092915050565b6000819050602082019050919050565b600082825260208201905092915050565b600061183f826116d5565b6118498185611823565b93506118598185602086016116f1565b6118628161171b565b840191505092915050565b60006118798383611834565b905092915050565b6000602082019050919050565b6000611899826117f7565b6118a38185611802565b9350836020820285016118b585611813565b8060005b858110156118f157848403895281516118d2858261186d565b94506118dd83611881565b925060208a019950506001810190506118b9565b50829750879550505050505092915050565b6000606082019050818103600083015261191d818661188e565b905081810360208301526119318185611592565b905081810360408301526119458184611592565b9050949350505050565b60006040820190508181036000830152611969818561188e565b9050818103602083015261197d8184611592565b90509392505050565b600080fd5b600080fd5b7f4e487b7100000000000000000000000000000000000000000000000000000000600052604160045260246000fd5b6119c88261171b565b810181811067ffffffffffffffff821117156119e7576119e6611990565b5b80604052505050565b60006119fa611489565b9050611a0682826119bf565b919050565b600067ffffffffffffffff821115611a2657611a25611990565b5b611a2f8261171b565b9050602081019050919050565b82818337600083830152505050565b6000611a5e611a5984611a0b565b6119f0565b905082815260208101848484011115611a7a57611a7961198b565b5b611a85848285611a3c565b509392505050565b600082601f830112611aa257611aa1611986565b5b8135611ab2848260208601611a4b565b91505092915050565b600067ffffffffffffffff821115611ad657611ad5611990565b5b602082029050602081019050919050565b600080fd5b6000611aff611afa84611abb565b6119f0565b90508083825260208201905060208402830185811115611b2257611b21611ae7565b5b835b81811015611b6957803567ffffffffffffffff811115611b4757611b46611986565b5b808601611b548982611a8d565b85526020850194505050602081019050611b24565b5050509392505050565b600082601f830112611b8857611b87611986565b5b8135611b98848260208601611aec565b91505092915050565b60008060408385031215611bb857611bb7611493565b5b600083013567ffffffffffffffff811115611bd657611bd5611498565b5b611be285828601611a8d565b925050602083013567ffffffffffffffff811115611c0357611c02611498565b5b611c0f85828601611b73565b9150509250929050565b60008060408385031215611c3057611c2f611493565b5b6000611c3e85828601611629565b9250506020611c4f85828601611629565b9150509250929050565b60006040820190508181036000830152611c73818561172c565b9050611c82602083018461167e565b9392505050565b6000602082019050611c9e6000830184611780565b92915050565b7f5573657220686173206e6f7420766f7465640000000000000000000000000000600082015250565b6000611cda6012836116e0565b9150611ce582611ca4565b602082019050919050565b60006020820190508181036000830152611d0981611ccd565b9050919050565b7f4e487b7100000000000000000000000000000000000000000000000000000000600052602260045260246000fd5b60006002820490506001821680611d5757607f821691505b602082108103611d6a57611d69611d10565b5b50919050565b7f4e487b7100000000000000000000000000000000000000000000000000000000600052603260045260246000fd5b7f4e487b7100000000000000000000000000000000000000000000000000000000600052601160045260246000fd5b6000611dd982611554565b9150611de483611554565b9250828202611df281611554565b91508282048414831517611e0957611e08611d9f565b5b5092915050565b7f4e487b7100000000000000000000000000000000000000000000000000000000600052601260045260246000fd5b6000611e4a82611554565b9150611e5583611554565b925082611e6557611e64611e10565b5b828204905092915050565b6000611e7b82611554565b91507fffffffffffffffffffffffffffffffffffffffffffffffffffffffffffffffff8203611ead57611eac611d9f565b5b600182019050919050565b60008190508160005260206000209050919050565b60006020601f8301049050919050565b600082821b905092915050565b600060088302611f1a7fffffffffffffffffffffffffffffffffffffffffffffffffffffffffffffffff82611edd565b611f248683611edd565b95508019841693508086168417925050509392505050565b6000819050919050565b6000611f61611f5c611f5784611554565b611f3c565b611554565b9050919050565b6000819050919050565b611f7b83611f46565b611f8f611f8782611f68565b848454611eea565b825550505050565b600090565b611fa4611f97565b611faf818484611f72565b505050565b5b81811015611fd357611fc8600082611f9c565b600181019050611fb5565b5050565b601f82111561201857611fe981611eb8565b611ff284611ecd565b81016020851015612001578190505b61201561200d85611ecd565b830182611fb4565b50505b505050565b600082821c905092915050565b600061203b6000198460080261201d565b1980831691505092915050565b6000612054838361202a565b9150826002028217905092915050565b61206d826116d5565b67ffffffffffffffff81111561208657612085611990565b5b6120908254611d3f565b61209b828285611fd7565b600060209050601f8311600181146120ce57600084156120bc578287015190505b6120c68582612048565b86555061212e565b601f1984166120dc86611eb8565b60005b82811015612104578489015182556001820191506020850194506020810190506120df565b86831015612121578489015161211d601f89168261202a565b8355505b6001600288020188555050505b50505050505056fea2646970667358221220149dc5619d664e8bbbfc69d4cc48ebad25726569ffb7a7accefd809df420627d64736f6c63430008130033",
			"opcodes": "PUSH1 0x80 PUSH1 0x40 MSTORE CALLVALUE DUP1 ISZERO PUSH2 0x10 JUMPI PUSH1 0x0 DUP1 REVERT JUMPDEST POP PUSH2 0x216C DUP1 PUSH2 0x20 PUSH1 0x0 CODECOPY PUSH1 0x0 RETURN INVALID PUSH1 0x80 PUSH1 0x40 MSTORE CALLVALUE DUP1 ISZERO PUSH2 0x10 JUMPI PUSH1 0x0 DUP1 REVERT JUMPDEST POP PUSH1 0x4 CALLDATASIZE LT PUSH2 0xA9 JUMPI PUSH1 0x0 CALLDATALOAD PUSH1 0xE0 SHR DUP1 PUSH4 0x3EF87D54 GT PUSH2 0x71 JUMPI DUP1 PUSH4 0x3EF87D54 EQ PUSH2 0x191 JUMPI DUP1 PUSH4 0x728D4388 EQ PUSH2 0x1AF JUMPI DUP1 PUSH4 0x7E3D71C3 EQ PUSH2 0x1E0 JUMPI DUP1 PUSH4 0xB384ABEF EQ PUSH2 0x210 JUMPI DUP1 PUSH4 0xC4BD10D9 EQ PUSH2 0x22C JUMPI DUP1 PUSH4 0xDC296AE1 EQ PUSH2 0x25D JUMPI PUSH2 0xA9 JUMP JUMPDEST DUP1 PUSH4 0x7F790E7 EQ PUSH2 0xAE JUMPI DUP1 PUSH4 0xEAC27F4 EQ PUSH2 0xDE JUMPI DUP1 PUSH4 0x29B8F44A EQ PUSH2 0x10E JUMPI DUP1 PUSH4 0x29C47709 EQ PUSH2 0x143 JUMPI DUP1 PUSH4 0x33B4097B EQ PUSH2 0x15F JUMPI JUMPDEST PUSH1 0x0 DUP1 REVERT JUMPDEST PUSH2 0xC8 PUSH1 0x4 DUP1 CALLDATASIZE SUB DUP2 ADD SWAP1 PUSH2 0xC3 SWAP2 SWAP1 PUSH2 0x14FB JUMP JUMPDEST PUSH2 0x28D JUMP JUMPDEST PUSH1 0x40 MLOAD PUSH2 0xD5 SWAP2 SWAP1 PUSH2 0x15F0 JUMP JUMPDEST PUSH1 0x40 MLOAD DUP1 SWAP2 SUB SWAP1 RETURN JUMPDEST PUSH2 0xF8 PUSH1 0x4 DUP1 CALLDATASIZE SUB DUP2 ADD SWAP1 PUSH2 0xF3 SWAP2 SWAP1 PUSH2 0x163E JUMP JUMPDEST PUSH2 0x324 JUMP JUMPDEST PUSH1 0x40 MLOAD PUSH2 0x105 SWAP2 SWAP1 PUSH2 0x168D JUMP JUMPDEST PUSH1 0x40 MLOAD DUP1 SWAP2 SUB SWAP1 RETURN JUMPDEST PUSH2 0x128 PUSH1 0x4 DUP1 CALLDATASIZE SUB DUP2 ADD SWAP1 PUSH2 0x123 SWAP2 SWAP1 PUSH2 0x16A8 JUMP JUMPDEST PUSH2 0x466 JUMP JUMPDEST PUSH1 0x40 MLOAD PUSH2 0x13A SWAP7 SWAP6 SWAP5 SWAP4 SWAP3 SWAP2 SWAP1 PUSH2 0x178F JUMP JUMPDEST PUSH1 0x40 MLOAD DUP1 SWAP2 SUB SWAP1 RETURN JUMPDEST PUSH2 0x15D PUSH1 0x4 DUP1 CALLDATASIZE SUB DUP2 ADD SWAP1 PUSH2 0x158 SWAP2 SWAP1 PUSH2 0x16A8 JUMP JUMPDEST PUSH2 0x5BB JUMP JUMPDEST STOP JUMPDEST PUSH2 0x179 PUSH1 0x4 DUP1 CALLDATASIZE SUB DUP2 ADD SWAP1 PUSH2 0x174 SWAP2 SWAP1 PUSH2 0x16A8 JUMP JUMPDEST PUSH2 0x759 JUMP JUMPDEST PUSH1 0x40 MLOAD PUSH2 0x188 SWAP4 SWAP3 SWAP2 SWAP1 PUSH2 0x1903 JUMP JUMPDEST PUSH1 0x40 MLOAD DUP1 SWAP2 SUB SWAP1 RETURN JUMPDEST PUSH2 0x199 PUSH2 0xA81 JUMP JUMPDEST PUSH1 0x40 MLOAD PUSH2 0x1A6 SWAP2 SWAP1 PUSH2 0x168D JUMP JUMPDEST PUSH1 0x40 MLOAD DUP1 SWAP2 SUB SWAP1 RETURN JUMPDEST PUSH2 0x1C9 PUSH1 0x4 DUP1 CALLDATASIZE SUB DUP2 ADD SWAP1 PUSH2 0x1C4 SWAP2 SWAP1 PUSH2 0x16A8 JUMP JUMPDEST PUSH2 0xA8B JUMP JUMPDEST PUSH1 0x40 MLOAD PUSH2 0x1D7 SWAP3 SWAP2 SWAP1 PUSH2 0x194F JUMP JUMPDEST PUSH1 0x40 MLOAD DUP1 SWAP2 SUB SWAP1 RETURN JUMPDEST PUSH2 0x1FA PUSH1 0x4 DUP1 CALLDATASIZE SUB DUP2 ADD SWAP1 PUSH2 0x1F5 SWAP2 SWAP1 PUSH2 0x1BA1 JUMP JUMPDEST PUSH2 0xCCD JUMP JUMPDEST PUSH1 0x40 MLOAD PUSH2 0x207 SWAP2 SWAP1 PUSH2 0x168D JUMP JUMPDEST PUSH1 0x40 MLOAD DUP1 SWAP2 SUB SWAP1 RETURN JUMPDEST PUSH2 0x22A PUSH1 0x4 DUP1 CALLDATASIZE SUB DUP2 ADD SWAP1 PUSH2 0x225 SWAP2 SWAP1 PUSH2 0x1C19 JUMP JUMPDEST PUSH2 0xFB8 JUMP JUMPDEST STOP JUMPDEST PUSH2 0x246 PUSH1 0x4 DUP1 CALLDATASIZE SUB DUP2 ADD SWAP1 PUSH2 0x241 SWAP2 SWAP1 PUSH2 0x1C19 JUMP JUMPDEST PUSH2 0x126F JUMP JUMPDEST PUSH1 0x40 MLOAD PUSH2 0x254 SWAP3 SWAP2 SWAP1 PUSH2 0x1C59 JUMP JUMPDEST PUSH1 0x40 MLOAD DUP1 SWAP2 SUB SWAP1 RETURN JUMPDEST PUSH2 0x277 PUSH1 0x4 DUP1 CALLDATASIZE SUB DUP2 ADD SWAP1 PUSH2 0x272 SWAP2 SWAP1 PUSH2 0x163E JUMP JUMPDEST PUSH2 0x13D9 JUMP JUMPDEST PUSH1 0x40 MLOAD PUSH2 0x284 SWAP2 SWAP1 PUSH2 0x1C89 JUMP JUMPDEST PUSH1 0x40 MLOAD DUP1 SWAP2 SUB SWAP1 RETURN JUMPDEST PUSH1 0x60 PUSH1 0x1 PUSH1 0x0 DUP4 PUSH20 0xFFFFFFFFFFFFFFFFFFFFFFFFFFFFFFFFFFFFFFFF AND PUSH20 0xFFFFFFFFFFFFFFFFFFFFFFFFFFFFFFFFFFFFFFFF AND DUP2 MSTORE PUSH1 0x20 ADD SWAP1 DUP2 MSTORE PUSH1 0x20 ADD PUSH1 0x0 KECCAK256 DUP1 SLOAD DUP1 PUSH1 0x20 MUL PUSH1 0x20 ADD PUSH1 0x40 MLOAD SWAP1 DUP2 ADD PUSH1 0x40 MSTORE DUP1 SWAP3 SWAP2 SWAP1 DUP2 DUP2 MSTORE PUSH1 0x20 ADD DUP3 DUP1 SLOAD DUP1 ISZERO PUSH2 0x318 JUMPI PUSH1 0x20 MUL DUP3 ADD SWAP2 SWAP1 PUSH1 0x0 MSTORE PUSH1 0x20 PUSH1 0x0 KECCAK256 SWAP1 JUMPDEST DUP2 SLOAD DUP2 MSTORE PUSH1 0x20 ADD SWAP1 PUSH1 0x1 ADD SWAP1 DUP1 DUP4 GT PUSH2 0x304 JUMPI JUMPDEST POP POP POP POP POP SWAP1 POP SWAP2 SWAP1 POP JUMP JUMPDEST PUSH1 0x0 DUP1 DUP4 EQ DUP1 PUSH2 0x335 JUMPI POP PUSH1 0x2 SLOAD DUP4 GT JUMPDEST ISZERO PUSH2 0x36C JUMPI PUSH1 0x40 MLOAD PUSH32 0xF9D6FDEC00000000000000000000000000000000000000000000000000000000 DUP2 MSTORE PUSH1 0x4 ADD PUSH1 0x40 MLOAD DUP1 SWAP2 SUB SWAP1 REVERT JUMPDEST PUSH1 0x0 DUP1 DUP5 DUP2 MSTORE PUSH1 0x20 ADD SWAP1 DUP2 MSTORE PUSH1 0x20 ADD PUSH1 0x0 KECCAK256 PUSH1 0x5 ADD PUSH1 0x0 DUP4 PUSH20 0xFFFFFFFFFFFFFFFFFFFFFFFFFFFFFFFFFFFFFFFF AND PUSH20 0xFFFFFFFFFFFFFFFFFFFFFFFFFFFFFFFFFFFFFFFF AND DUP2 MSTORE PUSH1 0x20 ADD SWAP1 DUP2 MSTORE PUSH1 0x20 ADD PUSH1 0x0 KECCAK256 PUSH1 0x0 SWAP1 SLOAD SWAP1 PUSH2 0x100 EXP SWAP1 DIV PUSH1 0xFF AND PUSH2 0x40B JUMPI PUSH1 0x40 MLOAD PUSH32 0x8C379A000000000000000000000000000000000000000000000000000000000 DUP2 MSTORE PUSH1 0x4 ADD PUSH2 0x402 SWAP1 PUSH2 0x1CF0 JUMP JUMPDEST PUSH1 0x40 MLOAD DUP1 SWAP2 SUB SWAP1 REVERT JUMPDEST PUSH1 0x0 DUP1 DUP5 DUP2 MSTORE PUSH1 0x20 ADD SWAP1 DUP2 MSTORE PUSH1 0x20 ADD PUSH1 0x0 KECCAK256 PUSH1 0x6 ADD PUSH1 0x0 DUP4 PUSH20 0xFFFFFFFFFFFFFFFFFFFFFFFFFFFFFFFFFFFFFFFF AND PUSH20 0xFFFFFFFFFFFFFFFFFFFFFFFFFFFFFFFFFFFFFFFF AND DUP2 MSTORE PUSH1 0x20 ADD SWAP1 DUP2 MSTORE PUSH1 0x20 ADD PUSH1 0x0 KECCAK256 SLOAD SWAP1 POP SWAP3 SWAP2 POP POP JUMP JUMPDEST PUSH1 0x60 PUSH1 0x0 DUP1 PUSH1 0x0 DUP1 PUSH1 0x0 DUP1 DUP8 EQ DUP1 PUSH2 0x47F JUMPI POP PUSH1 0x2 SLOAD DUP8 GT JUMPDEST ISZERO PUSH2 0x4B6 JUMPI PUSH1 0x40 MLOAD PUSH32 0xF9D6FDEC00000000000000000000000000000000000000000000000000000000 DUP2 MSTORE PUSH1 0x4 ADD PUSH1 0x40 MLOAD DUP1 SWAP2 SUB SWAP1 REVERT JUMPDEST PUSH1 0x0 DUP1 PUSH1 0x0 DUP10 DUP2 MSTORE PUSH1 0x20 ADD SWAP1 DUP2 MSTORE PUSH1 0x20 ADD PUSH1 0x0 KECCAK256 SWAP1 POP DUP1 PUSH1 0x0 ADD DUP2 PUSH1 0x1 ADD PUSH1 0x0 SWAP1 SLOAD SWAP1 PUSH2 0x100 EXP SWAP1 DIV PUSH20 0xFFFFFFFFFFFFFFFFFFFFFFFFFFFFFFFFFFFFFFFF AND DUP3 PUSH1 0x1 ADD PUSH1 0x14 SWAP1 SLOAD SWAP1 PUSH2 0x100 EXP SWAP1 DIV PUSH1 0xFF AND DUP4 PUSH1 0x4 ADD DUP1 SLOAD SWAP1 POP DUP5 PUSH1 0x3 ADD SLOAD DUP6 PUSH1 0x2 ADD SLOAD DUP6 DUP1 SLOAD PUSH2 0x525 SWAP1 PUSH2 0x1D3F JUMP JUMPDEST DUP1 PUSH1 0x1F ADD PUSH1 0x20 DUP1 SWAP2 DIV MUL PUSH1 0x20 ADD PUSH1 0x40 MLOAD SWAP1 DUP2 ADD PUSH1 0x40 MSTORE DUP1 SWAP3 SWAP2 SWAP1 DUP2 DUP2 MSTORE PUSH1 0x20 ADD DUP3 DUP1 SLOAD PUSH2 0x551 SWAP1 PUSH2 0x1D3F JUMP JUMPDEST DUP1 ISZERO PUSH2 0x59E JUMPI DUP1 PUSH1 0x1F LT PUSH2 0x573 JUMPI PUSH2 0x100 DUP1 DUP4 SLOAD DIV MUL DUP4 MSTORE SWAP2 PUSH1 0x20 ADD SWAP2 PUSH2 0x59E JUMP JUMPDEST DUP3 ADD SWAP2 SWAP1 PUSH1 0x0 MSTORE PUSH1 0x20 PUSH1 0x0 KECCAK256 SWAP1 JUMPDEST DUP2 SLOAD DUP2 MSTORE SWAP1 PUSH1 0x1 ADD SWAP1 PUSH1 0x20 ADD DUP1 DUP4 GT PUSH2 0x581 JUMPI DUP3 SWAP1 SUB PUSH1 0x1F AND DUP3 ADD SWAP2 JUMPDEST POP POP POP POP POP SWAP6 POP SWAP7 POP SWAP7 POP SWAP7 POP SWAP7 POP SWAP7 POP SWAP7 POP POP SWAP2 SWAP4 SWAP6 POP SWAP2 SWAP4 SWAP6 JUMP JUMPDEST PUSH1 0x0 DUP2 EQ DUP1 PUSH2 0x5CB JUMPI POP PUSH1 0x2 SLOAD DUP2 GT JUMPDEST ISZERO PUSH2 0x602 JUMPI PUSH1 0x40 MLOAD PUSH32 0xF9D6FDEC00000000000000000000000000000000000000000000000000000000 DUP2 MSTORE PUSH1 0x4 ADD PUSH1 0x40 MLOAD DUP1 SWAP2 SUB SWAP1 REVERT JUMPDEST PUSH1 0x0 DUP1 PUSH1 0x0 DUP4 DUP2 MSTORE PUSH1 0x20 ADD SWAP1 DUP2 MSTORE PUSH1 0x20 ADD PUSH1 0x0 KECCAK256 SWAP1 POP CALLER PUSH20 0xFFFFFFFFFFFFFFFFFFFFFFFFFFFFFFFFFFFFFFFF AND DUP2 PUSH1 0x1 ADD PUSH1 0x0 SWAP1 SLOAD SWAP1 PUSH2 0x100 EXP SWAP1 DIV PUSH20 0xFFFFFFFFFFFFFFFFFFFFFFFFFFFFFFFFFFFFFFFF AND PUSH20 0xFFFFFFFFFFFFFFFFFFFFFFFFFFFFFFFFFFFFFFFF AND EQ PUSH2 0x6A1 JUMPI PUSH1 0x40 MLOAD PUSH32 0xF7EF226700000000000000000000000000000000000000000000000000000000 DUP2 MSTORE PUSH1 0x4 ADD PUSH1 0x40 MLOAD DUP1 SWAP2 SUB SWAP1 REVERT JUMPDEST DUP1 PUSH1 0x1 ADD PUSH1 0x14 SWAP1 SLOAD SWAP1 PUSH2 0x100 EXP SWAP1 DIV PUSH1 0xFF AND PUSH2 0x6E9 JUMPI PUSH1 0x40 MLOAD PUSH32 0x82909A1E00000000000000000000000000000000000000000000000000000000 DUP2 MSTORE PUSH1 0x4 ADD PUSH1 0x40 MLOAD DUP1 SWAP2 SUB SWAP1 REVERT JUMPDEST PUSH1 0x0 DUP2 PUSH1 0x1 ADD PUSH1 0x14 PUSH2 0x100 EXP DUP2 SLOAD DUP2 PUSH1 0xFF MUL NOT AND SWAP1 DUP4 ISZERO ISZERO MUL OR SWAP1 SSTORE POP CALLER PUSH20 0xFFFFFFFFFFFFFFFFFFFFFFFFFFFFFFFFFFFFFFFF AND DUP3 PUSH32 0x655F9303A2741F5A03D9AAFB56166420A2365CF65926291D3E24813610DA4A49 TIMESTAMP PUSH1 0x40 MLOAD PUSH2 0x74D SWAP2 SWAP1 PUSH2 0x168D JUMP JUMPDEST PUSH1 0x40 MLOAD DUP1 SWAP2 SUB SWAP1 LOG3 POP POP JUMP JUMPDEST PUSH1 0x60 DUP1 PUSH1 0x60 PUSH1 0x0 DUP5 EQ DUP1 PUSH2 0x76E JUMPI POP PUSH1 0x2 SLOAD DUP5 GT JUMPDEST ISZERO PUSH2 0x7A5 JUMPI PUSH1 0x40 MLOAD PUSH32 0xF9D6FDEC00000000000000000000000000000000000000000000000000000000 DUP2 MSTORE PUSH1 0x4 ADD PUSH1 0x40 MLOAD DUP1 SWAP2 SUB SWAP1 REVERT JUMPDEST PUSH1 0x0 DUP1 PUSH1 0x0 DUP7 DUP2 MSTORE PUSH1 0x20 ADD SWAP1 DUP2 MSTORE PUSH1 0x20 ADD PUSH1 0x0 KECCAK256 SWAP1 POP PUSH1 0x0 DUP2 PUSH1 0x4 ADD DUP1 SLOAD SWAP1 POP SWAP1 POP DUP1 PUSH8 0xFFFFFFFFFFFFFFFF DUP2 GT ISZERO PUSH2 0x7E1 JUMPI PUSH2 0x7E0 PUSH2 0x1990 JUMP JUMPDEST JUMPDEST PUSH1 0x40 MLOAD SWAP1 DUP1 DUP3 MSTORE DUP1 PUSH1 0x20 MUL PUSH1 0x20 ADD DUP3 ADD PUSH1 0x40 MSTORE DUP1 ISZERO PUSH2 0x814 JUMPI DUP2 PUSH1 0x20 ADD JUMPDEST PUSH1 0x60 DUP2 MSTORE PUSH1 0x20 ADD SWAP1 PUSH1 0x1 SWAP1 SUB SWAP1 DUP2 PUSH2 0x7FF JUMPI SWAP1 POP JUMPDEST POP SWAP5 POP DUP1 PUSH8 0xFFFFFFFFFFFFFFFF DUP2 GT ISZERO PUSH2 0x831 JUMPI PUSH2 0x830 PUSH2 0x1990 JUMP JUMPDEST JUMPDEST PUSH1 0x40 MLOAD SWAP1 DUP1 DUP3 MSTORE DUP1 PUSH1 0x20 MUL PUSH1 0x20 ADD DUP3 ADD PUSH1 0x40 MSTORE DUP1 ISZERO PUSH2 0x85F JUMPI DUP2 PUSH1 0x20 ADD PUSH1 0x20 DUP3 MUL DUP1 CALLDATASIZE DUP4 CALLDATACOPY DUP1 DUP3 ADD SWAP2 POP POP SWAP1 POP JUMPDEST POP SWAP4 POP DUP1 PUSH8 0xFFFFFFFFFFFFFFFF DUP2 GT ISZERO PUSH2 0x87C JUMPI PUSH2 0x87B PUSH2 0x1990 JUMP JUMPDEST JUMPDEST PUSH1 0x40 MLOAD SWAP1 DUP1 DUP3 MSTORE DUP1 PUSH1 0x20 MUL PUSH1 0x20 ADD DUP3 ADD PUSH1 0x40 MSTORE DUP1 ISZERO PUSH2 0x8AA JUMPI DUP2 PUSH1 0x20 ADD PUSH1 0x20 DUP3 MUL DUP1 CALLDATASIZE DUP4 CALLDATACOPY DUP1 DUP3 ADD SWAP2 POP POP SWAP1 POP JUMPDEST POP SWAP3 POP PUSH1 0x0 JUMPDEST DUP2 DUP2 LT ISZERO PUSH2 0xA77 JUMPI DUP3 PUSH1 0x4 ADD DUP2 DUP2 SLOAD DUP2 LT PUSH2 0x8CE JUMPI PUSH2 0x8CD PUSH2 0x1D70 JUMP JUMPDEST JUMPDEST SWAP1 PUSH1 0x0 MSTORE PUSH1 0x20 PUSH1 0x0 KECCAK256 SWAP1 PUSH1 0x2 MUL ADD PUSH1 0x0 ADD DUP1 SLOAD PUSH2 0x8EA SWAP1 PUSH2 0x1D3F JUMP JUMPDEST DUP1 PUSH1 0x1F ADD PUSH1 0x20 DUP1 SWAP2 DIV MUL PUSH1 0x20 ADD PUSH1 0x40 MLOAD SWAP1 DUP2 ADD PUSH1 0x40 MSTORE DUP1 SWAP3 SWAP2 SWAP1 DUP2 DUP2 MSTORE PUSH1 0x20 ADD DUP3 DUP1 SLOAD PUSH2 0x916 SWAP1 PUSH2 0x1D3F JUMP JUMPDEST DUP1 ISZERO PUSH2 0x963 JUMPI DUP1 PUSH1 0x1F LT PUSH2 0x938 JUMPI PUSH2 0x100 DUP1 DUP4 SLOAD DIV MUL DUP4 MSTORE SWAP2 PUSH1 0x20 ADD SWAP2 PUSH2 0x963 JUMP JUMPDEST DUP3 ADD SWAP2 SWAP1 PUSH1 0x0 MSTORE PUSH1 0x20 PUSH1 0x0 KECCAK256 SWAP1 JUMPDEST DUP2 SLOAD DUP2 MSTORE SWAP1 PUSH1 0x1 ADD SWAP1 PUSH1 0x20 ADD DUP1 DUP4 GT PUSH2 0x946 JUMPI DUP3 SWAP1 SUB PUSH1 0x1F AND DUP3 ADD SWAP2 JUMPDEST POP POP POP POP POP DUP7 DUP3 DUP2 MLOAD DUP2 LT PUSH2 0x97B JUMPI PUSH2 0x97A PUSH2 0x1D70 JUMP JUMPDEST JUMPDEST PUSH1 0x20 MUL PUSH1 0x20 ADD ADD DUP2 SWAP1 MSTORE POP DUP3 PUSH1 0x4 ADD DUP2 DUP2 SLOAD DUP2 LT PUSH2 0x99C JUMPI PUSH2 0x99B PUSH2 0x1D70 JUMP JUMPDEST JUMPDEST SWAP1 PUSH1 0x0 MSTORE PUSH1 0x20 PUSH1 0x0 KECCAK256 SWAP1 PUSH1 0x2 MUL ADD PUSH1 0x1 ADD SLOAD DUP6 DUP3 DUP2 MLOAD DUP2 LT PUSH2 0x9C1 JUMPI PUSH2 0x9C0 PUSH2 0x1D70 JUMP JUMPDEST JUMPDEST PUSH1 0x20 MUL PUSH1 0x20 ADD ADD DUP2 DUP2 MSTORE POP POP PUSH1 0x0 DUP4 PUSH1 0x3 ADD SLOAD GT ISZERO PUSH2 0xA42 JUMPI DUP3 PUSH1 0x3 ADD SLOAD PUSH2 0x2710 DUP5 PUSH1 0x4 ADD DUP4 DUP2 SLOAD DUP2 LT PUSH2 0x9F8 JUMPI PUSH2 0x9F7 PUSH2 0x1D70 JUMP JUMPDEST JUMPDEST SWAP1 PUSH1 0x0 MSTORE PUSH1 0x20 PUSH1 0x0 KECCAK256 SWAP1 PUSH1 0x2 MUL ADD PUSH1 0x1 ADD SLOAD PUSH2 0xA14 SWAP2 SWAP1 PUSH2 0x1DCE JUMP JUMPDEST PUSH2 0xA1E SWAP2 SWAP1 PUSH2 0x1E3F JUMP JUMPDEST DUP5 DUP3 DUP2 MLOAD DUP2 LT PUSH2 0xA31 JUMPI PUSH2 0xA30 PUSH2 0x1D70 JUMP JUMPDEST JUMPDEST PUSH1 0x20 MUL PUSH1 0x20 ADD ADD DUP2 DUP2 MSTORE POP POP PUSH2 0xA64 JUMP JUMPDEST PUSH1 0x0 DUP5 DUP3 DUP2 MLOAD DUP2 LT PUSH2 0xA57 JUMPI PUSH2 0xA56 PUSH2 0x1D70 JUMP JUMPDEST JUMPDEST PUSH1 0x20 MUL PUSH1 0x20 ADD ADD DUP2 DUP2 MSTORE POP POP JUMPDEST DUP1 DUP1 PUSH2 0xA6F SWAP1 PUSH2 0x1E70 JUMP JUMPDEST SWAP2 POP POP PUSH2 0x8B0 JUMP JUMPDEST POP POP POP SWAP2 SWAP4 SWAP1 SWAP3 POP JUMP JUMPDEST PUSH1 0x0 PUSH1 0x2 SLOAD SWAP1 POP SWAP1 JUMP JUMPDEST PUSH1 0x60 DUP1 PUSH1 0x0 DUP4 EQ DUP1 PUSH2 0xA9E JUMPI POP PUSH1 0x2 SLOAD DUP4 GT JUMPDEST ISZERO PUSH2 0xAD5 JUMPI PUSH1 0x40 MLOAD PUSH32 0xF9D6FDEC00000000000000000000000000000000000000000000000000000000 DUP2 MSTORE PUSH1 0x4 ADD PUSH1 0x40 MLOAD DUP1 SWAP2 SUB SWAP1 REVERT JUMPDEST PUSH1 0x0 DUP1 PUSH1 0x0 DUP6 DUP2 MSTORE PUSH1 0x20 ADD SWAP1 DUP2 MSTORE PUSH1 0x20 ADD PUSH1 0x0 KECCAK256 SWAP1 POP PUSH1 0x0 DUP2 PUSH1 0x4 ADD DUP1 SLOAD SWAP1 POP SWAP1 POP DUP1 PUSH8 0xFFFFFFFFFFFFFFFF DUP2 GT ISZERO PUSH2 0xB11 JUMPI PUSH2 0xB10 PUSH2 0x1990 JUMP JUMPDEST JUMPDEST PUSH1 0x40 MLOAD SWAP1 DUP1 DUP3 MSTORE DUP1 PUSH1 0x20 MUL PUSH1 0x20 ADD DUP3 ADD PUSH1 0x40 MSTORE DUP1 ISZERO PUSH2 0xB44 JUMPI DUP2 PUSH1 0x20 ADD JUMPDEST PUSH1 0x60 DUP2 MSTORE PUSH1 0x20 ADD SWAP1 PUSH1 0x1 SWAP1 SUB SWAP1 DUP2 PUSH2 0xB2F JUMPI SWAP1 POP JUMPDEST POP SWAP4 POP DUP1 PUSH8 0xFFFFFFFFFFFFFFFF DUP2 GT ISZERO PUSH2 0xB61 JUMPI PUSH2 0xB60 PUSH2 0x1990 JUMP JUMPDEST JUMPDEST PUSH1 0x40 MLOAD SWAP1 DUP1 DUP3 MSTORE DUP1 PUSH1 0x20 MUL PUSH1 0x20 ADD DUP3 ADD PUSH1 0x40 MSTORE DUP1 ISZERO PUSH2 0xB8F JUMPI DUP2 PUSH1 0x20 ADD PUSH1 0x20 DUP3 MUL DUP1 CALLDATASIZE DUP4 CALLDATACOPY DUP1 DUP3 ADD SWAP2 POP POP SWAP1 POP JUMPDEST POP SWAP3 POP PUSH1 0x0 JUMPDEST DUP2 DUP2 LT ISZERO PUSH2 0xCC5 JUMPI DUP3 PUSH1 0x4 ADD DUP2 DUP2 SLOAD DUP2 LT PUSH2 0xBB3 JUMPI PUSH2 0xBB2 PUSH2 0x1D70 JUMP JUMPDEST JUMPDEST SWAP1 PUSH1 0x0 MSTORE PUSH1 0x20 PUSH1 0x0 KECCAK256 SWAP1 PUSH1 0x2 MUL ADD PUSH1 0x0 ADD DUP1 SLOAD PUSH2 0xBCF SWAP1 PUSH2 0x1D3F JUMP JUMPDEST DUP1 PUSH1 0x1F ADD PUSH1 0x20 DUP1 SWAP2 DIV MUL PUSH1 0x20 ADD PUSH1 0x40 MLOAD SWAP1 DUP2 ADD PUSH1 0x40 MSTORE DUP1 SWAP3 SWAP2 SWAP1 DUP2 DUP2 MSTORE PUSH1 0x20 ADD DUP3 DUP1 SLOAD PUSH2 0xBFB SWAP1 PUSH2 0x1D3F JUMP JUMPDEST DUP1 ISZERO PUSH2 0xC48 JUMPI DUP1 PUSH1 0x1F LT PUSH2 0xC1D JUMPI PUSH2 0x100 DUP1 DUP4 SLOAD DIV MUL DUP4 MSTORE SWAP2 PUSH1 0x20 ADD SWAP2 PUSH2 0xC48 JUMP JUMPDEST DUP3 ADD SWAP2 SWAP1 PUSH1 0x0 MSTORE PUSH1 0x20 PUSH1 0x0 KECCAK256 SWAP1 JUMPDEST DUP2 SLOAD DUP2 MSTORE SWAP1 PUSH1 0x1 ADD SWAP1 PUSH1 0x20 ADD DUP1 DUP4 GT PUSH2 0xC2B JUMPI DUP3 SWAP1 SUB PUSH1 0x1F AND DUP3 ADD SWAP2 JUMPDEST POP POP POP POP POP DUP6 DUP3 DUP2 MLOAD DUP2 LT PUSH2 0xC60 JUMPI PUSH2 0xC5F PUSH2 0x1D70 JUMP JUMPDEST JUMPDEST PUSH1 0x20 MUL PUSH1 0x20 ADD ADD DUP2 SWAP1 MSTORE POP DUP3 PUSH1 0x4 ADD DUP2 DUP2 SLOAD DUP2 LT PUSH2 0xC81 JUMPI PUSH2 0xC80 PUSH2 0x1D70 JUMP JUMPDEST JUMPDEST SWAP1 PUSH1 0x0 MSTORE PUSH1 0x20 PUSH1 0x0 KECCAK256 SWAP1 PUSH1 0x2 MUL ADD PUSH1 0x1 ADD SLOAD DUP5 DUP3 DUP2 MLOAD DUP2 LT PUSH2 0xCA6 JUMPI PUSH2 0xCA5 PUSH2 0x1D70 JUMP JUMPDEST JUMPDEST PUSH1 0x20 MUL PUSH1 0x20 ADD ADD DUP2 DUP2 MSTORE POP POP DUP1 DUP1 PUSH2 0xCBD SWAP1 PUSH2 0x1E70 JUMP JUMPDEST SWAP2 POP POP PUSH2 0xB95 JUMP JUMPDEST POP POP POP SWAP2 POP SWAP2 JUMP JUMPDEST PUSH1 0x0 PUSH1 0x2 DUP3 MLOAD LT DUP1 PUSH2 0xCE0 JUMPI POP PUSH1 0x6 DUP3 MLOAD GT JUMPDEST ISZERO PUSH2 0xD17 JUMPI PUSH1 0x40 MLOAD PUSH32 0x447074B500000000000000000000000000000000000000000000000000000000 DUP2 MSTORE PUSH1 0x4 ADD PUSH1 0x40 MLOAD DUP1 SWAP2 SUB SWAP1 REVERT JUMPDEST PUSH1 0x0 DUP4 MLOAD SUB PUSH2 0xD52 JUMPI PUSH1 0x40 MLOAD PUSH32 0xA5BB9BDE00000000000000000000000000000000000000000000000000000000 DUP2 MSTORE PUSH1 0x4 ADD PUSH1 0x40 MLOAD DUP1 SWAP2 SUB SWAP1 REVERT JUMPDEST PUSH1 0x2 PUSH1 0x0 DUP2 SLOAD DUP1 SWAP3 SWAP2 SWAP1 PUSH2 0xD65 SWAP1 PUSH2 0x1E70 JUMP JUMPDEST SWAP2 SWAP1 POP SSTORE POP PUSH1 0x0 DUP1 PUSH1 0x0 PUSH1 0x2 SLOAD DUP2 MSTORE PUSH1 0x20 ADD SWAP1 DUP2 MSTORE PUSH1 0x20 ADD PUSH1 0x0 KECCAK256 SWAP1 POP DUP4 DUP2 PUSH1 0x0 ADD SWAP1 DUP2 PUSH2 0xD93 SWAP2 SWAP1 PUSH2 0x2064 JUMP JUMPDEST POP CALLER DUP2 PUSH1 0x1 ADD PUSH1 0x0 PUSH2 0x100 EXP DUP2 SLOAD DUP2 PUSH20 0xFFFFFFFFFFFFFFFFFFFFFFFFFFFFFFFFFFFFFFFF MUL NOT AND SWAP1 DUP4 PUSH20 0xFFFFFFFFFFFFFFFFFFFFFFFFFFFFFFFFFFFFFFFF AND MUL OR SWAP1 SSTORE POP PUSH1 0x1 DUP2 PUSH1 0x1 ADD PUSH1 0x14 PUSH2 0x100 EXP DUP2 SLOAD DUP2 PUSH1 0xFF MUL NOT AND SWAP1 DUP4 ISZERO ISZERO MUL OR SWAP1 SSTORE POP TIMESTAMP DUP2 PUSH1 0x2 ADD DUP2 SWAP1 SSTORE POP PUSH1 0x0 JUMPDEST DUP4 MLOAD DUP2 LT ISZERO PUSH2 0xEF0 JUMPI PUSH1 0x0 DUP5 DUP3 DUP2 MLOAD DUP2 LT PUSH2 0xE1E JUMPI PUSH2 0xE1D PUSH2 0x1D70 JUMP JUMPDEST JUMPDEST PUSH1 0x20 MUL PUSH1 0x20 ADD ADD MLOAD MLOAD SUB PUSH2 0xE5E JUMPI PUSH1 0x40 MLOAD PUSH32 0xF5E795700000000000000000000000000000000000000000000000000000000 DUP2 MSTORE PUSH1 0x4 ADD PUSH1 0x40 MLOAD DUP1 SWAP2 SUB SWAP1 REVERT JUMPDEST DUP2 PUSH1 0x4 ADD PUSH1 0x40 MLOAD DUP1 PUSH1 0x40 ADD PUSH1 0x40 MSTORE DUP1 DUP7 DUP5 DUP2 MLOAD DUP2 LT PUSH2 0xE80 JUMPI PUSH2 0xE7F PUSH2 0x1D70 JUMP JUMPDEST JUMPDEST PUSH1 0x20 MUL PUSH1 0x20 ADD ADD MLOAD DUP2 MSTORE PUSH1 0x20 ADD PUSH1 0x0 DUP2 MSTORE POP SWAP1 DUP1 PUSH1 0x1 DUP2 SLOAD ADD DUP1 DUP3 SSTORE DUP1 SWAP2 POP POP PUSH1 0x1 SWAP1 SUB SWAP1 PUSH1 0x0 MSTORE PUSH1 0x20 PUSH1 0x0 KECCAK256 SWAP1 PUSH1 0x2 MUL ADD PUSH1 0x0 SWAP1 SWAP2 SWAP1 SWAP2 SWAP1 SWAP2 POP PUSH1 0x0 DUP3 ADD MLOAD DUP2 PUSH1 0x0 ADD SWAP1 DUP2 PUSH2 0xED0 SWAP2 SWAP1 PUSH2 0x2064 JUMP JUMPDEST POP PUSH1 0x20 DUP3 ADD MLOAD DUP2 PUSH1 0x1 ADD SSTORE POP POP DUP1 DUP1 PUSH2 0xEE8 SWAP1 PUSH2 0x1E70 JUMP JUMPDEST SWAP2 POP POP PUSH2 0xE00 JUMP JUMPDEST POP PUSH1 0x1 PUSH1 0x0 CALLER PUSH20 0xFFFFFFFFFFFFFFFFFFFFFFFFFFFFFFFFFFFFFFFF AND PUSH20 0xFFFFFFFFFFFFFFFFFFFFFFFFFFFFFFFFFFFFFFFF AND DUP2 MSTORE PUSH1 0x20 ADD SWAP1 DUP2 MSTORE PUSH1 0x20 ADD PUSH1 0x0 KECCAK256 PUSH1 0x2 SLOAD SWAP1 DUP1 PUSH1 0x1 DUP2 SLOAD ADD DUP1 DUP3 SSTORE DUP1 SWAP2 POP POP PUSH1 0x1 SWAP1 SUB SWAP1 PUSH1 0x0 MSTORE PUSH1 0x20 PUSH1 0x0 KECCAK256 ADD PUSH1 0x0 SWAP1 SWAP2 SWAP1 SWAP2 SWAP1 SWAP2 POP SSTORE CALLER PUSH20 0xFFFFFFFFFFFFFFFFFFFFFFFFFFFFFFFFFFFFFFFF AND PUSH1 0x2 SLOAD PUSH32 0x29F758DF3E81EEECF732E452FF26F333EC14AE9AA2D08AE1CE7B5AF71808026B DUP7 TIMESTAMP PUSH1 0x40 MLOAD PUSH2 0xFA4 SWAP3 SWAP2 SWAP1 PUSH2 0x1C59 JUMP JUMPDEST PUSH1 0x40 MLOAD DUP1 SWAP2 SUB SWAP1 LOG3 PUSH1 0x2 SLOAD SWAP2 POP POP SWAP3 SWAP2 POP POP JUMP JUMPDEST PUSH1 0x0 DUP3 EQ DUP1 PUSH2 0xFC8 JUMPI POP PUSH1 0x2 SLOAD DUP3 GT JUMPDEST ISZERO PUSH2 0xFFF JUMPI PUSH1 0x40 MLOAD PUSH32 0xF9D6FDEC00000000000000000000000000000000000000000000000000000000 DUP2 MSTORE PUSH1 0x4 ADD PUSH1 0x40 MLOAD DUP1 SWAP2 SUB SWAP1 REVERT JUMPDEST PUSH1 0x0 DUP1 PUSH1 0x0 DUP5 DUP2 MSTORE PUSH1 0x20 ADD SWAP1 DUP2 MSTORE PUSH1 0x20 ADD PUSH1 0x0 KECCAK256 SWAP1 POP DUP1 PUSH1 0x1 ADD PUSH1 0x14 SWAP1 SLOAD SWAP1 PUSH2 0x100 EXP SWAP1 DIV PUSH1 0xFF AND PUSH2 0x105D JUMPI PUSH1 0x40 MLOAD PUSH32 0xC2F102CB00000000000000000000000000000000000000000000000000000000 DUP2 MSTORE PUSH1 0x4 ADD PUSH1 0x40 MLOAD DUP1 SWAP2 SUB SWAP1 REVERT JUMPDEST DUP1 PUSH1 0x5 ADD PUSH1 0x0 CALLER PUSH20 0xFFFFFFFFFFFFFFFFFFFFFFFFFFFFFFFFFFFFFFFF AND PUSH20 0xFFFFFFFFFFFFFFFFFFFFFFFFFFFFFFFFFFFFFFFF AND DUP2 MSTORE PUSH1 0x20 ADD SWAP1 DUP2 MSTORE PUSH1 0x20 ADD PUSH1 0x0 KECCAK256 PUSH1 0x0 SWAP1 SLOAD SWAP1 PUSH2 0x100 EXP SWAP1 DIV PUSH1 0xFF AND ISZERO PUSH2 0x10E3 JUMPI PUSH1 0x40 MLOAD PUSH32 0x7C9A1CF900000000000000000000000000000000000000000000000000000000 DUP2 MSTORE PUSH1 0x4 ADD PUSH1 0x40 MLOAD DUP1 SWAP2 SUB SWAP1 REVERT JUMPDEST DUP1 PUSH1 0x4 ADD DUP1 SLOAD SWAP1 POP DUP3 LT PUSH2 0x1123 JUMPI PUSH1 0x40 MLOAD PUSH32 0x2A71953100000000000000000000000000000000000000000000000000000000 DUP2 MSTORE PUSH1 0x4 ADD PUSH1 0x40 MLOAD DUP1 SWAP2 SUB SWAP1 REVERT JUMPDEST DUP1 PUSH1 0x4 ADD DUP3 DUP2 SLOAD DUP2 LT PUSH2 0x1139 JUMPI PUSH2 0x1138 PUSH2 0x1D70 JUMP JUMPDEST JUMPDEST SWAP1 PUSH1 0x0 MSTORE PUSH1 0x20 PUSH1 0x0 KECCAK256 SWAP1 PUSH1 0x2 MUL ADD PUSH1 0x1 ADD PUSH1 0x0 DUP2 SLOAD DUP1 SWAP3 SWAP2 SWAP1 PUSH2 0x115B SWAP1 PUSH2 0x1E70 JUMP JUMPDEST SWAP2 SWAP1 POP SSTORE POP DUP1 PUSH1 0x3 ADD PUSH1 0x0 DUP2 SLOAD DUP1 SWAP3 SWAP2 SWAP1 PUSH2 0x1175 SWAP1 PUSH2 0x1E70 JUMP JUMPDEST SWAP2 SWAP1 POP SSTORE POP PUSH1 0x1 DUP2 PUSH1 0x5 ADD PUSH1 0x0 CALLER PUSH20 0xFFFFFFFFFFFFFFFFFFFFFFFFFFFFFFFFFFFFFFFF AND PUSH20 0xFFFFFFFFFFFFFFFFFFFFFFFFFFFFFFFFFFFFFFFF AND DUP2 MSTORE PUSH1 0x20 ADD SWAP1 DUP2 MSTORE PUSH1 0x20 ADD PUSH1 0x0 KECCAK256 PUSH1 0x0 PUSH2 0x100 EXP DUP2 SLOAD DUP2 PUSH1 0xFF MUL NOT AND SWAP1 DUP4 ISZERO ISZERO MUL OR SWAP1 SSTORE POP DUP2 DUP2 PUSH1 0x6 ADD PUSH1 0x0 CALLER PUSH20 0xFFFFFFFFFFFFFFFFFFFFFFFFFFFFFFFFFFFFFFFF AND PUSH20 0xFFFFFFFFFFFFFFFFFFFFFFFFFFFFFFFFFFFFFFFF AND DUP2 MSTORE PUSH1 0x20 ADD SWAP1 DUP2 MSTORE PUSH1 0x20 ADD PUSH1 0x0 KECCAK256 DUP2 SWAP1 SSTORE POP CALLER PUSH20 0xFFFFFFFFFFFFFFFFFFFFFFFFFFFFFFFFFFFFFFFF AND DUP3 DUP5 PUSH32 0x5BA3A7D514D15226E18B7B8542E232F0D94B49BD54784785D294B57E17AD6C1 TIMESTAMP PUSH1 0x40 MLOAD PUSH2 0x1262 SWAP2 SWAP1 PUSH2 0x168D JUMP JUMPDEST PUSH1 0x40 MLOAD DUP1 SWAP2 SUB SWAP1 LOG4 POP POP POP JUMP JUMPDEST PUSH1 0x60 PUSH1 0x0 DUP1 DUP5 EQ DUP1 PUSH2 0x1282 JUMPI POP PUSH1 0x2 SLOAD DUP5 GT JUMPDEST ISZERO PUSH2 0x12B9 JUMPI PUSH1 0x40 MLOAD PUSH32 0xF9D6FDEC00000000000000000000000000000000000000000000000000000000 DUP2 MSTORE PUSH1 0x4 ADD PUSH1 0x40 MLOAD DUP1 SWAP2 SUB SWAP1 REVERT JUMPDEST PUSH1 0x0 DUP1 PUSH1 0x0 DUP7 DUP2 MSTORE PUSH1 0x20 ADD SWAP1 DUP2 MSTORE PUSH1 0x20 ADD PUSH1 0x0 KECCAK256 SWAP1 POP DUP1 PUSH1 0x4 ADD DUP1 SLOAD SWAP1 POP DUP5 LT PUSH2 0x130F JUMPI PUSH1 0x40 MLOAD PUSH32 0x2A71953100000000000000000000000000000000000000000000000000000000 DUP2 MSTORE PUSH1 0x4 ADD PUSH1 0x40 MLOAD DUP1 SWAP2 SUB SWAP1 REVERT JUMPDEST PUSH1 0x0 DUP2 PUSH1 0x4 ADD DUP6 DUP2 SLOAD DUP2 LT PUSH2 0x1327 JUMPI PUSH2 0x1326 PUSH2 0x1D70 JUMP JUMPDEST JUMPDEST SWAP1 PUSH1 0x0 MSTORE PUSH1 0x20 PUSH1 0x0 KECCAK256 SWAP1 PUSH1 0x2 MUL ADD SWAP1 POP DUP1 PUSH1 0x0 ADD DUP2 PUSH1 0x1 ADD SLOAD DUP2 DUP1 SLOAD PUSH2 0x134C SWAP1 PUSH2 0x1D3F JUMP JUMPDEST DUP1 PUSH1 0x1F ADD PUSH1 0x20 DUP1 SWAP2 DIV MUL PUSH1 0x20 ADD PUSH1 0x40 MLOAD SWAP1 DUP2 ADD PUSH1 0x40 MSTORE DUP1 SWAP3 SWAP2 SWAP1 DUP2 DUP2 MSTORE PUSH1 0x20 ADD DUP3 DUP1 SLOAD PUSH2 0x1378 SWAP1 PUSH2 0x1D3F JUMP JUMPDEST DUP1 ISZERO PUSH2 0x13C5 JUMPI DUP1 PUSH1 0x1F LT PUSH2 0x139A JUMPI PUSH2 0x100 DUP1 DUP4 SLOAD DIV MUL DUP4 MSTORE SWAP2 PUSH1 0x20 ADD SWAP2 PUSH2 0x13C5 JUMP JUMPDEST DUP3 ADD SWAP2 SWAP1 PUSH1 0x0 MSTORE PUSH1 0x20 PUSH1 0x0 KECCAK256 SWAP1 JUMPDEST DUP2 SLOAD DUP2 MSTORE SWAP1 PUSH1 0x1 ADD SWAP1 PUSH1 0x20 ADD DUP1 DUP4 GT PUSH2 0x13A8 JUMPI DUP3 SWAP1 SUB PUSH1 0x1F AND DUP3 ADD SWAP2 JUMPDEST POP POP POP POP POP SWAP2 POP SWAP4 POP SWAP4 POP POP POP SWAP3 POP SWAP3 SWAP1 POP JUMP JUMPDEST PUSH1 0x0 DUP1 DUP4 EQ DUP1 PUSH2 0x13EA JUMPI POP PUSH1 0x2 SLOAD DUP4 GT JUMPDEST ISZERO PUSH2 0x1421 JUMPI PUSH1 0x40 MLOAD PUSH32 0xF9D6FDEC00000000000000000000000000000000000000000000000000000000 DUP2 MSTORE PUSH1 0x4 ADD PUSH1 0x40 MLOAD DUP1 SWAP2 SUB SWAP1 REVERT JUMPDEST PUSH1 0x0 DUP1 DUP5 DUP2 MSTORE PUSH1 0x20 ADD SWAP1 DUP2 MSTORE PUSH1 0x20 ADD PUSH1 0x0 KECCAK256 PUSH1 0x5 ADD PUSH1 0x0 DUP4 PUSH20 0xFFFFFFFFFFFFFFFFFFFFFFFFFFFFFFFFFFFFFFFF AND PUSH20 0xFFFFFFFFFFFFFFFFFFFFFFFFFFFFFFFFFFFFFFFF AND DUP2 MSTORE PUSH1 0x20 ADD SWAP1 DUP2 MSTORE PUSH1 0x20 ADD PUSH1 0x0 KECCAK256 PUSH1 0x0 SWAP1 SLOAD SWAP1 PUSH2 0x100 EXP SWAP1 DIV PUSH1 0xFF AND SWAP1 POP SWAP3 SWAP2 POP POP JUMP JUMPDEST PUSH1 0x0 PUSH1 0x40 MLOAD SWAP1 POP SWAP1 JUMP JUMPDEST PUSH1 0x0 DUP1 REVERT JUMPDEST PUSH1 0x0 DUP1 REVERT JUMPDEST PUSH1 0x0 PUSH20 0xFFFFFFFFFFFFFFFFFFFFFFFFFFFFFFFFFFFFFFFF DUP3 AND SWAP1 POP SWAP2 SWAP1 POP JUMP JUMPDEST PUSH1 0x0 PUSH2 0x14C8 DUP3 PUSH2 0x149D JUMP JUMPDEST SWAP1 POP SWAP2 SWAP1 POP JUMP JUMPDEST PUSH2 0x14D8 DUP2 PUSH2 0x14BD JUMP JUMPDEST DUP2 EQ PUSH2 0x14E3 JUMPI PUSH1 0x0 DUP1 REVERT JUMPDEST POP JUMP JUMPDEST PUSH1 0x0 DUP2 CALLDATALOAD SWAP1 POP PUSH2 0x14F5 DUP2 PUSH2 0x14CF JUMP JUMPDEST SWAP3 SWAP2 POP POP JUMP JUMPDEST PUSH1 0x0 PUSH1 0x20 DUP3 DUP5 SUB SLT ISZERO PUSH2 0x1511 JUMPI PUSH2 0x1510 PUSH2 0x1493 JUMP JUMPDEST JUMPDEST PUSH1 0x0 PUSH2 0x151F DUP5 DUP3 DUP6 ADD PUSH2 0x14E6 JUMP JUMPDEST SWAP2 POP POP SWAP3 SWAP2 POP POP JUMP JUMPDEST PUSH1 0x0 DUP2 MLOAD SWAP1 POP SWAP2 SWAP1 POP JUMP JUMPDEST PUSH1 0x0 DUP3 DUP3 MSTORE PUSH1 0x20 DUP3 ADD SWAP1 POP SWAP3 SWAP2 POP POP JUMP JUMPDEST PUSH1 0x0 DUP2 SWAP1 POP PUSH1 0x20 DUP3 ADD SWAP1 POP SWAP2 SWAP1 POP JUMP JUMPDEST PUSH1 0x0 DUP2 SWAP1 POP SWAP2 SWAP1 POP JUMP JUMPDEST PUSH2 0x1567 DUP2 PUSH2 0x1554 JUMP JUMPDEST DUP3 MSTORE POP POP JUMP JUMPDEST PUSH1 0x0 PUSH2 0x1579 DUP4 DUP4 PUSH2 0x155E JUMP JUMPDEST PUSH1 0x20 DUP4 ADD SWAP1 POP SWAP3 SWAP2 POP POP JUMP JUMPDEST PUSH1 0x0 PUSH1 0x20 DUP3 ADD SWAP1 POP SWAP2 SWAP1 POP JUMP JUMPDEST PUSH1 0x0 PUSH2 0x159D DUP3 PUSH2 0x1528 JUMP JUMPDEST PUSH2 0x15A7 DUP2 DUP6 PUSH2 0x1533 JUMP JUMPDEST SWAP4 POP PUSH2 0x15B2 DUP4 PUSH2 0x1544 JUMP JUMPDEST DUP1 PUSH1 0x0 JUMPDEST DUP4 DUP2 LT ISZERO PUSH2 0x15E3 JUMPI DUP2 MLOAD PUSH2 0x15CA DUP9 DUP3 PUSH2 0x156D JUMP JUMPDEST SWAP8 POP PUSH2 0x15D5 DUP4 PUSH2 0x1585 JUMP JUMPDEST SWAP3 POP POP PUSH1 0x1 DUP2 ADD SWAP1 POP PUSH2 0x15B6 JUMP JUMPDEST POP DUP6 SWAP4 POP POP POP POP SWAP3 SWAP2 POP POP JUMP JUMPDEST PUSH1 0x0 PUSH1 0x20 DUP3 ADD SWAP1 POP DUP2 DUP2 SUB PUSH1 0x0 DUP4 ADD MSTORE PUSH2 0x160A DUP2 DUP5 PUSH2 0x1592 JUMP JUMPDEST SWAP1 POP SWAP3 SWAP2 POP POP JUMP JUMPDEST PUSH2 0x161B DUP2 PUSH2 0x1554 JUMP JUMPDEST DUP2 EQ PUSH2 0x1626 JUMPI PUSH1 0x0 DUP1 REVERT JUMPDEST POP JUMP JUMPDEST PUSH1 0x0 DUP2 CALLDATALOAD SWAP1 POP PUSH2 0x1638 DUP2 PUSH2 0x1612 JUMP JUMPDEST SWAP3 SWAP2 POP POP JUMP JUMPDEST PUSH1 0x0 DUP1 PUSH1 0x40 DUP4 DUP6 SUB SLT ISZERO PUSH2 0x1655 JUMPI PUSH2 0x1654 PUSH2 0x1493 JUMP JUMPDEST JUMPDEST PUSH1 0x0 PUSH2 0x1663 DUP6 DUP3 DUP7 ADD PUSH2 0x1629 JUMP JUMPDEST SWAP3 POP POP PUSH1 0x20 PUSH2 0x1674 DUP6 DUP3 DUP7 ADD PUSH2 0x14E6 JUMP JUMPDEST SWAP2 POP POP SWAP3 POP SWAP3 SWAP1 POP JUMP JUMPDEST PUSH2 0x1687 DUP2 PUSH2 0x1554 JUMP JUMPDEST DUP3 MSTORE POP POP JUMP JUMPDEST PUSH1 0x0 PUSH1 0x20 DUP3 ADD SWAP1 POP PUSH2 0x16A2 PUSH1 0x0 DUP4 ADD DUP5 PUSH2 0x167E JUMP JUMPDEST SWAP3 SWAP2 POP POP JUMP JUMPDEST PUSH1 0x0 PUSH1 0x20 DUP3 DUP5 SUB SLT ISZERO PUSH2 0x16BE JUMPI PUSH2 0x16BD PUSH2 0x1493 JUMP JUMPDEST JUMPDEST PUSH1 0x0 PUSH2 0x16CC DUP5 DUP3 DUP6 ADD PUSH2 0x1629 JUMP JUMPDEST SWAP2 POP POP SWAP3 SWAP2 POP POP JUMP JUMPDEST PUSH1 0x0 DUP2 MLOAD SWAP1 POP SWAP2 SWAP1 POP JUMP JUMPDEST PUSH1 0x0 DUP3 DUP3 MSTORE PUSH1 0x20 DUP3 ADD SWAP1 POP SWAP3 SWAP2 POP POP JUMP JUMPDEST PUSH1 0x0 JUMPDEST DUP4 DUP2 LT ISZERO PUSH2 0x170F JUMPI DUP1 DUP3 ADD MLOAD DUP2 DUP5 ADD MSTORE PUSH1 0x20 DUP2 ADD SWAP1 POP PUSH2 0x16F4 JUMP JUMPDEST PUSH1 0x0 DUP5 DUP5 ADD MSTORE POP POP POP POP JUMP JUMPDEST PUSH1 0x0 PUSH1 0x1F NOT PUSH1 0x1F DUP4 ADD AND SWAP1 POP SWAP2 SWAP1 POP JUMP JUMPDEST PUSH1 0x0 PUSH2 0x1737 DUP3 PUSH2 0x16D5 JUMP JUMPDEST PUSH2 0x1741 DUP2 DUP6 PUSH2 0x16E0 JUMP JUMPDEST SWAP4 POP PUSH2 0x1751 DUP2 DUP6 PUSH1 0x20 DUP7 ADD PUSH2 0x16F1 JUMP JUMPDEST PUSH2 0x175A DUP2 PUSH2 0x171B JUMP JUMPDEST DUP5 ADD SWAP2 POP POP SWAP3 SWAP2 POP POP JUMP JUMPDEST PUSH2 0x176E DUP2 PUSH2 0x14BD JUMP JUMPDEST DUP3 MSTORE POP POP JUMP JUMPDEST PUSH1 0x0 DUP2 ISZERO ISZERO SWAP1 POP SWAP2 SWAP1 POP JUMP JUMPDEST PUSH2 0x1789 DUP2 PUSH2 0x1774 JUMP JUMPDEST DUP3 MSTORE POP POP JUMP JUMPDEST PUSH1 0x0 PUSH1 0xC0 DUP3 ADD SWAP1 POP DUP2 DUP2 SUB PUSH1 0x0 DUP4 ADD MSTORE PUSH2 0x17A9 DUP2 DUP10 PUSH2 0x172C JUMP JUMPDEST SWAP1 POP PUSH2 0x17B8 PUSH1 0x20 DUP4 ADD DUP9 PUSH2 0x1765 JUMP JUMPDEST PUSH2 0x17C5 PUSH1 0x40 DUP4 ADD DUP8 PUSH2 0x1780 JUMP JUMPDEST PUSH2 0x17D2 PUSH1 0x60 DUP4 ADD DUP7 PUSH2 0x167E JUMP JUMPDEST PUSH2 0x17DF PUSH1 0x80 DUP4 ADD DUP6 PUSH2 0x167E JUMP JUMPDEST PUSH2 0x17EC PUSH1 0xA0 DUP4 ADD DUP5 PUSH2 0x167E JUMP JUMPDEST SWAP8 SWAP7 POP POP POP POP POP POP POP JUMP JUMPDEST PUSH1 0x0 DUP2 MLOAD SWAP1 POP SWAP2 SWAP1 POP JUMP JUMPDEST PUSH1 0x0 DUP3 DUP3 MSTORE PUSH1 0x20 DUP3 ADD SWAP1 POP SWAP3 SWAP2 POP POP JUMP JUMPDEST PUSH1 0x0 DUP2 SWAP1 POP PUSH1 0x20 DUP3 ADD SWAP1 POP SWAP2 SWAP1 POP JUMP JUMPDEST PUSH1 0x0 DUP3 DUP3 MSTORE PUSH1 0x20 DUP3 ADD SWAP1 POP SWAP3 SWAP2 POP POP JUMP JUMPDEST PUSH1 0x0 PUSH2 0x183F DUP3 PUSH2 0x16D5 JUMP JUMPDEST PUSH2 0x1849 DUP2 DUP6 PUSH2 0x1823 JUMP JUMPDEST SWAP4 POP PUSH2 0x1859 DUP2 DUP6 PUSH1 0x20 DUP7 ADD PUSH2 0x16F1 JUMP JUMPDEST PUSH2 0x1862 DUP2 PUSH2 0x171B JUMP JUMPDEST DUP5 ADD SWAP2 POP POP SWAP3 SWAP2 POP POP JUMP JUMPDEST PUSH1 0x0 PUSH2 0x1879 DUP4 DUP4 PUSH2 0x1834 JUMP JUMPDEST SWAP1 POP SWAP3 SWAP2 POP POP JUMP JUMPDEST PUSH1 0x0 PUSH1 0x20 DUP3 ADD SWAP1 POP SWAP2 SWAP1 POP JUMP JUMPDEST PUSH1 0x0 PUSH2 0x1899 DUP3 PUSH2 0x17F7 JUMP JUMPDEST PUSH2 0x18A3 DUP2 DUP6 PUSH2 0x1802 JUMP JUMPDEST SWAP4 POP DUP4 PUSH1 0x20 DUP3 MUL DUP6 ADD PUSH2 0x18B5 DUP6 PUSH2 0x1813 JUMP JUMPDEST DUP1 PUSH1 0x0 JUMPDEST DUP6 DUP2 LT ISZERO PUSH2 0x18F1 JUMPI DUP5 DUP5 SUB DUP10 MSTORE DUP2 MLOAD PUSH2 0x18D2 DUP6 DUP3 PUSH2 0x186D JUMP JUMPDEST SWAP5 POP PUSH2 0x18DD DUP4 PUSH2 0x1881 JUMP JUMPDEST SWAP3 POP PUSH1 0x20 DUP11 ADD SWAP10 POP POP PUSH1 0x1 DUP2 ADD SWAP1 POP PUSH2 0x18B9 JUMP JUMPDEST POP DUP3 SWAP8 POP DUP8 SWAP6 POP POP POP POP POP POP SWAP3 SWAP2 POP POP JUMP JUMPDEST PUSH1 0x0 PUSH1 0x60 DUP3 ADD SWAP1 POP DUP2 DUP2 SUB PUSH1 0x0 DUP4 ADD MSTORE PUSH2 0x191D DUP2 DUP7 PUSH2 0x188E JUMP JUMPDEST SWAP1 POP DUP2 DUP2 SUB PUSH1 0x20 DUP4 ADD MSTORE PUSH2 0x1931 DUP2 DUP6 PUSH2 0x1592 JUMP JUMPDEST SWAP1 POP DUP2 DUP2 SUB PUSH1 0x40 DUP4 ADD MSTORE PUSH2 0x1945 DUP2 DUP5 PUSH2 0x1592 JUMP JUMPDEST SWAP1 POP SWAP5 SWAP4 POP POP POP POP JUMP JUMPDEST PUSH1 0x0 PUSH1 0x40 DUP3 ADD SWAP1 POP DUP2 DUP2 SUB PUSH1 0x0 DUP4 ADD MSTORE PUSH2 0x1969 DUP2 DUP6 PUSH2 0x188E JUMP JUMPDEST SWAP1 POP DUP2 DUP2 SUB PUSH1 0x20 DUP4 ADD MSTORE PUSH2 0x197D DUP2 DUP5 PUSH2 0x1592 JUMP JUMPDEST SWAP1 POP SWAP4 SWAP3 POP POP POP JUMP JUMPDEST PUSH1 0x0 DUP1 REVERT JUMPDEST PUSH1 0x0 DUP1 REVERT JUMPDEST PUSH32 0x4E487B7100000000000000000000000000000000000000000000000000000000 PUSH1 0x0 MSTORE PUSH1 0x41 PUSH1 0x4 MSTORE PUSH1 0x24 PUSH1 0x0 REVERT JUMPDEST PUSH2 0x19C8 DUP3 PUSH2 0x171B JUMP JUMPDEST DUP2 ADD DUP2 DUP2 LT PUSH8 0xFFFFFFFFFFFFFFFF DUP3 GT OR ISZERO PUSH2 0x19E7 JUMPI PUSH2 0x19E6 PUSH2 0x1990 JUMP JUMPDEST JUMPDEST DUP1 PUSH1 0x40 MSTORE POP POP POP JUMP JUMPDEST PUSH1 0x0 PUSH2 0x19FA PUSH2 0x1489 JUMP JUMPDEST SWAP1 POP PUSH2 0x1A06 DUP3 DUP3 PUSH2 0x19BF JUMP JUMPDEST SWAP2 SWAP1 POP JUMP JUMPDEST PUSH1 0x0 PUSH8 0xFFFFFFFFFFFFFFFF DUP3 GT ISZERO PUSH2 0x1A26 JUMPI PUSH2 0x1A25 PUSH2 0x1990 JUMP JUMPDEST JUMPDEST PUSH2 0x1A2F DUP3 PUSH2 0x171B JUMP JUMPDEST SWAP1 POP PUSH1 0x20 DUP2 ADD SWAP1 POP SWAP2 SWAP1 POP JUMP JUMPDEST DUP3 DUP2 DUP4 CALLDATACOPY PUSH1 0x0 DUP4 DUP4 ADD MSTORE POP POP POP JUMP JUMPDEST PUSH1 0x0 PUSH2 0x1A5E PUSH2 0x1A59 DUP5 PUSH2 0x1A0B JUMP JUMPDEST PUSH2 0x19F0 JUMP JUMPDEST SWAP1 POP DUP3 DUP2 MSTORE PUSH1 0x20 DUP2 ADD DUP5 DUP5 DUP5 ADD GT ISZERO PUSH2 0x1A7A JUMPI PUSH2 0x1A79 PUSH2 0x198B JUMP JUMPDEST JUMPDEST PUSH2 0x1A85 DUP5 DUP3 DUP6 PUSH2 0x1A3C JUMP JUMPDEST POP SWAP4 SWAP3 POP POP POP JUMP JUMPDEST PUSH1 0x0 DUP3 PUSH1 0x1F DUP4 ADD SLT PUSH2 0x1AA2 JUMPI PUSH2 0x1AA1 PUSH2 0x1986 JUMP JUMPDEST JUMPDEST DUP2 CALLDATALOAD PUSH2 0x1AB2 DUP5 DUP3 PUSH1 0x20 DUP7 ADD PUSH2 0x1A4B JUMP JUMPDEST SWAP2 POP POP SWAP3 SWAP2 POP POP JUMP JUMPDEST PUSH1 0x0 PUSH8 0xFFFFFFFFFFFFFFFF DUP3 GT ISZERO PUSH2 0x1AD6 JUMPI PUSH2 0x1AD5 PUSH2 0x1990 JUMP JUMPDEST JUMPDEST PUSH1 0x20 DUP3 MUL SWAP1 POP PUSH1 0x20 DUP2 ADD SWAP1 POP SWAP2 SWAP1 POP JUMP JUMPDEST PUSH1 0x0 DUP1 REVERT JUMPDEST PUSH1 0x0 PUSH2 0x1AFF PUSH2 0x1AFA DUP5 PUSH2 0x1ABB JUMP JUMPDEST PUSH2 0x19F0 JUMP JUMPDEST SWAP1 POP DUP1 DUP4 DUP3 MSTORE PUSH1 0x20 DUP3 ADD SWAP1 POP PUSH1 0x20 DUP5 MUL DUP4 ADD DUP6 DUP2 GT ISZERO PUSH2 0x1B22 JUMPI PUSH2 0x1B21 PUSH2 0x1AE7 JUMP JUMPDEST JUMPDEST DUP4 JUMPDEST DUP2 DUP2 LT ISZERO PUSH2 0x1B69 JUMPI DUP1 CALLDATALOAD PUSH8 0xFFFFFFFFFFFFFFFF DUP2 GT ISZERO PUSH2 0x1B47 JUMPI PUSH2 0x1B46 PUSH2 0x1986 JUMP JUMPDEST JUMPDEST DUP1 DUP7 ADD PUSH2 0x1B54 DUP10 DUP3 PUSH2 0x1A8D JUMP JUMPDEST DUP6 MSTORE PUSH1 0x20 DUP6 ADD SWAP5 POP POP POP PUSH1 0x20 DUP2 ADD SWAP1 POP PUSH2 0x1B24 JUMP JUMPDEST POP POP POP SWAP4 SWAP3 POP POP POP JUMP JUMPDEST PUSH1 0x0 DUP3 PUSH1 0x1F DUP4 ADD SLT PUSH2 0x1B88 JUMPI PUSH2 0x1B87 PUSH2 0x1986 JUMP JUMPDEST JUMPDEST DUP2 CALLDATALOAD PUSH2 0x1B98 DUP5 DUP3 PUSH1 0x20 DUP7 ADD PUSH2 0x1AEC JUMP JUMPDEST SWAP2 POP POP SWAP3 SWAP2 POP POP JUMP JUMPDEST PUSH1 0x0 DUP1 PUSH1 0x40 DUP4 DUP6 SUB SLT ISZERO PUSH2 0x1BB8 JUMPI PUSH2 0x1BB7 PUSH2 0x1493 JUMP JUMPDEST JUMPDEST PUSH1 0x0 DUP4 ADD CALLDATALOAD PUSH8 0xFFFFFFFFFFFFFFFF DUP2 GT ISZERO PUSH2 0x1BD6 JUMPI PUSH2 0x1BD5 PUSH2 0x1498 JUMP JUMPDEST JUMPDEST PUSH2 0x1BE2 DUP6 DUP3 DUP7 ADD PUSH2 0x1A8D JUMP JUMPDEST SWAP3 POP POP PUSH1 0x20 DUP4 ADD CALLDATALOAD PUSH8 0xFFFFFFFFFFFFFFFF DUP2 GT ISZERO PUSH2 0x1C03 JUMPI PUSH2 0x1C02 PUSH2 0x1498 JUMP JUMPDEST JUMPDEST PUSH2 0x1C0F DUP6 DUP3 DUP7 ADD PUSH2 0x1B73 JUMP JUMPDEST SWAP2 POP POP SWAP3 POP SWAP3 SWAP1 POP JUMP JUMPDEST PUSH1 0x0 DUP1 PUSH1 0x40 DUP4 DUP6 SUB SLT ISZERO PUSH2 0x1C30 JUMPI PUSH2 0x1C2F PUSH2 0x1493 JUMP JUMPDEST JUMPDEST PUSH1 0x0 PUSH2 0x1C3E DUP6 DUP3 DUP7 ADD PUSH2 0x1629 JUMP JUMPDEST SWAP3 POP POP PUSH1 0x20 PUSH2 0x1C4F DUP6 DUP3 DUP7 ADD PUSH2 0x1629 JUMP JUMPDEST SWAP2 POP POP SWAP3 POP SWAP3 SWAP1 POP JUMP JUMPDEST PUSH1 0x0 PUSH1 0x40 DUP3 ADD SWAP1 POP DUP2 DUP2 SUB PUSH1 0x0 DUP4 ADD MSTORE PUSH2 0x1C73 DUP2 DUP6 PUSH2 0x172C JUMP JUMPDEST SWAP1 POP PUSH2 0x1C82 PUSH1 0x20 DUP4 ADD DUP5 PUSH2 0x167E JUMP JUMPDEST SWAP4 SWAP3 POP POP POP JUMP JUMPDEST PUSH1 0x0 PUSH1 0x20 DUP3 ADD SWAP1 POP PUSH2 0x1C9E PUSH1 0x0 DUP4 ADD DUP5 PUSH2 0x1780 JUMP JUMPDEST SWAP3 SWAP2 POP POP JUMP JUMPDEST PUSH32 0x5573657220686173206E6F7420766F7465640000000000000000000000000000 PUSH1 0x0 DUP3 ADD MSTORE POP JUMP JUMPDEST PUSH1 0x0 PUSH2 0x1CDA PUSH1 0x12 DUP4 PUSH2 0x16E0 JUMP JUMPDEST SWAP2 POP PUSH2 0x1CE5 DUP3 PUSH2 0x1CA4 JUMP JUMPDEST PUSH1 0x20 DUP3 ADD SWAP1 POP SWAP2 SWAP1 POP JUMP JUMPDEST PUSH1 0x0 PUSH1 0x20 DUP3 ADD SWAP1 POP DUP2 DUP2 SUB PUSH1 0x0 DUP4 ADD MSTORE PUSH2 0x1D09 DUP2 PUSH2 0x1CCD JUMP JUMPDEST SWAP1 POP SWAP2 SWAP1 POP JUMP JUMPDEST PUSH32 0x4E487B7100000000000000000000000000000000000000000000000000000000 PUSH1 0x0 MSTORE PUSH1 0x22 PUSH1 0x4 MSTORE PUSH1 0x24 PUSH1 0x0 REVERT JUMPDEST PUSH1 0x0 PUSH1 0x2 DUP3 DIV SWAP1 POP PUSH1 0x1 DUP3 AND DUP1 PUSH2 0x1D57 JUMPI PUSH1 0x7F DUP3 AND SWAP2 POP JUMPDEST PUSH1 0x20 DUP3 LT DUP2 SUB PUSH2 0x1D6A JUMPI PUSH2 0x1D69 PUSH2 0x1D10 JUMP JUMPDEST JUMPDEST POP SWAP2 SWAP1 POP JUMP JUMPDEST PUSH32 0x4E487B7100000000000000000000000000000000000000000000000000000000 PUSH1 0x0 MSTORE PUSH1 0x32 PUSH1 0x4 MSTORE PUSH1 0x24 PUSH1 0x0 REVERT JUMPDEST PUSH32 0x4E487B7100000000000000000000000000000000000000000000000000000000 PUSH1 0x0 MSTORE PUSH1 0x11 PUSH1 0x4 MSTORE PUSH1 0x24 PUSH1 0x0 REVERT JUMPDEST PUSH1 0x0 PUSH2 0x1DD9 DUP3 PUSH2 0x1554 JUMP JUMPDEST SWAP2 POP PUSH2 0x1DE4 DUP4 PUSH2 0x1554 JUMP JUMPDEST SWAP3 POP DUP3 DUP3 MUL PUSH2 0x1DF2 DUP2 PUSH2 0x1554 JUMP JUMPDEST SWAP2 POP DUP3 DUP3 DIV DUP5 EQ DUP4 ISZERO OR PUSH2 0x1E09 JUMPI PUSH2 0x1E08 PUSH2 0x1D9F JUMP JUMPDEST JUMPDEST POP SWAP3 SWAP2 POP POP JUMP JUMPDEST PUSH32 0x4E487B7100000000000000000000000000000000000000000000000000000000 PUSH1 0x0 MSTORE PUSH1 0x12 PUSH1 0x4 MSTORE PUSH1 0x24 PUSH1 0x0 REVERT JUMPDEST PUSH1 0x0 PUSH2 0x1E4A DUP3 PUSH2 0x1554 JUMP JUMPDEST SWAP2 POP PUSH2 0x1E55 DUP4 PUSH2 0x1554 JUMP JUMPDEST SWAP3 POP DUP3 PUSH2 0x1E65 JUMPI PUSH2 0x1E64 PUSH2 0x1E10 JUMP JUMPDEST JUMPDEST DUP3 DUP3 DIV SWAP1 POP SWAP3 SWAP2 POP POP JUMP JUMPDEST PUSH1 0x0 PUSH2 0x1E7B DUP3 PUSH2 0x1554 JUMP JUMPDEST SWAP2 POP PUSH32 0xFFFFFFFFFFFFFFFFFFFFFFFFFFFFFFFFFFFFFFFFFFFFFFFFFFFFFFFFFFFFFFFF DUP3 SUB PUSH2 0x1EAD JUMPI PUSH2 0x1EAC PUSH2 0x1D9F JUMP JUMPDEST JUMPDEST PUSH1 0x1 DUP3 ADD SWAP1 POP SWAP2 SWAP1 POP JUMP JUMPDEST PUSH1 0x0 DUP2 SWAP1 POP DUP2 PUSH1 0x0 MSTORE PUSH1 0x20 PUSH1 0x0 KECCAK256 SWAP1 POP SWAP2 SWAP1 POP JUMP JUMPDEST PUSH1 0x0 PUSH1 0x20 PUSH1 0x1F DUP4 ADD DIV SWAP1 POP SWAP2 SWAP1 POP JUMP JUMPDEST PUSH1 0x0 DUP3 DUP3 SHL SWAP1 POP SWAP3 SWAP2 POP POP JUMP JUMPDEST PUSH1 0x0 PUSH1 0x8 DUP4 MUL PUSH2 0x1F1A PUSH32 0xFFFFFFFFFFFFFFFFFFFFFFFFFFFFFFFFFFFFFFFFFFFFFFFFFFFFFFFFFFFFFFFF DUP3 PUSH2 0x1EDD JUMP JUMPDEST PUSH2 0x1F24 DUP7 DUP4 PUSH2 0x1EDD JUMP JUMPDEST SWAP6 POP DUP1 NOT DUP5 AND SWAP4 POP DUP1 DUP7 AND DUP5 OR SWAP3 POP POP POP SWAP4 SWAP3 POP POP POP JUMP JUMPDEST PUSH1 0x0 DUP2 SWAP1 POP SWAP2 SWAP1 POP JUMP JUMPDEST PUSH1 0x0 PUSH2 0x1F61 PUSH2 0x1F5C PUSH2 0x1F57 DUP5 PUSH2 0x1554 JUMP JUMPDEST PUSH2 0x1F3C JUMP JUMPDEST PUSH2 0x1554 JUMP JUMPDEST SWAP1 POP SWAP2 SWAP1 POP JUMP JUMPDEST PUSH1 0x0 DUP2 SWAP1 POP SWAP2 SWAP1 POP JUMP JUMPDEST PUSH2 0x1F7B DUP4 PUSH2 0x1F46 JUMP JUMPDEST PUSH2 0x1F8F PUSH2 0x1F87 DUP3 PUSH2 0x1F68 JUMP JUMPDEST DUP5 DUP5 SLOAD PUSH2 0x1EEA JUMP JUMPDEST DUP3 SSTORE POP POP POP POP JUMP JUMPDEST PUSH1 0x0 SWAP1 JUMP JUMPDEST PUSH2 0x1FA4 PUSH2 0x1F97 JUMP JUMPDEST PUSH2 0x1FAF DUP2 DUP5 DUP5 PUSH2 0x1F72 JUMP JUMPDEST POP POP POP JUMP JUMPDEST JUMPDEST DUP2 DUP2 LT ISZERO PUSH2 0x1FD3 JUMPI PUSH2 0x1FC8 PUSH1 0x0 DUP3 PUSH2 0x1F9C JUMP JUMPDEST PUSH1 0x1 DUP2 ADD SWAP1 POP PUSH2 0x1FB5 JUMP JUMPDEST POP POP JUMP JUMPDEST PUSH1 0x1F DUP3 GT ISZERO PUSH2 0x2018 JUMPI PUSH2 0x1FE9 DUP2 PUSH2 0x1EB8 JUMP JUMPDEST PUSH2 0x1FF2 DUP5 PUSH2 0x1ECD JUMP JUMPDEST DUP2 ADD PUSH1 0x20 DUP6 LT ISZERO PUSH2 0x2001 JUMPI DUP2 SWAP1 POP JUMPDEST PUSH2 0x2015 PUSH2 0x200D DUP6 PUSH2 0x1ECD JUMP JUMPDEST DUP4 ADD DUP3 PUSH2 0x1FB4 JUMP JUMPDEST POP POP JUMPDEST POP POP POP JUMP JUMPDEST PUSH1 0x0 DUP3 DUP3 SHR SWAP1 POP SWAP3 SWAP2 POP POP JUMP JUMPDEST PUSH1 0x0 PUSH2 0x203B PUSH1 0x0 NOT DUP5 PUSH1 0x8 MUL PUSH2 0x201D JUMP JUMPDEST NOT DUP1 DUP4 AND SWAP2 POP POP SWAP3 SWAP2 POP POP JUMP JUMPDEST PUSH1 0x0 PUSH2 0x2054 DUP4 DUP4 PUSH2 0x202A JUMP JUMPDEST SWAP2 POP DUP3 PUSH1 0x2 MUL DUP3 OR SWAP1 POP SWAP3 SWAP2 POP POP JUMP JUMPDEST PUSH2 0x206D DUP3 PUSH2 0x16D5 JUMP JUMPDEST PUSH8 0xFFFFFFFFFFFFFFFF DUP2 GT ISZERO PUSH2 0x2086 JUMPI PUSH2 0x2085 PUSH2 0x1990 JUMP JUMPDEST JUMPDEST PUSH2 0x2090 DUP3 SLOAD PUSH2 0x1D3F JUMP JUMPDEST PUSH2 0x209B DUP3 DUP3 DUP6 PUSH2 0x1FD7 JUMP JUMPDEST PUSH1 0x0 PUSH1 0x20 SWAP1 POP PUSH1 0x1F DUP4 GT PUSH1 0x1 DUP2 EQ PUSH2 0x20CE JUMPI PUSH1 0x0 DUP5 ISZERO PUSH2 0x20BC JUMPI DUP3 DUP8 ADD MLOAD SWAP1 POP JUMPDEST PUSH2 0x20C6 DUP6 DUP3 PUSH2 0x2048 JUMP JUMPDEST DUP7 SSTORE POP PUSH2 0x212E JUMP JUMPDEST PUSH1 0x1F NOT DUP5 AND PUSH2 0x20DC DUP7 PUSH2 0x1EB8 JUMP JUMPDEST PUSH1 0x0 JUMPDEST DUP3 DUP2 LT ISZERO PUSH2 0x2104 JUMPI DUP5 DUP10 ADD MLOAD DUP3 SSTORE PUSH1 0x1 DUP3 ADD SWAP2 POP PUSH1 0x20 DUP6 ADD SWAP5 POP PUSH1 0x20 DUP2 ADD SWAP1 POP PUSH2 0x20DF JUMP JUMPDEST DUP7 DUP4 LT ISZERO PUSH2 0x2121 JUMPI DUP5 DUP10 ADD MLOAD PUSH2 0x211D PUSH1 0x1F DUP10 AND DUP3 PUSH2 0x202A JUMP JUMPDEST DUP4 SSTORE POP JUMPDEST PUSH1 0x1 PUSH1 0x2 DUP9 MUL ADD DUP9 SSTORE POP POP POP JUMPDEST POP POP POP POP POP POP JUMP INVALID LOG2 PUSH5 0x6970667358 0x22 SLT KECCAK256 EQ SWAP14 0xC5 PUSH2 0x9D66 0x4E DUP12 0xBB 0xFC PUSH10 0xD4CC48EBAD25726569FF 0xB7 0xA7 0xAC 0xCE REVERT DUP1 SWAP14 DELEGATECALL KECCAK256 PUSH3 0x7D6473 PUSH16 0x6C634300081300330000000000000000 "
		},
		"gasEstimates": {
			"creation": {
				"codeDepositCost": "1711200",
				"executionCost": "1799",
				"totalCost": "1712999"
			},
			"external": {
				"createPoll(string,string[])": "infinite",
				"finishPoll(uint256)": "infinite",
				"getAllPollOptions(uint256)": "infinite",
				"getPollInfo(uint256)": "infinite",
				"getPollOption(uint256,uint256)": "infinite",
				"getPollResults(uint256)": "infinite",
				"getTotalPolls()": "2437",
				"getUserPolls(address)": "infinite",
				"getVoterChoice(uint256,address)": "infinite",
				"hasUserVoted(uint256,address)": "5404",
				"vote(uint256,uint256)": "infinite"
			}
		},
		"methodIdentifiers": {
			"createPoll(string,string[])": "7e3d71c3",
			"finishPoll(uint256)": "29c47709",
			"getAllPollOptions(uint256)": "728d4388",
			"getPollInfo(uint256)": "29b8f44a",
			"getPollOption(uint256,uint256)": "c4bd10d9",
			"getPollResults(uint256)": "33b4097b",
			"getTotalPolls()": "3ef87d54",
			"getUserPolls(address)": "07f790e7",
			"getVoterChoice(uint256,address)": "0eac27f4",
			"hasUserVoted(uint256,address)": "dc296ae1",
			"vote(uint256,uint256)": "b384abef"
		}
	},
	"abi": [
		{
			"inputs": [],
			"name": "AlreadyVoted",
			"type": "error"
		},
		{
			"inputs": [],
			"name": "EmptyOption",
			"type": "error"
		},
		{
			"inputs": [],
			"name": "EmptyTitle",
			"type": "error"
		},
		{
			"inputs": [],
			"name": "InvalidOption",
			"type": "error"
		},
		{
			"inputs": [],
			"name": "InvalidOptionsCount",
			"type": "error"
		},
		{
			"inputs": [],
			"name": "NotPollCreator",
			"type": "error"
		},
		{
			"inputs": [],
			"name": "PollAlreadyFinished",
			"type": "error"
		},
		{
			"inputs": [],
			"name": "PollInactive",
			"type": "error"
		},
		{
			"inputs": [],
			"name": "PollNotFound",
			"type": "error"
		},
		{
			"anonymous": false,
			"inputs": [
				{
					"indexed": true,
					"internalType": "uint256",
					"name": "pollId",
					"type": "uint256"
				},
				{
					"indexed": false,
					"internalType": "string",
					"name": "title",
					"type": "string"
				},
				{
					"indexed": true,
					"internalType": "address",
					"name": "creator",
					"type": "address"
				},
				{
					"indexed": false,
					"internalType": "uint256",
					"name": "timestamp",
					"type": "uint256"
				}
			],
			"name": "PollCreated",
			"type": "event"
		},
		{
			"anonymous": false,
			"inputs": [
				{
					"indexed": true,
					"internalType": "uint256",
					"name": "pollId",
					"type": "uint256"
				},
				{
					"indexed": true,
					"internalType": "address",
					"name": "creator",
					"type": "address"
				},
				{
					"indexed": false,
					"internalType": "uint256",
					"name": "timestamp",
					"type": "uint256"
				}
			],
			"name": "PollFinished",
			"type": "event"
		},
		{
			"anonymous": false,
			"inputs": [
				{
					"indexed": true,
					"internalType": "uint256",
					"name": "pollId",
					"type": "uint256"
				},
				{
					"indexed": true,
					"internalType": "uint256",
					"name": "optionIndex",
					"type": "uint256"
				},
				{
					"indexed": true,
					"internalType": "address",
					"name": "voter",
					"type": "address"
				},
				{
					"indexed": false,
					"internalType": "uint256",
					"name": "timestamp",
					"type": "uint256"
				}
			],
			"name": "VoteRegistered",
			"type": "event"
		},
		{
			"inputs": [
				{
					"internalType": "string",
					"name": "_title",
					"type": "string"
				},
				{
					"internalType": "string[]",
					"name": "_options",
					"type": "string[]"
				}
			],
			"name": "createPoll",
			"outputs": [
				{
					"internalType": "uint256",
					"name": "",
					"type": "uint256"
				}
			],
			"stateMutability": "nonpayable",
			"type": "function"
		},
		{
			"inputs": [
				{
					"internalType": "uint256",
					"name": "_pollId",
					"type": "uint256"
				}
			],
			"name": "finishPoll",
			"outputs": [],
			"stateMutability": "nonpayable",
			"type": "function"
		},
		{
			"inputs": [
				{
					"internalType": "uint256",
					"name": "_pollId",
					"type": "uint256"
				}
			],
			"name": "getAllPollOptions",
			"outputs": [
				{
					"internalType": "string[]",
					"name": "descriptions",
					"type": "string[]"
				},
				{
					"internalType": "uint256[]",
					"name": "voteCounts",
					"type": "uint256[]"
				}
			],
			"stateMutability": "view",
			"type": "function"
		},
		{
			"inputs": [
				{
					"internalType": "uint256",
					"name": "_pollId",
					"type": "uint256"
				}
			],
			"name": "getPollInfo",
			"outputs": [
				{
					"internalType": "string",
					"name": "title",
					"type": "string"
				},
				{
					"internalType": "address",
					"name": "creator",
					"type": "address"
				},
				{
					"internalType": "bool",
					"name": "isActive",
					"type": "bool"
				},
				{
					"internalType": "uint256",
					"name": "optionsCount",
					"type": "uint256"
				},
				{
					"internalType": "uint256",
					"name": "totalVotes",
					"type": "uint256"
				},
				{
					"internalType": "uint256",
					"name": "createdAt",
					"type": "uint256"
				}
			],
			"stateMutability": "view",
			"type": "function"
		},
		{
			"inputs": [
				{
					"internalType": "uint256",
					"name": "_pollId",
					"type": "uint256"
				},
				{
					"internalType": "uint256",
					"name": "_optionIndex",
					"type": "uint256"
				}
			],
			"name": "getPollOption",
			"outputs": [
				{
					"internalType": "string",
					"name": "description",
					"type": "string"
				},
				{
					"internalType": "uint256",
					"name": "voteCount",
					"type": "uint256"
				}
			],
			"stateMutability": "view",
			"type": "function"
		},
		{
			"inputs": [
				{
					"internalType": "uint256",
					"name": "_pollId",
					"type": "uint256"
				}
			],
			"name": "getPollResults",
			"outputs": [
				{
					"internalType": "string[]",
					"name": "descriptions",
					"type": "string[]"
				},
				{
					"internalType": "uint256[]",
					"name": "voteCounts",
					"type": "uint256[]"
				},
				{
					"internalType": "uint256[]",
					"name": "percentages",
					"type": "uint256[]"
				}
			],
			"stateMutability": "view",
			"type": "function"
		},
		{
			"inputs": [],
			"name": "getTotalPolls",
			"outputs": [
				{
					"internalType": "uint256",
					"name": "",
					"type": "uint256"
				}
			],
			"stateMutability": "view",
			"type": "function"
		},
		{
			"inputs": [
				{
					"internalType": "address",
					"name": "_creator",
					"type": "address"
				}
			],
			"name": "getUserPolls",
			"outputs": [
				{
					"internalType": "uint256[]",
					"name": "",
					"type": "uint256[]"
				}
			],
			"stateMutability": "view",
			"type": "function"
		},
		{
			"inputs": [
				{
					"internalType": "uint256",
					"name": "_pollId",
					"type": "uint256"
				},
				{
					"internalType": "address",
					"name": "_voter",
					"type": "address"
				}
			],
			"name": "getVoterChoice",
			"outputs": [
				{
					"internalType": "uint256",
					"name": "",
					"type": "uint256"
				}
			],
			"stateMutability": "view",
			"type": "function"
		},
		{
			"inputs": [
				{
					"internalType": "uint256",
					"name": "_pollId",
					"type": "uint256"
				},
				{
					"internalType": "address",
					"name": "_voter",
					"type": "address"
				}
			],
			"name": "hasUserVoted",
			"outputs": [
				{
					"internalType": "bool",
					"name": "",
					"type": "bool"
				}
			],
			"stateMutability": "view",
			"type": "function"
		},
		{
			"inputs": [
				{
					"internalType": "uint256",
					"name": "_pollId",
					"type": "uint256"
				},
				{
					"internalType": "uint256",
					"name": "_optionIndex",
					"type": "uint256"
				}
			],
			"name": "vote",
			"outputs": [],
			"stateMutability": "nonpayable",
			"type": "function"
		}
	]
}